:02000002B0004C
:1040000000400B0060A10B00000006000C00050240
:0840100004010410000000008F
:044018006C9A0B0093
:1040200009480A49884208B505D0094A824202D0A7
:10403000121A05F0DDFB0748074A0021121A05F0A5
:10404000E5FB014808BD00BF80DF032078A00B001E
:1040500040E0032040E00320EDE7032070B5074E69
:10406000074C04F025F9A41BA4080025AC4200D19C
:1040700070BD56F8043B98470135F7E724A00B00C4
:1040800048A00B0000F090B808B500F0FFF8BDE8BC
:10409000084004F0C5B803F001BD03F0FFBC03F015
:1040A00005BD0078B0FA80F0400970470123037025
:1040B00070477047037C13F008031EBFC36A406A51
:1040C0001B1A002BACBF18466FF0004070477047BA
:1040D000103002F0B7B807B501228DF80710103084
:1040E0000DF1070102F0AEF803B05DF804FB1030EB
:1040F00001F048BF103001F029BE07B501220DF1D3
:104100000701103001F074FD01280CBF9DF8070075
:104110004FF0FF3003B05DF804FB10B510210446EA
:10412000FFF7BDFF204610BD10B534210446FFF750
:10413000B6FF204610BD0EB403B503AB002153F803
:10414000042B019303F03CFF02B05DF804EB03B0D5
:104150007047000073B5044608462279A36832B15F
:10416000A3B90B4902B0BDE8704003F00BBE094A89
:10417000267B094D0949647B012E18BF2946CDE9EC
:1041800000140749FFF7D7FF02B070BD054AEFE7FB
:10419000919A0B00339B0B008D9A0B00899A0B00B0
:1041A000A79A0B00809A0B0008B504F08FF94FF422
:1041B000165104F079F904F089F904F07CF918B982
:1041C000012004F001F8F6E704F036FC0023024673
:1041D0003921254802F08CFD40B904F077F92349D4
:1041E00003F0E3FD0A2003F0EFFFFBE764211E4824
:1041F00002F056FE40F2E7311B4802F076FE1A4804
:10420000092102F099FE1A4803F072F828B904F067
:104210005DF9184903F0C9FDFEE7154803F06AF897
:1042200020B904F053F9144903F0BFFD04F004FC75
:1042300058210246114803F0A6F940B904F046F9A6
:104240000F4903F0B2FD0A2003F0BEFFFBE704F0C4
:104250003DF90C4903F0A9FD0B4B084819780122E0
:10426000BDE8084003F034B9E0E40320C49A0B0031
:1042700074E60320DA9A0B00EC9A0B0008E50320A1
:10428000009B0B00209B0B004CE00320F0B52DEDB4
:104290000A8B95B0684603F04EF804F017F99DF8C4
:1042A0000010594D0A2201F5FA6103F088FD04F06F
:1042B0000DF92F2103F06AFD04F008F90A229DF898
:1042C000011003F07CFD04F001F92F2103F05EFDE5
:1042D00004F0FCF80A229DF8021003F070FD04F0CF
:1042E000F5F84A4903F04EFD04F0F0F8044668463C
:1042F00002F0E8FF01B201EB410105EB810120462C
:1043000003F040FD04F0E2F8414903F03BFD04F006
:10431000DDF80A229DF8031003F051FD04F0D6F8F1
:104320003A2103F033FD04F0D1F80A229DF804107D
:1043300003F045FD04F0CAF83A2103F027FD04F02C
:10434000C5F89DF805100A2203F039FD04F0BEF807
:1043500003F01FFD9DF800102E480A2201F5FA61B6
:1043600003F02DFD2F212B4803F010FD0A229DF8AC
:104370000110284803F023FD2F21264803F006FDF5
:104380000A229DF80210234803F019FD1F49214815
:1043900003F0F8FC684602F095FF00B200EB400025
:1043A00005EB80011B4803F0EDFC1949194803F0A7
:1043B000E9FC0A229DF80310164803F000FD3A219B
:1043C000144803F0E3FC0A229DF80410114803F09E
:1043D000F6FC3A210F4803F0D9FC9DF805100D4872
:1043E0000A2203F0ECFC0B4803F0D3FC0A4802A9B4
:1043F00002F00FFFA0B904F069F8084903F0D5FCFA
:1044000015B0BDEC0A8BF0BD80DF03202E9B0B00A6
:10441000319B0B0040E50320E0E40320349B0B00BC
:104420009E4F02AD08AEFC24012C05D929883846E0
:1044300002F0AAFD86ED000A0134E4B2082C05F171
:10444000020506F10406EFD1954C96482178012229
:1044500003F024F804F03AF8934903F0A6FC04F0C2
:1044600035F803F096FC9049904803F09EFC8F4885
:1044700003F08FFC642003F0A7FE04F027F88C49BA
:1044800003F080FC04F022F8DDED08CA0221B0EE52
:104490006C0A03F086FD04F019F8864903F072FCFB
:1044A00004F014F89DED09CA0221B0EE4C0A03F0A5
:1044B00078FD04F00BF8804903F064FC04F006F882
:1044C000DDED0ABA0221B0EE6B0A03F06AFD03F0DB
:1044D000FDFF7A4903F056FC03F0F8FF9DED0BBA9F
:1044E0000221B0EE4B0A03F05CFD03F0EFFF7449CC
:1044F00003F048FC03F0EAFFDDED0EAA0221B0EE66
:104500006A0A03F04EFD03F0E1FF6E4903F03AFC46
:1045100003F0DCFF9DED0FAA0221B0EE4A0A03F082
:1045200040FD03F0D3FF684903F02CFC03F0CEFFFD
:10453000DDED109A0221B0EE690A03F032FD03F0BE
:10454000C5FF624903F01EFC03F0C0FF9DED119A08
:104550000221B0EE490A03F024FD03F0B7FF5C49E5
:1045600003F010FC03F0B2FFDDED128A0221B0EE81
:10457000680A03F016FD03F0A9FF564903F002FC98
:1045800003F0A4FF9DED138A0221B0EE480A03F068
:1045900008FD03F09BFF03F0FCFB4549434803F093
:1045A000F1FBB0EE6C0A0221404803F0FAFC4149ED
:1045B0003E4803F0E7FBB0EE4C0A02213B4803F013
:1045C000F0FC3D49394803F0DDFBB0EE6B0A0221F7
:1045D000364803F0E6FC3949344803F0D3FBB0EE2B
:1045E0004B0A0221314803F0DCFC35492F4803F027
:1045F000C9FBB0EE6A0A02212C4803F0D2FC314913
:104600002A4803F0BFFBB0EE4A0A0221274803F014
:10461000C8FC2D49254803F0B5FBB0EE690A02211C
:10462000224803F0BEFC2949204803F0ABFBB0EE62
:10463000490A02211D4803F0B4FC25491B4803F038
:10464000A1FBB0EE680A0221184803F0AAFC214938
:10465000164803F097FBB0EE480A0221134803F016
:10466000A0FC4FF4FA7003F0AFFD002221780D4852
:1046700002F014FF03F02AFF174903F096FB03F042
:1046800025FF03F086FB1449084803F08EFB07481A
:1046900003F07FFB642003F097FDB1E6E0E4032024
:1046A0004CE0032008E50320509B0B0040E503206D
:1046B000579B0B00639B0B006F9B0B007B9B0B00BE
:1046C000879B0B00939B0B009F9B0B00AB9B0B00EE
:1046D000B79B0B00C39B0B00CF9B0B0070B52B4807
:1046E0002B4C2C4E2C4D86B002F0FAFA2B4802F0DF
:1046F00098FE2B4AC4F8706400234FF47A71C2E923
:1047000001312849136111606422C4F86024012238
:104710006360C4F83C34C4F8683484F87424C4F882
:104720007834A4F87C342978BFF35B8F11400BD127
:1047300028460191FFF7B5FC019928B11A4803F00A
:1047400031FA2846FFF7B2FC174BC4F86C34174B0C
:104750000493002402AB012505220D49144802965A
:104760008DF80C40ADF8145000F0C4F828462146EE
:1047700003F0F0F80F4B104A9A600220C3E900449E
:1047800006B0BDE8704003F0D5B800BFE0E40320F8
:1047900050E00320E09B0B0040E0032008E50320ED
:1047A0000CE50320F49B0B0044E0032080F0FA02A8
:1047B00040E50320D4E403200000FFFFF8B50E46D7
:1047C000054603F0EBFC044603F0E0FC074603F06B
:1047D000D1FC7F01C3B2A4B207F4FF57A4F2BC74AA
:1047E0003B4343EA44232B8003F0A0FC044603F040
:1047F000A9FC054603F0B2FCE4026D0104F4FF24B9
:1048000005F4FF552C43C0F3460004433480F8BD43
:1048100038B504464CB1E068FFF7FAFFA5682046BA
:104820001421FFF73CFC2C46F4E738BD10B5044BCF
:1048300003600446D0F82001FFF7EAFF204610BDD0
:10484000B09C0B0010B50446FFF7F0FF20464FF474
:104850009A71FFF724FC204610BD0EB403B503ABDC
:10486000012153F8042B019303F0AAFB02B05DF879
:1048700004EB03B07047000030B585B01B4B0093CC
:1048800013798DF804309368029300F58C65938951
:10489000ADF80C3004460A466B4600F26C412846DF
:1048A00002F00CF810B9002005B030BD256004F20C
:1048B0003C45284601F09CFB0121204601F0A8FE62
:1048C000014668B12146284601F08CF90028EAD05B
:1048D00094F83C3413F0700FE5D0054B1D60E3E70E
:1048E000204601F095FE0028ECD1DCE7E09B0B00B0
:1048F0007CE6032070B50273164A02611A790275CC
:104900009A689B8982618383134A144B03620A234A
:10491000C0E9092342F21073C36201230025104E3F
:1049200080F83030A0F8C830C0F8CC3000F58E7375
:10493000C0E90D55C0E94853C0E94A3545600660F5
:104940008160A0F8D050A0F8F45080F81C51C0F855
:10495000305170BDE09B0B0040420F00149C0B00D7
:10496000B09C0B0010B500F1BC040B46034A0C21AF
:10497000204603F0A3F8204610BD00BF199C0B0091
:104980002DE9F843DFF86090D0F82451044600F197
:10499000D00800F58E77A26AD4F82C319A4220D242
:1049A00029692046FFF7DEFF064603F08FFD3246F9
:1049B0004946FFF752FF3146404601F06CFB28465E
:1049C00004F0B4F839460646284604F00EF91421DE
:1049D000FFF765FBD4F82C31013BC4F82C31354688
:1049E000D9E7BDE8F88300BF229C0B002DE9F04712
:1049F000174601F1040A8A6880460E46554601238F
:104A00005AB113693868D2E9024198421546B5BFD8
:104A10000123002322460A46F2E793B1F368AB4232
:104A20002AD0284604F084F8044622693B689A425A
:104A300022DB0023C8F8004088F804304046BDE877
:104A4000F0872C46F1E73A682B699A42ACBF4FF0E9
:104A500000094FF001091420FFF71DFB3B680361BB
:104A60000146534604462A46484604F063F87369F3
:104A7000013373610123DDE7AA45E4D14FF0010959
:104A8000E9E737B5D0F8CC100446FFF76BFF40F2EA
:104A90000A23024604F1D00104F1F40001F0AFFA58
:104AA000054630B104F1CC0204F58C716846FFF77D
:104AB0009DFF284603B030BD30B5002380F8C830D4
:104AC00090F8C9309DB0044603BB424B424A007B7C
:104AD0001A60012103F02AFF404B0C93237D8DF8CF
:104AE0003430A3690E93217BA38BA068ADF83C30D2
:104AF0000CAAFFF7C1FE84F8C90038B9012384F875
:104B0000C83002F0BFFDC4F830015AE0226AF2B1A9
:104B1000A168002301F23C410CA80C9301F06FFA4C
:104B20000546A0B903F0D2FC226A2D49FFF795FE95
:104B3000A168226A0C95012301F23C410CA801F006
:104B400032FB20B903F0C2FC2649FFF786FEA168BC
:104B5000226A04F1D005002301F23C41284601F00D
:104B60004EFA80B30021284601F022F90023039376
:104B70000022294603A801F0C8F9D0B140220CA9AF
:104B800003A800F0C4FB0CA804F01EFE009060B166
:104B90006A4604F58C7101A8FFF728FF009BD4F842
:104BA000CC209A42B8BFC4F8CC3003A801F020FA58
:104BB000DEE72046FFF7E4FE2046FFF762FF00280D
:104BC0009CD01DB030BD03F081FC0749FFF745FEC6
:104BD00094E700BF78E60320BD470B00E09B0B0085
:104BE0003B9C0B00509C0B005D9C0B0038B50446B1
:104BF000406B28B10368A26BDB6804F13C01984765
:104C000094F8C8302BB1D4F83031ABBB2046FFF755
:104C100053FF94F8C93063B394F8F4304BB304F104
:104C2000F405A26B04F13C01284601F00BFB0028BF
:104C30002BDD94F8303013B1284601F0A3F9626AF5
:104C4000D4F810319A4214D2284601F0D1F9D4F8A0
:104C5000CC300133C4F8CC3003F038FCD4F8CC208D
:104C60001349FFF7FAFD2046FFF70BFF2046FFF739
:104C700087FE0023A36338BD02F004FDD4F8303171
:104C8000C01AE36A9842C1D2C3E703F01FFC094986
:104C9000FFF7E3FD284601F0ABF904F1D00001F085
:104CA000A7F90123A4F8C8300023C4F83031E0E7A5
:104CB000759C0B00909C0B0008B5836B5A1C034439
:104CC0007F2A826383F83C1001D80A2901D1FFF7BB
:104CD0008DFF012008BD30B50025C0E900154281D7
:104CE0009DF810109DF80C20456141738273037389
:104CF00030BDF0B54589847A85B0034600688DF8EB
:104D00000C402D0A0E4617468DF80D5040B15B7BC6
:104D1000019303AB0093012300F02DFA05B0F0BD21
:104D200058680028FAD093F808E093F80DC0BEF157
:104D3000030F0CD10CF1010325F0010500938DF850
:104D40000C508DF80D4003AB00F0A4F9E6E7BEF17E
:104D5000000F09D104F07F048DF80C40CDF800C09D
:104D600003AB3A463146EFE7BEF1020F02D164F0E1
:104D70007F04F1E7BEF1010F01BF9DF80C3003F095
:104D80007F0343F040038DF80C30E7E7F0B40B46A7
:104D900002B9027B042A14D800F10F05436184187C
:104DA0002946844209D0877BDEB227B92E701B0AC0
:104DB0000135013CF5E7A673F9E72046F0BCFFF7A3
:104DC00098BF0020F0BC70477FB54689857A8DF882
:104DD0000C5004460068360A0B468DF80D6040B151
:104DE0000021CDE9002103A9627B00F032FA04B072
:104DF00070BD60680028FAD0217A647B03290DD148
:104E000046F00106FF21CDE900218DF80C608DF8F8
:104E10000D50621C03A900F05FF9E8E741B965F0A5
:104E20007F058DF80C50FF21CDE900212246F1E7E6
:104E3000022902D105F07F05F3E7012902BF9DF8A1
:104E40000C1061F03F018DF80C10ECE738B500F163
:104E50000F05027B29460446FFF7B6FF78B1227B97
:104E6000294622440020A2420BD00302A07B20B995
:104E7000907B1843013A0131F5E70878F9E74FF0E4
:104E8000FF3038BD10B501600271437110BD10B51F
:104E900004460068FFF7DAFF227901239340627924
:104EA000013BD040184010BD70B5044600680E4666
:104EB000FFF7CCFF2379617901229A40531E03FA50
:104EC00001F520EA05053340206803FA01F1294382
:104ED000027BBDE87040FFF759BF00002DE9F04F9D
:104EE0000446006885B00D4640B100230093134688
:104EF0000A4602F003FF05B0BDE8F08F237BA068EF
:104F0000484FB7FBF0F7002B0B780CBF4FF0010BAD
:104F10004FF0800B1BEA030F01EB02030CBF4FF0B5
:104F200001094FF00009FFB20393039BAB42E2D0AB
:104F300095F800A05E464FF0000817B1384602F021
:104F400091FB637B13F0FD0F41D194F910305A1C93
:104F50000FD01AEA060114BF012300234B4508D0E5
:104F60006369606A1A6800292CD002431A604FF006
:104F70000109A169E36A0A6813430B6017B1384657
:104F800002F070FB94F91130013306D0E3691A681E
:104F9000A36A1A4218BF46EA0808A169E36A0A68C8
:104FA00022EA03030B6094F91130013318BF85F82E
:104FB0000080237B002B32D17600F6B2002EBCD1CC
:104FC0000135B2E722EA00021A608946D1E7A169F9
:104FD000E36A0A6813430B6017B1384602F042FBDC
:104FE00094F91030013308D06369616A1A681AEACB
:104FF000060F14BF0A438A431A60A169E36A0A686C
:1050000022EA03030B6094F911300133CBD0E3693A
:105010001A68A36A1A4218BF46EA0808C3E7760866
:10502000CCE700BF20A1070007B501228DF80710CB
:105030000DF10701FFF752FF9DF8070003B05DF87F
:1050400004FB03681BB14168184602F0E3BD7047DA
:10505000006808B102F0C4BD704790F90E00431C0F
:1050600003D0C9B280B203F072BC704710B50446D9
:10507000FFF7E7FF20460021BDE81040FFF7EDBF36
:1050800010B501210446FFF7E8FF2046BDE81040B7
:10509000FFF7DEBF2DE9F0411C4606460D461746D8
:1050A000FFF7E4FF069B04EB0308444508D12F44B7
:1050B000BD420BD015F8011B3046FFF7B5FFF7E7EF
:1050C00014F8011B3046FFF7AFFFEEE73046FFF75D
:1050D000D7FF0120BDE8F0812DE9F0410D461746CC
:1050E0009DF81C8006461C46FFF7C0FF2F44BD42BA
:1050F0000AD1069BE518AC420CD041463046FFF77A
:1051000093FF04F8010BF6E715F8011B3046FFF793
:105110008BFFECE73046FFF7B3FF0120BDE8F081DD
:1051200042600022027220220170C260704710B5F6
:10513000037A044653B12178606803F0BBFA6068D3
:1051400003F0C3FAB0FA80F0400910BD012100F06D
:1051500003F80028EFD1F8E738B5044640680D465B
:1051600003F076FA0120207225B12046BDE83840D0
:10517000FFF7DDBF38BD2DE9F843DDE908961F468E
:10518000C368154632449A420446884602D9002034
:10519000BDE8F8830178406803F08CFA7EB9606856
:1051A00003682A46DB68414698478542EFD160682C
:1051B000394603F086FAB0FA80F04009E8E7B9F121
:1051C000000FECD0606803683246DB6849469847B8
:1051D0008642DCD1E3E72DE9F041154604460E4650
:1051E000D2B20178406803F050FA85420DD1002711
:1051F0001FFA87F8A84507F1010709D2606803681C
:105200005B69984706F80800F2E70020BDE8F081E6
:105210000120FBE72DE9F8430746884616469946E4
:105220000025B54212D2FA68741B944228BF144676
:10523000331BAB4294BF4B460023224608EB0501CB
:105240003846FFF7C8FF10B12544EAE70120BDE862
:10525000F88373B51D460023CDE900339DF81C305B
:10526000069E0446FFF787FF40B1012332462946D8
:10527000204602B0BDE87040FFF7CCBF02B070BD61
:10528000042904D800EB4100B0F8010070470A2956
:105290009BBF01F1FF3100EB41000131C08884BFA9
:1052A00000EB41008088704710B50446243001F0BF
:1052B000A1F828B104F50C70BDE8104001F09AB8CF
:1052C00010BD411E00F10A030020420842EAC0104E
:1052D00011F8012F52FA80F08B42C0B2F5D170471D
:1052E00038B5CB6804460D4623B9BDE83840896817
:1052F00000F078BC2422002104F088FA1023012059
:105300002370A070AB68A360EB68236238BD2DE901
:10531000F04F8DB003784FF0000906460F469046D7
:10532000CDF80C90002B5DD00C2A5BD9C37833B933
:1053300000F0A8FB044620460DB0BDE8F08F014602
:1053400003A8FFF7CDFF00284CD007EB08034FF070
:10535000010B4FF00D0A0093F3785FFA8BF5AB4227
:1053600040D3B188A1EB0B01490103A800F020FD57
:105370000446002836D0002103A800F0FAFC0346BA
:1053800080B3C27A0F2A2DD1027802F01F02AA42FE
:1053900028D10BF1FF350AFB05F57A1900211846D3
:1053A0000191FFF76DFF68B1A84512D9019901314C
:1053B0007F28C9B228BF3F200D2902F8010B05F153
:1053C0000105ECD1A84504D91A78520648BF07F860
:1053D0000590009A02F8019C1B785B060BF1010B0B
:1053E000BAD5A8E700243C70A5E700002DE9F047F6
:1053F000064610F8013B202BFAD06A4D8E6000243F
:10540000335DC3B12F2B16D05C2B02D10020BDE839
:10541000F087A3F12200C0B21D2803D825FA00F0BE
:10542000C007F3D403F0BF003C28EFD0203B5E2B35
:10543000ECD80134E4E733191846074610F8015B4D
:10544000202DFAD02F2DF8D017604CB113F8012D74
:105450002E2A01D0202A01D1013CF6E7FF2CD5DC11
:105460004FF02033C1F811304C60C1F80D304B6162
:105470004FF0000816F808302E2B01D0202B02D157
:1054800008F10108F6E7B8FA88F04009651E6B1CC0
:1054900002D0735D2E2B14D14FF0000907274A4626
:1054A000CA464FF0080EA04568DA16F80830202BDF
:1054B00003D02E2B07D1A84512D0002008F10108F7
:1054C000F1E7013DE3E7222B08D07C2B06D0A3F1C6
:1054D0002A0CBCF1050F0AD82D2B12D0A8455BD1A0
:1054E0000A2F4AD00A2708224FF0100EE6E7A3F150
:1054F0003A0CBCF1050FF1D9A3F15B0CBCF1020F22
:10550000ECD9A3F1210CBCF15D0FE7D8A845E7D099
:10551000BA4230D8A3F1610CBCF1190F1AD8203B64
:105520004EEA0909DBB25FFA89F902F1010C5FFA70
:105530008CFC0A44BCF1060F537301D881F80CC0EF
:105540006246BBE7A84518DCA8460A2708224FF0A8
:10555000100EB2E7A3F1410CBCF1190F98BF4EEA4F
:105560000A0AE2E70B7B0120087019447E234B7383
:1055700031238B734BE70A2FE4D100204B7B202B88
:105580003FF444AF0028EDD01AEA090F18BF4FF0DE
:10559000020981F800903AE7BA42ECD800205F2374
:1055A000C3E700BF010100312DE9F0418AB00023BB
:1055B00001930378190704460AD583789A0707D51B
:1055C000016A39B90121204600F0D2FA054638B9FE
:1055D000002048E0806800F0FEFF0028F2D1F7E7E5
:1055E000FFF76FFEE5272F70002306462370A068A3
:1055F000FFF75AFE0028EBD0E378002B33D021468A
:1056000001A8FFF76DFE0028E2D00125E3785FFADC
:1056100085F84345DCD3A188491B490101A800F066
:10562000C7FB0028D4D0002101A800F0A2FB00286D
:10563000CED0C37A0F2BCBD1027802F01F034345A3
:10564000C6D1437BB342C3D10770A16891F824301F
:1056500043F0010381F82430530605F10105D5D547
:10566000A068FFF721FE0AB0BDE8F0812DE9F843FC
:1056700091F80C9006460C4602257E2701F10D0894
:105680006168A2686B189BB21144914206D012F86F
:10569000010B03EB431343409BB2F6E7B9F1030F51
:1056A00028BF4FF0030909F10402D2B203F00F0141
:1056B000A018013A0929D2B294BF3031373191454F
:1056C00041734FEA1313F1D104EB090300215F7317
:1056D000304600F06DFB0121304600F04AFB0146E8
:1056E00028B97078B0FA80F04009BDE8F8830378F3
:1056F0006BB1C37A1B07EED40B22404604F068F866
:105700000028E8D10135ADB2642DB9D1EDE7012013
:10571000EBE700002DE9F04F2DED028B8BB00D462D
:1057200006930B78079013F0700F174605D10020F1
:105730000BB0BDEC028BBDE8F08F079B1B78002BF4
:10574000F5D15368059313789C071FBF059B0C3355
:105750000D22B3FBF2F31ABF0133DBB201230021A8
:105760002846039300F024FB07F10D034FF0000BD4
:1057700008EE103ADA465C465E46CDF810B0D946DF
:105780006B6901212846C3F34F1800F0F2FA034673
:10579000002871D16B78002BC9D1069B9A05C6D51C
:1057A00003F00303013B012BC1D8049B002C08BF6D
:1057B00043460493039B9C42C0F0F180B9F1000F73
:1057C00040F00A81049B2846590100F0F1FA0028B4
:1057D000ADD0039B03F1FF395FFA89F94E464FF0D4
:1057E000000A4FF00F08002E00F00D81002128461E
:1057F00000F0BFFA0446002899D0AA6892F8243035
:105800004E4543F001030CBF46F0400BB34682F80F
:10581000243080F800B080F80B8080F80CA007F1ED
:105820000D00FFF74EFD84F81AA0607384F81BA0EA
:105830000BF01F030D22013BD7F808C05343002291
:105840000599994240F2D0801CF80310042A5FFAAF
:1058500082FE02F1010000F2CD8004EB4202A2F8C8
:1058600001100D2803F101030246E9D1013EF6B211
:10587000B9E74FF0010983E70278E52A00D07AB949
:105880000499002C08BF4146049103998C423CBF07
:105890000134E4B2002A80D0E52A05D100266FE762
:1058A00003998C4238BF00242E2AF7D0D97A0F29C9
:1058B0004AD116BB12F040063FF462AF02F01F0659
:1058C00093F80DB0B2460D220AF1FF3802FB08F83A
:1058D000059A4245E2D9A2EB08020892002202EBA7
:1058E000080109911846D1B2FFF7CAFC08998A420B
:1058F0000DD1002818BF002642E70AF1FF3A5FFAEF
:105900008AFA5245CAD15A7B5A45DCD0C6E7FF28ED
:10591000C4D85FFA80FEAEF141011929B9689CBF75
:105920000EF120005FFA80FE08460999415CA1F162
:10593000410CBCF1190F9CBF2031C9B27145ADD1EA
:1059400001320D2ACBD11BE70807A7D45EB1BAF10B
:10595000010F7FF4ECAE1846FFF7B3FC58457FF417
:10596000E6AEB1460EE018EE101A0B22184603F010
:105970002FFF00287FF404AF97F8009019F0010979
:105980007FF477AF069B19053FF5D1AE069B0798CC
:10599000CDF800904246294600F04DFAC8E60021B5
:1059A000284600F0E6F9A0B96B78002B7FF4BFAE73
:1059B000284600F09FF800283FF4B9AEAB681B7989
:1059C000012B3FF6FBAE039B1034E4B2A342EFD8A9
:1059D000F4E60134E4B2EDE639462846FFF746FE28
:1059E00000287FF4EFAEA2E614BF4FF0FF31002194
:1059F00089B22BE7BEF10A0F94BF04EB420204EB1D
:105A0000400291802DE731462846D5F8148000F0F9
:105A1000B0F9044600283FF48AAE2022314603F054
:105A2000F5FED7F80D302360D7F811306360B7F872
:105A300015302381FB7DA3723B7803F01803237399
:105A40000F4B1B689BB104F10E0104F11000984745
:105A5000238A63822383E389E382AA6892F824304D
:105A600043F00103C8F34F1882F824308EE7212356
:105A70002374282363740823A673E373E8E700BF45
:105A800078E6032010B50C46017809B9002010BD56
:105A900011F0600105D02F232370002363700120D3
:105AA000F5E700F065F80028F0D0214600F06FF827
:105AB000F5E738B504460D462422002103F0A6FE82
:105AC000A560EB79102B03D0202B06D0002038BD29
:105AD000202301202370A070F9E74023F9E78378A1
:105AE000016943F00403837000F11002806800F044
:105AF00037BD00002DE9F041017811F02005044682
:105B000003D000263046BDE8F0814269174B9A4227
:105B1000F7D2FFF7E4FF06460028F2D02169A0681B
:105B200000F0B3FC0746A06805223946243000F097
:105B300089FC80460028E4D029464FF4007203F027
:105B400065FE0125A3681A79AA4209D91868424658
:105B5000E91900F0E4FF0028D3D00135EDB2F1E7F8
:105B6000636903EB42236361CCE700BF00FE1F00C3
:105B700010B5044680680A462430A16900F062FC32
:105B800020B1A38803F00F0300EB431010BD0023E6
:105B9000F0B50446451E082618462E2715F8012F95
:105BA000202A18D0082B02BF0F54421CD0B22A78EA
:105BB000A2F1410C08BF1026BCF1190F06D894F8C9
:105BC0000CC016EA0C0F1CBF2032D2B200F1010C3F
:105BD0000A545FFA8CF00133DBB20B2BDED10023C9
:105BE0000B54F0BD03780BB9FFF763BF002070477B
:105BF0002DE9F74F0378044688461546002B5DD003
:105C00008278D1075AD51A072DD5C36942699B1AE4
:105C10009D4228BF1D462E464FF0000904F1100B8F
:105C2000002E00F08F8022786369A0689706C3F386
:105C3000080A4FEA53211FD5006A0144A068BAF14F
:105C4000000F42D1B6F5007F3FD3C36A99423CD0E2
:105C5000B6F5806F52D20068424600F0D7FE68B3B6
:105C60004FF4007744E09B06D5D583681A894369D1
:105C7000C3EB42139BB2CBE790F8059009EA010908
:105C8000BAF1000F08D1B9F1000F05D15BB9510687
:105C90004CBF036A236A23612169A06800F0F5FB09
:105CA00009EB0001CAE721695A4600F0F4FB00281D
:105CB00004DBF1D1237813F0700F43D1637843F004
:105CC000020363704FF0FF303DE0CAF50077B74242
:105CD0004FF0000200F1240028BF374600F0B2FB6D
:105CE0000028EBD000EB0A013A46404603F080FD65
:105CF00063693B44B8446361F61B91E722789206DE
:105D00004FEA562A06D40279A2EB0902D2B2924592
:105D100028BF924699424FEA4A2708D2A0685346C4
:105D20000068424600F0BAFE0028E1D1C6E75344BD
:105D30008B42F3D92430019100F05CFB01990028DB
:105D4000ECD1BBE7A81B03B0BDE8F08F73B501220F
:105D50000DF10701D0E904560446FFF749FF012879
:105D60000ABF9DF807004FF0FF30C4E9045602B0A7
:105D700070BD37B5436913F4F07F0446C3F3431590
:105D800000D099B901220DF107012046FFF730FF3D
:105D900040B2012802D0002003B030BD63691F3338
:105DA000A0686361303000EB4510F5E72033F7E77A
:105DB0002DE9F0410278076904460D4662B1406959
:105DC000884202D019B921616561012006E01607F9
:105DD00006D5E3698B420BD227610020BDE8F08134
:105DE000910605D5A3681B89B5EB431FECD9F3E7F2
:105DF000D4F808C09CF80660431E06F109016E1E27
:105E0000CB40CE40B34200D898B953064CBFDCF823
:105E10002030236A236104F11008002ED4D02169B8
:105E2000A068424600F037FB002806F1FF36F4DC9C
:105E3000D2E7F61AEFE7F8B50F46044615460021FB
:105E400024221E4603F0E2FCB868A060A58005F09D
:105E50000F053B6AE3606A0100EB451595F83B309E
:105E60001F0744D403F01703237095F83B1011F07B
:105E7000180F04BF43F0080323709DF81830E37037
:105E800006F00303012B2CD0022B28D07BBB71051D
:105E90002DD40123A370A1788B0704D52378DF06C6
:105EA00025D4DD0723D4B31123F07F0306F00805C2
:105EB0002B430B43A370C36AA3618318B3F8442038
:105EC000B3F84A1041EA0241720513D559B9A378D3
:105ED00043F00403A370730410D40120F8BD03231E
:105EE000D8E70223D6E700F076FB0028EFD10020A8
:105EF0002070F3E72162DB6CE361ECE7E1692046A7
:105F0000FFF756FF0028E8D1F1E72DE9F3470378C2
:105F100007460D46924653BB0B7813F0700F26D000
:105F20004C6914F01F0422D1A04600212846D5F860
:105F30001490FFF71EFFD0B10678C6B12E2E10D0F8
:105F4000E52E0ED0C37A1A0713D464B900945346D1
:105F5000C9F34F1229463846FFF76DFF02B0BDE87E
:105F6000F0870024E1E7FFF7ACF94045EED00020D0
:105F7000F4E70F2BF5D17306D7D590F80D8006F016
:105F80001F04D2E738B5037804460BB9012038BDA9
:105F900083785A0723D50121FFF7EAFD054628B982
:105FA000637843F0010363700020F0E70378E52B8A
:105FB000F6D023781B0744BFE369C361236A438398
:105FC000638C8382094B1B682BB100F116011830DA
:105FD00098472B8B6B82A37823F00403A370A068EF
:105FE000FFF762F90028DBD0D0E700BF78E6032096
:105FF00010B50446FFF7C6FF0023237010BDF0B5AF
:1060000093B01F46002309930378019206460C467D
:1060100013B1002013B0F0BD0B7813F0700FF8D05F
:1060200013782F2B12D1019A13782F2B02D1013222
:106030000192F8E7A1681BB93046FFF7D3FDE9E705
:1060400009A8FFF736FD0028E3D009AC019801AAA2
:1060500003A9FFF7CBF90028DBD0019B1B789BB18C
:10606000002303AA21463046FFF754FB0028D0D076
:1060700035460FCD09AC0FC40FCD0FC42B6823607C
:106080003046FFF7B5FFE0E73B4603AA214630461E
:10609000FFF740FBBEE700B58BB000230A46019333
:1060A0000146012301A8FFF7AAFF10B101A8FFF7DD
:1060B0007BFA0BB05DF804FBF0B50B7813F0700FB2
:1060C00089B004460E4602D1002009B0F0BD40F66A
:1060D0000223FFF71FFB0028F6D001271025A77029
:1060E00025702046FFF706FD0028EDD023692362C6
:1060F00000212046FFF75CFE2046FFF743FF002803
:10610000E2D039462046FFF733FD0028DCD06A464E
:10611000C572034600F1200C1546186859681746E9
:1061200003C7083363453A46F7D14FF02033216A5D
:10613000A068CDF80130CDF80530ADF8093000F099
:10614000A4F90146A0680122243000F07BF903463F
:106150000028B9D02E228DF80020AC4607460DF15C
:10616000200E624603CA724538607960944607F192
:106170000807F6D12E228DF80120326AADF81A20D8
:10618000110CADF814102A46203308AE154603CD85
:10619000B542186059602A4603F10803F6D1A06899
:1061A000FFF782F891E7F0B593B01F4600230993FB
:1061B0000378019206460C4613B1002013B0F0BDDF
:1061C0000B7813F0700FF8D013782F2B0DD1019AA4
:1061D00013782F2B02D101320192F8E7A16809A8A8
:1061E000FFF767FC0028E8D009AC019801AA03A9D1
:1061F000FFF7FCF80028E0D0019B1B78E3B10023F7
:1062000003AA21463046FFF785FA58B135460FCD2F
:1062100009AC0FC40FCD0FC42B6823603046FFF7C5
:10622000E7FEE1E7002FC8D003AA21463046FFF77A
:1062300043FF0028EAD1C0E703AA21463046FFF712
:106240003BFFBBE72DE9F047037889461907044671
:1062500017465BD583789A0758D51B0751D46369D5
:10626000DB43BB4252D3B84604F1100A6669B8F169
:10627000000F00F09180A0684379C6F3080513EA87
:1062800056260ED16DB92169002946D0524600F03C
:1062900002F900283ADB04D12046FFF720FC002851
:1062A00034D02169A06800F0F0F83118A06815B961
:1062B000B8F5007F3FD2C5F50076464528BF464673
:1062C000002D36D16269E3699A4234BF012205226A
:1062D000243000F0B7F8C8B1284432464946354466
:1062E00003F086FAB5F5007F04D1A068243000F0F1
:1062F00081F858B1636933446361B144A8EB06087F
:10630000B4E7C169FFF754FD0028A8D1637843F0D2
:10631000010363704FF0FF3050E0236A3BB9204621
:10632000FFF7DDFB0028F1D023692362B9E7236181
:10633000B7E70122CCE7B8F5806FC26A1BD390F8AB
:1063400004C0ACEB0606F3B24FEA582E734528BFE3
:10635000734691424FEA432607D31A448A4282BFCA
:106360004FF0FF3280F82450C262A5684A46286880
:1063700000F04BFCBDE7914202BF4FF0FF3380F8C5
:106380002450C362A3684A46186800F0C8FB00287E
:10639000BCD04FF40076ADE7E269A378B24204D2F4
:1063A000E66143F00403A37003E0084A1268002A80
:1063B000F7D194F90230002B02DB3846BDE8F087B4
:1063C0002046FFF7DFFD0028F7D19FE778E603209E
:1063D00013B50446084659B1019103F04DFA2368FC
:1063E0000199DB680246204602B0BDE8104018471C
:1063F00002B010BD37B50378DA07044620D54368EC
:10640000816800F10C021868019200F088FB019A83
:10641000054618B90025284603B030BD23789B07F0
:1064200004D4237823F001032370F4E7D4E9013086
:1064300019690144186800F072FB0028F1D1E9E7FE
:106440000125E8E770B583688B4204460E46154681
:1064500009D0FFF7CFFF08B9002070BD6B070AD540
:1064600000232370A660227805F00305204615431B
:1064700000F80C5BF1E7636804F10C021868314620
:1064800000F0C4FA0028EBD1E6E7837940690239CD
:10649000994008447047012970B505460C461646D8
:1064A00002D84FF0FF3070BDC3698B42F9D3C37976
:1064B000202B16D18169022201EBD41100F50C705A
:1064C000FFF7C0FF0028ECD004F07F0450F8243020
:1064D00023F07043EA699A4226BF3360012000200E
:1064E000E1E7102BDDD1C1F30723816902221944B2
:1064F00000F50C70FFF7A6FF0028D2D0E4B230F808
:106500001430E7E7012938B50C46154601D80020BC
:1065100038BDC3698B42FAD3C379202B0FD181696F
:10652000032201EBD41100F50C70FFF78BFF00285C
:10653000EDD004F07F0440F824500120E8E7102B50
:10654000E5D1C1F3072381690322194400F50C70DA
:10655000FFF778FF0028DAD0E4B220F81450ECE717
:106560002DE9F341C4688C4205460E46904601D39E
:10657000012701E00C460027EB690134A34202D257
:10658000C7B9EC68F4E7A64214D001AA2146284610
:10659000FFF781FF00280DDBEED0019B002BEBD134
:1065A00007B1EC606FF0704221462846FFF7AAFF62
:1065B000074620B90027384602B0BDE8F08116B979
:1065C000C8F80040F7E7224631462846FFF79AFF11
:1065D0000028F5D1EEE773B505460C4601AA214621
:1065E0002846FFF758FF061E10DB002221462846EA
:1065F000FFF788FF50B1EB68A34224BF04F1FF34DA
:10660000EC60019C002EE9D102B070BD0020FBE7D8
:10661000012370B50022C3604FF0FF330446C271FE
:1066200000F12406806280F82420C362C0F834029E
:1066300080F83022C0F838320D46B9B1042901D9AA
:10664000002070BD11463046FFF7FCFE0028F7D051
:1066500000EB051393F8AE315B06F1D105F11B0198
:1066600000EB0110D0F80650002DE9D00022294699
:106670003046FFF7E7FE0028E2D0B0F80B30B3F564
:10668000007FDDD1037C022BDAD1C389002BD7D068
:10669000417B21714B1E63710023A37109260123E5
:1066A000994207D0013ECBD0A2795B000132DBB228
:1066B000A271F5E7C18A01B9416A2161C3892B44FE
:1066C000A361B0F81120228103EB41032362B0F8EB
:1066D0001110490101F2FF1103EB51236361B0F87E
:1066E000132002B9026AE91AA3791144D9404B1C5C
:1066F000E36140F6F473994202D80C23E3719FE7FB
:106700004FF6F473994285BFC36A23621023202396
:10671000E371012095E700F0CBBA00F0AEBA0000BB
:1067200070B50E4E0D46144600F0A4FF3368C01A33
:106730000B4B984208D900F0A5FF0A4B186001F0F6
:106740008DF900F097FF306000F09CFF80B2401B95
:10675000A042D4BF0020012070BD00BF80E603200E
:10676000A086010040E7032038B5057A04464DB9FC
:10677000406800F06BFA63682946187D02F0E7F87C
:106780000123237238BD10B5037A04466BB1436808
:106790000121187D02F0DBF86068FF21FFF7BBFFE5
:1067A000606800F067FA0023237210BDF8B5044654
:1067B0000D46164600F066FF87B26068FFF7ADFF32
:1067C000FF2860720ED14FF47A7239462046FFF7E7
:1067D000A7FF0028F1D0552320462370FFF7D3FFF1
:1067E0000020F8BDFE2801D05023F5E7606832464E
:1067F000294600F047FA607208B16023ECE7606850
:10680000FFF78BFF6068FFF788FF0120E9E770B5AD
:1068100004460E4600F036FF85B232462946204631
:10682000FFF77EFF30B96068FFF777FFFF28F4D1EC
:10683000012070BD0020FCE7F7B5037A0192044601
:106840000D460BB9FFF790FF25B14FF49671204626
:10685000FFF7DDFF606845F04001FFF75CFF0326AE
:1068600001AFB95D6068FFF756FF013EF9D2002D18
:1068700060680CBF95218721FFF74DFF6068FFF727
:106880004CFF0B256068FFF748FF0306607203D5D5
:10689000013D15F0FF05F5D103B0F0BD70B504461C
:1068A0000D46164637210022FFF7C6FF324629461D
:1068B0002046BDE87040FFF7BFBF00002DE9F04162
:1068C00000250572057085724160044690461E469B
:1068D00000F0D8FE41460746606800F0BBF96368E7
:1068E000494A1D720125DA601D822046FFF73CFFF0
:1068F00063682946187D02F02AF80A256068FF219E
:10690000013DFFF708FF15F0FF05F7D16368294641
:10691000187D02F01CF80A25002211462046FFF7D8
:106920008BFF0128804618D0013D15F0FF0507D1E7
:10693000202320462370FFF726FF0020BDE8F081CA
:106940006068FD21FFF7E7FE4FF402786068FFF70B
:10695000E4FEB8F10108F9D1DEE74FF4D572082161
:106960002046FFF769FF052814D184F80A80002526
:10697000BFB22A4629212046FFF790FF0246D8B130
:106980004FF4FA6239462046FFF7CAFE0028F0D0DD
:106990004323CEE704256068FFF7BFFE013D15F0F5
:1069A000FF056072F7D1AA2804D10223A3724FF029
:1069B0008045DDE72523BCE7A37A022B18D13A21D5
:1069C0002046FFF739FF08B13723B2E76068FFF7C9
:1069D000A4FE00F0C000C02804BF0323A3726068B7
:1069E000FFF79BFE6068FFF798FE6068FFF795FE73
:1069F0002046FFF7C8FE63683079B168B2891A8211
:106A00001872D960012099E790D0030038B5837AD5
:106A1000032B18BF490215460A4611210446FFF709
:106A20000BFF30B1302323702046FFF7ACFE00256A
:106A30000BE029464FF400722046FFF7B7FE0546EB
:106A40000028F1D02046FFF79EFE284638BD10B53D
:106A5000837A032B0A4618BF4A0212210446FFF725
:106A6000EBFE30B1312320462370FFF78CFE00206F
:106A700010BD0120FCE710B500220C210446FFF7F1
:106A8000DBFE30B1282320462370FFF77CFE002078
:106A900010BD2046FFF777FE0120F9E7F8B5044660
:106AA00016461F46FFF7D3FF68B10025ABB29F42E1
:106AB00006EB452109D94FF400722046FFF776FE18
:106AC00001350028F2D10020F8BD2046BDE8F8408D
:106AD000FFF7D1BF38B5044615464068FFF71BFEE7
:106AE0004FF400726068294600F0E6F86068FF2104
:106AF000FFF711FE6068FF21FFF70DFE6068FFF7EA
:106B00000CFE607200F01F00052806D057232046B7
:106B10002370FFF738FE002038BD0120FCE770B578
:106B2000837A032B18BF490215460A4618210446EA
:106B3000FFF782FE064630B1322323702046FFF76E
:106B400022FE00251FE02A46FE212046FFF7C2FF55
:106B50000028F3D04FF4FA612046FFF758FE0546AF
:106B600008B95A23E9E732460D212046FFF764FEB3
:106B700008B12923E1E76068FFF7CFFD0028F8D1CD
:106B80002046FFF700FE284670BD13B501914FF473
:106B9000FA610446FFF73BFE019A30B95B2323708C
:106BA0002046FFF7F0FD002005E0FC212046FFF71E
:106BB00091FF0028F4D002B010BD10B5837A032BEA
:106BC0000A4618BF4A0219210446FFF735FE30B1C4
:106BD000332320462370FFF7D6FD002010BD01208F
:106BE000FCE738B54FF4FA610446FFF710FE05469E
:106BF00030B9562323702046FFF7C5FD284638BD1F
:106C00006068FD21FFF787FDF5E7F8B504461646F5
:106C10001F46FFF7D2FF70B10025BD4206EB4521AC
:106C2000204604D0FFF7B1FF28B10135F5E7BDE8F4
:106C3000F840FFF7D6BF2046FFF7A5FD0020F8BDBE
:106C4000014B01221A70704784E60320011D006881
:106C500000F0E0BF10B504460175006800F0ACFF1D
:106C6000207D012101F062FE207D0121BDE8104060
:106C700001F06DBE006800F0B3BF0068FF2101F0B5
:106C800037B8000037B51346074A00920025074C75
:106C9000006825700A46294601F030F82378002B59
:106CA000FCD0002003B030BD416C0B0084E6032013
:106CB000006801F01DB8000037B51346064A00927F
:106CC0000025064C006825702A4601F017F8237845
:106CD000002BFCD003B030BD416C0B0084E60320D8
:106CE000024A02600022027182607047F49C0B002D
:106CF0002DE9F041044680680F4690461E4610B1CB
:106D00001021FDF7CCF91020FDF7C5F9054618B1A3
:106D100042463946FEF704FAA56001212846FEF7EF
:106D20001BFA30B12368314620461B68BDE8F041AC
:106D30001847BDE8F08170B501258AB00026CDE97D
:106D400000650C462B468168802204A8FDF7C3FF2E
:106D500033462A4604A902A8FEF794F8214602A861
:106D6000FEF7A2F80AB070BD70B5012588B0002406
:106D7000CDE900452B4681689222064602A8FDF720
:106D8000AAFF02A8FEF762F8C30706D430462946D8
:106D9000FFF7D1FF284608B070BD2046FBE710B5CD
:106DA00001238AB00022CDE900230C4680228168AD
:106DB00004A8FDF790FF01231A4604A902A8FEF7D4
:106DC00061F8214602A8FEF76FF80AB010BD30B591
:106DD00001258BB00024CDE900452B468168802237
:106DE00004A8FDF778FF2A46042304A902A8FEF7A9
:106DF00049F8294602A8FEF757F8054602A8FEF70B
:106E000046F838B1B4F57A7F0BD0012001F0DCF9F7
:106E10000134F3E7B4F57A7F08BF002528460BB0AC
:106E200030BD0025FAE710B501238AB00022CDE974
:106E300000230C46AF22816804A8FDF74CFF032312
:106E4000022204A902A8FEF71DF8214602A8FEF7B7
:106E50002BF80AB010BD10B500238AB00124CDE98B
:106E60000034A3228168234604A8FDF734FF0623DB
:106E7000224604A902A8FEF705F802A8FEF707F8C3
:106E8000003818BF01200AB010BD10B504462046D6
:106E9000FFF7E1FF18B9012001F096F9F7E710BDFF
:106EA00030B5012389B00025CDE900530C4681227D
:106EB000816802A8FDF70FFF2A46214602A8FDF7C8
:106EC00065FF09B030BD00B5012389B00022CDE9CE
:106ED00000238122816802A8FDF7FDFE02A8FDF7CC
:106EE000B5FFC0B209B05DF804FB30B5012389B02D
:106EF0000025CDE900530C4602238168CA2202A86E
:106F0000FDF7E9FE2A46214602A8FDF73FFF09B03A
:106F100030BD00B5002389B00122CDE90032022343
:106F20008168CA2202A8FDF7D6FE02A8FDF78EFFEF
:106F300080B209B05DF804FB30B5012389B00025AB
:106F4000CDE900530C46AA22816802A8FDF7C3FED2
:106F50002A46214602A8FDF719FF09B030BD00B549
:106F6000012389B00022CDE90023AA22816802A86A
:106F7000FDF7B1FE02A8FDF769FFC0B209B05DF8E8
:106F800004FB000000000000F8B52DED028B0D465B
:106F90000446FFF7E4FF0A2897BF1F4BDFED1F8A67
:106FA00003EB8000D0ED008A2046FFF78CFF431CE6
:106FB000204608EE103AFFF7ACFF0446013428469D
:106FC00002F04AF8B8EEC88A07EE904A28EE288AFE
:106FD000F8EEE77A064667EE887A0F4617EE900AD3
:106FE00002F04CF80AA3D3E9002302F09FF80C4BFF
:106FF000002202F0C5F902460B463046394602F03F
:10700000BFF902F08BFBBDEC028B00EE100AF8BD5D
:107010003D0AD7A3703D0640C09C0B000000000055
:1070200000408F4030B5012389B00025CDE90053E1
:1070300014460A46816802A8FDF74DFE2A462146FD
:1070400002A8FDF7A3FE09B030BD10B53022002123
:107050000446FFF7E7FF012211462046FFF7E2FF53
:10706000204600220221FFF7DDFF204600220321F7
:10707000FFF7D8FF204600220421FFF7D3FF204668
:1070800042220521FFF7CEFF204600220621FFF70E
:10709000C9FF204600220721FFF7C4FF20465022E7
:1070A0000821FFF7BFFF204600220921FFF7BAFFA2
:1070B000204600220A21FFF7B5FF204600220B21BF
:1070C000FFF7B0FF204620220C21FFF7ABFF204640
:1070D00004220D21FFF7A6FF204600220E21FFF714
:1070E000A1FF204630220F21FFF79CFF20460122FE
:1070F0001021FFF797FF204650221121FFF792FF42
:10710000204600221221FFF78DFF20460622BDE80F
:1071100010401321FFF786BF002210B51146044628
:10712000FFF780FF204600220121FFF77BFF20466A
:1071300000220221FFF776FF204640220321FFF7BD
:1071400071FF204602220421FFF76CFF2046002237
:107150000521FFF767FF204610220621FFF762FF97
:10716000204603220721FFF75DFF20465022082119
:10717000FFF758FF204610220921FFF753FF204652
:1071800003220A21FFF74EFF204600220B21FFF7C2
:1071900049FF204600220C21FFF744FF2046002231
:1071A0000D21FFF73FFF204624220E21FFF73AFF73
:1071B000204600220F21FFF735FF20460022102134
:1071C000FFF730FF204650221121FFF72BFF20460A
:1071D00000221221FFF726FF20460622BDE81040BC
:1071E0001321FFF71FBF38B504460D460021FFF7F6
:1071F000D6FD02212046FFF716FE204635B1FFF7E7
:1072000024FF2046BDE83840FFF7E1BDFFF784FFCB
:10721000F7E72DE9F041044688B00E460121FFF75B
:10722000E2FF01212046FFF7BAFD4FF0000820469B
:107230000127FFF72AFE0223A1689522CDE90087E6
:1072400002A8FDF748FD0C22314602A8FDF7BCFD5F
:10725000414605462046FFF7C6FF39462046FFF760
:107260009EFD2046FFF711FE2DB10C22B11802A899
:10727000FDF7AAFD0546284608B0BDE8F0810000EC
:1072800030B50F4C00230133DDB28D4204D214F827
:10729000015B2A4492B2F6E7022903D9830704BFAF
:1072A000013292B200EBC001C31C00EBC10000EB45
:1072B0008000C3F38D0301381844104480B230BD00
:1072C000F89C0B0008B5827841780078FFF7D8FF6A
:1072D00007230630B0FBF3F3C3EBC303C01AC0B2FD
:1072E00008BD08B501F0A8FB01F0B2F9012008BD06
:1072F000FFF7F7BF08B501F09FFB682101F0DEF949
:1073000001F09AFB036802219B68984701F094FB07
:1073100001F0DBF901F090FB0122682101F0C7F9CF
:1073200001F08AFB03685B69984700F0E000E038F1
:1073300018BF012008BD2DE9F843044601F07CFB8D
:10734000682101F0BBF901F077FB036803219B681A
:10735000984701F071FB01F0B8F901F06DFB0722CD
:10736000682101F0A4F901F067FB03685B699847A5
:1073700000F07F09C0F30210A0EB800009EB400091
:107380005FFA80F901F058FB03685B699847C0F326
:107390000315A5EB850500EB450000F0FF0501F0A6
:1073A0004BFB03685B699847C0F30316A6EB8606A0
:1073B00000EB460000F0FF0601F03EFB03685B694E
:1073C0009847C0F30317A7EB870700EB470000F0CF
:1073D000FF0701F031FB03685B69984701F02CFB64
:1073E00003685B699847C0F30318A8EB880800EBB3
:1073F000480000F0FF0801F01FFB03685B69984735
:10740000C0F30313A3EB830300EB4300207084F865
:107410000180A770E670257184F805902046BDE8CC
:10742000F88300220260704710B5012388B0002461
:10743000CDE900437F22016802A8FDF74CFC2246FB
:10744000214602A8FDF7A2FC08B010BD30B501230B
:1074500089B00025CDE900530C46022301680622BD
:1074600002A8FDF738FC2A46E14302A8FDF78EFC8E
:1074700009B030BD30B5012389B00025CDE90053F6
:107480000C4602230168042202A8FDF724FC2A46C8
:10749000E14302A8FDF77AFC09B030BD70B50023C6
:1074A0008AB00126CDE9003602230D461446016854
:1074B0001A4604A8FDF70FFC2B46324604A902A881
:1074C000FDF7E0FC214602A8FDF7EEFC0AB070BD16
:1074D0002DE9F041012492B00026CDE900640F4669
:1074E0008046016815460223042206A8FDF7F3FB37
:1074F0003B46224606A902A8FDF7C4FCD8F80010B6
:1075000002231222CDE900640CA8FDF7E4FB3B4600
:1075100022460CA904A8FDF7B5FCA5420AD13146C4
:1075200002A8FDF7C1FC294604A8FDF7BDFC12B076
:10753000BDE8F0813DB1032DF9D1314602A8FDF738
:10754000B3FC3146F0E7214602A8FDF7ADFC214629
:10755000EAE730B500238BB00125CDE900350C46B4
:107560002B460168112204A8FDF7B5FB04232A4627
:1075700004A902A8FDF786FC84EA050102A8FDF72C
:1075800093FC0BB030BDF0B50446006889B00E46E0
:10759000174610B11021FCF782FD1020FCF77BFD8F
:1075A000054618B13A463146FDF7BAFD256001217E
:1075B0002846FDF7D1FD18B90025284609B0F0BDD1
:1075C0002046FFF731FF05460028F5D001230026AD
:1075D000CDE900632168102202A8FDF77CFB02A818
:1075E000FDF734FC2328E7D131462046FFF742FF60
:1075F00031462046FFF7ADFF31462046FFF726FF14
:10760000DBE7000008B5024B1B689B68019308BDCF
:107610006802030008B5024B1B68DB68019308BDD4
:107620006802030008B5024B1B689B68019308BD04
:107630002C02030008B5024B1B68DB68019308BDF0
:107640002C02030008B5024B1B681B69019308BD9F
:107650002C02030008B5024B1B685B68019308BD50
:107660001802030008B5024B1B68DB68019308BDD4
:107670001802030008B5024B1B681B69019308BD83
:107680001802030008B5024B1B685B69019308BD33
:107690001802030008B5024B1B689B6D019308BDDF
:1076A0001802030008B5024B1B685B6E019308BD0E
:1076B0001802030008B5024B1B685B6C019308BD00
:1076C0004802030008B5024B1B685B69019308BDC3
:1076D0006402030008B5024B1B68DB68019308BD18
:1076E0003C02030008B5024B1B681B69019308BDEF
:1076F0003C02030008B5024B1B685B69019308BD9F
:107700003C02030008B5024B1B689B69019308BD4E
:107710003C02030008B5024B1B68DB69019308BDFE
:107720003C02030008B5024B1B681B6A019308BDAD
:107730003C02030008B5024B1B689B6A019308BD1D
:107740003C02030008B5024B1B681B6C019308BD8B
:107750003C02030008B5024B1B68DB68019308BDBF
:107760002802030008B5024B1B689B69019308BD02
:107770002802030008B5024B1B68DB69019308BDB2
:107780002802030008B5024B1B681B6A019308BD61
:107790002802030008B5024B1B685B6A019308BD11
:1077A0002802030008B5024B1B689B6A019308BDC1
:1077B0002802030008B5024B1B68DB6A019308BD71
:1077C0002802030008B5024B1B681B6B019308BD20
:1077D0002802030008B5024B1B685B6B019308BDD0
:1077E0002802030008B5024B1B681B6C019308BDFF
:1077F0002802030008B5024B1B681B6D019308BDEE
:107800002802030008B5024B1B681B68019308BDE2
:107810003002030008B5024B1B685B69019308BD89
:107820003002030008B5024B1B68DB69019308BDF9
:107830003002030008B5024B1B681B6A019308BDA8
:107840003002030008B5024B1B685B6A019308BD58
:107850003002030008B5024B1B689B6A019308BD08
:107860003002030008B5024B1B689B6B019308BDF7
:107870003002030008B5024B1B68DB6B019308BDA7
:107880003002030008B5024B1B681B6C019308BD56
:107890003002030008B5024B1B685B6C019308BD06
:1078A0003002030008B5024B1B681B68019308BD3A
:1078B0004C02030008B5024B1B685B68019308BDCE
:1078C0004C02030008B5024B1B681B69019308BDFD
:1078D0004C02030008B5024B1B685B69019308BDAD
:1078E0004C02030008B5024B1B689B69019308BD5D
:1078F0004C02030008B5024B1B68DB69019308BD0D
:107900004C02030008B5024B1B681B6A019308BDBB
:107910004C02030008B5024B1B685B6A019308BD6B
:107920004C02030008B5024B1B681B68019308BD9D
:107930002002030008B5024B1B685B68019308BD79
:107940002002030008B5024B1B685B69019308BD68
:107950002002030008B5024B1B68DB6A019308BDD7
:107960002002030008B5024B1B689B6D019308BD04
:107970002002030008B5034B1B68D3F8883001933D
:1079800008BD00002002030008B5034B1B68D3F8B4
:107990009430019308BD00002002030008B5024B9B
:1079A0001B685B68019308BD4002030008B5024BE9
:1079B0001B689B68019308BD4002030008B5024B99
:1079C0001B68DB68019308BD4002030008B5024B49
:1079D0001B681B69019308BD4002030008B5024BF8
:1079E0001B685B69019308BD4002030008B5024BA8
:1079F0001B689B69019308BD4002030008B5024B58
:107A00001B68DB69019308BD4002030008B5024B07
:107A10001B681B6A019308BD4002030008B5024BB6
:107A20001B681B6B019308BD4002030008B5024BA5
:107A30001B685B6B019308BD4002030008B5024B55
:107A40001B681B6C019308BD4002030008B5024B84
:107A50001B685B6C019308BD4002030008B5024B34
:107A60001B689B68019308BD4402030008B5024BE4
:107A70001B685B69019308BD4402030008B5024B13
:107A80001B681B6B019308BD4402030008B5024B41
:107A90001B68DB6B019308BD4402030008B5024B71
:107AA0001B681B68019308BD1C02030008B5024B4C
:107AB0001B685B68019308BD1C02030008B5024BFC
:107AC0001B68DB69019308BD1C02030008B5024B6B
:107AD0001B685B6A019308BD1C02030008B5024BDA
:107AE0001B68DB6B019308BD1C02030008B5024B49
:107AF0001B681B6C019308BD1C02030008B5024BF8
:107B00001B685B6C019308BD1C02030008B5024BA7
:107B10001B68DB6C019308BD1C0203000022406857
:107B20001146FFF773BF002240681146FFF77EBF82
:107B300040680022FFF772BF4068002281F0010117
:107B4000FFF75CBF002340681A461946FFF74EBF97
:107B5000002340681A461946FFF740BF00224068DC
:107B60001146FFF733BF002240681146FFF71EBFE2
:107B7000406800220221FFF721BF002340681A4617
:107B8000FFF70CBF024B03225A60024A1A6070478B
:107B900088E603200C9D0B000021FFF77BBE00212F
:107BA000FFF770BE10B5044608462170FFF73AFE95
:107BB00000236360204610BD13B504460078FFF72C
:107BC000EEFF58B9207801904FF6FF71FFF71AFECB
:107BD000019802B0BDE81040FFF7DEBF02B010BD53
:107BE0000078FFF7D9BF0000400830B518600024C6
:107BF00018688842E5B206D90134082C02D0400842
:107C00001860F5E70725024B5B5D137030BD00BFC0
:107C1000409D0B002DE9F04306468FB000780C46DE
:107C2000FFF7BDFF00281BDB35781422002109A8CF
:107C300001F0ECFD0B23002209A92846ADF8243001
:107C4000FFF700FE9DF82D3013B19DF82C5055B173
:107C50000027B946B846012523795DB1C3B100209C
:107C60000FB0BDE8F083DDF830809DF834909DF8CA
:107C70003570F1E7002B35D1A368434508D18DF865
:107C800020908DF82170BDF82020A3899A42E6D07B
:107C90000023A1688DF80F300A9804AB0DF10F0294
:107CA000FFF7A2FF217985B989B9A36843450ED3AF
:107CB0008DF820908DF82170BDF82020A3899A427C
:107CC00005D1049B434502D1C9E70029F9D100231E
:107CD0000193637B00939DF80F20237B3078FFF79F
:107CE000C9FDBCE7CDE900552B462A460121F5E741
:107CF00008B50078FFF78EFDC0B208BD30B587B07B
:107D000004460A9D00950078FFF7A4FD3DB9207850
:107D100002A9FFF7A7FD9DF81430DB07F7D407B0E1
:107D200030BD0000054B02221A60054B054A9A60DF
:107D30000020C3E90000FFF7FDBD00BF9CE6032063
:107D400090E603200000FFFF024800230360FFF7D6
:107D5000B1BC00BFA0E60320F8B506460D468F185B
:107D60000024BD420CD0336815F8011B9B683046D7
:107D70009847031E01DB1C44F3E7002C08BF1C4698
:107D80002046F8BD08B5FEF723FB08BD03689B68D5
:107D9000184738B50D210546FFF7F8FF0A210446BC
:107DA0002846FFF7F3FF204438BD38B50546FEF7F7
:107DB0000FFB04462846FFF7ECFF204438BD30B5E2
:107DC0008BB00023012A8DF8243098BF0A2209AC19
:107DD0000D46B1FBF2F101FB125303F0FF03092B37
:107DE00094BF30333733DBB2AA4204F8013DEFD9F8
:107DF0002146FEF7EDFA0BB030BD00002DE9F74F3C
:107E000055EC104B06460F4610EE102A10EE100AE5
:107E10002B46294601F024FC40B153493046FEF779
:107E2000D7FA8246504603B0BDE8F08F25F00049EE
:107E30004E4B4FF0FF322046494601F011FC48B945
:107E40004A4B4FF0FF322046494601F0EBFB08B9A0
:107E50004749E3E7474B4FF060422046294601F08F
:107E6000F5FB08B14449D9E7444B4FF06042204646
:107E7000294601F0CDFB0028F4D100220023204642
:107E8000294601F0C5FBD0B12D213046FFF77EFF1A
:107E900005F1004382461D463949DFF8EC904FF06A
:107EA000000B00204FF000085FFA8BF39F4208D9C7
:107EB00042464B4601F064FA0BF1010BF4E78246AF
:107EC000EAE722462B4600F07BFF0D46044601F010
:107ED00005FC804601F0B0F802460B4620462946D4
:107EE00000F06CFF0A2204460D4630464146FFF77B
:107EF00066FF8244002F95D02249DFF88C903046EF
:107F0000FEF766FA4FF000088244002F8AD04246FE
:107F10004B462046294601F009F904460D4601F07A
:107F2000B5FBB0F1000B1CDA2D213046FFF72EFF18
:107F3000CBF1000103460A2230460193FFF73FFFD1
:107F4000019B18448244584601F086F802460B46CD
:107F50002046294600F032FF013F04460D46FFB29D
:107F6000D3E759460023E6E7489D0B00FFFFEF7F6C
:107F70004C9D0B00FFFFEF41509D0B00FFFFEFC139
:107F80000000E03F549D0B000000244038B5C9B20A
:107F90000546FFF733FF04462846FFF7FAFE204464
:107FA00038BD38B5044610EE100A0D4601F066F8EB
:107FB00041EC100B29462046BDE83840FFF7E6BFEC
:107FC0002DE9F04186B000AF05460E46381D14215C
:107FD00014463B60FFF77AFD13280ED8391D28465A
:107FE000FEF7F6F904461EB12846FFF7D2FE044418
:107FF00020461837BD46BDE8F08100F1080323F0A4
:108000000703E846ADEB030D2246411C3B6868467A
:10801000FFF75CFD69462846FEF7DAF90446C546D7
:10802000E1E70000014B024A1A607047A4E6032012
:10803000569D0B002DE9F041154ADFF86080D2E92A
:108040000063801943EB0101124BD3E90067D8E9C3
:108050000023861941EB0707BB4208BFB2428CB030
:1080600013D003A96846CDE90067FFF74FFD089BD1
:10807000094D03F26C7303AC08930FCC0FC50FCC02
:108080000FC5C8E9006723682B600CB0BDE8F0811C
:10809000D8E60320D0E60320ACE60320E0E6032088
:1080A00008B50020FFF7EAFC28B1FFF7DFFC80F0FD
:1080B0000100C0B208BD0120FCE7000008B5FFF7D1
:1080C000B9FF024B1869013008BD00BFACE60320C0
:1080D00010B50020FFF7DEFA0446A0B9FFF722FC36
:1080E000012810D12046FFF73DFC60B9FFF7D8FF0B
:1080F00010B9FFF7B3FCF9E7FFF7D2FFBDE8104076
:108100000020FFF7C7BA204610BD1FB5FFF7E0FFFC
:1081100010220021684601F079FB00216846FFF734
:10812000C1FA009805B05DF804FB000008B5FFF740
:10813000ECFFC117FFF77EFF014B986808BD00BF39
:10814000ACE6032008B5FFF7E0FFC117FFF772FFA9
:10815000014B586808BD00BFACE6032008B5FFF727
:10816000D4FFC117FFF766FF014B186808BD00BFB9
:10817000ACE6032008B5FFF7C8FFC117FFF75AFFA9
:10818000014BD86808BD00BFACE6032008B5FFF777
:10819000BCFFBDE80840C117FFF790BF08B5FFF767
:1081A000B4FFC117FFF746FF014B586908BD00BF78
:1081B000ACE60320024B1A68024B1A60704700BFFE
:1081C000D4DF0320A8E603200021FFF7BBBB00009B
:1081D000014B00229A607047E8E60320014B1860CB
:1081E000704700BFD8DF032008B50B4B43B100F048
:1081F0006DF903681B699847002801DDAFF3008023
:10820000064B43B100F0D8FB03681B699847002870
:1082100001DDAFF3008008BD000000000000000099
:1082200008B5FFF7E1FFFFF72DFA014B186008BD15
:1082300040E703200548064A064908B5121A01F02E
:10824000D7FA054B054A1A6008BD00BF00F40320A9
:1082500004F4032074A00B0000F403201E1C279AD2
:1082600007B5002300931A466FF07701FFF78CFBE8
:1082700003B05DF804FB000007B543880A2B08D063
:10828000502B0BD1094B1B684BB103B05DF804EBCD
:108290001847FFF7E5FF03B05DF804FB00230093E8
:1082A0001A466FF07701FFF76FFBF4E7FCE6032057
:1082B00010B512480021FFF721FC114B1A68114B31
:1082C0009A42114B0CBF012200221A7001D0FFF715
:1082D000B1FFFFF7BFF9044601F0A0FA0B4B13B151
:1082E0002046AFF3008000210848FFF7CFFBBDE830
:1082F000104007480021FFF73DBB00BFDD810B00A8
:1083000000F403201E1C279AF8E60320000000005A
:1083100079820B00704710B518210446FBF7BFFEA9
:10832000204610BDF0B5037D062B8DB00E4600F142
:1083300004074FF0000412D000F1080515F8011DE4
:108340000A223046FFF73BFDAF42044419D0002C0F
:10835000F4D02E213046FFF719FD0444EEE72F2319
:108360006A4639460A208DF80040FFF7ABF96846A7
:1083700001F082FA33680246DB6869463046984766
:10838000044620460DB0F0BD10B5054B0446112241
:1083900040F8043B002101F039FA204610BD00BF2F
:1083A000809D0B000346074A10B543F8042B01F1EA
:1083B000100251F8044B43F8044B9142F9D10A786A
:1083C0001A7010BD809D0B0010B59DF8084044EA5E
:1083D000032343EA024242EA016104234160037538
:1083E00010BD000007B5064B0360CB7800938B7877
:1083F0004A780978FFF7E8FF03B05DF804FB00BF97
:10840000809D0B00417470477047704708B500218C
:10841000007CFFF767FA40EAE07008BD08B501216B
:10842000007CFFF75FFA40EAE07008BD08B5007C09
:10843000FFF750FA20EAE07008BD08B5007CFFF7AE
:1084400041FA20EAE07008BD13B50446007C0191B2
:10845000FFF740FA0028019901DC607C20B1207C04
:10846000FFF748FA20EAE07002B010BD007CFFF789
:1084700049BA10B514210446FBF711FE204610BD81
:1084800010B54FF47A73044608460021C4E901137D
:10849000044B23600123207463741146FFF702FA32
:1084A000204610BD949D0B00007C0022FFF702BA0D
:1084B000007CFFF72FBAFFF7FBBF10B5142204466C
:1084C000002101F0A3F9204610BD000010B50F4CAB
:1084D00088B003A8FFF7F1FF2178BFF35B8F11F09D
:1084E00001010FD120460191FBF7DBFD019948B155
:1084F00003AA0748FFF7C4FF2046FBF7D7FD05484E
:1085000001F05CF9024808B010BD00BF00E703208D
:1085100004E7032009840B0070474174704708B5D5
:10852000007CFFF707F920EAE07008BD08B5007C81
:10853000FFF7D8F820EAE07008BD08B5007CFFF727
:10854000E1F840EAE07008BD08B5007CFFF7D2F81A
:1085500040EAE07008BD007CFFF7DCB837B5457C29
:1085600004462DB1207C03B0BDE83040FFF7B2B81F
:10857000007C0191FFF7DEF800280199F2DC284623
:1085800003B030BD10B514210446FBF788FD20462A
:1085900010BD000010B54FF47A730446084611462A
:1085A0000022C4E90123044B236001232074637477
:1085B000FFF7C8F8204610BDC49D0B007047F8B502
:1085C000064615460C468F18BC4206D0336814F890
:1085D000011B9B6830469847F6E72846F8BD007CAB
:1085E0000022FFF7CFB8007C0021FFF7D3B8007C52
:1085F0000021FFF7D7B8007C0021FFF7DBB8007C33
:108600000021FFF7DFB810B514210446FBF747FD42
:10861000204610BD38B5044615464FF47A73002243
:10862000C4E90123094B2174084623602946FFF75A
:10863000D9F8BF3008D16B69DB0705D56868FFF74B
:1086400035FAE868FFF732FA204638BDF49D0B0092
:108650000023007C1A461946FFF77CB87FB500223C
:108660001423CDE90122ADF804300B788DF80830E1
:108670004B680393CB680493007C0B7A059301A9A4
:10868000FFF7B8F807B05DF804FB1FB5003B8DF8A5
:1086900000104FF06401039118BF01236946019255
:1086A0008DF80830FFF7DAFF05B05DF804FB012311
:1086B000FFF7EBBF007C0022FFF754B8C9B2FFF709
:1086C000F9BF007C0022FFF755B80121FFF7F9BF81
:1086D000002240681146FFF779B900224068114630
:1086E000FFF794B9002240681146FFF79FB9406830
:1086F0000022FFF793B94068002281F00101FFF7E3
:108700007DB9002340681A461946FFF76FB9002368
:1087100040681A461946FFF761B9002240681146C1
:10872000FFF744B9406800220221FFF747B9002350
:1087300040681A46FFF732B9024B04225A60024AD7
:108740001A60704718E703201C9E0B000023406846
:108750001A46FFF723B9406800220221FFF72EB91D
:10876000002240681146FFF721B9002240681146F7
:10877000FFF72CB9002340681A461946FFF72EB9B7
:10878000002340681A461946FFF730B940680021B7
:10879000FFF754B940680021FFF758B9406800223C
:1087A00081F00101FFF72AB940680022FFF736B9CE
:1087B000002240681146FFF739B90022406811468F
:1087C000FFF724B92DE9F04395B014460D4607464E
:1087D000FFF7DAFD00211C220DA8009101F016F828
:1087E00040230C9320466B460CAA0021FEF712FF93
:1087F000044600284BD1024601216868FFF7E6F8DD
:108800000221804622466868FFF7E0F8009E814614
:108810002146002E3BD0002939D17368022B03D0AA
:108820000A2B11D0F669F4E7B8F1000FFAD071699C
:1088300006A8043107ADFFF7D5FD0FCD3C1D0FC4D1
:108840002B6823704146EDE7B9F1000FEAD0746957
:10885000102201A800F0DAFF06238DF8143001ADD4
:1088600004F108031834186859682A4603C208330B
:10887000A3421546F7D101A906A807ADFFF792FD5F
:108880000FCD3C1D0FC42B6823704946CAE70098E2
:10889000FEF7B8FE384615B0BDE8F083024B034A38
:1088A0001A6000225A60704720E70320589E0B0090
:1088B000232813B502D9002002B010BDA0F10B038C
:1088C000022B1AD8174C2178BFF35B8F11F00101EE
:1088D0000BD120460191FBF7E4FB019928B1124826
:1088E000FFF760F92046FBF7E1FB0F4B1878FEF726
:1088F000A1FF0028DFD10120DEE7012809D800F020
:108900009BF80021007CFEF765FF80F00100C0B2FB
:10891000D2E709380128EED800F04EF8007CFEF7C7
:1089200001FFF2E740E0032044E00320232838B5AC
:1089300004460D460AD8FF2908D0FFF7B9FF28B131
:1089400029462046BDE83840FEF76CBE38BD38B534
:1089500004460D46FEF76EFEFF2810D0062804D808
:108960004D2323FA00F0C30709D42046FFF7A0FFE8
:1089700028B129462046BDE83840FEF763BE38BD21
:108980007047000038B5044614252A46002100F03F
:108990003DFF25804025074925812846258200F096
:1089A0006FF804496060284600F06AF8E0602046ED
:1089B00038BD00BF8C9E0B0030B50E4D2978BFF33B
:1089C0005B8F11F0010487B011D12846FBF769FBDA
:1089D00068B101A8FFF7D6FF01AA21460648FFF7B4
:1089E000D9FD2846FBF762FB044800F0E7FE024889
:1089F00007B030BD28E703202CE7032081890B0056
:108A00007047000038B50A4B0360012304464361F8
:108A10000849202000F034F8202560600549A56051
:108A2000284600F02DF8C4E90305204638BD00BFF4
:108A3000180001008C9E0B0030B50E4D2978BFF355
:108A40005B8F11F0010487B011D12846FBF729FB99
:108A500068B16846FFF7D6FF6A4621460648FFF729
:108A6000D9FD2846FBF722FB044800F0A7FE024888
:108A700007B030BD44E7032048E70320018A0B001C
:108A8000FBF70BBBC3689A68C26010B502B15060B7
:108A900042685A600C68844203D10B60986043605E
:108AA00010BD916881420CBF9360D360F6E7836884
:108AB000DA68826010B502B1506042685A600C6892
:108AC000844203D10B60D860436010BDD1688142FD
:108AD0000CBFD3609360F6E7C36823B118469B6868
:108AE000002BFBD170474368DA68824202D11846F6
:108AF0005B68F9E7C268934218BF1846704703786D
:108B000033B943685B68834202D1DB68184670471B
:108B1000826822B11346D268002AFBD1F6E7436887
:108B20009A688242F2D118465B68F9E7FFF7D4BF32
:108B3000FFF7E5BF2DE9F8431E4603F104080023C3
:108B4000C1E902330C464A600B7000B39642916053
:108B500018D17160F46001274FF000097368A342D7
:108B60003FD060680278002A3BD14568AB689842E4
:108B700023D1EB6883B11A7872B907701F702A701D
:108B80002C46EBE7B3689342E5D1B160E3E7D160EF
:108B9000F3689342DFD1DDE7C368A34203D14146C6
:108BA000FFF770FF0446636841461F70284685F84A
:108BB0000090FFF77CFF2546E2E713B11A78002A00
:108BC000DBD08368A34203D14146FFF770FF044620
:108BD000636841461F70284685F80090FFF752FFF2
:108BE000E9E701221A70BDE8F8832DE9F7430F4643
:108BF000D0E902610446002E3ED000293DD00A464D
:108C000013469268002AFBD1A342DA684BD09942FE
:108C100073609E6027D05D6802B1556058688260BD
:108C2000D960E1684B607968A1421ED17B606168C0
:108C3000207859601978187016462170237873B11E
:108C4000391D4FF000084FF001097B68B3427BD01B
:108C5000002E3FD03378012B3CD0012333702046C7
:108C600003B0BDE8F0831D46DDE761688868A04277
:108C70000CBF8B60CB60DAE70E46656806B17560A5
:108C80007B68A34211D17E60BB68A34203D1E36835
:108C900093B96368BB60FB68A342CFD1A36893B963
:108CA0006368FB60CAE71646E7E763689A68A24212
:108CB0000CBF9E60DE60E7E733461A469B68002BD8
:108CC000FBD1BA60E7E733461A46DB68002BFBD1DD
:108CD000FA60B3E7A868B04239D1E868037843B9CD
:108CE00080F8009028462B700191FFF7CBFEE868D2
:108CF0000199D0E9022322B192F800C0BCF1010F22
:108D00000BD123B193F800C0BCF1010F05D16B6802
:108D100080F800802E461D4697E713B11B78012B83
:108D200008D101231370002303700191FFF7BFFEE8
:108D3000E86801992B780370C36801222A7003B197
:108D40001A702846FFF79EFE002E86D187E703782B
:108D500043B980F8009028462B700191FFF7A7FED9
:108D6000A8680199D0E9023222B192F800C0BCF1A2
:108D7000010F06D1002BCAD093F800C0BCF1010F3F
:108D8000C5D013B11B78012B08D101231370002328
:108D900003700191FFF776FEA86801992B780370A4
:108DA000836801222A7003B11A702846FFF77FFEFC
:108DB000CAE7000081F0004102E000BF83F00043F9
:108DC00030B54FEA41044FEA430594EA050F08BF66
:108DD00090EA020F1FBF54EA000C55EA020C7FEA2A
:108DE000645C7FEA655C00F0E2804FEA5454D4EBA7
:108DF0005555B8BF6D420CDD2C4480EA020281EA71
:108E0000030382EA000083EA010180EA020281EAA8
:108E10000303362D88BF30BD11F0004F4FEA0131FA
:108E20004FF4801C4CEA113102D0404261EB410109
:108E300013F0004F4FEA03334CEA133302D052428F
:108E400063EB430394EA050F00F0A780A4F101044B
:108E5000D5F1200E0DDB02FA0EFC22FA05F2801885
:108E600041F1000103FA0EF2801843FA05F359416B
:108E70000EE0A5F120050EF1200E012A03FA0EFCEA
:108E800028BF4CF0020C43FA05F3C01851EBE37114
:108E900001F0004507D54FF0000EDCF1000C7EEB31
:108EA00000006EEB0101B1F5801F1BD3B1F5001F6F
:108EB0000CD349085FEA30004FEA3C0C04F101048E
:108EC0004FEA445212F5800F80F09A80BCF1004FB7
:108ED00008BF5FEA500C50F1000041EB045141EA39
:108EE000050130BD5FEA4C0C404141EB0101013C02
:108EF00028BFB1F5801FE9D291F0000F04BF0146F1
:108F00000020B1FA81F308BF2033A3F10B03B3F1C2
:108F100020020CDA0C3208DD02F1140CC2F10C0252
:108F200001FA0CF021FA02F10CE002F11402D8BFB0
:108F3000C2F1200C01FA02F120FA0CFCDCBF41EA7C
:108F40000C019040E41AA2BF01EB0451294330BD4B
:108F50006FEA04041F3C1CDA0C340EDC04F1140428
:108F6000C4F1200220FA04F001FA02F340EA0300FF
:108F700021FA04F345EA030130BDC4F10C04C4F145
:108F8000200220FA02F001FA04F340EA0300294625
:108F900030BD21FA04F0294630BD94F0000F83F46F
:108FA000801306BF81F480110134013D4EE77FEA52
:108FB000645C18BF7FEA655C29D094EA050F08BF9E
:108FC00090EA020F05D054EA000C04BF194610467F
:108FD00030BD91EA030F1EBF0021002030BD5FEAC3
:108FE000545C05D14000494128BF41F0004130BDEB
:108FF00014F580043CBF01F5801130BD01F000453F
:1090000045F0FE4141F470014FF0000030BD7FEAB1
:10901000645C1ABF194610467FEA655C1CBF0B46AC
:10902000024650EA013406BF52EA033591EA030FC3
:1090300041F4002130BD00BF90F0000F04BF0021BB
:10904000704730B54FF4806404F132044FF00005EE
:109050004FF0000150E700BF90F0000F04BF002167
:10906000704730B54FF4806404F1320410F00045CD
:1090700048BF40424FF000013EE700BF42004FEAC8
:10908000E2014FEA31014FEA02701FBF12F07F4345
:1090900093F07F4F81F06051704732F07F4208BFFC
:1090A000704793F07F4F04BF41F40021704730B503
:1090B0004FF4607401F0004521F000411CE700BF4F
:1090C00050EA010208BF704730B54FF000050AE0D2
:1090D00050EA010208BF704730B511F0004502D5D3
:1090E000404261EB41014FF4806404F132045FEAD5
:1090F000915C3FF4D8AE4FF003025FEADC0C18BF7E
:1091000003325FEADC0C18BF033202EBDC02C2F16F
:10911000200300FA03FC20FA02F001FA03FE40EA01
:109120000E0021FA02F11444BDE600BF70B54FF005
:10913000FF0C4CF4E06C1CEA11541DBF1CEA1355E3
:1091400094EA0C0F95EA0C0F00F0DEF82C4481EA4B
:10915000030621EA4C5123EA4C5350EA013518BF6B
:1091600052EA033541F4801143F4801338D0A0FB58
:1091700002CE4FF00005E1FB02E506F00042E0FB05
:1091800003E54FF00006E1FB03569CF0000F18BF0B
:109190004EF0010EA4F1FF04B6F5007F64F54074B3
:1091A00004D25FEA4E0E6D4146EB060642EAC62146
:1091B00041EA55514FEAC52040EA5E504FEACE2EB3
:1091C000B4F1FD0C88BFBCF5E06F1ED8BEF1004FB6
:1091D00008BF5FEA500E50F1000041EB045170BD32
:1091E00006F0004646EA010140EA020081EA030176
:1091F000B4EB5C04C2BFD4EB0C0541EA045170BD72
:1092000041F480114FF0000E013C00F3AB8014F1EB
:10921000360FDEBF002001F0004170BDC4F1000434
:10922000203C35DA0C341BDC04F11404C4F12005B5
:1092300000FA05F320FA04F001FA05F240EA020010
:1092400001F0004221F0004110EBD37021FA04F646
:1092500042EB06015EEA430E08BF20EAD37070BD00
:10926000C4F10C04C4F1200500FA04F320FA05F05F
:1092700001FA04F240EA020001F0004110EBD37061
:1092800041F100015EEA430E08BF20EAD37070BDD1
:10929000C4F1200500FA05F24EEA020E20FA04F3AA
:1092A00001FA05F243EA020321FA04F001F0004159
:1092B00021FA04F220EA020000EBD3705EEA430ECA
:1092C00008BF20EAD37070BD94F0000F0FD101F0F9
:1092D0000046400041EB010111F4801F08BF013C32
:1092E000F7D041EA060195F0000F18BF704703F070
:1092F0000046520043EB030313F4801F08BF013DF7
:10930000F7D043EA0603704794EA0C0F0CEA1355B2
:1093100018BF95EA0C0F0CD050EA410618BF52EA6C
:109320004306D1D181EA030101F000414FF0000072
:1093300070BD50EA410606BF1046194652EA430680
:1093400019D094EA0C0F02D150EA013613D195EAF4
:109350000C0F05D152EA03361CBF104619460AD13C
:1093600081EA030101F0004141F0FE4141F4700146
:109370004FF0000070BD41F0FE4141F4780170BD36
:1093800070B54FF0FF0C4CF4E06C1CEA11541DBF9B
:109390001CEA135594EA0C0F95EA0C0F00F0A7F89D
:1093A000A4EB050481EA030E52EA03354FEA0131CA
:1093B00000F088804FEA03334FF0805545EA1313DD
:1093C00043EA12634FEA022245EA111545EA1065A5
:1093D0004FEA00260EF000419D4208BF964244F13C
:1093E000FD0404F5407402D25B084FEA3202B61A5B
:1093F00065EB03055B084FEA32024FF480104FF42F
:10940000002CB6EB020E75EB030E22BFB61A7546A2
:1094100040EA0C005B084FEA3202B6EB020E75EB35
:10942000030E22BFB61A754640EA5C005B084FEA9D
:109430003202B6EB020E75EB030E22BFB61A75466A
:1094400040EA9C005B084FEA3202B6EB020E75EB75
:10945000030E22BFB61A754640EADC0055EA060E36
:1094600018D04FEA051545EA16754FEA06164FEA79
:10947000C30343EA52734FEAC2025FEA1C1CC0D125
:1094800011F4801F0BD141EA00014FF000004FF0B2
:10949000004CB6E711F4801F04BF01430020B4F173
:1094A000FD0C88BFBCF5E06F3FF6AFAEB5EB030C2B
:1094B00004BFB6EB020C5FEA500C50F1000041EB28
:1094C000045170BD0EF0004E4EEA113114EB5C04F5
:1094D000C2BFD4EB0C0541EA045170BD41F48011C8
:1094E0004FF0000E013C90E645EA060E8DE60CEAD0
:1094F000135594EA0C0F08BF95EA0C0F3FF43BAFED
:1095000094EA0C0F0AD150EA01347FF434AF95EAA3
:109510000C0F7FF425AF104619462CE795EA0C0F87
:1095200006D152EA03353FF4FDAE1046194622E754
:1095300050EA410618BF52EA43067FF4C5AE50EA2E
:1095400041047FF40DAF52EA43057FF4EBAE12E71E
:109550004FF0FF3C06E000BF4FF0010C02E000BFFF
:109560004FF0010C4DF804CD4FEA410C7FEA6C5CE2
:109570004FEA430C18BF7FEA6C5C1BD001B050EA85
:10958000410C0CBF52EA430C91EA030F02BF90EA70
:10959000020F0020704710F1000F91EA030F58BF2F
:1095A000994208BF90422CBFD8176FEAE37040F091
:1095B000010070474FEA410C7FEA6C5C02D150EA2F
:1095C000013C07D14FEA430C7FEA6C5CD6D152EAEA
:1095D000033CD3D05DF8040B704700BF84461046AF
:1095E00062468C461946634600E000BF01B5FFF7AE
:1095F000B7FF002848BF10F1000F01BD4DF808ED7E
:10960000FFF7F4FF0CBF012000205DF808FB00BF4E
:109610004DF808EDFFF7EAFF34BF012000205DF8A8
:1096200008FB00BF4DF808EDFFF7E0FF94BF0120F5
:1096300000205DF808FB00BF4DF808EDFFF7CEFFF6
:1096400094BF012000205DF808FB00BF4DF808ED35
:10965000FFF7C4FF34BF012000205DF808FB00BF06
:109660004FEA410C7FEA6C5C02D150EA013C0AD11E
:109670004FEA430C7FEA6C5C02D152EA033C02D110
:109680004FF0000070474FF0010070474FEA410271
:1096900012F5001215D211D56FF47873B3EB625244
:1096A00012D94FEAC12343F0004343EA505311F06B
:1096B000004F23FA02F018BF404270474FF00000FD
:1096C000704750EA013005D111F0004008BF6FF03B
:1096D000004070474FF00000704700BF4A0011D2B1
:1096E00012F5001211D20DD56FF47873B3EB6252FC
:1096F0000ED44FEAC12343F0004343EA505323FA08
:1097000002F070474FF00000704750EA013002D17C
:109710004FF0FF3070474FF0000070474FEA4102B2
:10972000B2F1E04324BFB3F5001CDCF1FE5C0DD9BF
:1097300001F0004C4FEAC0024CEA5070B2F1004F09
:1097400040EB830008BF20F00100704711F0804F0C
:1097500021D113F13872BCBF01F00040704741F4D1
:1097600080114FEA5252C2F11802C2F1200C10FAD5
:109770000CF320FA02F018BF40F001004FEAC123B9
:109780004FEAD32303FA0CFC40EA0C0023FA02F35D
:109790004FEA4303CCE77FEA625307D150EA013333
:1097A0001EBF4FF0FE4040F44000704701F0004003
:1097B00040F0FE4040F40000704700BF0023014627
:1097C0001A46184600F0ECB80A22002100F0DEB874
:1097D00010B501390244904201D1002005E0037820
:1097E00011F8014FA34201D0181B10BD0130F2E760
:1097F0000A44914200F1FF3300D1704710B511F8CF
:10980000014B03F8014F9142F9D110BD02440346C8
:10981000934200D1704703F8011BF9E738B5104BAC
:109820001D68AB6B0446B3B91820FEF737F9024642
:10983000A86320B90B4B0C484221FEF757F90B499E
:109840000B4BC0E900130B4B83600B23838100217A
:109850000120C2E90401AB6B00221C615A6138BDD2
:10986000D8DF03208D9E0B00A49E0B000E33CDABE2
:1098700034126DE6ECDE0500034613F8012B002AD6
:10988000FBD1181A01387047012B2DE9F04701D0A0
:10989000242B06D9FEF722F9162303600020BDE829
:1098A000F087DFF8E4C00D462E4615F8014B14F89A
:1098B0000C7017F00807F7D12D2C32D12C78012726
:1098C000B51C002B5BD0102B09D1302C07D12C7884
:1098D00004F0DF04582C4DD16C781023023507F1C9
:1098E000004808F1FF384FF0000CB8FBF3F966466A
:1098F00003FB198AA4F1300EBEF1090F16D8744685
:10990000A34224DDBCF1000F1EDBB1451CD301D105
:10991000A24519DB06FB03464FF0010C15F8014B7D
:10992000E8E72B2C04BF2C78B51CCAE7A4F1410E44
:10993000BEF1190F01D8373CE2E7A4F1610EBEF188
:10994000190F04D8573CDBE74FF0FF3CE6E7BCF1CA
:10995000000F05DA22230360464642B930469EE7EF
:1099600007B17642002AF9D0BCF1000F00D0691E81
:109970001160F3E73024002BB1D10823AFE7302C7E
:10998000A5D00A23ABE700BF229F0B0013460A466F
:10999000014602480068FFF777BF00BFD8DF032009
:1099A0002DE9F843DFF8B8800646D8F800001F46D6
:1099B0000D46914600F056F8254B1C6834B9254CED
:1099C0001C60254B13B11B68C4F8883063681F2BDB
:1099D00007DDD8F8000000F047F84FF0FF30BDE891
:1099E000F8834EB3D4F8880088B91C4B23B9D8F853
:1099F000000000F038F8F0E74FF48470FEF74EF8FE
:109A00000028F4D00023C0E94033C4F8880063681C
:109A100040F8239001229A4000EB8301D0F80031F6
:109A20001343C0F80031022EC1F8807002BFD0F895
:109A300004311343C0F804316368D8F800005A1C9D
:109A40000233626044F8235000F00EF80020C6E7AD
:109A5000E8E703205CE70320000000009D7A0B008C
:109A60003CE00320704770477047000021400B0026
:109A70005D400B0085400B0089400B00000000009A
:109A800064656661756C7420004D5342004C53420E
:109A9000003C53504953657474696E677320646564
:109AA0006661756C743E003C53504953657474692B
:109AB0006E67732025732575202573204D4F44450F
:109AC00025753E00436F756C64206E6F7420666967
:109AD0006E642041533733343100436F756C646ECC
