:02000002B0004C
:1040000000400B00E0940B00000006000C000502CD
:0840100004010410000000008F
:04401800688E0B00A3
:1040200009480A49884208B505D0094A824202D0A7
:10403000121A04F067FE0748074A0021121A04F01A
:104040006FFE014808BD00BFF0E00320F8930B00AD
:10405000B0E10320B0E10320EDE7032070B5074E87
:10406000074C03F04BFDA41BA4080025AC4200D173
:1040700070BD56F8043B98470135F7E7AC930B0049
:10408000D0930B0000F0A6B808B500F0BFF9BDE86A
:10409000084003F0EBBC03F009BA03F007BA03F0E1
:1040A0000DBA0078B0FA80F0400970470123037020
:1040B00070477047037C13F008031EBFC36A406A51
:1040C0001B1A002BACBF18466FF0004070477047BA
:1040D00010B510210446FFF7E2FF204610BD10B5D1
:1040E00034210446FFF7DBFF204610BD103001F0FD
:1040F00057BD103001F075BC07B501220DF1070165
:10410000103001F0C0FB01280CBF9DF807004FF0F4
:10411000FF3003B05DF804FB103001F0CBBD07B5F4
:1041200001228DF8071010300DF1070101F0C2FDDA
:1041300003B05DF804FB10B42AB902685DF8044BC3
:104140009268C9B210475DF8044BD2B203F029BBA4
:1041500010B50446FFF7EFFF2046BDE8104003F01E
:1041600008BB0EB403B503AB002153F8042B019335
:1041700003F00DFC02B05DF804EB03B070470000E3
:1041800073B5044608462279A36832B1A3B90B4936
:1041900002B0BDE8704003F0E5BA094A267B094D3C
:1041A0000949647B012E18BF2946CDE9001407494F
:1041B000FFF7D7FF02B070BD054AEFE78D8E0B0009
:1041C00071900B00898E0B00858E0B00A38E0B0067
:1041D0007C8E0B0070B58EB003F09EFD4FF416512F
:1041E00003F088FD03F098FD03F08BFD18B9012062
:1041F00003F010FCF6E704F045F8002302463921ED
:104200006C4802F0ADFA40B903F086FD6A4903F04C
:10421000BCFA0A2003F0FEFBFBE76721654802F0C9
:1042200077FB40F68151634802F097FB61480A2111
:1042300002F0BAFB614802F093FD28B903F06CFD6F
:104240005F4903F0A2FAFEE75C4802F08BFD20B95B
:1042500003F062FD5B4903F098FA04F013F858216B
:104260000246594802F0C7FE40B903F055FD5749D0
:1042700003F08BFA0A2003F0CDFBFBE703F04CFDC3
:104280005349544C03F081FA534B4F48197801229B
:1042900002F056FE514B019300238DF8083004F5CF
:1042A0008C664F4B0393012501AB052204F26C4150
:1042B0003046ADF8105002F039F8F8B104F23C4045
:1042C000266001F0A3FC2946204601F0D9FE04F245
:1042D0003C45014668B13F4901F23C4001F0CDFA4E
:1042E00060B194F83C3413F0700F1CBF3D4B1D605F
:1042F00004E0204601F0C4FE0028ECD100234FF476
:104300007A72CDE902320593374B0193374A384927
:1043100044F2022305A801F080FC9DF81430002B24
:1043200042D0344901A803F01DFA2C2101A803F062
:104330001DFA204802F025FB0A22014601A8FFF7DA
:1043400007FF2D4901A803F00DFA2C2101A803F065
:104350000DFA184802F0EFFA0A22014601A803F00C
:1043600020FA01A803F005FA244901A803F0FAF99C
:104370002C2101A803F0FAF90E4802F028FB0A22CA
:10438000014601A803F00DFA01A803F0F2F91C4957
:1043900001A803F0FAF91B4901A803F0F6F905A8F2
:1043A00001F034FC0EB070BD03F0B6FC164903F00A
:1043B000F6F9F7E750E60320C08E0B00B0E60320C5
:1043C000D68E0B00E88E0B0078E60320FC8E0B00E7
:1043D0001C8F0B00C0E10320BCE1032014910B00F3
:1043E00080F0FA02B8E6032028910B002A8F0B0018
:1043F000FCE50320398F0B00408F0B00478F0B002B
:1044000070900B004D8F0B0026900B00F0B52DED3A
:104410000A8BA3B001A802F0C6FC03F07DFC9DF856
:1044200004100A2201F5FA61FFF785FE03F074FC1F
:104430002F2103F09BF903F06FFC0A229DF8051071
:1044400003F0AFF903F068FC2F2103F08FF903F0BC
:1044500063FC0A229DF8061003F0A3F903F05CFC4C
:10446000234903F07FF903F057FC044601A802F04A
:1044700061FC204B01B201EB410103EB81012046BD
:1044800003F070F903F048FC1B4903F06BF903F0EB
:1044900043FC0A229DF8071003F083F903F03CFC6B
:1044A0003A2103F063F903F037FC0A229DF8081063
:1044B00003F077F903F030FC3A2103F057F903F0E9
:1044C0002BFC9DF809100A2203F06BF903F024FC81
:1044D00003F04FF9094803A902F0D3FB90B903F0A8
:1044E0001BFC074903F051F923B0BDEC0A8BF0BD6A
:1044F0003A900B00F0E003203D900B0050E60320C3
:1045000040900B00DB4F03AD09AEFC24012C05D914
:104510002988384602F070FA86ED000A0134E4B2C8
:10452000082C05F1020506F10406EFD1D24DD3485F
:104530002978012202F0EAFC03F0EEFBD04903F0F7
:1045400024F903F0E9FB03F014F94FF4FA7003F0D7
:1045500061FA03F0E1FBCB4903F004F903F0DCFB63
:10456000DDED09CA0221B0EE6C0A03F001FA03F096
:10457000D3FBC54903F0F6F803F0CEFBC34903F0C3
:10458000F1F803F0C9FB0A22BDF80C10FFF7E0FDBB
:1045900003F0C2FBBE4903F0E5F803F0BDFB9DED5F
:1045A0000ACA0221B0EE4C0A03F0E2F903F0B4FBB0
:1045B000B54903F0D7F803F0AFFBB44903F0D2F8E4
:1045C00003F0AAFB0A22BDF80E10FFF7C1FD03F0AD
:1045D000A3FBB04903F0C6F803F09EFBDDED0BBA78
:1045E0000221B0EE6B0A03F0C3F903F095FBA64974
:1045F00003F0B8F803F090FBA44903F0B3F803F01C
:104600008BFB0A22BDF81010FFF7A2FD03F084FB1C
:10461000A14903F0A7F803F07FFB9DED0CBA02213E
:10462000B0EE4B0A03F0A4F903F076FB964903F0D1
:1046300099F803F071FB954903F094F803F06CFBD3
:104640000A22BDF81210FFF783FD03F065FB9349C2
:1046500003F088F803F060FBDDED0FAA0221B0EE55
:104660006A0A03F085F903F057FB874903F07AF8EB
:1046700003F052FB854903F075F803F04DFB0A2265
:10468000BDF81810FFF764FD03F046FB844903F002
:1046900069F803F041FB9DED10AA0221B0EE4A0A31
:1046A00003F066F903F038FB774903F05BF803F099
:1046B00033FB764903F056F803F02EFB0A22BDF8CF
:1046C0001A10FFF745FD03F027FB764903F04AF87F
:1046D00003F022FBDDED119A0221B0EE690A03F02E
:1046E00047F903F019FB684903F03CF803F014FBA9
:1046F000664903F037F803F00FFB0A22BDF81C10DF
:10470000FFF726FD03F008FB674903F02BF803F0E1
:1047100003FB9DED129A0221B0EE490A03F028F93D
:1047200003F0FAFA584903F01DF803F0F5FA574977
:1047300003F018F803F0F0FA0A22BDF81E10FFF794
:1047400007FD03F0E9FA594903F00CF803F0E4FA25
:10475000DDED138A0221B0EE680A03F009F903F0D7
:10476000DBFA494902F0FEFF03F0D6FA474902F0AE
:10477000F9FF03F0D1FA0A22BDF82010FFF7E8FC98
:1047800003F0CAFA4A4902F0EDFF03F0C5FA9DEDC5
:10479000148A0221B0EE480A03F0EAF803F0BCFAEA
:1047A000394902F0DFFF03F0B7FA384902F0DAFFC7
:1047B00003F0B2FA0A22BDF82210FFF7C9FC03F099
:1047C000ABFA314902F0CEFF03F0A6FA02F0D1FFB6
:1047D00000244FF47A73CDE91643364B1593364ACD
:1047E0003649199444F2022319A801F016FA9DF8EB
:1047F0006430002B00F07981214915A802F0B2FF46
:104800002C2115A802F0B2FF9DF804100A2201F530
:10481000FA6115A8FFF78FFC2F2115A802F0A6FF5B
:104820000A229DF8051015A802F0BBFF2F2115A83C
:1048300002F09CFF0A229DF8061015A802F0B1FFB5
:104840001F4915A802F08EFF01A802F073FA1D4956
:1048500000B200EB400001EB800115A802F082FFDE
:10486000194915A802F07EFF2C2115A802F07EFF41
:104870000A222BE050E60320BCE1032078E6032067
:104880005C900B0063900B006F900B0072900B001C
:104890007F900B008B900B0097900B00A3900B0068
:1048A000AF900B00BB900B00C7900B00D3900B0098
:1048B000DF900B0028910B002A8F0B00FCE50320F2
:1048C0003A900B00F0E003203D900B009DF807109C
:1048D00015A802F066FF3A2115A802F047FF0A2248
:1048E0009DF8081015A802F05CFF3A2115A802F007
:1048F0003DFF0A229DF8091015A802F052FF2C2155
:1049000015A802F033FF7C4915A802F02BFF2C21DB
:1049100015A802F02BFFB0EE6C0A022115A803F0D7
:1049200027F82C2115A802F021FFB0EE4C0A022135
:1049300015A803F01DF82C2115A802F017FFB0EE02
:104940006B0A022115A803F013F82C2115A802F018
:104950000DFFB0EE4B0A022115A803F009F82C2137
:1049600015A802F003FFB0EE6A0A022115A802F0B2
:10497000FFFF2C2115A802F0F9FEB0EE4A0A022131
:1049800015A802F0F5FF2C2115A802F0EFFEB0EEFD
:10499000690A022115A802F0EBFF2C2115A802F0EC
:1049A000E5FEB0EE490A022115A802F0E1FF2C2134
:1049B00015A802F0DBFEB0EE680A022115A802F08D
:1049C000D7FF2C2115A802F0D1FEB0EE480A022133
:1049D00015A802F0CDFF2C2115A802F0C7FE47490B
:1049E00015A802F0BFFE2C2115A802F0BFFE0A2276
:1049F000BDF80C1015A8FFF79EFB2C2115A802F09E
:104A0000B5FE0A22BDF80E1015A8FFF794FB2C2165
:104A100015A802F0ABFE0A22BDF8101015A8FFF78A
:104A20008AFB2C2115A802F0A1FE0A22BDF8121063
:104A300015A8FFF780FB2C2115A802F097FE0A228B
:104A4000BDF8181015A8FFF776FB2C2115A802F069
:104A50008DFE0A22BDF81A1015A8FFF76CFB2C2159
:104A600015A802F083FE0A22BDF81C1015A8FFF756
:104A700062FB2C2115A802F079FE0A22BDF81E1057
:104A800015A8FFF758FB2C2115A802F06FFE0A228B
:104A9000BDF8201015A8FFF74EFB2C2115A802F039
:104AA00065FE0A22BDF8221015A8FFF744FB2C2151
:104AB00015A802F05BFE22462978114802F026FA7A
:104AC00003F02AF90F4902F060FE03F025F902F025
:104AD00050FE0C4915A802F058FE19A801F096F8EE
:104AE0004FF4FA7002F096FFFEE403F015F9064960
:104AF00002F055FEF4E700BFEB900B00F8900B00BE
:104B000078E6032003910B0026900B0037B524486C
:104B1000244C254D01F01CFE244802F0BAF9244A29
:104B200000234FF47A71C2E9013122491361116007
:104B30006422C4F86024204AC4F87024012263600F
:104B4000C4F83C34C4F8683484F87424C4F8783465
:104B5000A4F87C342978BFF35B8F11400BD1284631
:104B60000191FFF79EFA019928B1144802F00AFD5D
:104B70002846FFF79BFA114BC4F86C340021012042
:104B800002F008FC0E4B0022C3E900220220A2F52D
:104B900080329A6003B0BDE8304002F0EBBB00BF4A
:104BA00050E60320C0E10320B0E1032078E60320B3
:104BB0007CE6032028910B0014910B00B4E1032044
:104BC00044E6032030B50025C0E9001542819DF878
:104BD00010109DF80C20456141738273037330BD42
:104BE000F0B54589847A85B0034600688DF80C409D
:104BF0002D0A0E4617468DF80D5040B15B7B019390
:104C000003AB0093012300F02CFA05B0F0BD586807
:104C10000028FAD093F808E093F80DC0BEF1030F16
:104C20000CD10CF1010325F0010500938DF80C5017
:104C30008DF80D4003AB00F0A3F9E6E7BEF1000FDD
:104C400009D104F07F048DF80C40CDF800C003AB0F
:104C50003A463146EFE7BEF1020F02D164F07F041D
:104C6000F1E7BEF1010F01BF9DF80C3003F07F03A7
:104C700043F040038DF80C30E7E7F0B40B4602B97F
:104C8000027B042A14D800F10F05436184182946D9
:104C9000844209D0877BDEB227B92E701B0A01350A
:104CA000013CF5E7A673F9E72046F0BCFFF798BF93
:104CB0000020F0BC70477FB54689857A8DF80C508E
:104CC00004460068360A0B468DF80D6040B100219D
:104CD000CDE9002103A9627B00F031FA04B070BD78
:104CE00060680028FAD0217A647B03290DD146F050
:104CF0000106FF21CDE900218DF80C608DF80D50E3
:104D0000621C03A900F05EF9E8E741B965F07F0590
:104D10008DF80C50FF21CDE900212246F1E7022950
:104D200002D105F07F05F3E7012902BF9DF80C10C1
:104D300061F03F018DF80C10ECE738B500F10F057C
:104D4000027B29460446FFF7B6FF78B1227B29464D
:104D500022440020A2420BD00302A07B20B9907B0A
:104D60001843013A0131F5E70878F9E74FF0FF30D1
:104D700038BD10B501600271437110BD10B5044615
:104D80000068FFF7DAFF2279012393406279013B43
:104D9000D040184010BD70B5044600680E46FFF7BD
:104DA000CCFF2379617901229A40531E03FA01F561
:104DB00020EA05053340206803FA01F12943027B0C
:104DC000BDE87040FFF759BF2DE9F04F0446006879
:104DD00085B00D4640B10023009313460A4602F009
:104DE0007DFC05B0BDE8F08F237BA068484FB7FB82
:104DF000F0F7002B0B780CBF4FF0010B4FF0800B3E
:104E00001BEA030F01EB02030CBF4FF001094FF047
:104E10000009FFB20393039BAB42E2D095F800A0D8
:104E20005E464FF0000817B1384602F053F9637B35
:104E300013F0FD0F41D194F910305A1C0FD01AEA2B
:104E4000060114BF012300234B4508D06369606A43
:104E50001A6800292CD002431A604FF00109A16999
:104E6000E36A0A6813430B6017B1384602F032F95F
:104E700094F91130013306D0E3691A68A36A1A4223
:104E800018BF46EA0808A169E36A0A6822EA030330
:104E90000B6094F91130013318BF85F80080237B33
:104EA000002B32D17600F6B2002EBCD10135B2E72C
:104EB00022EA00021A608946D1E7A169E36A0A681A
:104EC00013430B6017B1384602F004F994F910301F
:104ED000013308D06369616A1A681AEA060F14BFC1
:104EE0000A438A431A60A169E36A0A6822EA030353
:104EF0000B6094F911300133CBD0E3691A68A36ACF
:104F00001A4218BF46EA0808C3E77608CCE700BF94
:104F100020A1070007B501228DF807100DF1070148
:104F2000FFF752FF9DF8070003B05DF804FB03682C
:104F30001BB14168184602F05DBB7047006808B1BC
:104F400002F03EBB704790F90E00431C03D0C9B27B
:104F500080B203F022B9704710B50446FFF7E7FFAF
:104F600020460021BDE81040FFF7EDBF10B501213C
:104F70000446FFF7E8FF2046BDE81040FFF7DEBF1C
:104F80002DE9F0411C4606460D461746FFF7E4FFA3
:104F9000069B04EB0308444508D12F44BD420BD0C7
:104FA00015F8011B3046FFF7B5FFF7E714F8011BB2
:104FB0003046FFF7AFFFEEE73046FFF7D7FF01209F
:104FC000BDE8F0812DE9F0410D4617469DF81C80A3
:104FD00006461C46FFF7C0FF2F44BD420AD1069B80
:104FE000E518AC420CD041463046FFF793FF04F879
:104FF000010BF6E715F8011B3046FFF78BFFECE7D6
:105000003046FFF7B3FF0120BDE8F0814260002287
:10501000027220220170C260704710B5037A044604
:1050200053B12178606802F06BFF606802F073FF93
:10503000B0FA80F0400910BD012100F003F800280B
:10504000EFD1F8E738B5044640680D4602F026FF78
:105050000120207225B12046BDE83840FFF7DDBFB2
:1050600038BD2DE9F843DDE908961F46C3681546AB
:1050700032449A420446884602D90020BDE8F883AB
:105080000178406802F03CFF7EB9606803682A46F8
:10509000DB68414698478542EFD16068394602F0A7
:1050A00036FFB0FA80F04009E8E7B9F1000FECD024
:1050B000606803683246DB68494698478642DCD11F
:1050C000E3E72DE9F041154604460E46D2B20178D9
:1050D000406802F000FF85420DD100271FFA87F8D3
:1050E000A84507F1010709D2606803685B69984722
:1050F00006F80800F2E70020BDE8F0810120FBE798
:105100002DE9F84307468846164699460025B542DC
:1051100012D2FA68741B944228BF1446331BAB4268
:1051200094BF4B460023224608EB05013846FFF7A3
:10513000C8FF10B12544EAE70120BDE8F88373B544
:105140001D460023CDE900339DF81C30069E044621
:10515000FFF787FF40B1012332462946204602B0BF
:10516000BDE87040FFF7CCBF02B070BD042904D881
:1051700000EB4100B0F8010070470A299BBF01F124
:10518000FF3100EB41000131C08884BF00EB4100DA
:105190008088704710B50446243000F063FE28B1C3
:1051A00004F50C70BDE8104000F05CBE10BD411E5F
:1051B00000F10A030020420842EAC01011F8012F52
:1051C00052FA80F08B42C0B2F5D170472DE9F0471A
:1051D000064610F8013B202BFAD06A4D8E60002461
:1051E000335DC3B12F2B16D05C2B02D10020BDE85C
:1051F000F087A3F12200C0B21D2803D825FA00F0E1
:10520000C007F3D403F0BF003C28EFD0203B5E2B57
:10521000ECD80134E4E733191846074610F8015B6F
:10522000202DFAD02F2DF8D017604CB113F8012D96
:105230002E2A01D0202A01D1013CF6E7FF2CD5DC33
:105240004FF02033C1F811304C60C1F80D304B6184
:105250004FF0000816F808302E2B01D0202B02D179
:1052600008F10108F6E7B8FA88F04009651E6B1CE2
:1052700002D0735D2E2B14D14FF0000907274A4648
:10528000CA464FF0080EA04568DA16F80830202B01
:1052900003D02E2B07D1A84512D0002008F1010819
:1052A000F1E7013DE3E7222B08D07C2B06D0A3F1E8
:1052B0002A0CBCF1050F0AD82D2B12D0A8455BD1C2
:1052C0000A2F4AD00A2708224FF0100EE6E7A3F172
:1052D0003A0CBCF1050FF1D9A3F15B0CBCF1020F44
:1052E000ECD9A3F1210CBCF15D0FE7D8A845E7D0BC
:1052F000BA4230D8A3F1610CBCF1190F1AD8203B87
:105300004EEA0909DBB25FFA89F902F1010C5FFA92
:105310008CFC0A44BCF1060F537301D881F80CC011
:105320006246BBE7A84518DCA8460A2708224FF0CA
:10533000100EB2E7A3F1410CBCF1190F98BF4EEA71
:105340000A0AE2E70B7B0120087019447E234B73A5
:1053500031238B734BE70A2FE4D100204B7B202BAA
:105360003FF444AF0028EDD01AEA090F18BF4FF000
:10537000020981F800903AE7BA42ECD800205F2396
:10538000C3E700BF010100312DE9F84391F80C900B
:1053900006460C4602257E2701F10D086168A268C9
:1053A0006B189BB21144914206D012F8010B03EB2B
:1053B000431343409BB2F6E7B9F1030F28BF4FF008
:1053C000030909F10402D2B203F00F01A018013A57
:1053D0000929D2B294BF30313731914541734FEA38
:1053E0001313F1D104EB090300215F73304600F081
:1053F0002AFB0121304600F007FB014628B97078EE
:10540000B0FA80F04009BDE8F88303786BB1C37A45
:105410001B07EED40B22404603F064FC0028E8D1C1
:105420000135ADB2642DB9D1EDE70120EBE7000005
:105430002DE9F04F2DED028B8BB00D4606930B78C6
:10544000079013F0700F174605D100200BB0BDEC8C
:10545000028BBDE8F08F079B1B78002BF5D15368BA
:10546000059313789C071FBF059B0C330D22B3FBDC
:10547000F2F31ABF0133DBB2012300212846039364
:1054800000F0E1FA07F10D034FF0000B08EE103ABF
:10549000DA465C465E46CDF810B0D9466B6901210C
:1054A0002846C3F34F1800F0AFFA0346002871D125
:1054B0006B78002BC9D1069B9A05C6D503F0030370
:1054C000013B012BC1D8049B002C08BF4346049329
:1054D000039B9C42C0F0F180B9F1000F40F00A81BB
:1054E000049B2846590100F0AEFA0028ADD0039B7A
:1054F00003F1FF395FFA89F94E464FF0000A4FF089
:105500000F08002E00F00D810021284600F07CFAE3
:105510000446002899D0AA6892F824304E4543F0FA
:1055200001030CBF46F0400BB34682F8243080F8EC
:1055300000B080F80B8080F80CA007F10D00FFF799
:1055400036FE84F81AA0607384F81BA00BF01F03CA
:105550000D22013BD7F808C0534300220599994218
:1055600040F2D0801CF80310042A5FFA82FE02F198
:10557000010000F2CD8004EB4202A2F801100D28D8
:1055800003F101030246E9D1013EF6B2B9E74FF05B
:10559000010983E70278E52A00D07AB90499002C42
:1055A00008BF4146049103998C423CBF0134E4B2E8
:1055B000002A80D0E52A05D100266FE703998C42A6
:1055C00038BF00242E2AF7D0D97A0F294AD116BB2A
:1055D00012F040063FF462AF02F01F0693F80DB0E0
:1055E000B2460D220AF1FF3802FB08F8059A42453F
:1055F000E2D9A2EB08020892002202EB080109910D
:105600001846D1B2FFF7B2FD08998A420DD10028A1
:1056100018BF002642E70AF1FF3A5FFA8AFA5245BC
:10562000CAD15A7B5A45DCD0C6E7FF28C4D85FFAF6
:1056300080FEAEF141011929B9689CBF0EF120002E
:105640005FFA80FE08460999415CA1F1410CBCF16A
:10565000190F9CBF2031C9B27145ADD101320D2A5D
:10566000CBD11BE70807A7D45EB1BAF1010F7FF4D5
:10567000ECAE1846FFF79BFD58457FF4E6AEB14609
:105680000EE018EE101A0B22184603F02BFB002830
:105690007FF404AF97F8009019F001097FF477AF19
:1056A000069B19053FF5D1AE069B0798CDF80090F3
:1056B0004246294600F00AFAC8E60021284600F0D2
:1056C000A3F9A0B96B78002B7FF4BFAE284600F099
:1056D00087F800283FF4B9AEAB681B79012B3FF681
:1056E000FBAE039B1034E4B2A342EFD8F4E60134DE
:1056F000E4B2EDE639462846FFF746FE00287FF47F
:10570000EFAEA2E614BF4FF0FF31002189B22BE7C4
:10571000BEF10A0F94BF04EB420204EB40029180F9
:105720002DE731462846D5F8148000F06DF904467F
:1057300000283FF48AAE2022314603F0F1FAD7F870
:105740000D302360D7F811306360B7F8153023812E
:10575000FB7DA3723B7803F0180323730F4B1B6888
:105760009BB104F10E0104F110009847238A638273
:105770002383E389E382AA6892F8243043F001038B
:10578000C8F34F1882F824308EE72123237428238E
:1057900063740823A673E373E8E700BFB4E603204D
:1057A00038B504460D462422002103F0B9FAA5605D
:1057B000EB79102B03D0202B06D0002038BD2023FE
:1057C00001202370A070F9E74023F9E7837801698D
:1057D00043F00403837000F11002806800F0F8BB0E
:1057E0002DE9F041017811F02005044603D0002690
:1057F0003046BDE8F0814269174B9A42F7D2FFF775
:10580000E5FF06460028F2D02169A06800F075FB8C
:105810000746A06805223946243000F04BFB80463D
:105820000028E4D029464FF4007203F079FA0125EC
:10583000A3681A79AA4209D918684246E91900F002
:10584000A6FE0028D3D00135EDB2F1E7636903EB82
:1058500042236361CCE700BF00FE1F0010B5044681
:1058600080680A462430A16900F024FB20B1A38897
:1058700003F00F0300EB431010BD03780BB9FFF7E3
:105880008FBF002070472DE9F74F03780446884604
:105890001546002B5DD08278D1075AD51A072DD531
:1058A000C36942699B1A9D4228BF1D462E464FF090
:1058B000000904F1100B002E00F08F80227863693C
:1058C000A0689706C3F3080A4FEA53211FD5006A60
:1058D0000144A068BAF1000F42D1B6F5007F3FD372
:1058E000C36A99423CD0B6F5806F52D200684246F6
:1058F00000F0C4FD68B34FF4007744E09B06D5D5B3
:1059000083681A894369C3EB42139BB2CBE790F8D3
:10591000059009EA0109BAF1000F08D1B9F1000FA9
:1059200005D15BB951064CBF036A236A2361216923
:10593000A06800F0E2FA09EB0001CAE721695A46C3
:1059400000F0E1FA002804DBF1D1237813F0700FA6
:1059500043D1637843F0020363704FF0FF303DE0C2
:10596000CAF50077B7424FF0000200F1240028BFCB
:10597000374600F09FFA0028EBD000EB0A013A46C8
:10598000404603F0BFF963693B44B8446361F61BCA
:1059900091E7227892064FEA562A06D40279A2EBC2
:1059A0000902D2B2924528BF924699424FEA4A274D
:1059B00008D2A06853460068424600F0A7FD0028C0
:1059C000E1D1C6E753448B42F3D92430019100F072
:1059D00049FA01990028ECD1BBE7A81B03B0BDE848
:1059E000F08F73B501220DF10701D0E9045604468A
:1059F000FFF749FF01280ABF9DF807004FF0FF306D
:105A0000C4E9045602B070BD37B5436913F4F07FA2
:105A10000446C3F3431500D099B901220DF10701E3
:105A20002046FFF730FF40B2012802D0002003B02B
:105A300030BD63691F33A0686361303000EB4510EF
:105A4000F5E72033F7E72DE9F041027807690446CE
:105A50000D4662B14069884202D019B92161656181
:105A6000012006E0160706D5E3698B420BD22761B9
:105A70000020BDE8F081910605D5A3681B89B5EB30
:105A8000431FECD9F3E7D4F808C09CF80660431E26
:105A900006F109016E1ECB40CE40B34200D898B942
:105AA00053064CBFDCF82030236A236104F1100850
:105AB000002ED4D02169A068424600F024FA0028C4
:105AC00006F1FF36F4DCD2E7F61AEFE7F8B50F4639
:105AD00004461546002124221E4603F021F9B86829
:105AE000A060A58005F00F053B6AE3606A0100EB4A
:105AF000451595F83B301F0744D403F01703237076
:105B000095F83B1011F0180F04BF43F00803237001
:105B10009DF81830E37006F00303012B2CD0022B04
:105B200028D07BBB71052DD40123A370A1788B07EE
:105B300004D52378DF0625D4DD0723D4B31123F061
:105B40007F0306F008052B430B43A370C36AA361D0
:105B50008318B3F84420B3F84A1041EA02417205B1
:105B600013D559B9A37843F00403A370730410D478
:105B70000120F8BD0323D8E70223D6E700F063FA3B
:105B80000028EFD100202070F3E72162DB6CE36195
:105B9000ECE7E1692046FFF756FF0028E8D1F1E77E
:105BA00038B5037804460BB9012038BD83785A070D
:105BB00023D50121FFF752FE054628B9637843F04B
:105BC000010363700020F0E70378E52BF6D023781B
:105BD0001B0744BFE369C361236A4383638C8382E9
:105BE000094B1B682BB100F11601183098472B8B1D
:105BF0006B82A37823F00403A370A068FFF7CAFAAE
:105C00000028DBD0D0E700BFB4E6032010B504467F
:105C1000FFF7C6FF0023237010BDF0B593B01F46F9
:105C2000002309930378019206460C4613B1002025
:105C300013B0F0BD0B7813F0700FF8D013782F2B42
:105C400012D1019A13782F2B02D101320192F8E779
:105C5000A1681BB93046FFF710FEE9E709A8FFF776
:105C60009FFD0028E3D009AC019801AA03A9FFF722
:105C7000ADFA0028DBD0019B1B789BB1002303AA5F
:105C800021463046FFF7D4FB0028D0D035460FCD53
:105C900009AC0FC40FCD0FC42B6823603046FFF74B
:105CA000B5FFE0E73B4603AA21463046FFF7C0FBBD
:105CB000BEE700002DE9F04703788946190704463E
:105CC00017465BD583789A0758D51B0751D463696B
:105CD000DB43BB4252D3B84604F1100A6669B8F1FF
:105CE000000F00F09180A0684379C6F3080513EA1D
:105CF00056260ED16DB92169002946D0524600F0D2
:105D000002F900283ADB04D12046FFF75FFD0028A6
:105D100034D02169A06800F0F0F83118A06815B9F6
:105D2000B8F5007F3FD2C5F50076464528BF464608
:105D3000002D36D16269E3699A4234BF01220522FF
:105D4000243000F0B7F8C8B12844324649463544FB
:105D500002F0D8FFB5F5007F04D1A068243000F030
:105D600081F858B1636933446361B144A8EB060814
:105D7000B4E7C169FFF767FE0028A8D1637843F054
:105D8000010363704FF0FF3050E0236A3BB92046B7
:105D9000FFF71CFD0028F1D023692362B9E72361D6
:105DA000B7E70122CCE7B8F5806FC26A1BD390F841
:105DB00004C0ACEB0606F3B24FEA582E734528BF79
:105DC000734691424FEA432607D31A448A4282BF60
:105DD0004FF0FF3280F82450C262A5684A46286816
:105DE00000F04BFCBDE7914202BF4FF0FF3380F85B
:105DF0002450C362A3684A46186800F0C8FB002814
:105E0000BCD04FF40076ADE7E269A378B24204D289
:105E1000E66143F00403A37003E0084A1268002A15
:105E2000F7D194F90230002B02DB3846BDE8F08749
:105E30002046FFF7B5FE0028F7D19FE7B4E6032020
:105E400013B50446084659B1019102F09FFF23683B
:105E50000199DB680246204602B0BDE810401847B1
:105E600002B010BD37B50378DA07044620D5436881
:105E7000816800F10C021868019200F088FB019A19
:105E8000054618B90025284603B030BD23789B0786
:105E900004D4237823F001032370F4E7D4E901301C
:105EA00019690144186800F072FB0028F1D1E9E794
:105EB0000125E8E770B583688B4204460E46154617
:105EC00009D0FFF7CFFF08B9002070BD6B070AD5D6
:105ED00000232370A660227805F0030520461543B1
:105EE00000F80C5BF1E7636804F10C0218683146B6
:105EF00000F0C4FA0028EBD1E6E783794069023963
:105F0000994008447047012970B505460C4616466D
:105F100002D84FF0FF3070BDC3698B42F9D3C3790B
:105F2000202B16D18169022201EBD41100F50C70EF
:105F3000FFF7C0FF0028ECD004F07F0450F82430B5
:105F400023F07043EA699A4226BF336001200020A3
:105F5000E1E7102BDDD1C1F3072381690222194447
:105F600000F50C70FFF7A6FF0028D2D0E4B230F89D
:105F70001430E7E7012938B50C46154601D8002052
:105F800038BDC3698B42FAD3C379202B0FD1816905
:105F9000032201EBD41100F50C70FFF78BFF0028F2
:105FA000EDD004F07F0440F824500120E8E7102BE6
:105FB000E5D1C1F3072381690322194400F50C7070
:105FC000FFF778FF0028DAD0E4B220F81450ECE7AD
:105FD0002DE9F341C4688C4205460E46904601D334
:105FE000012701E00C460027EB690134A34202D2ED
:105FF000C7B9EC68F4E7A64214D001AA21462846A6
:10600000FFF781FF00280DDBEED0019B002BEBD1C9
:1060100007B1EC606FF0704221462846FFF7AAFFF7
:10602000074620B90027384602B0BDE8F08116B90E
:10603000C8F80040F7E7224631462846FFF79AFFA6
:106040000028F5D1EEE773B505460C4601AA2146B6
:106050002846FFF758FF061E10DB0022214628467F
:10606000FFF788FF50B1EB68A34224BF04F1FF346F
:10607000EC60019C002EE9D102B070BD0020FBE76E
:10608000012370B50022C3604FF0FF330446C27194
:1060900000F12406806280F82420C362C0F8340234
:1060A00080F83022C0F838320D46B9B1042901D940
:1060B000002070BD11463046FFF7FCFE0028F7D0E7
:1060C00000EB051393F8AE315B06F1D105F11B012E
:1060D00000EB0110D0F80650002DE9D0002229462F
:1060E0003046FFF7E7FE0028E2D0B0F80B30B3F5FA
:1060F000007FDDD1037C022BDAD1C389002BD7D0FE
:10610000417B21714B1E63710023A371092601237A
:10611000994207D0013ECBD0A2795B000132DBB2BD
:10612000A271F5E7C18A01B9416A2161C3892B4493
:10613000A361B0F81120228103EB41032362B0F880
:106140001110490101F2FF1103EB51236361B0F813
:10615000132002B9026AE91AA3791144D9404B1CF1
:10616000E36140F6F473994202D80C23E3719FE790
:106170004FF6F473994285BFC36A2362102320232C
:10618000E371012095E700F0CBBA00F0AEBA000051
:1061900070B50E4E0D46144600F0A4FF3368C01AC9
:1061A0000B4B984208D900F0A5FF0A4B186001F08C
:1061B0006DF900F097FF306000F09CFF80B2401B4B
:1061C000A042D4BF0020012070BD00BFBCE6032068
:1061D000A086010040E7032038B5057A04464DB992
:1061E000406800F06BFA63682946187D01F0D5FF1E
:1061F0000123237238BD10B5037A04466BB143689E
:106200000121187D01F0C9FF6068FF21FFF7BBFF86
:10621000606800F067FA0023237210BDF8B50446E9
:106220000D46164600F066FF87B26068FFF7ADFFC7
:10623000FF2860720ED14FF47A7239462046FFF77C
:10624000A7FF0028F1D0552320462370FFF7D3FF86
:106250000020F8BDFE2801D05023F5E760683246E3
:10626000294600F047FA607208B16023ECE76068E5
:10627000FFF78BFF6068FFF788FF0120E9E770B543
:1062800004460E4600F036FF85B2324629462046C7
:10629000FFF77EFF30B96068FFF777FFFF28F4D182
:1062A000012070BD0020FCE7F7B5037A0192044697
:1062B0000D460BB9FFF790FF25B14FF496712046BC
:1062C000FFF7DDFF606845F04001FFF75CFF032644
:1062D00001AFB95D6068FFF756FF013EF9D2002DAE
:1062E00060680CBF95218721FFF74DFF6068FFF7BD
:1062F0004CFF0B256068FFF748FF0306607203D56B
:10630000013D15F0FF05F5D103B0F0BD70B50446B1
:106310000D46164637210022FFF7C6FF32462946B2
:106320002046BDE87040FFF7BFBF00002DE9F041F7
:1063300000250572057085724160044690461E4630
:1063400000F0D8FE41460746606800F0BBF963687C
:10635000494A1D720125DA601D822046FFF73CFF85
:1063600063682946187D01F018FF0A256068FF213F
:10637000013DFFF708FF15F0FF05F7D163682946D7
:10638000187D01F00AFF0A25002211462046FFF77A
:106390008BFF0128804618D0013D15F0FF0507D17D
:1063A000202320462370FFF726FF0020BDE8F08160
:1063B0006068FD21FFF7E7FE4FF402786068FFF7A1
:1063C000E4FEB8F10108F9D1DEE74FF4D5720821F7
:1063D0002046FFF769FF052814D184F80A800025BC
:1063E000BFB22A4629212046FFF790FF0246D8B1C6
:1063F0004FF4FA6239462046FFF7CAFE0028F0D073
:106400004323CEE704256068FFF7BFFE013D15F08A
:10641000FF056072F7D1AA2804D10223A3724FF0BE
:106420008045DDE72523BCE7A37A022B18D13A216A
:106430002046FFF739FF08B13723B2E76068FFF75E
:10644000A4FE00F0C000C02804BF0323A37260684C
:10645000FFF79BFE6068FFF798FE6068FFF795FE08
:106460002046FFF7C8FE63683079B168B2891A82A6
:106470001872D960012099E790D0030038B5837A6B
:10648000032B18BF490215460A4611210446FFF79F
:106490000BFF30B1302323702046FFF7ACFE002500
:1064A0000BE029464FF400722046FFF7B7FE054681
:1064B0000028F1D02046FFF79EFE284638BD10B5D3
:1064C000837A032B0A4618BF4A0212210446FFF7BB
:1064D000EBFE30B1312320462370FFF78CFE002005
:1064E00010BD0120FCE710B500220C210446FFF787
:1064F000DBFE30B1282320462370FFF77CFE00200E
:1065000010BD2046FFF777FE0120F9E7F8B50446F5
:1065100016461F46FFF7D3FF68B10025ABB29F4276
:1065200006EB452109D94FF400722046FFF776FEAD
:1065300001350028F2D10020F8BD2046BDE8F84022
:10654000FFF7D1BF38B5044615464068FFF71BFE7C
:106550004FF400726068294600F0E6F86068FF2199
:10656000FFF711FE6068FF21FFF70DFE6068FFF77F
:106570000CFE607200F01F00052806D0572320464D
:106580002370FFF738FE002038BD0120FCE770B50E
:10659000837A032B18BF490215460A461821044680
:1065A000FFF782FE064630B1322323702046FFF704
:1065B00022FE00251FE02A46FE212046FFF7C2FFEB
:1065C0000028F3D04FF4FA612046FFF758FE054645
:1065D00008B95A23E9E732460D212046FFF764FE49
:1065E00008B12923E1E76068FFF7CFFD0028F8D163
:1065F0002046FFF700FE284670BD13B501914FF409
:10660000FA610446FFF73BFE019A30B95B23237021
:106610002046FFF7F0FD002005E0FC212046FFF7B3
:1066200091FF0028F4D002B010BD10B5837A032B7F
:106630000A4618BF4A0219210446FFF735FE30B159
:10664000332320462370FFF7D6FD002010BD012024
:10665000FCE738B54FF4FA610446FFF710FE054633
:1066600030B9562323702046FFF7C5FD284638BDB4
:106670006068FD21FFF787FDF5E7F8B5044616468B
:106680001F46FFF7D2FF70B10025BD4206EB452142
:10669000204604D0FFF7B1FF28B10135F5E7BDE88A
:1066A000F840FFF7D6BF2046FFF7A5FD0020F8BD54
:1066B000014B01221A707047C0E60320011D0068DB
:1066C00000F098BF10B504460175006800F064FF43
:1066D000207D012101F050FD207D0121BDE8104009
:1066E00001F05BBD006800F06BBF0068FF2100F0A7
:1066F000EFBF000037B51346074A00920025074C4C
:10670000006825700A46294600F0E8FF2378002B30
:10671000FCD0002003B030BDB1660B00C0E6032002
:10672000006800F0D5BF000037B51346064A009256
:106730000025064C006825702A4600F0CFFF23781C
:10674000002BFCD003B030BDB1660B00C0E60320C7
:10675000024A026000220271826070477C910B0045
:106760002DE9F041044680680F4690461E4610B160
:106770001021FDF794FC1020FDF78DFC054618B1A3
:1067800042463946FEF742FCA56001212846FEF745
:1067900059FC30B12368314620461B68BDE8F04102
:1067A0001847BDE8F08170B501258AB00026CDE913
:1067B00000650C462B468168802204A8FEF702FA89
:1067C00033462A4604A902A8FEF7D3FA214602A8B6
:1067D000FEF7E1FA0AB070BD70B5012588B000245B
:1067E000CDE900452B4681689222064602A8FEF7B5
:1067F000E9F902A8FEF7A1FAC30706D430462946F4
:10680000FFF7D1FF284608B070BD2046FBE710B562
:1068100001238AB00022CDE900230C468022816842
:1068200004A8FEF7CFF901231A4604A902A8FEF72F
:10683000A0FA214602A8FEF7AEFA0AB010BD30B5A4
:1068400001258BB00024CDE900452B4681688022CC
:1068500004A8FEF7B7F92A46042304A902A8FEF704
:1068600088FA294602A8FEF796FA054602A8FEF71E
:1068700085FA38B1B4F57A7F0BD0012001F0CAF85F
:106880000134F3E7B4F57A7F08BF002528460BB042
:1068900030BD0025FAE710B501238AB00022CDE90A
:1068A00000230C46AF22816804A8FEF78BF903236E
:1068B000022204A902A8FEF75CFA214602A8FEF70C
:1068C0006AFA0AB010BD10B500238AB00124CDE9E0
:1068D0000034A3228168234604A8FEF773F9062337
:1068E000224604A902A8FEF744FA02A8FEF746FAD7
:1068F000003818BF01200AB010BD10B5044620466C
:10690000FFF7E1FF18B9012001F084F8F7E710BDA7
:1069100030B5012389B00025CDE900530C46812212
:10692000816802A8FEF74EF92A46214602A8FEF722
:10693000A4F909B030BD00B5012389B00022CDE92A
:1069400000238122816802A8FEF73CF902A8FEF725
:10695000F4F9C0B209B05DF804FB30B5012389B089
:106960000025CDE900530C4602238168CA2202A803
:10697000FEF728F92A46214602A8FEF77EF909B05B
:1069800030BD00B5002389B00122CDE900320223D9
:106990008168CA2202A8FEF715F902A8FEF7CDF910
:1069A00080B209B05DF804FB30B5012389B0002541
:1069B000CDE900530C46AA22816802A8FEF702F92D
:1069C0002A46214602A8FEF758F909B030BD00B5A5
:1069D000012389B00022CDE90023AA22816802A800
:1069E000FEF7F0F802A8FEF7A8F9C0B209B05DF80A
:1069F00004FB000000000000F8B52DED028B0D46F1
:106A00000446FFF7E4FF0A2897BF1F4BDFED1F8AFC
:106A100003EB8000D0ED008A2046FFF78CFF431C7B
:106A2000204608EE103AFFF7ACFF04460134284632
:106A300001F0A0FDB8EEC88A07EE904A28EE288A39
:106A4000F8EEE77A064667EE887A0F4617EE900A68
:106A500001F0A2FD0AA3D3E9002301F0F5FD0C4BE0
:106A6000002201F01BFF02460B463046394601F07A
:106A700015FF02F0E1F8BDEC028B00EE100AF8BD44
:106A80003D0AD7A3703D064048910B00000000006E
:106A900000408F4030B5012389B00025CDE9005377
:106AA00014460A46816802A8FEF78CF82A46214659
:106AB00002A8FEF7E2F809B030BD10B5302200217F
:106AC0000446FFF7E7FF012211462046FFF7E2FFE9
:106AD000204600220221FFF7DDFF2046002203218D
:106AE000FFF7D8FF204600220421FFF7D3FF2046FE
:106AF00042220521FFF7CEFF204600220621FFF7A4
:106B0000C9FF204600220721FFF7C4FF204650227C
:106B10000821FFF7BFFF204600220921FFF7BAFF37
:106B2000204600220A21FFF7B5FF204600220B2154
:106B3000FFF7B0FF204620220C21FFF7ABFF2046D5
:106B400004220D21FFF7A6FF204600220E21FFF7A9
:106B5000A1FF204630220F21FFF79CFF2046012293
:106B60001021FFF797FF204650221121FFF792FFD7
:106B7000204600221221FFF78DFF20460622BDE8A5
:106B800010401321FFF786BF002210B511460446BE
:106B9000FFF780FF204600220121FFF77BFF204600
:106BA00000220221FFF776FF204640220321FFF753
:106BB00071FF204602220421FFF76CFF20460022CD
:106BC0000521FFF767FF204610220621FFF762FF2D
:106BD000204603220721FFF75DFF204650220821AF
:106BE000FFF758FF204610220921FFF753FF2046E8
:106BF00003220A21FFF74EFF204600220B21FFF758
:106C000049FF204600220C21FFF744FF20460022C6
:106C10000D21FFF73FFF204624220E21FFF73AFF08
:106C2000204600220F21FFF735FF204600221021C9
:106C3000FFF730FF204650221121FFF72BFF20469F
:106C400000221221FFF726FF20460622BDE8104051
:106C50001321FFF71FBF38B504460D460021FFF78B
:106C6000D6FD02212046FFF716FE204635B1FFF77C
:106C700024FF2046BDE83840FFF7E1BDFFF784FF61
:106C8000F7E72DE9F041044688B00E460121FFF7F1
:106C9000E2FF01212046FFF7BAFD4FF00008204631
:106CA0000127FFF72AFE0223A1689522CDE900877C
:106CB00002A8FDF787FF0C22314602A8FDF7FBFF73
:106CC000414605462046FFF7C6FF39462046FFF7F6
:106CD0009EFD2046FFF711FE2DB10C22B11802A82F
:106CE000FDF7E9FF0546284608B0BDE8F081000041
:106CF00030B50F4C00230133DDB28D4204D214F8BD
:106D0000015B2A4492B2F6E7022903D9830704BF44
:106D1000013292B200EBC001C31C00EBC10000EBDA
:106D20008000C3F38D0301381844104480B230BD95
:106D300080910B0008B5827841780078FFF7D8FF82
:106D400007230630B0FBF3F3C3EBC303C01AC0B292
:106D500008BD08B501F096FA01F0A0F8012008BDC1
:106D6000FFF7F7BF08B501F08DFA682101F0CCF804
:106D700001F088FA036802219B68984701F082FAC3
:106D800001F0C9F801F07EFA0122682101F0B5F89E
:106D900001F078FA03685B69984700F0E000E0389A
:106DA00018BF012008BD2DE9F843044601F06AFA36
:106DB000682101F0A9F801F065FA036803219B68D6
:106DC000984701F05FFA01F0A6F801F05BFA07229C
:106DD000682101F092F801F055FA03685B69984761
:106DE00000F07F09C0F30210A0EB800009EB400027
:106DF0005FFA80F901F046FA03685B699847C0F3CF
:106E00000315A5EB850500EB450000F0FF0501F03B
:106E100039FA03685B699847C0F30316A6EB860648
:106E200000EB460000F0FF0601F02CFA03685B69F6
:106E30009847C0F30317A7EB870700EB470000F064
:106E4000FF0701F01FFA03685B69984701F01AFA1F
:106E500003685B699847C0F30318A8EB880800EB48
:106E6000480000F0FF0801F00DFA03685B699847DD
:106E7000C0F30313A3EB830300EB4300207084F8FB
:106E80000180A770E670257184F805902046BDE862
:106E9000F88300220260704710B5012388B00024F7
:106EA000CDE900437F22016802A8FDF78BFE224650
:106EB000214602A8FDF7E1FE08B010BD30B5012360
:106EC00089B00025CDE900530C4602230168062253
:106ED00002A8FDF777FE2A46E14302A8FDF7CDFEA2
:106EE00009B030BD30B5012389B00025CDE900538C
:106EF0000C4602230168042202A8FDF763FE2A461D
:106F0000E14302A8FDF7B9FE09B030BD70B500231A
:106F10008AB00126CDE9003602230D4614460168E9
:106F20001A4604A8FDF74EFE2B46324604A902A8D5
:106F3000FDF71FFF214602A8FDF72DFF0AB070BD27
:106F40002DE9F041012492B00026CDE900640F46FE
:106F50008046016815460223042206A8FDF732FE8A
:106F60003B46224606A902A8FDF703FFD8F8001009
:106F700002231222CDE900640CA8FDF723FE3B4654
:106F800022460CA904A8FDF7F4FEA5420AD1314619
:106F900002A8FDF700FF294604A8FDF7FCFE12B089
:106FA000BDE8F0813DB1032DF9D1314602A8FDF7CE
:106FB000F2FE3146F0E7214602A8FDF7ECFE21463D
:106FC000EAE730B500238BB00125CDE900350C464A
:106FD0002B460168112204A8FDF7F4FD04232A467C
:106FE00004A902A8FDF7C5FE84EA050102A8FDF781
:106FF000D2FE0BB030BDF0B50446006889B00E4635
:10700000174610B11021FDF74AF81020FDF743F89C
:10701000054618B13A463146FDF7F8FF25600121D3
:107020002846FEF70FF818B90025284609B0F0BD2C
:107030002046FFF731FF05460028F5D00123002642
:10704000CDE900632168102202A8FDF7BBFD02A86C
:10705000FDF773FE2328E7D131462046FFF742FFB4
:1070600031462046FFF7ADFF31462046FFF726FFA9
:10707000DBE7000008B5024B1B689B68019308BD65
:107080006802030008B5024B1B68DB68019308BD6A
:107090006802030008B5024B1B689B68019308BD9A
:1070A0002C02030008B5024B1B68DB68019308BD86
:1070B0002C02030008B5024B1B681B69019308BD35
:1070C0002C02030008B5024B1B685B68019308BDE6
:1070D0001802030008B5024B1B68DB68019308BD6A
:1070E0001802030008B5024B1B681B69019308BD19
:1070F0001802030008B5024B1B685B69019308BDC9
:107100001802030008B5024B1B685B6C019308BDB5
:107110004802030008B5024B1B685B69019308BD78
:107120006402030008B5024B1B68DB68019308BDCD
:107130003C02030008B5024B1B681B69019308BDA4
:107140003C02030008B5024B1B685B69019308BD54
:107150003C02030008B5024B1B689B69019308BD04
:107160003C02030008B5024B1B68DB69019308BDB4
:107170003C02030008B5024B1B681B6A019308BD63
:107180003C02030008B5024B1B689B6A019308BDD3
:107190003C02030008B5024B1B681B6C019308BD41
:1071A0003C02030008B5024B1B68DB68019308BD75
:1071B0002802030008B5024B1B689B69019308BDB8
:1071C0002802030008B5024B1B68DB69019308BD68
:1071D0002802030008B5024B1B681B6A019308BD17
:1071E0002802030008B5024B1B685B6A019308BDC7
:1071F0002802030008B5024B1B689B6A019308BD77
:107200002802030008B5024B1B68DB6A019308BD26
:107210002802030008B5024B1B681B6B019308BDD5
:107220002802030008B5024B1B685B6B019308BD85
:107230002802030008B5024B1B681B6C019308BDB4
:107240002802030008B5024B1B681B6D019308BDA3
:107250002802030008B5024B1B681B68019308BD98
:107260003002030008B5024B1B685B69019308BD3F
:107270003002030008B5024B1B68DB69019308BDAF
:107280003002030008B5024B1B681B6A019308BD5E
:107290003002030008B5024B1B685B6A019308BD0E
:1072A0003002030008B5024B1B689B6A019308BDBE
:1072B0003002030008B5024B1B689B6B019308BDAD
:1072C0003002030008B5024B1B68DB6B019308BD5D
:1072D0003002030008B5024B1B681B6C019308BD0C
:1072E0003002030008B5024B1B685B6C019308BDBC
:1072F0003002030008B5024B1B681B68019308BDF0
:107300004C02030008B5024B1B685B68019308BD83
:107310004C02030008B5024B1B681B69019308BDB2
:107320004C02030008B5024B1B685B69019308BD62
:107330004C02030008B5024B1B689B69019308BD12
:107340004C02030008B5024B1B68DB69019308BDC2
:107350004C02030008B5024B1B681B6A019308BD71
:107360004C02030008B5024B1B685B6A019308BD21
:107370004C02030008B5024B1B685B68019308BD13
:107380002002030008B5024B1B685B69019308BD2E
:107390002002030008B5024B1B68DB6A019308BD9D
:1073A0002002030008B5034B1B68D3F88830019313
:1073B00008BD00002002030008B5034B1B68D3F88A
:1073C0009430019308BD00002002030008B5024B71
:1073D0001B685B68019308BD4002030008B5024BBF
:1073E0001B689B68019308BD4002030008B5024B6F
:1073F0001B68DB68019308BD4002030008B5024B1F
:107400001B681B69019308BD4002030008B5024BCD
:107410001B685B69019308BD4002030008B5024B7D
:107420001B689B69019308BD4002030008B5024B2D
:107430001B68DB69019308BD4002030008B5024BDD
:107440001B681B6A019308BD4002030008B5024B8C
:107450001B681B6B019308BD4002030008B5024B7B
:107460001B685B6B019308BD4002030008B5024B2B
:107470001B681B6C019308BD4002030008B5024B5A
:107480001B685B6C019308BD4002030008B5024B0A
:107490001B689B68019308BD4402030008B5024BBA
:1074A0001B68DB6B019308BD4402030008B5024B67
:1074B0001B681B68019308BD1C02030008B5024B42
:1074C0001B685B68019308BD1C02030008B5024BF2
:1074D0001B685B6A019308BD1C02030008B5024BE0
:1074E0001B681B6C019308BD1C02030008B5024B0E
:1074F0001B685B6C019308BD1C02030000224068FE
:107500001146FFF79BBF002240681146FFF7A6BF58
:1075100040680022FFF79ABF4068002281F0010115
:10752000FFF784BF002340681A461946FFF776BF6D
:10753000002340681A461946FFF768BF00224068DA
:107540001146FFF75BBF002240681146FFF746BFB8
:10755000406800220221FFF749BF002340681A4615
:10756000FFF734BF024B03225A60024A1A60704789
:10757000C4E6032094910B000021FFF7B3BE002165
:10758000FFF7A8BE10B5044608462170FFF772FE4B
:1075900000236360204610BD13B504460078FFF752
:1075A000EEFF58B9207801904FF6FF71FFF752FEB9
:1075B000019802B0BDE81040FFF7DEBF02B010BD79
:1075C0000078FFF7D9BF0000400830B518600024EC
:1075D00018688842E5B206D90134082C02D0400868
:1075E0001860F5E70725024B5B5D137030BD00BFE7
:1075F000C8910B002DE9F04306468FB000780C4689
:10760000FFF7BDFF00281BDB35781422002109A8F5
:1076100001F086FB0B23002209A92846ADF824308F
:10762000FFF738FE9DF82D3013B19DF82C5055B161
:107630000027B946B846012523795DB1C3B10020C2
:107640000FB0BDE8F083DDF830809DF834909DF8F0
:107650003570F1E7002B35D1A368434508D18DF88B
:1076600020908DF82170BDF82020A3899A42E6D0A1
:107670000023A1688DF80F300A9804AB0DF10F02BA
:10768000FFF7A2FF217985B989B9A36843450ED3D5
:107690008DF820908DF82170BDF82020A3899A42A2
:1076A00005D1049B434502D1C9E70029F9D1002344
:1076B0000193637B00939DF80F20237B3078FFF7C5
:1076C00001FEBCE7CDE900552B462A460121F5E72E
:1076D00008B50078FFF7C6FDC0B208BD30B587B069
:1076E00004460A9D00950078FFF7DCFD3DB920783F
:1076F00002A9FFF7DFFD9DF81430DB07F7D407B0D0
:1077000030BD0000054B02221A60054B054A9A6005
:107710000020C3E90000FFF72DBE00BFD8E603201C
:10772000CCE603200000FFFF024800230360FFF7C0
:10773000E9BC00BFDCE60320F8B506460D468F180D
:107740000024BD420CD0336815F8011B9B683046FD
:107750009847031E01DB1C44F3E7002C08BF1C46BE
:107760002046F8BD08B5FEF76BFB08BD03689B68B3
:10777000184738B50D210546FFF7F8FF0A210446E2
:107780002846FFF7F3FF204438BD38B50546FEF71D
:1077900057FB04462846FFF7ECFF204438BDFFF7AF
:1077A000F4BF30B58BB00023012A8DF8243098BF88
:1077B0000A2209AC0D46B1FBF2F101FB125303F0B2
:1077C000FF03092B94BF30333733DBB2AA4204F8EE
:1077D000013DEFD92146FEF733FB0BB030BD000071
:1077E0002DE9F74F55EC104B06460F4610EE102AC8
:1077F00010EE100A2B46294601F0C0F940B153495A
:107800003046FEF71DFB8246504603B0BDE8F08FC0
:1078100025F000494E4B4FF0FF322046494601F01B
:10782000ADF948B94A4B4FF0FF322046494601F0C6
:1078300087F908B94749E3E7474B4FF060422046D4
:10784000294601F091F908B14449D9E7444B4FF07A
:1078500060422046294601F069F90028F4D100224F
:1078600000232046294601F061F9D0B12D21304690
:10787000FFF77CFF05F1004382461D463949DFF8DA
:10788000EC904FF0000B00204FF000085FFA8BF3F4
:107890009F4208D942464B4601F000F80BF1010B1C
:1078A000F4E78246EAE722462B4600F017FD0D4634
:1078B000044601F0A1F9804600F04CFE02460B465A
:1078C0002046294600F008FD0A2204460D463046AF
:1078D0004146FFF766FF8244002F95D02249DFF82A
:1078E0008C903046FEF7ACFA4FF000088244002F2F
:1078F0008AD042464B462046294600F0A5FE044663
:107900000D4601F051F9B0F1000B1CDA2D21304683
:10791000FFF72CFFCBF1000103460A22304601930A
:10792000FFF73FFF019B18448244584600F022FEB7
:1079300002460B462046294600F0CEFC013F044695
:107940000D46FFB2D3E759460023E6E7D0910B007E
:10795000FFFFEF7FD4910B00FFFFEF41D8910B00A9
:10796000FFFFEFC10000E03FDC910B00000024406E
:1079700038B5044610EE100ACDB200F00DFE41EC11
:10798000100B29462046BDE83840FFF729BF2DE9F6
:10799000F04186B000AF05460E46381D142114464E
:1079A0003B60FFF793FD13280ED8391D2846FEF7DC
:1079B00047FA04461EB12846FFF7DBFE0444204682
:1079C0001837BD46BDE8F08100F1080323F0070336
:1079D000E846ADEB030D2246411C3B686846FFF7C5
:1079E00075FD69462846FEF72BFA0446C546E1E7D1
:1079F000014B024A1A607047E0E60320DE910B005B
:107A0000024B1A68024B1A60704700BF44E1032022
:107A1000E4E603200021FFF7B5BC0000014B002283
:107A20009A607047E8E60320014B1860704700BF7A
:107A300048E1032008B50B4B43B100F06DF9036832
:107A40001B699847002801DDAFF30080064B43B166
:107A500000F0D8FB03681B699847002801DDAFF3ED
:107A6000008008BD000000000000000008B5FFF71E
:107A7000E1FFFFF73FFB014B186008BD40E7032023
:107A80000548064A064908B5121A01F03BF9054BAC
:107A9000054A1A6008BD00BF00F4032004F4032067
:107AA000F4930B0000F403201E1C279A07B5002353
:107AB00000931A466FF07701FFF77EFC03B05DF884
:107AC00004FB000007B543880A2B08D0502B0BD1CC
:107AD000094B1B684BB103B05DF804EB1847FFF787
:107AE000E5FF03B05DF804FB002300931A466FF036
:107AF0007701FFF761FCF4E7FCE6032010B51248BC
:107B00000021FFF7F3FC114B1A68114B9A42114BFD
:107B10000CBF012200221A7001D0FFF7B1FFFFF75E
:107B2000D1FA044601F004F90B4B13B12046AFF330
:107B3000008000210848FFF7B1FCBDE8104007486D
:107B40000021FFF72FBC00BF297A0B0000F40320AF
:107B50001E1C279AF8E6032000000000C57A0B00DF
:107B6000704710B518210446FCF799FA204610BD5D
:107B7000F0B5037D062B8DB00E4600F104074FF0E3
:107B8000000412D000F1080515F8011D0A22304644
:107B9000FFF707FEAF42044419D0002CF4D02E2189
:107BA0003046FFF7E3FD0444EEE72F236A463946EB
:107BB0000A208DF80040FFF7ADFA684601F0E6F8BC
:107BC00033680246DB6869463046984704462046DB
:107BD0000DB0F0BD10B5054B0446112240F8043B32
:107BE000002101F09DF8204610BD00BF08920B0057
:107BF0000346074A10B543F8042B01F1100251F86F
:107C0000044B43F8044B9142F9D10A781A7010BD25
:107C100008920B0010B59DF8084044EA032343EA9C
:107C2000024242EA016104234160037510BD000075
:107C300007B5064B0360CB7800938B784A780978B8
:107C4000FFF7E8FF03B05DF804FB00BF08920B00EC
:107C5000417470477047704708B50021007CFFF7FA
:107C600069FB40EAE07008BD08B50121007CFFF720
:107C700061FB40EAE07008BD08B5007CFFF752FBED
:107C800020EAE07008BD08B5007CFFF743FB20EA5E
:107C9000E07008BD13B50446007C0191FFF742FB7C
:107CA0000028019901DC607C20B1207CFFF74AFBB1
:107CB00020EAE07002B010BD007CFFF74BBB10B5AE
:107CC00014210446FCF7EBF9204610BD10B54FF423
:107CD0007A73044608460021C4E90113044B23606B
:107CE0000123207463741146FFF704FB204610BD86
:107CF0001C920B00007C0022FFF704BB007CFFF706
:107D000031BBFFF7FBBF10B514220446002101F080
:107D100007F8204610BD000010B50F4C88B003A82E
:107D2000FFF7F1FF2178BFF35B8F11F001010FD155
:107D300020460191FCF7B5F9019948B103AA07481B
:107D4000FFF7C4FF2046FCF7B1F9054800F0C4FF77
:107D5000024808B010BD00BF00E7032004E703207D
:107D6000557C0B0070474174704708B5007CFFF7E5
:107D700009FA20EAE07008BD08B5007CFFF7DAF9DF
:107D800020EAE07008BD08B5007CFFF7E3F940EA9F
:107D9000E07008BD08B5007CFFF7D4F940EAE07058
:107DA00008BD007CFFF7DEB937B5457C04462DB130
:107DB000207C03B0BDE83040FFF7B4B9007C0191EE
:107DC000FFF7E0F900280199F2DC284603B030BD46
:107DD00010B514210446FCF762F9204610BD0000DE
:107DE00010B54FF47A730446084611460022C4E9E0
:107DF0000123044B2360012320746374FFF7CAF945
:107E0000204610BD4C920B007047F8B5064615464B
:107E10000C468F18BC4206D0336814F8011B9B68CF
:107E200030469847F6E72846F8BD007C0022FFF769
:107E3000D1B9007C0021FFF7D5B9007C0021FFF704
:107E4000D9B9007C0021FFF7DDB9007C0021FFF7E4
:107E5000E1B910B514210446FCF721F9204610BD04
:107E600038B5044615464FF47A730022C4E901235D
:107E7000094B2174084623602946FFF7DBF9BF3020
:107E800008D16B69DB0705D56868FFF717FBE86861
:107E9000FFF714FB204638BD7C920B000023007CCA
:107EA0001A461946FFF77EB97FB500221423CDE9A3
:107EB0000122ADF804300B788DF808304B6803933D
:107EC000CB680493007C0B7A059301A9FFF7BAF9FC
:107ED00007B05DF804FB1FB5003B8DF800104FF0B4
:107EE0006401039118BF0123694601928DF808309F
:107EF000FFF7DAFF05B05DF804FB0123FFF7EBBFE6
:107F0000007C0022FFF756B9C9B2FFF7F9BF007C29
:107F10000022FFF757B90121FFF7F9BF002240689F
:107F20001146FFF76BBA002240681146FFF786BA88
:107F3000002240681146FFF791BA40680022FFF71F
:107F400085BA4068002281F00101FFF76FBA002373
:107F500040681A461946FFF761BA002340681A467E
:107F60001946FFF753BA002240681146FFF736BAA8
:107F7000406800220221FFF739BA002340681A4600
:107F8000FFF724BA024B04225A60024A1A60704773
:107F900018E70320A4920B00002340681A46FFF75D
:107FA00015BA406800220221FFF720BA002240687B
:107FB0001146FFF713BA002240681146FFF71EBAB8
:107FC000002340681A461946FFF720BA002340688C
:107FD0001A461946FFF722BA40680021FFF746BA51
:107FE00040680021FFF74ABA4068002281F0010191
:107FF000FFF71CBA40680022FFF728BA0022406849
:108000001146FFF72BBA002240681146FFF716BA57
:108010002DE9F04395B014460D460746FFF7DAFD0B
:1080200000211C220DA8009100F07AFE40230C9341
:1080300020466B460CAA0021FFF724F804460028CE
:108040004BD1024601216868FFF7D8F9022180462A
:1080500022466868FFF7D2F9009E81462146002E2D
:108060003BD0002939D17368022B03D00A2B11D0E1
:10807000F669F4E7B8F1000FFAD0716906A8043187
:1080800007ADFFF7D5FD0FCD3C1D0FC42B68237046
:108090004146EDE7B9F1000FEAD07469102201A85A
:1080A00000F03EFE06238DF8143001AD04F1080304
:1080B0001834186859682A4603C20833A342154683
:1080C000F7D101A906A807ADFFF792FD0FCD3C1D22
:1080D0000FC42B6823704946CAE70098FEF7CAFF11
:1080E000384615B0BDE8F083024B034A1A600022FF
:1080F0005A60704720E70320E0920B00232813B555
:1081000002D9002002B010BDA0F10B03022B1AD837
:10811000174C2178BFF35B8F11F001010BD1204682
:108120000191FBF7BEFF019928B11248FFF72AFA27
:108130002046FBF7BBFF0F4B1878FFF7A3F800288A
:10814000DFD10120DEE7012809D800F09BF80021EB
:10815000007CFFF767F880F00100C0B2D2E7093871
:108160000128EED800F04EF8007CFFF703F8F2E7A4
:10817000B0E10320B4E10320232838B504460D46BE
:108180000AD8FF2908D0FFF7B9FF28B129462046B1
:10819000BDE83840FEF77EBF38BD38B504460D4611
:1081A000FEF780FFFF2810D0062804D84D2323FABD
:1081B00000F0C30709D42046FFF7A0FF28B12946E5
:1081C0002046BDE83840FEF775BF38BD7047000057
:1081D00038B5044614252A46002100F0A1FD25806B
:1081E0004025074925812846258200F06FF804497B
:1081F0006060284600F06AF8E060204638BD00BFA5
:1082000014930B0030B50E4D2978BFF35B8F11F03E
:10821000010487B011D12846FBF743FF68B101A8DC
:10822000FFF7D6FF01AA21460648FFF7D9FD2846E9
:10823000FBF73CFF044800F04FFD024807B030BD9B
:1082400028E703202CE70320CD810B0070470000B6
:1082500038B50A4B036001230446436108492020D6
:1082600000F034F8202560600549A560284600F03C
:108270002DF8C4E90305204638BD00BF18000100F1
:1082800014930B0030B50E4D2978BFF35B8F11F0BE
:10829000010487B011D12846FBF703FF68B1684697
:1082A000FFF7D6FF6A4621460648FFF7D9FD284664
:1082B000FBF7FCFE044800F00FFD024807B030BD9C
:1082C00044E7032048E703204D820B00FBF7E5BE9F
:1082D00081F0004102E000BF83F0004330B54FEA77
:1082E00041044FEA430594EA050F08BF90EA020FE4
:1082F0001FBF54EA000C55EA020C7FEA645C7FEA77
:10830000655C00F0E2804FEA5454D4EB5555B8BF99
:108310006D420CDD2C4480EA020281EA030382EA0A
:10832000000083EA010180EA020281EA0303362D9C
:1083300088BF30BD11F0004F4FEA01314FF4801C6F
:108340004CEA113102D0404261EB410113F0004F81
:108350004FEA03334CEA133302D0524263EB430338
:1083600094EA050F00F0A780A4F10104D5F1200ED6
:108370000DDB02FA0EFC22FA05F2801841F1000131
:1083800003FA0EF2801843FA05F359410EE0A5F105
:1083900020050EF1200E012A03FA0EFC28BF4CF036
:1083A000020C43FA05F3C01851EBE37101F00045EC
:1083B00007D54FF0000EDCF1000C7EEB00006EEBF9
:1083C0000101B1F5801F1BD3B1F5001F0CD3490883
:1083D0005FEA30004FEA3C0C04F101044FEA4452DA
:1083E00012F5800F80F09A80BCF1004F08BF5FEA61
:1083F000500C50F1000041EB045141EA050130BD41
:108400005FEA4C0C404141EB0101013C28BFB1F552
:10841000801FE9D291F0000F04BF01460020B1FA9D
:1084200081F308BF2033A3F10B03B3F120020CDA70
:108430000C3208DD02F1140CC2F10C0201FA0CF04E
:1084400021FA02F10CE002F11402D8BFC2F1200CB3
:1084500001FA02F120FA0CFCDCBF41EA0C01904069
:10846000E41AA2BF01EB0451294330BD6FEA0404B2
:108470001F3C1CDA0C340EDC04F11404C4F120029D
:1084800020FA04F001FA02F340EA030021FA04F3AF
:1084900045EA030130BDC4F10C04C4F1200220FA06
:1084A00002F001FA04F340EA0300294630BD21FA44
:1084B00004F0294630BD94F0000F83F4801306BF0A
:1084C00081F480110134013D4EE77FEA645C18BFFE
:1084D0007FEA655C29D094EA050F08BF90EA020F95
:1084E00005D054EA000C04BF1946104630BD91EA8D
:1084F000030F1EBF0021002030BD5FEA545C05D190
:108500004000494128BF41F0004130BD14F58004CE
:108510003CBF01F5801130BD01F0004545F0FE4142
:1085200041F470014FF0000030BD7FEA645C1ABF77
:10853000194610467FEA655C1CBF0B46024650EAAE
:10854000013406BF52EA033591EA030F41F40021DA
:1085500030BD00BF90F0000F04BF0021704730B560
:108560004FF4806404F132044FF000054FF0000135
:1085700050E700BF90F0000F04BF0021704730B5F6
:108580004FF4806404F1320410F0004548BF4042CB
:108590004FF000013EE700BF42004FEAE2014FEA20
:1085A00031014FEA02701FBF12F07F4393F07F4FFB
:1085B00081F06051704732F07F4208BF704793F0FE
:1085C0007F4F04BF41F40021704730B54FF4607411
:1085D00001F0004521F000411CE700BF50EA010214
:1085E00008BF704730B54FF000050AE050EA0102BD
:1085F00008BF704730B511F0004502D5404261EB2D
:1086000041014FF4806404F132045FEA915C3FF46D
:10861000D8AE4FF003025FEADC0C18BF03325FEA0A
:10862000DC0C18BF033202EBDC02C2F1200300FABB
:1086300003FC20FA02F001FA03FE40EA0E0021FAE0
:1086400002F11444BDE600BF70B54FF0FF0C4CF4CE
:10865000E06C1CEA11541DBF1CEA135594EA0C0F80
:1086600095EA0C0F00F0DEF82C4481EA030621EABB
:108670004C5123EA4C5350EA013518BF52EA0335F6
:1086800041F4801143F4801338D0A0FB02CE4FF0A8
:108690000005E1FB02E506F00042E0FB03E54FF0D8
:1086A0000006E1FB03569CF0000F18BF4EF0010ED0
:1086B000A4F1FF04B6F5007F64F5407404D25FEACC
:1086C0004E0E6D4146EB060642EAC62141EA55517F
:1086D0004FEAC52040EA5E504FEACE2EB4F1FD0CC1
:1086E00088BFBCF5E06F1ED8BEF1004F08BF5FEA3F
:1086F000500E50F1000041EB045170BD06F00046F1
:1087000046EA010140EA020081EA0301B4EB5C049D
:10871000C2BFD4EB0C0541EA045170BD41F4801195
:108720004FF0000E013C00F3AB8014F1360FDEBFBA
:10873000002001F0004170BDC4F10004203C35DA96
:108740000C341BDC04F11404C4F1200500FA05F319
:1087500020FA04F001FA05F240EA020001F00042BA
:1087600021F0004110EBD37021FA04F642EB060130
:108770005EEA430E08BF20EAD37070BDC4F10C045A
:10878000C4F1200500FA04F320FA05F001FA04F21E
:1087900040EA020001F0004110EBD37041F100010A
:1087A0005EEA430E08BF20EAD37070BDC4F1200515
:1087B00000FA05F24EEA020E20FA04F301FA05F27D
:1087C00043EA020321FA04F001F0004121FA04F225
:1087D00020EA020000EBD3705EEA430E08BF20EAF5
:1087E000D37070BD94F0000F0FD101F0004640002F
:1087F00041EB010111F4801F08BF013CF7D041EAB1
:10880000060195F0000F18BF704703F000465200B4
:1088100043EB030313F4801F08BF013DF7D043EA85
:108820000603704794EA0C0F0CEA135518BF95EA3B
:108830000C0F0CD050EA410618BF52EA4306D1D1C2
:1088400081EA030101F000414FF0000070BD50EAE1
:10885000410606BF1046194652EA430619D094EA6B
:108860000C0F02D150EA013613D195EA0C0F05D155
:1088700052EA03361CBF104619460AD181EA0301A9
:1088800001F0004141F0FE4141F470014FF0000061
:1088900070BD41F0FE4141F4780170BD70B54FF0FC
:1088A000FF0C4CF4E06C1CEA11541DBF1CEA13557C
:1088B00094EA0C0F95EA0C0F00F0A7F8A4EB05045E
:1088C00081EA030E52EA03354FEA013100F0888055
:1088D0004FEA03334FF0805545EA131343EA12631E
:1088E0004FEA022245EA111545EA10654FEA0026D3
:1088F0000EF000419D4208BF964244F1FD0404F58C
:10890000407402D25B084FEA3202B61A65EB0305E7
:108910005B084FEA32024FF480104FF4002CB6EBA4
:10892000020E75EB030E22BFB61A754640EA0C0024
:108930005B084FEA3202B6EB020E75EB030E22BF64
:10894000B61A754640EA5C005B084FEA3202B6EBA5
:10895000020E75EB030E22BFB61A754640EA9C0064
:108960005B084FEA3202B6EB020E75EB030E22BF34
:10897000B61A754640EADC0055EA060E18D04FEAF2
:10898000051545EA16754FEA06164FEAC30343EA92
:1089900052734FEAC2025FEA1C1CC0D111F4801F5F
:1089A0000BD141EA00014FF000004FF0004CB6E758
:1089B00011F4801F04BF01430020B4F1FD0C88BFF7
:1089C000BCF5E06F3FF6AFAEB5EB030C04BFB6EB02
:1089D000020C5FEA500C50F1000041EB045170BDF5
:1089E0000EF0004E4EEA113114EB5C04C2BFD4EB22
:1089F0000C0541EA045170BD41F480114FF0000EA6
:108A0000013C90E645EA060E8DE60CEA135594EA21
:108A10000C0F08BF95EA0C0F3FF43BAF94EA0C0F24
:108A20000AD150EA01347FF434AF95EA0C0F7FF499
:108A300025AF104619462CE795EA0C0F06D152EAED
:108A400003353FF4FDAE1046194622E750EA4106D1
:108A500018BF52EA43067FF4C5AE50EA41047FF4E2
:108A60000DAF52EA43057FF4EBAE12E74FF0FF3C47
:108A700006E000BF4FF0010C02E000BF4FF0010C18
:108A80004DF804CD4FEA410C7FEA6C5C4FEA430C91
:108A900018BF7FEA6C5C1BD001B050EA410C0CBFE0
:108AA00052EA430C91EA030F02BF90EA020F002042
:108AB000704710F1000F91EA030F58BF994208BFA9
:108AC00090422CBFD8176FEAE37040F00100704766
:108AD0004FEA410C7FEA6C5C02D150EA013C07D1BD
:108AE0004FEA430C7FEA6C5CD6D152EA033CD3D008
:108AF0005DF8040B704700BF8446104662468C4602
:108B00001946634600E000BF01B5FFF7B7FF002834
:108B100048BF10F1000F01BD4DF808EDFFF7F4FF5D
:108B20000CBF012000205DF808FB00BF4DF808EDE8
:108B3000FFF7EAFF34BF012000205DF808FB00BF0B
:108B40004DF808EDFFF7E0FF94BF012000205DF82D
:108B500008FB00BF4DF808EDFFF7CEFF94BF0120E2
:108B600000205DF808FB00BF4DF808EDFFF7C4FFDB
:108B700034BF012000205DF808FB00BF4FEA410C24
:108B80007FEA6C5C02D150EA013C0AD14FEA430C07
:108B90007FEA6C5C02D152EA033C02D14FF0000044
:108BA00070474FF0010070474FEA410212F5001282
:108BB00015D211D56FF47873B3EB625212D94FEA24
:108BC000C12343F0004343EA505311F0004F23FA0E
:108BD00002F018BF404270474FF00000704750EA63
:108BE000013005D111F0004008BF6FF00040704720
:108BF0004FF00000704700BF4A0011D212F500127A
:108C000011D20DD56FF47873B3EB62520ED44FEAE4
:108C1000C12343F0004343EA505323FA02F0704764
:108C20004FF00000704750EA013002D14FF0FF30A2
:108C300070474FF0000070474FEA4102B2F1E04345
:108C400024BFB3F5001CDCF1FE5C0DD901F0004C33
:108C50004FEAC0024CEA5070B2F1004F40EB830083
:108C600008BF20F00100704711F0804F21D113F1AF
:108C70003872BCBF01F00040704741F480114FEAE8
:108C80005252C2F11802C2F1200C10FA0CF320FA71
:108C900002F018BF40F001004FEAC1234FEAD3238E
:108CA00003FA0CFC40EA0C0023FA02F34FEA4303F8
:108CB000CCE77FEA625307D150EA01331EBF4FF081
:108CC000FE4040F44000704701F0004040F0FE409C
:108CD00040F40000704700BF002301461A461846C2
:108CE00000F05CB810B501390244904201D1002077
:108CF00005E0037811F8014FA34201D0181B10BD05
:108D00000130F2E70A44914200F1FF3300D170478D
:108D100010B511F8014B03F8014F9142F9D110BD84
:108D200002440346934200D1704703F8011BF9E760
:108D300038B5104B1D68AB6B0446B3B91820FEF76D
:108D4000B5FB0246A86320B90B4B0C484221FEF745
:108D5000C5FB0B490B4BC0E900130B4B83600B2386
:108D6000838100210120C2E90401AB6B00221C6158
:108D70005A6138BD48E1032015930B002C930B007A
:108D80000E33CDAB34126DE6ECDE0500034613F86E
:108D9000012B002AFBD1181A013870472DE9F8433E
:108DA000DFF8B8800646D8F800001F460D46914609
:108DB00000F056F8254B1C6834B9254C1C60254B37
:108DC00013B11B68C4F8883063681F2B07DDD8F81F
:108DD000000000F047F84FF0FF30BDE8F8834EB3D5
:108DE000D4F8880088B91C4B23B9D8F8000000F0EB
:108DF00038F8F0E74FF48470FEF758FB0028F4D001
:108E00000023C0E94033C4F88800636840F8239029
:108E100001229A4000EB8301D0F800311343C0F8DF
:108E20000031022EC1F8807002BFD0F80431134324
:108E3000C0F804316368D8F800005A1C023362603D
:108E400044F8235000F00EF80020C6E7E8E70320BE
:108E50005CE7032000000000AD740B00ACE10320D0
:108E6000704770477047000021400B005D400B00C9
:108E700085400B0089400B000000000064656661BE
:108E8000756C7420004D5342004C5342003C5350CB
:108E90004953657474696E67732064656661756CA7
:108EA000743E003C53504953657474696E67732077
:108EB00025732575202573204D4F444525753E00AB
:108EC000436F756C64206E6F742066696E64204118
:108ED000533733343100436F756C646E27742066EA
:108EE000696E642052544300525443206973204EEB
:108EF0004F542072756E6E696E6721004157393587
:108F00003233206E6F7420666F756E643F20436845
:108F100065636B20776972696E6721004157393547
:108F2000323320666F756E6421006461726B636F0B
:108F3000756E74732E6373760041535445503A0036
:108F40004154494D453A004741494E3A004C454449
:108F5000205374617475732C446174652C54696D6D
:108F6000652C547970652C463120283431356E6D6E
:108F7000292C463220283434356E6D292C46332076
:108F8000283438306E6D292C463420283531356E22
:108F90006D292C463520283535356E6D292C463601
:108FA00020283539306E6D292C463720283633304D
:108FB0006E6D292C463820283638306E6D292C43AA
:108FC0006C6561722028292C4E49522028292C5486
:108FD0007970652C4631203431356E6D2C46322047
:108FE0003434356E6D2C4633203438306E6D2C465B
:108FF00034203531356E6D2C4635203535356E6D66
:109000002C4636203539306E6D2C463720363330BD
:109010006E6D2C4638203638306E6D2C436C656191
:10902000722C4E4952004572726F72206F70656EDD
:10903000696E672066696C65210020280029200080
:109040004572726F722072656164696E6720616C2F
:109050006C206368616E6E656C7321004C45442022
:109060004F4E004631203431356E6D203A200020BD
:1090700020005261772056616C7565203A200046C9
:1090800032203434356E6D203A2000463320343897
:10909000306E6D203A20004634203531356E6D201B
:1090A0003A20004635203535356E6D203A20004691
:1090B00036203539306E6D203A2000463720363361
:1090C000306E6D203A20004638203638306E6D20E4
:1090D0003A2000436C656172202020203A20004E27
:1090E00049522020202020203A2000424153494369
:1090F00020434F554E5453005241572056414C5532
:109100004553004C4544204F4646000000000000F7
:109110000000000081410B00B3400B00D1400B0068
:109120000000000000000000CF400B00DF400B00FB
:109130001F410B0019410B00B5400B00F9400B001B
:10914000F3400B00ED400B000000003F0000803FAB
:10915000000000400000804000000041000080410D
:1091600000000042000080420000004300008043F5
:10917000000000440000000000000000D9670B0060
:109180001F1C1F1E1F1E1F1F1E1F1E1F0000000072
:10919000000000005B750B0051750B0047750B005C
:1091A0003D750B0031750B0025750B00D97F0B0049
:1091B000E17F0B0019750B0011750B0007750B0093
:1091C000FD740B0011800B000008101820283038A7
:1091D0006E616E00696E66006F7666002E006170CB
:1091E000700025592D256D2D25645425483A254DAF
:1091F0003A2553257A0061736374696D6500000038
:109200000000000000000000717B0B00617B0B0080
:10921000637B0B000000000000000000577C0B0087
:10922000BF7C0B00957C0B0039770B00877C0B0013
:10923000597C0B00697C0B00B97C0B00797C0B001E
:10924000517C0B000000000000000000657D0B0059
:10925000D17D0B00A97D0B0039770B00797D0B00C8
:10926000957D0B00877D0B00A37D0B00677D0B00B8
:109270006B7D0B000000000000000000097E0B0069
:10928000537E0B002B7E0B000B7E0B00337E0B00FE
:109290003B7E0B00437E0B004B7E0B00000000006A
:1092A000000000007B7F0B00717F0B00677F0B00CD
:1092B0001D7F0B005B7F0B004F7F0B00D97F0B00E6
:1092C000E17F0B00437F0B003B7F0B00317F0B00E6
:1092D000277F0B0011800B00000000000000000041
:1092E000997F0B00A37F0B00AD7F0B00B77F0B00B6
:1092F000C17F0B00CD7F0B00D97F0B00E17F0B00FE
:10930000E97F0B00F57F0B00FD7F0B0007800B0052
:1093100011800B00005245454E54206D616C6C6FFE
:109320006320737563636565646564002F6D6E7497
:109330002F776F726B73706163652F776F726B73CA
:10934000706163652F4743432D31302D706970651F
:109350006C696E652F6A656E6B696E732D4743434A
:109360002D31302D706970656C696E652D34385FF4
:1093700032303230313132345F313630363138309C
:109380003634312F7372632F6E65776C69622F6E7E
:1093900065776C69622F6C6962632F7374646C69A2
:1093A000622F72616E642E63000000000D4B0B0093
:1093B00065750B0005770B0029770B00F1790B0021
:1093C000017A0B001D7A0B00857F0B00E9800B00F2
:1093D000040000001400000003000000474E550088
:1093E0007CCA1E3375DC755CB3BACF87FCFFF24DC7
:0493F000B000E034B5
:0493F4000000000075
:1093F80053756E6461790000000000004D6F6E6463
:10940800617900000000000054756573646179009B
:10941800000000005765646E6573646179000000A0
:10942800546875727364617900000000467269645B
:1094380061790000000000005361747572646179FD
:1094480000000000F6910B004CE103200000000032
:109458000000000000000000000000000000000004
:1094680000000000000000000000000000000000F4
:1094780000000000000000000000000000000000E4
:1094880000000000000000000000000000000000D4
:1094980000000000000000000000000000000000C4
:1094A800000000000000000000000000ECE70320BE
:1094B800FFFFFFFF00000102030405060708090A71
:1094C8000B0C0D0E0F101112131415161718191A6C
:0894D8001B1C1D1E1F202800B3
:0494E0007856341274
:04000003B0004020E9
:00000001FF
