:02000002B0004C
:1040000000400B00BC790B00000006000C0005020C
:0840100004010410000000008F
:044018008C750B0098
:1040200009480A49884208B505D0094A824202D0A7
:10403000121A03F0F9F90748074A0021121A03F08F
:1040400001FA014808BD00BF18E6032028790B00DB
:1040500084E6032084E60320EDE7032070B5074ED5
:10406000074C02F003F9A41BA4080025AC4200D1C0
:1040700070BD56F8043B98470135F7E7D0780B0040
:10408000F4780B0000F016B808B500F049F8BDE868
:10409000084002F0A3B801F049BD01F047BD01F0AE
:1040A0004DBD0078B0FA80F04009704701230370DD
:1040B0007047000008B502F0E7F94FF4E13102F073
:1040C000D1F902F0E1F902F0D4F918B9012002F0B7
:1040D00037F8F6E702F076FC0023024639210E4855
:1040E00001F030F840B902F0CFF90C4901F00BFFB4
:1040F0000A2002F025F8FBE73B21074801F0FAF817
:1041000040F25721044801F01AF9BDE8084002487E
:10411000032101F03BB900BF90E60320A0750B001E
:104120002DE9F0439DB0064804A901F09AFA58B968
:1041300002F0AAF9034901F0E6FE1DB0BDE8F083E4
:1041400090E60320B6750B00012001F0FCFFE2228F
:1041500000217B2002F007F84FF47A7001F0F0FFA5
:1041600004AF10ADDFF8F0932E46B846FC24012CC6
:1041700006D9B8F80010484601F02EF986ED000A7D
:104180000134E4B2082C08F1020806F10406EED16D
:1041900002F07AF9E649DFF8C09301F0A1FE02F0DF
:1041A00073F99DED100A022101F0A9FF02F06CF9EC
:1041B000E04901F095FE02F067F99DED110A022138
:1041C00001F09DFF02F060F9DB4901F089FE02F089
:1041D0005BF99DED120A022101F091FF02F054F902
:1041E000D64901F07DFE02F04FF99DED130A022140
:1041F00001F085FF02F048F9D14901F071FE02F0AB
:1042000043F99DED160A022101F079FF02F03CF915
:10421000CC4901F065FE02F037F99DED170A022145
:1042200001F06DFF02F030F9C74901F059FE02F0CC
:104230002BF99DED180A022101F061FF02F024F92B
:10424000C24901F04DFE02F01FF99DED190A02214D
:1042500001F055FF02F018F9BD4901F041FE02F0EE
:1042600013F99DED1A0A022101F049FF02F00CF941
:10427000B84901F035FE02F007F99DED1B0A022155
:1042800001F03DFF02F000F901F031FE4FF47A70C9
:1042900001F056FFFF221B21002001F064FF4FF4C4
:1042A0007A7001F04DFF2E460DF11008FC24012C10
:1042B00006D9B8F80010484601F08EF886ED000ADD
:1042C0000134E4B2082C08F1020806F10406EED12C
:1042D00002F0DAF89649DFF8809201F001FE02F070
:1042E000D3F89DED100A022101F009FF02F0CCF88D
:1042F000904901F0F5FD02F0C7F89DED110A022189
:1043000001F0FDFE02F0C0F88B4901F0E9FD02F07A
:10431000BBF89DED120A022101F0F1FE02F0B4F8A3
:10432000864901F0DDFD02F0AFF89DED130A022190
:1043300001F0E5FE02F0A8F8814901F0D1FD02F09C
:10434000A3F89DED160A022101F0D9FE02F09CF8B7
:104350007C4901F0C5FD02F097F89DED170A022196
:1043600001F0CDFE02F090F8774901F0B9FD02F0BE
:104370008BF89DED180A022101F0C1FE02F084F8CD
:10438000724901F0ADFD02F07FF89DED190A02219E
:1043900001F0B5FE02F078F86D4901F0A1FD02F0E0
:1043A00073F89DED1A0A022101F0A9FE02F06CF8E3
:1043B000684901F095FD02F067F89DED1B0A0221A6
:1043C00001F09DFE02F060F801F091FD4FF47A706B
:1043D00001F0B6FEFF221146002001F0C4FE4FF4AA
:1043E0007A7001F0ADFE2E460DF11008FC24012C70
:1043F00006D9B8F80010484600F0EEFF86ED000A36
:104400000134E4B2082C08F1020806F10406EED1EA
:1044100002F03AF84649DFF8409101F061FD02F000
:1044200033F89DED100A022101F069FE02F02CF82C
:10443000404901F055FD02F027F89DED110A0221D7
:1044400001F05DFE02F020F83B4901F049FD02F069
:104450001BF89DED120A022101F051FE02F014F842
:10446000364901F03DFD02F00FF89DED130A0221DF
:1044700001F045FE02F008F8314901F031FD02F08B
:1044800003F89DED160A022101F039FE01F0FCFF50
:104490002C4901F025FD01F0F7FF9DED170A0221DF
:1044A00001F02DFE01F0F0FF274901F019FD01F0A8
:1044B000EBFF9DED180A022101F021FE01F0E4FF5F
:1044C000224901F00DFD01F0DFFF9DED190A0221E7
:1044D00001F015FE01F0D8FF1D4901F001FD01F0CA
:1044E000D3FF9DED1A0A022101F009FE01F0CCFF75
:1044F000184901F0F5FC01F0C7FF9DED1B0A0221F0
:1045000001F0FDFD01F0C0FF01F0F1FC4FF47A7005
:1045100001F016FE00221046FF2101F024FE4FF4A8
:104520007A7001F00DFE2E460DF11008FC2415E006
:10453000D2750B00DE750B00EA750B00F6750B00EB
:1045400002760B000E760B001A760B0026760B0017
:1045500032760B003E760B0090E60320012C06D944
:10456000B8F80010484600F037FF86ED000A013425
:10457000E4B2082C08F1020806F10406EED101F0BD
:1045800083FFE449DFF8B49301F0AAFC01F07CFF5B
:104590009DED100A022101F0B2FD01F075FFDE4928
:1045A00001F09EFC01F070FF9DED110A022101F067
:1045B000A6FD01F069FFD94901F092FC01F064FF0A
:1045C0009DED120A022101F09AFD01F05DFFD44930
:1045D00001F086FC01F058FF9DED130A022101F065
:1045E0008EFD01F051FFCF4901F07AFC01F04CFF44
:1045F0009DED160A022101F082FD01F045FFCA4936
:1046000001F06EFC01F040FF9DED170A022101F060
:1046100076FD01F039FFC54901F062FC01F034FF7D
:104620009DED180A022101F06AFD01F02DFFC0493D
:1046300001F056FC01F028FF9DED190A022101F05E
:104640005EFD01F021FFBB4901F04AFC01F01CFFB7
:104650009DED1A0A022101F052FD01F015FFB64945
:1046600001F03EFC01F010FF9DED1B0A022101F05C
:1046700046FD01F009FF01F03AFC4FF47A7001F0B9
:104680005FFD0022FF21B32001F06DFD4FF47A7031
:1046900001F056FD2E460DF11008FC24012C06D920
:1046A000B8F80010484600F097FE86ED000A013485
:1046B000E4B2082C08F1020806F10406EED101F07C
:1046C000E3FE9449DFF8749201F00AFC01F0DCFE8D
:1046D0009DED100A022101F012FD01F0D5FE8E4978
:1046E00001F0FEFB01F0D0FE9DED110A022101F068
:1046F00006FD01F0C9FE894901F0F2FB01F0C4FE9C
:104700009DED120A022101F0FAFC01F0BDFE844980
:1047100001F0E6FB01F0B8FE9DED130A022101F065
:10472000EEFC01F0B1FE7F4901F0DAFB01F0ACFED6
:104730009DED160A022101F0E2FC01F0A5FE7A4986
:1047400001F0CEFB01F0A0FE9DED170A022101F061
:10475000D6FC01F099FE754901F0C2FB01F094FE10
:104760009DED180A022101F0CAFC01F08DFE70498E
:1047700001F0B6FB01F088FE9DED190A022101F05F
:10478000BEFC01F081FE6B4901F0AAFB01F07CFE4A
:104790009DED1A0A022101F0B2FC01F075FE664996
:1047A00001F09EFB01F070FE9DED1B0A022101F05D
:1047B000A6FC01F069FE01F09AFB4FF47A7001F05B
:1047C000BFFC00221146FF2001F0CDFC4FF47A70AF
:1047D00001F0B6FCA84604ACFC26012E05D92188C0
:1047E000484600F0F9FD88ED000A0136F6B2082EC1
:1047F00004F1020408F10408EFD101F045FE454937
:104800004E4E01F06DFB01F03FFE9DED100A0221BE
:1048100001F075FC01F038FE3F4901F061FB01F049
:1048200033FE9DED110A022101F069FC01F02CFE1E
:104830003A4901F055FB01F027FE9DED120A0221D5
:1048400001F05DFC01F020FE354901F049FB01F06B
:104850001BFE9DED130A022101F051FC01F014FE34
:10486000304901F03DFB01F00FFE9DED160A0221DB
:1048700001F045FC01F008FE2B4901F031FB01F08D
:1048800003FE9DED170A022101F039FC01F0FCFD49
:10489000264901F025FB01F0F7FD9DED180A0221E4
:1048A00001F02DFC01F0F0FD214901F019FB01F0B0
:1048B000EBFD9DED190A022101F021FC01F0E4FD60
:1048C0001C4901F00DFB01F0DFFD9DED1A0A0221EC
:1048D00001F015FC01F0D8FD174901F001FB01F0D2
:1048E000D3FD9DED1B0A022101F009FC01F0CCFD76
:1048F00001F0FDFA4FF47A7001F022FC002211461B
:10490000A12001F030FC4FF47A7001F019FCFC2476
:1049100016E000BFD2750B00DE750B00EA750B00C8
:10492000F6750B0002760B000E760B001A760B0064
:1049300026760B0032760B003E760B0090E60320C5
:10494000012C05D93988304600F046FD85ED000A76
:104950000134E4B2082C07F1020705F10405EFD198
:1049600001F092FD714901F0BBFA01F08DFD9DED62
:10497000100A022101F0C3FB01F086FD6C4901F031
:10498000AFFA01F081FD9DED110A022101F0B7FBA4
:1049900001F07AFD674901F0A3FA01F075FD9DED84
:1049A000120A022101F0ABFB01F06EFD624901F039
:1049B00097FA01F069FD9DED130A022101F09FFBBA
:1049C00001F062FD5D4901F08BFA01F05DFD9DEDA6
:1049D000160A022101F093FB01F056FD584901F03F
:1049E0007FFA01F051FD9DED170A022101F087FBCE
:1049F00001F04AFD534901F073FA01F045FD9DEDC8
:104A0000180A022101F07BFB01F03EFD4E4901F046
:104A100067FA01F039FD9DED190A022101F06FFBE3
:104A200001F032FD494901F05BFA01F02DFD9DEDE9
:104A30001A0A022101F063FB01F026FD444901F04E
:104A40004FFA01F021FD9DED1B0A022101F057FBF9
:104A500001F01AFD01F04BFA4FF47A7001F070FB8F
:104A6000002001F070FB40F6B83001F069FB102225
:104A70000BAB0A9300260125032336490E961046F8
:104A8000CDE90C668DF83C50ADF82C20ADF82E30F9
:104A90008DF8305001F0BAFF044600283DD01022B6
:104AA000314602F0CFFC2C4B23600E9BA360022307
:104AB000A3819DF83C30A580A5730E94DBB10A9BC1
:104AC000DB6823B19A88042A2BD09B68F9E7214937
:104AD000102001F09BFF0446F8B11022002102F0E3
:104AE000B1FC1D4B23600423A3800E9BA3604EF6F4
:104AF0006023E3600E9401A80AA901F04FF9019820
:104B000008B101F01BF80E9800283FF416AB84683A
:104B10000C21FFF7C4FA2046F6E700238DF83C305D
:104B2000E9E74EF66022DA60E5E700BFD2750B00D8
:104B3000DE750B00EA750B00F6750B0002760B00B4
:104B40000E760B001A760B0026760B0032760B00E1
:104B50003E760B0038780B001000030008B50948BA
:104B600000F0E8FA0120002100F052FF064B00227D
:104B7000C3E90022A2F580329A60BDE80840022015
:104B800000F036BF90E6032084E6032030B5002510
:104B9000C0E9001542819DF810109DF80C20456178
:104BA00041738273037330BDF0B54589847A85B053
:104BB000034600688DF80C402D0A0E4617468DF806
:104BC0000D5040B15B7B019303AB0093012300F0D8
:104BD0002CFA05B0F0BD58680028FAD093F808E028
:104BE00093F80DC0BEF1030F0CD10CF1010325F0B9
:104BF000010500938DF80C508DF80D4003AB00F0CB
:104C0000A3F9E6E7BEF1000F09D104F07F048DF8A7
:104C10000C40CDF800C003AB3A463146EFE7BEF199
:104C2000020F02D164F07F04F1E7BEF1010F01BF72
:104C30009DF80C3003F07F0343F040038DF80C30F7
:104C4000E7E7F0B40B4602B9027B042A14D800F15E
:104C50000F05436184182946844209D0877BDEB260
:104C600027B92E701B0A0135013CF5E7A673F9E759
:104C70002046F0BCFFF798BF0020F0BC70477FB51E
:104C80004689857A8DF80C5004460068360A0B4632
:104C90008DF80D6040B10021CDE9002103A9627BB0
:104CA00000F031FA04B070BD60680028FAD0217AB3
:104CB000647B03290DD146F00106FF21CDE90021D7
:104CC0008DF80C608DF80D50621C03A900F05EF9A0
:104CD000E8E741B965F07F058DF80C50FF21CDE97B
:104CE00000212246F1E7022902D105F07F05F3E712
:104CF000012902BF9DF80C1061F03F018DF80C10E6
:104D0000ECE738B500F10F05027B29460446FFF7B2
:104D1000B6FF78B1227B294622440020A2420BD064
:104D20000302A07B20B9907B1843013A0131F5E7DB
:104D30000878F9E74FF0FF3038BD10B50160027117
:104D4000437110BD10B504460068FFF7DAFF227901
:104D5000012393406279013BD040184010BD70B5EB
:104D6000044600680E46FFF7CCFF237961790122E3
:104D70009A40531E03FA01F520EA050533402068E6
:104D800003FA01F12943027BBDE87040FFF759BFE8
:104D90002DE9F04F0446006885B00D4640B1002370
:104DA000009313460A4600F0B7FF05B0BDE8F08F48
:104DB000237BA068484FB7FBF0F7002B0B780CBFA4
:104DC0004FF0010B4FF0800B1BEA030F01EB0203C6
:104DD0000CBF4FF001094FF00009FFB20393039B92
:104DE000AB42E2D095F800A05E464FF0000817B144
:104DF000384600F095FC637B13F0FD0F41D194F928
:104E000010305A1C0FD01AEA060114BF01230023E8
:104E10004B4508D06369606A1A6800292CD00243A8
:104E20001A604FF00109A169E36A0A6813430B6035
:104E300017B1384600F074FC94F91130013306D0F4
:104E4000E3691A68A36A1A4218BF46EA0808A1690A
:104E5000E36A0A6822EA03030B6094F91130013314
:104E600018BF85F80080237B002B32D17600F6B284
:104E7000002EBCD10135B2E722EA00021A60894651
:104E8000D1E7A169E36A0A6813430B6017B138469A
:104E900000F046FC94F91030013308D06369616A70
:104EA0001A681AEA060F14BF0A438A431A60A169F6
:104EB000E36A0A6822EA03030B6094F911300133B4
:104EC000CBD0E3691A68A36A1A4218BF46EA0808F9
:104ED000C3E77608CCE700BF20A1070007B5012291
:104EE0008DF807100DF10701FFF752FF9DF807003D
:104EF00003B05DF804FB03681BB14168184600F07D
:104F00009DBE7047006808B100F07EBE704790F902
:104F10000E00431C03D0C9B280B201F0DFBC704761
:104F200010B50446FFF7E7FF20460021BDE810401A
:104F3000FFF7EDBF10B501210446FFF7E8FF20465B
:104F4000BDE81040FFF7DEBF2DE9F0411C460646E4
:104F50000D461746FFF7E4FF069B04EB03084445A4
:104F600008D12F44BD420BD015F8011B3046FFF786
:104F7000B5FFF7E714F8011B3046FFF7AFFFEEE788
:104F80003046FFF7D7FF0120BDE8F0812DE9F04161
:104F90000D4617469DF81C8006461C46FFF7C0FFCD
:104FA0002F44BD420AD1069BE518AC420CD04146C5
:104FB0003046FFF793FF04F8010BF6E715F8011BE5
:104FC0003046FFF78BFFECE73046FFF7B3FF0120D9
:104FD000BDE8F08142600022027220220170C260AE
:104FE000704710B5037A044653B12178606801F028
:104FF0003CFB606801F041FBB0FA80F0400910BD55
:10500000012100F003F80028EFD1F8E738B5044695
:1050100040680D4601F0FAFA0120207225B12046C1
:10502000BDE83840FFF7DDBF38BD2DE9F843DDE9C5
:1050300008961F46C368154632449A42044688467D
:1050400002D90020BDE8F8830178406801F00DFB2B
:105050007EB9606803682A46DB6841469847854206
:10506000EFD16068394601F004FBB0FA80F04009E6
:10507000E8E7B9F1000FECD0606803683246DB68FE
:10508000494698478642DCD1E3E72DE9F0411546D1
:1050900004460E46D2B20178406801F0D4FA854247
:1050A0000DD100271FFA87F8A84507F1010709D29B
:1050B000606803685B69984706F80800F2E700201B
:1050C000BDE8F0810120FBE72DE9F843074688465B
:1050D000164699460025B54212D2FA68741B9442CE
:1050E00028BF1446331BAB4294BF4B4600232246D5
:1050F00008EB05013846FFF7C8FF10B12544EAE781
:105100000120BDE8F88373B51D460023CDE90033C7
:105110009DF81C30069E0446FFF787FF40B101232F
:1051200032462946204602B0BDE87040FFF7CCBFAA
:1051300002B070BD024A02600022027182607047B4
:1051400080760B002DE9F041044680680F469046BA
:105150001E4610B11021FEF7A2FF1020FEF79BFFA4
:10516000054618B142463946FFF734FFA5600121D4
:105170002846FFF74BFF30B12368314620461B68B5
:10518000BDE8F0411847BDE8F08170B501258AB04F
:105190000026CDE900650C462B468168802204A8D4
:1051A000FFF7F4FC33462A4604A902A8FFF7C5FD21
:1051B000214602A8FFF7D3FD0AB070BD70B50125E6
:1051C00088B00024CDE900452B468168922206462E
:1051D00002A8FFF7DBFC02A8FFF793FDC30706D484
:1051E00030462946FFF7D1FF284608B070BD20465B
:1051F000FBE710B501238AB00022CDE900230C465D
:105200008022816804A8FFF7C1FC01231A4604A983
:1052100002A8FFF792FD214602A8FFF7A0FD0AB001
:1052200010BD30B501258BB00024CDE900452B46DB
:105230008168802204A8FFF7A9FC2A46042304A958
:1052400002A8FFF77AFD294602A8FFF788FD054668
:1052500002A8FFF777FD38B1B4F57A7F0BD00120B3
:1052600000F06EFF0134F3E7B4F57A7F08BF002544
:1052700028460BB030BD0025FAE710B501238AB0EF
:105280000022CDE900230C46AF22816804A8FFF775
:105290007DFC0323022204A902A8FFF74EFD21464C
:1052A00002A8FFF75CFD0AB010BD10B500238AB05C
:1052B0000124CDE90034A3228168234604A8FFF726
:1052C00065FC0623224604A902A8FFF736FD02A8C2
:1052D000FFF738FD003818BF01200AB010BD10B527
:1052E00004462046FFF7E1FF18B9012000F028FF2F
:1052F000F7E710BD30B5012389B00025CDE9005393
:105300000C468122816802A8FFF740FC2A4621460C
:1053100002A8FFF796FC09B030BD00B5012389B0A3
:105320000022CDE900238122816802A8FFF72EFC2C
:1053300002A8FFF7E6FCC0B209B05DF804FB30B587
:10534000012389B00025CDE900530C460223816872
:10535000CA2202A8FFF71AFC2A46214602A8FFF734
:1053600070FC09B030BD00B5002389B00122CDE941
:10537000003202238168CA2202A8FFF707FC02A8B4
:10538000FFF7BFFC80B209B05DF804FB30B5012324
:1053900089B00025CDE900530C46AA22816802A8F5
:1053A000FFF7F4FB2A46214602A8FFF74AFC09B0A2
:1053B00030BD00B5012389B00022CDE90023AA2227
:1053C000816802A8FFF7E2FB02A8FFF79AFCC0B2CF
:1053D00009B05DF804FB0000F8B52DED028B0D4619
:1053E0000446FFF7E6FF0A2897BF1F4BDFED1F8A31
:1053F00003EB8000D0ED008A2046FFF78EFF431CB0
:10540000204608EE103AFFF7AEFF04460134284666
:1054100001F052FCB8EEC88A07EE904A28EE288ABE
:10542000F8EEE77A064667EE887A0F4617EE900A9E
:1054300001F054FC0AA3D3E9002301F0A7FC0C4BB4
:10544000002201F0CDFD02460B463046394601F000
:10545000C7FD01F093FFBDEC028B00EE100AF8BD12
:105460003D0AD7A3703D06404C760B0000000000BB
:1054700000408F4030B5012389B00025CDE90053AD
:1054800014460A46816802A8FFF780FB2A46214697
:1054900002A8FFF7D6FB09B030BD10B530220021BD
:1054A0000446FFF7E7FF012211462046FFF7E2FF1F
:1054B000204600220221FFF7DDFF204600220321C3
:1054C000FFF7D8FF204600220421FFF7D3FF204634
:1054D00042220521FFF7CEFF204600220621FFF7DA
:1054E000C9FF204600220721FFF7C4FF20465022B3
:1054F0000821FFF7BFFF204600220921FFF7BAFF6E
:10550000204600220A21FFF7B5FF204600220B218A
:10551000FFF7B0FF204620220C21FFF7ABFF20460B
:1055200004220D21FFF7A6FF204600220E21FFF7DF
:10553000A1FF204630220F21FFF79CFF20460122C9
:105540001021FFF797FF204650221121FFF792FF0D
:10555000204600221221FFF78DFF20460622BDE8DB
:1055600010401321FFF786BF002210B511460446F4
:10557000FFF780FF204600220121FFF77BFF204636
:1055800000220221FFF776FF204640220321FFF789
:1055900071FF204602220421FFF76CFF2046002203
:1055A0000521FFF767FF204610220621FFF762FF63
:1055B000204603220721FFF75DFF204650220821E5
:1055C000FFF758FF204610220921FFF753FF20461E
:1055D00003220A21FFF74EFF204600220B21FFF78E
:1055E00049FF204600220C21FFF744FF20460022FD
:1055F0000D21FFF73FFF204624220E21FFF73AFF3F
:10560000204600220F21FFF735FF204600221021FF
:10561000FFF730FF204650221121FFF72BFF2046D5
:1056200000221221FFF726FF20460622BDE8104087
:105630001321FFF71FBF38B504460D460021FFF7C1
:10564000D8FD02212046FFF718FE204635B1FFF7AE
:1056500024FF2046BDE83840FFF7E3BDFFF784FF95
:10566000F7E72DE9F041044688B00E460121FFF727
:10567000E2FF01212046FFF7BCFD4FF00008204665
:105680000127FFF72CFE0223A1689522CDE90087B0
:1056900002A8FFF77BFA0C22314602A8FFF7EFFAC7
:1056A000414605462046FFF7C6FF39462046FFF72C
:1056B000A0FD2046FFF713FE2DB10C22B11802A861
:1056C000FFF7DDFA0546284608B0BDE8F081000086
:1056D00008B5024B1B689B68019308BD6802030074
:1056E00008B5024B1B68DB68019308BD6802030024
:1056F00008B5024B1B68DB68019308BD2C02030050
:1057000008B5024B1B681B69019308BD2C020300FE
:1057100008B5024B1B685B68019308BD18020300C3
:1057200008B5024B1B68DB68019308BD1802030033
:1057300008B5024B1B685B69019308BD18020300A2
:1057400008B5024B1B685B6C019308BD480203005F
:1057500008B5024B1B685B69019308BD6402030036
:1057600008B5024B1B68DB68019308BD3C020300CF
:1057700008B5024B1B681B69019308BD3C0203007E
:1057800008B5024B1B685B69019308BD3C0203002E
:1057900008B5024B1B689B69019308BD3C020300DE
:1057A00008B5024B1B68DB69019308BD3C0203008E
:1057B00008B5024B1B681B6A019308BD3C0203003D
:1057C00008B5024B1B689B6A019308BD3C020300AD
:1057D00008B5024B1B681B6C019308BD3C0203001B
:1057E00008B5024B1B68DB68019308BD2802030063
:1057F00008B5024B1B689B69019308BD2802030092
:1058000008B5024B1B68DB69019308BD2802030041
:1058100008B5024B1B681B6A019308BD28020300F0
:1058200008B5024B1B685B6A019308BD28020300A0
:1058300008B5024B1B689B6A019308BD2802030050
:1058400008B5024B1B68DB6A019308BD2802030000
:1058500008B5024B1B681B6B019308BD28020300AF
:1058600008B5024B1B685B6B019308BD280203005F
:1058700008B5024B1B681B6C019308BD280203008E
:1058800008B5024B1B681B6D019308BD280203007D
:1058900008B5024B1B68DB69019308BD30020300A9
:1058A00008B5024B1B681B6A019308BD3002030058
:1058B00008B5024B1B685B6A019308BD3002030008
:1058C00008B5024B1B689B6A019308BD30020300B8
:1058D00008B5024B1B689B6B019308BD30020300A7
:1058E00008B5024B1B68DB6B019308BD3002030057
:1058F00008B5024B1B681B6C019308BD3002030006
:1059000008B5024B1B685B6C019308BD30020300B5
:1059100008B5024B1B681B68019308BD4C020300CD
:1059200008B5024B1B685B68019308BD4C0203007D
:1059300008B5024B1B681B69019308BD4C020300AC
:1059400008B5024B1B685B69019308BD4C0203005C
:1059500008B5024B1B689B69019308BD4C0203000C
:1059600008B5024B1B68DB69019308BD4C020300BC
:1059700008B5024B1B681B6A019308BD4C0203006B
:1059800008B5024B1B685B6A019308BD4C0203001B
:1059900008B5024B1B685B68019308BD60020300F9
:1059A00008B5024B1B689B68019308BD60020300A9
:1059B00008B5024B1B68DB68019308BD6002030059
:1059C00008B5024B1B689B69019308BD6002030088
:1059D00008B5024B1B68DB69019308BD6002030038
:1059E00008B5024B1B681B6D019308BD60020300E4
:1059F00008B5024B1B685B68019308BD20020300D9
:105A000008B5024B1B685B69019308BD20020300C7
:105A100008B5024B1B68DB6A019308BD2002030036
:105A200008B5034B1B68D3F88830019308BD00000C
:105A30002002030008B5034B1B68D3F89430019390
:105A400008BD00002002030008B5034B1B68D3F813
:105A5000A830019308BD00002002030008B5024BE6
:105A60001B685B68019308BD4002030008B5024B48
:105A70001B689B68019308BD4002030008B5024BF8
:105A80001B68DB68019308BD4002030008B5024BA8
:105A90001B681B69019308BD4002030008B5024B57
:105AA0001B685B69019308BD4002030008B5024B07
:105AB0001B689B69019308BD4002030008B5024BB7
:105AC0001B68DB69019308BD4002030008B5024B67
:105AD0001B681B6A019308BD4002030008B5024B16
:105AE0001B681B6B019308BD4002030008B5024B05
:105AF0001B685B6B019308BD4002030008B5024BB5
:105B00001B681B6C019308BD4002030008B5024BE3
:105B10001B685B6C019308BD4002030008B5024B93
:105B20001B68DB6B019308BD4402030008B5024B00
:105B30001B681B68019308BD1C02030008B5024BDB
:105B40001B685B68019308BD1C02030008B5024B8B
:105B50001B681B6C019308BD1C02030008B5024BB7
:105B60001B685B6C019308BD1C02030000224068A7
:105B70001146FFF7ABBF002240681146FFF7B6BFE2
:105B800040680022FFF7AABF4068002281F00101AF
:105B9000FFF794BF002340681A461946FFF786BFF7
:105BA000002340681A461946FFF778BF0022406874
:105BB0001146FFF76BBF002240681146FFF756BF42
:105BC000406800220221FFF759BF002340681A46AF
:105BD000FFF744BF024B03225A60024A1A60704723
:105BE000B8E603208C760B000021FFF789BE002168
:105BF000FFF77EBE10B5044608462170FFF748FE49
:105C000000236360204610BD0078FFF7EDBF000061
:105C1000400830B51860002418688842E5B206D9FB
:105C20000134082C02D040081860F5E70725024B24
:105C30005B5D137030BD00BFC0760B002DE9F043F3
:105C400006468FB000780C46FFF7D1FF00281BDB1B
:105C500035781422002109A801F0F4FB0B2300225F
:105C600009A92846ADF82430FFF722FE9DF82D3013
:105C700013B19DF82C5055B10027B946B8460125FF
:105C800023795DB1C3B100200FB0BDE8F083DDF82A
:105C900030809DF834909DF83570F1E7002B35D1B8
:105CA000A368434508D18DF820908DF82170BDF888
:105CB0002020A3899A42E6D00023A1688DF80F30F6
:105CC0000A9804AB0DF10F02FFF7A2FF217985B905
:105CD00089B9A36843450ED38DF820908DF82170C3
:105CE000BDF82020A3899A4205D1049B434502D1E7
:105CF000C9E70029F9D100230193637B00939DF844
:105D00000F20237B3078FFF7EBFDBCE7CDE9005592
:105D10002B462A460121F5E730B587B004460A9D97
:105D200000950078FFF7CCFD3DB9207802A9FFF778
:105D3000CFFD9DF81430DB07F7D407B030BD10B5A8
:105D40000446006818B1FFF7F9FE0023236010BD78
:105D500038B50C460546FFF7F2FF54B12088FFF72F
:105D6000E5FE286028B122882146BDE8384001F0D0
:105D70005BBB38BD38B5B1F904308380D1F806304B
:105D8000C0F806304B8943810C460546FFF7D7FF24
:105D9000236813B12B600023236038BDF0B52B4D71
:105DA0000B7D04468BB00846AF1D002B36D00B6828
:105DB0001B79002B32D0264B0493002202A9043019
:105DC000CDE90222FFF740FEDDF80E30C5F80630BF
:105DD00000B2BDF81230ADF80C00A8800299BB806B
:105DE0002846FFF7B5FF02A8FFF7A9FF00232360AD
:105DF000A380A37123814FF6FF736381B5F904304B
:105E0000A380D5F80630C4F80630BB8829686381C2
:105E10002046FFF79DFF20460BB0F0BD0026202353
:105E2000CDE902360B4B009302AA33460A493220D1
:105E3000FFF7D6FD064B054802964FF6F26202A91F
:105E4000CDE90323FFF796FFCDE700BFC0E60320AF
:105E50000000FFFFCF760B00C8760B00054B022237
:105E60001A60054B054A9A600020C3E90000FFF75D
:105E7000BFBD00BFCCE60320C0E603200000FFFF4B
:105E8000024800230360FFF75BBC00BFD0E603209D
:105E9000F8B506460D468F180024BD420CD0336875
:105EA00015F8011B9B6830469847031E01DB1C4414
:105EB000F3E7002C08BF1C462046F8BD13B5044686
:105EC000084659B1019101F0F3FA23680199DB68A2
:105ED0000246204602B0BDE81040184702B010BD8F
:105EE00008B5FFF7EBFF08BD03689B68184738B596
:105EF0000D210546FFF7F8FF0A2104462846FFF763
:105F0000F3FF204438BD38B50546FFF7D7FF0446F8
:105F10002846FFF7ECFF204438BD30B58BB0002396
:105F2000012A8DF8243098BF0A2209AC0D46B1FB36
:105F3000F2F101FB125303F0FF03092B94BF30333E
:105F40003733DBB2AA4204F8013DEFD92146FFF70F
:105F5000B5FF0BB030BD00002DE9F74F55EC104BED
:105F600006460F4610EE102A10EE100A2B46294660
:105F700001F0A6F940B153493046FFF79FFF824632
:105F8000504603B0BDE8F08F25F000494E4B4FF06E
:105F9000FF322046494601F093F948B94A4B4FF089
:105FA000FF322046494601F06DF908B94749E3E759
:105FB000474B4FF060422046294601F077F908B17F
:105FC0004449D9E7444B4FF060422046294601F04E
:105FD0004FF90028F4D1002200232046294601F081
:105FE00047F9D0B12D213046FFF77EFF05F1004380
:105FF00082461D463949DFF8EC904FF0000B002037
:106000004FF000085FFA8BF39F4208D942464B4697
:1060100000F0E6FF0BF1010BF4E78246EAE72246C7
:106020002B4600F0FDFC0D46044601F087F9804642
:1060300000F032FE02460B462046294600F0EEFCF8
:106040000A2204460D4630464146FFF766FF824469
:10605000002F95D02249DFF88C903046FFF72EFFB5
:106060004FF000088244002F8AD042464B4620461B
:10607000294600F08BFE04460D4601F037F9B0F1D9
:10608000000B1CDA2D213046FFF72EFFCBF100016B
:1060900003460A2230460193FFF73FFF019B184455
:1060A0008244584600F008FE02460B462046294628
:1060B00000F0B4FC013F04460D46FFB2D3E7594659
:1060C0000023E6E7F6760B00FFFFEF7FFA760B0082
:1060D000FFFFEF41FE760B00FFFFEFC10000E03F46
:1060E000F4760B000000244038B5C9B20546FFF72E
:1060F00033FF04462846FFF7FAFE204438BD38B582
:10610000044610EE100A0D4600F0E8FD41EC100BBD
:1061100029462046BDE83840FFF7E6BF014B024A5A
:106120001A607047D4E6032002770B00024B1A680E
:10613000024B1A60704700BF18E60320D8E6032020
:106140000021FFF75DBC10B50446FFF739FC84421F
:1061500008D01CB1BDE81040FFF722BCBDE81040DC
:10616000FFF726BC10BD70B505460E461446FFF776
:1061700027FC50B144EA062444EA0540FFF708FC36
:10618000BDE87040E720FFF723BC70BD014B002243
:106190009A607047DCE60320014B1860704700BF2F
:1061A0001CE6032008B50B4B43B100F06DF9036802
:1061B0001B699847002801DDAFF30080064B43B10F
:1061C00000F0C0FB03681B699847002801DDAFF3AE
:1061D000008008BD000000000000000008B5FFF7C7
:1061E000E1FFFFF7A5FA014B186008BD40E7032067
:1061F0000548064A064908B5121A01F015F9054B7B
:10620000054A1A6008BD00BF00F4032004F403200F
:1062100024790B0000F403201E1C279A07B50023E5
:1062200000931A466FF07701FFF704FC03B05DF8A6
:1062300004FB000007B543880A2B08D0502B0BD174
:10624000094B1B684BB103B05DF804EB1847FFF72F
:10625000E5FF03B05DF804FB002300931A466FF0DE
:106260007701FFF7E7FBF4E7F0E6032010B51248EB
:106270000021FFF773FC114B1A68114B9A42114B26
:106280000CBF012200221A7001D0FFF7B1FFFFF707
:106290003FFA044601F0DEF80B4B13B12046AFF392
:1062A000008000210848FFF739FCBDE8104007488E
:1062B0000021FFF7B5BB00BF99610B0000F403207C
:1062C0001E1C279AECE603200000000035620B003C
:1062D000704710B518210446FDF7E1FE204610BDB9
:1062E000F0B5037D062B8DB00E4600F104074FF08C
:1062F000000412D000F1080515F8011D0A223046ED
:10630000FFF70BFEAF42044419D0002CF4D02E212D
:106310003046FFF7E9FD0444EEE72F236A4639468D
:106320000A208DF80040FFF713FA684601F0C0F824
:1063300033680246DB686946304698470446204683
:106340000DB0F0BD10B5054B0446112240F8043BDA
:10635000002101F077F8204610BD00BF2C770B001C
:106360000346074A10B543F8042B01F1100251F817
:10637000044B43F8044B9142F9D10A781A7010BDCE
:106380002C770B0010B59DF8084044EA032343EA3C
:10639000024242EA016104234160037510BD00001E
:1063A00007B5064B0360CB7800938B784A78097861
:1063B000FFF7E8FF03B05DF804FB00BF2C770B008C
:1063C000417470477047704708B50021007CFFF7A3
:1063D000BFFA40EAE07008BD08B50121007CFFF774
:1063E000B7FA40EAE07008BD08B5007CFFF7A8FAEC
:1063F00020EAE07008BD08B5007CFFF799FA20EAB2
:10640000E07008BD13B50446007C0191FFF798FACF
:106410000028019901DC607C20B1207CFFF7A0FA04
:1064200020EAE07002B010BD007CFFF7A1BA10B501
:1064300014210446FDF733FE204610BD10B54FF47D
:106440007A73044608460021C4E90113044B236013
:106450000123207463741146FFF75AFA204610BDD9
:1064600040770B00007C0022FFF75ABA007CFFF750
:1064700087BAFFF7FBBF10B514220446002100F0D5
:10648000E1FF204610BD000010B50F4C88B003A8F6
:10649000FFF7F1FF2178BFF35B8F11F001010FD1FE
:1064A00020460191FDF7FDFD019948B103AA074877
:1064B000FFF7C4FF2046FDF7F9FD054800F0AEFFE9
:1064C000024808B010BD00BFF4E60320F8E6032040
:1064D000C5630B0070474174704708B5007CFFF737
:1064E0006FF920EAE07008BD08B5007CFFF740F9BD
:1064F00020EAE07008BD08B5007CFFF749F940EAE2
:10650000E07008BD08B5007CFFF73AF940EAE0709A
:1065100008BD007CFFF744B937B5457C04462DB172
:10652000207C03B0BDE83040FFF71AB9007C019130
:10653000FFF746F900280199F2DC284603B030BD88
:1065400010B514210446FDF7AAFD204610BD000039
:1065500010B54FF47A730446084611460022C4E988
:106560000123044B2360012320746374FFF730F987
:10657000204610BD70770B007047F8B506461546EB
:106580000C468F18BC4206D0336814F8011B9B6878
:1065900030469847F6E72846F8BD007C0022FFF712
:1065A00037B9007C0021FFF73BB9007C0021FFF7E1
:1065B0003FB9007C0021FFF743B9007C0021FFF7C1
:1065C00047B910B514210446FDF769FD204610BDFA
:1065D00038B5044615464FF47A730022C4E9012306
:1065E000094B2174084623602946FFF741F9BF3063
:1065F00008D16B69DB0705D56868FFF79FFAE86883
:10660000FFF79CFA204638BDA0770B000023007CE2
:106610001A461946FFF7E4B87FB500221423CDE9E6
:106620000122ADF804300B788DF808304B680393E5
:10663000CB680493007C0B7A059301A9FFF720F93E
:1066400007B05DF804FB1FB5003B8DF800104FF05C
:106650006401039118BF0123694601928DF8083047
:10666000FFF7DAFF05B05DF804FB007C0022FFF7BE
:10667000BFB8007C0022FFF7C3B80121FFF7F9BFC4
:10668000002240681146FFF701BA00224068114617
:10669000FFF71CBA002240681146FFF727BA40688E
:1066A0000022FFF71BBA4068002281F00101FFF7CA
:1066B00005BA002340681A461946FFF7F7B90023C8
:1066C00040681A461946FFF7E9B9002240681146AA
:1066D000FFF7CCB9406800220221FFF7CFB90023B1
:1066E00040681A46FFF7BAB9024B04225A60024AC0
:1066F0001A6070470CE70320C8770B00002340683E
:106700001A46FFF7ABB9406800220221FFF7B6B97D
:10671000002240681146FFF7A9B9002240681146DF
:10672000FFF7B4B9002340681A461946FFF7B6B917
:10673000002340681A461946FFF7B8B9406800219F
:10674000FFF7DCB940680021FFF7E0B9406800229C
:1067500081F00101FFF7B2B940680022FFF7BEB92E
:10676000002240681146FFF7C1B900224068114677
:10677000FFF7ACB92DE9F04395B014460D46074636
:10678000FFF7E0FD00211C220DA8009100F05AFE49
:1067900040230C9320466B460CAA0021FEF7A0FF75
:1067A000044600284BD1024601216868FFF76EF9C4
:1067B0000221804622466868FFF768F9009E8146FC
:1067C0002146002E3BD0002939D17368022B03D01B
:1067D0000A2B11D0F669F4E7B8F1000FFAD071690D
:1067E00006A8043107ADFFF7DBFD0FCD3C1D0FC43C
:1067F0002B6823704146EDE7B9F1000FEAD07469C8
:10680000102201A800F01EFE06238DF8143001AD01
:1068100004F108031834186859682A4603C208337B
:10682000A3421546F7D101A906A807ADFFF798FDC9
:106830000FCD3C1D0FC42B6823704946CAE7009852
:10684000FEF746FF384615B0BDE8F083024B034A19
:106850001A6000225A60704714E7032004780B0086
:10686000232813B502D9002002B010BDA0F10B03FC
:10687000022B1AD8174C2178BFF35B8F11F001015E
:106880000BD120460191FDF70CFC019928B112486B
:10689000FFF7B0F92046FDF709FC0F4B1878FEF71B
:1068A000FFFF0028DFD10120DEE7012809D800F032
:1068B00089F80021007CFEF7D3FF80F00100C0B210
:1068C000D2E709380128EED800F03CF8007CFEF74A
:1068D0006FFFF2E71CE7032020E7032038B50446EA
:1068E0000D46FEF705FFFF2810D0062804D84D23DB
:1068F00023FA00F0C30709D42046FFF7B1FF28B1FF
:1069000029462046BDE83840FEF7FABE38BD70473C
:1069100038B5044614252A46002100F093FD258051
:106920004025074925812846258200F071F8044951
:106930006060284600F06CF8E060204638BD00BF7B
:1069400038780B0030B50E4D2978BFF35B8F11F00E
:10695000010487B011D12846FDF7A3FB68B101A857
:10696000FFF7D6FF01AA21460648FFF7F1FD2846AA
:10697000FDF79CFB044800F051FD024807B030BD14
:1069800028E703202CE703200F690B007047000065
:1069900038B50A4B036001230446436108492020AF
:1069A00000F036F8202560600549A560284600F013
:1069B0002FF8C4E90305204638BD00BF18000100C8
:1069C00038780B0030B50E4D2978BFF35B8F11F08E
:1069D000010487B011D12846FDF763FB68B1684612
:1069E000FFF7D6FF6A4621460648FFF7F1FD284625
:1069F000FDF75CFB044800F011FD024807B030BD14
:106A000044E7032048E703208D690B00FDF743BBF3
:106A1000FDF743BB81F0004102E000BF83F000437B
:106A200030B54FEA41044FEA430594EA050F08BF29
:106A300090EA020F1FBF54EA000C55EA020C7FEAED
:106A4000645C7FEA655C00F0E2804FEA5454D4EB6A
:106A50005555B8BF6D420CDD2C4480EA020281EA34
:106A6000030382EA000083EA010180EA020281EA6C
:106A70000303362D88BF30BD11F0004F4FEA0131BE
:106A80004FF4801C4CEA113102D0404261EB4101CD
:106A900013F0004F4FEA03334CEA133302D0524253
:106AA00063EB430394EA050F00F0A780A4F101040F
:106AB000D5F1200E0DDB02FA0EFC22FA05F2801849
:106AC00041F1000103FA0EF2801843FA05F359412F
:106AD0000EE0A5F120050EF1200E012A03FA0EFCAE
:106AE00028BF4CF0020C43FA05F3C01851EBE371D8
:106AF00001F0004507D54FF0000EDCF1000C7EEBF5
:106B000000006EEB0101B1F5801F1BD3B1F5001F32
:106B10000CD349085FEA30004FEA3C0C04F1010451
:106B20004FEA445212F5800F80F09A80BCF1004F7A
:106B300008BF5FEA500C50F1000041EB045141EAFC
:106B4000050130BD5FEA4C0C404141EB0101013CC5
:106B500028BFB1F5801FE9D291F0000F04BF0146B4
:106B60000020B1FA81F308BF2033A3F10B03B3F186
:106B700020020CDA0C3208DD02F1140CC2F10C0216
:106B800001FA0CF021FA02F10CE002F11402D8BF74
:106B9000C2F1200C01FA02F120FA0CFCDCBF41EA40
:106BA0000C019040E41AA2BF01EB0451294330BD0F
:106BB0006FEA04041F3C1CDA0C340EDC04F11404EC
:106BC000C4F1200220FA04F001FA02F340EA0300C3
:106BD00021FA04F345EA030130BDC4F10C04C4F109
:106BE000200220FA02F001FA04F340EA03002946E9
:106BF00030BD21FA04F0294630BD94F0000F83F433
:106C0000801306BF81F480110134013D4EE77FEA15
:106C1000645C18BF7FEA655C29D094EA050F08BF61
:106C200090EA020F05D054EA000C04BF1946104642
:106C300030BD91EA030F1EBF0021002030BD5FEA86
:106C4000545C05D14000494128BF41F0004130BDAE
:106C500014F580043CBF01F5801130BD01F0004502
:106C600045F0FE4141F470014FF0000030BD7FEA75
:106C7000645C1ABF194610467FEA655C1CBF0B4670
:106C8000024650EA013406BF52EA033591EA030F87
:106C900041F4002130BD00BF90F0000F04BF00217F
:106CA000704730B54FF4806404F132044FF00005B2
:106CB0004FF0000150E700BF90F0000F04BF00212B
:106CC000704730B54FF4806404F1320410F0004591
:106CD00048BF40424FF000013EE700BF42004FEA8C
:106CE000E2014FEA31014FEA02701FBF12F07F4309
:106CF00093F07F4F81F06051704732F07F4208BFC0
:106D0000704793F07F4F04BF41F40021704730B5C6
:106D10004FF4607401F0004521F000411CE700BF12
:106D200050EA010208BF704730B54FF000050AE095
:106D300050EA010208BF704730B511F0004502D596
:106D4000404261EB41014FF4806404F132045FEA98
:106D5000915C3FF4D8AE4FF003025FEADC0C18BF41
:106D600003325FEADC0C18BF033202EBDC02C2F133
:106D7000200300FA03FC20FA02F001FA03FE40EAC5
:106D80000E0021FA02F11444BDE600BF70B54FF0C9
:106D9000FF0C4CF4E06C1CEA11541DBF1CEA1355A7
:106DA00094EA0C0F95EA0C0F00F0DEF82C4481EA0F
:106DB000030621EA4C5123EA4C5350EA013518BF2F
:106DC00052EA033541F4801143F4801338D0A0FB1C
:106DD00002CE4FF00005E1FB02E506F00042E0FBC9
:106DE00003E54FF00006E1FB03569CF0000F18BFCF
:106DF0004EF0010EA4F1FF04B6F5007F64F5407477
:106E000004D25FEA4E0E6D4146EB060642EAC62109
:106E100041EA55514FEAC52040EA5E504FEACE2E76
:106E2000B4F1FD0C88BFBCF5E06F1ED8BEF1004F79
:106E300008BF5FEA500E50F1000041EB045170BDF5
:106E400006F0004646EA010140EA020081EA030139
:106E5000B4EB5C04C2BFD4EB0C0541EA045170BD35
:106E600041F480114FF0000E013C00F3AB8014F1AF
:106E7000360FDEBF002001F0004170BDC4F10004F8
:106E8000203C35DA0C341BDC04F11404C4F1200579
:106E900000FA05F320FA04F001FA05F240EA0200D4
:106EA00001F0004221F0004110EBD37021FA04F60A
:106EB00042EB06015EEA430E08BF20EAD37070BDC4
:106EC000C4F10C04C4F1200500FA04F320FA05F023
:106ED00001FA04F240EA020001F0004110EBD37025
:106EE00041F100015EEA430E08BF20EAD37070BD95
:106EF000C4F1200500FA05F24EEA020E20FA04F36E
:106F000001FA05F243EA020321FA04F001F000411C
:106F100021FA04F220EA020000EBD3705EEA430E8D
:106F200008BF20EAD37070BD94F0000F0FD101F0BC
:106F30000046400041EB010111F4801F08BF013CF5
:106F4000F7D041EA060195F0000F18BF704703F033
:106F50000046520043EB030313F4801F08BF013DBA
:106F6000F7D043EA0603704794EA0C0F0CEA135576
:106F700018BF95EA0C0F0CD050EA410618BF52EA30
:106F80004306D1D181EA030101F000414FF0000036
:106F900070BD50EA410606BF1046194652EA430644
:106FA00019D094EA0C0F02D150EA013613D195EAB8
:106FB0000C0F05D152EA03361CBF104619460AD100
:106FC00081EA030101F0004141F0FE4141F470010A
:106FD0004FF0000070BD41F0FE4141F4780170BDFA
:106FE00070B54FF0FF0C4CF4E06C1CEA11541DBF5F
:106FF0001CEA135594EA0C0F95EA0C0F00F0A7F861
:10700000A4EB050481EA030E52EA03354FEA01318D
:1070100000F088804FEA03334FF0805545EA1313A0
:1070200043EA12634FEA022245EA111545EA106568
:107030004FEA00260EF000419D4208BF964244F1FF
:10704000FD0404F5407402D25B084FEA3202B61A1E
:1070500065EB03055B084FEA32024FF480104FF4F2
:10706000002CB6EB020E75EB030E22BFB61A754666
:1070700040EA0C005B084FEA3202B6EB020E75EBF9
:10708000030E22BFB61A754640EA5C005B084FEA61
:107090003202B6EB020E75EB030E22BFB61A75462E
:1070A00040EA9C005B084FEA3202B6EB020E75EB39
:1070B000030E22BFB61A754640EADC0055EA060EFA
:1070C00018D04FEA051545EA16754FEA06164FEA3D
:1070D000C30343EA52734FEAC2025FEA1C1CC0D1E9
:1070E00011F4801F0BD141EA00014FF000004FF076
:1070F000004CB6E711F4801F04BF01430020B4F137
:10710000FD0C88BFBCF5E06F3FF6AFAEB5EB030CEE
:1071100004BFB6EB020C5FEA500C50F1000041EBEB
:10712000045170BD0EF0004E4EEA113114EB5C04B8
:10713000C2BFD4EB0C0541EA045170BD41F480118B
:107140004FF0000E013C90E645EA060E8DE60CEA93
:10715000135594EA0C0F08BF95EA0C0F3FF43BAFB0
:1071600094EA0C0F0AD150EA01347FF434AF95EA67
:107170000C0F7FF425AF104619462CE795EA0C0F4B
:1071800006D152EA03353FF4FDAE1046194622E718
:1071900050EA410618BF52EA43067FF4C5AE50EAF2
:1071A00041047FF40DAF52EA43057FF4EBAE12E7E2
:1071B0004FF0FF3C06E000BF4FF0010C02E000BFC3
:1071C0004FF0010C4DF804CD4FEA410C7FEA6C5CA6
:1071D0004FEA430C18BF7FEA6C5C1BD001B050EA49
:1071E000410C0CBF52EA430C91EA030F02BF90EA34
:1071F000020F0020704710F1000F91EA030F58BFF3
:10720000994208BF90422CBFD8176FEAE37040F054
:10721000010070474FEA410C7FEA6C5C02D150EAF2
:10722000013C07D14FEA430C7FEA6C5CD6D152EAAD
:10723000033CD3D05DF8040B704700BF8446104672
:1072400062468C461946634600E000BF01B5FFF771
:10725000B7FF002848BF10F1000F01BD4DF808ED41
:10726000FFF7F4FF0CBF012000205DF808FB00BF12
:107270004DF808EDFFF7EAFF34BF012000205DF86C
:1072800008FB00BF4DF808EDFFF7E0FF94BF0120B9
:1072900000205DF808FB00BF4DF808EDFFF7CEFFBA
:1072A00094BF012000205DF808FB00BF4DF808EDF9
:1072B000FFF7C4FF34BF012000205DF808FB00BFCA
:1072C0004FEA410C7FEA6C5C02D150EA013C0AD1E2
:1072D0004FEA430C7FEA6C5C02D152EA033C02D1D4
:1072E0004FF0000070474FF0010070474FEA410235
:1072F00012F5001215D211D56FF47873B3EB625208
:1073000012D94FEAC12343F0004343EA505311F02E
:10731000004F23FA02F018BF404270474FF00000C0
:10732000704750EA013005D111F0004008BF6FF0FE
:10733000004070474FF00000704700BF4A0011D274
:1073400012F5001211D20DD56FF47873B3EB6252BF
:107350000ED44FEAC12343F0004343EA505323FACB
:1073600002F070474FF00000704750EA013002D140
:107370004FF0FF3070474FF0000070474FEA410276
:10738000B2F1E04324BFB3F5001CDCF1FE5C0DD983
:1073900001F0004C4FEAC0024CEA5070B2F1004FCD
:1073A00040EB830008BF20F00100704711F0804FD0
:1073B00021D113F13872BCBF01F00040704741F495
:1073C00080114FEA5252C2F11802C2F1200C10FA99
:1073D0000CF320FA02F018BF40F001004FEAC1237D
:1073E0004FEAD32303FA0CFC40EA0C0023FA02F321
:1073F0004FEA4303CCE77FEA625307D150EA0133F7
:107400001EBF4FF0FE4040F44000704701F00040C6
:1074100040F0FE4040F40000704700BF00230146EA
:107420001A46184600F04CB80A44914200F1FF3366
:1074300000D1704710B511F8014B03F8014F91428C
:10744000F9D110BD02440346934200D1704703F8BE
:10745000011BF9E738B5104B1D68AB6B0446B3B997
:107460001820FEF763FB0246A86320B90B4B0C48BB
:107470004221FEF76BFB0B490B4BC0E900130B4B92
:1074800083600B23838100210120C2E90401AB6BDF
:1074900000221C615A6138BD1CE6032039780B00BC
:1074A00050780B000E33CDAB34126DE6ECDE0500E8
:1074B000034613F8012B002AFBD1181A0138704734
:1074C0002DE9F843DFF8B8800646D8F800001F46DB
:1074D0000D46914600F056F8254B1C6834B9254CF2
:1074E0001C60254B13B11B68C4F8883063681F2BE0
:1074F00007DDD8F8000000F047F84FF0FF30BDE896
:10750000F8834EB3D4F8880088B91C4B23B9D8F857
:10751000000000F038F8F0E74FF48470FEF706FB47
:107520000028F4D00023C0E94033C4F88800636821
:1075300040F8239001229A4000EB8301D0F80031FB
:107540001343C0F80031022EC1F8807002BFD0F89A
:1075500004311343C0F804316368D8F800005A1CA2
:107560000233626044F8235000F00EF80020C6E7B2
:10757000E8E703205CE70320000000002D5B0B0020
:1075800080E60320704770477047000021400B00E1
:107590005D400B0085400B0089400B00000000009F
:1075A000436F756C64206E6F742066696E64204151
:1075B0005337333431004572726F722072656164E3
:1075C000696E6720616C6C206368616E6E656C73B8
:1075D00021004631203431356E6D203A200046328C
:1075E000203434356E6D203A200046332034383054
:1075F0006E6D203A20004634203531356E6D203ACC
:1076000020004635203535356E6D203A200046364F
:10761000203539306E6D203A200046372036333021
:107620006E6D203A20004638203638306E6D203A94
:107630002000436C656172202020203A20004E49D2
:10764000522020202020203A200000000000003F8F
:107650000000803F0000004000008040000000412A
:107660000000804100000042000080420000004312
:107670000000804300000044000000000000000003
:10768000BD510B000000000000000000CB5B0B00B0
:10769000C15B0B00B75B0B00AD5B0B00A15B0B008C
:1076A000955B0B003D670B0045670B00895B0B008A
:1076B000815B0B00775B0B006D5B0B0075670B004C
:1076C0000008101820283038776972696E670053F7
:1076D000797374656D20736C65657020636F6E6679
:1076E000696775726174696F6E20697320696E765F
:1076F000616C69642E006E616E00696E66006F7663
:1077000066006170700025592D256D2D2564542566
:10771000483A254D3A2553257A0061736374696DA3
:10772000650000000000000000000000E1620B00A6
:10773000D1620B00D3620B000000000000000000CB
:10774000C7630B002F640B0005640B00915E0B00F8
:10775000F7630B00C9630B00D9630B0029640B00AE
:10776000E9630B00C1630B00000000000000000093
:10777000D5640B0041650B0019650B00915E0B0091
:10778000E9640B0005650B00F7640B0013650B0043
:10779000D7640B00DB640B00000000000000000059
:1077A00079650B00C3650B009B650B007B650B00C7
:1077B000A3650B00AB650B00B3650B00BB650B004D
:1077C0000000000000000000DF660B00D5660B0023
:1077D000CB660B0081660B00BF660B00B3660B0027
:1077E0003D670B0045670B00A7660B009F660B000B
:1077F00095660B008B660B0075670B0000000000A0
:1078000000000000FD660B0007670B0011670B000E
:107810001B670B0025670B0031670B003D670B00F2
:1078200045670B004D670B0059670B0061670B0044
:107830006B670B0075670B00005245454E54206D79
:10784000616C6C6F63207375636365656465640068
:107850002F6D6E742F776F726B73706163652F7706
:107860006F726B73706163652F4743432D31302D09
:10787000706970656C696E652F6A656E6B696E7391
:107880002D4743432D31302D706970656C696E65ED
:107890002D34385F32303230313132345F3136306E
:1078A000363138303634312F7372632F6E65776C12
:1078B00069622F6E65776C69622F6C6962632F73E2
:1078C00074646C69622F72616E642E630000000044
:1078D0005D4B0B00D55B0B005D5E0B00815E0B000A
:1078E0001D610B002D610B008D610B00E9660B0023
:1078F0004D680B00000000000000000000000000C8
:10790000040000001400000003000000474E550072
:107910002114F07F9DF4F52C99F237A68E841E7306
:047920005F5A265B29
:04792400000000005F
:107928001A770B0020E6032000000000000000008A
:10793800000000000000000000000000000000003F
:10794800000000000000000000000000000000002F
:10795800000000000000000000000000000000001F
:10796800000000000000000000000000000000000F
:1079780000000000000000000000000000000000FF
:0C7988000000000000000000ECE70320FD
:10799400FFFFFFFF00000102030405060708090AB0
:1079A4000B0C0D0E0F101112131415161718191AAB
:0879B4001B1C1D1E1F202800F2
:0479BC0078563412B3
:04000003B0004020E9
:00000001FF
