:02000002B0004C
:1040000000400B009C4F0B00000006000C00050256
:0840100004010410000000008F
:04401800C84C0B0085
:10401C0009480A49884208B505D0094A824202D0AB
:10402C00121A00F099FD0748074A0021121A00F0F5
:10403C00A1FD014808BD00BF64E60320084F0B003A
:10404C00D0E60320D0E60320EDE7032070B5074E41
:10405C00074C00F0CDFAA41BA4080025AC4200D1FB
:10406C0070BD56F8043B98470135F7E7BC4E0B0082
:10407C00E04E0B0000F013B808B500F053FABDE8A1
:10408C00084000F06DBA00F05DB900F063B900783B
:10409C00B0FA80F04009704701230370704700208C
:1040AC0000F024BA08B50120002100F0C7F8064B37
:1040BC000022C3E90022A2F580329A60BDE80840D4
:1040CC00022000F0B3B800BFD0E6032008B5024BC5
:1040DC001B689B68019308BD6802030008B5024B7E
:1040EC001B68DB68019308BD6802030008B5024B2E
:1040FC001B685B68019308BD1802030008B5024BEE
:10410C001B685B69019308BD1802030008B5024BDC
:10411C001B685B6C019308BD4802030008B5024B99
:10412C001B685B69019308BD6402030008B5024B70
:10413C001B68DB68019308BD3C02030008B5024B09
:10414C001B681B69019308BD3C02030008B5024BB8
:10415C001B685B69019308BD3C02030008B5024B68
:10416C001B689B69019308BD3C02030008B5024B18
:10417C001B68DB69019308BD3C02030008B5024BC8
:10418C001B689B6A019308BD3C02030008B5024BF7
:10419C001B681B6C019308BD3C02030008B5024B65
:1041AC001B681B68019308BD4C02030008B5024B49
:1041BC001B681B69019308BD4C02030008B5024B38
:1041CC001B685B69019308BD4C02030008B5024BE8
:1041DC001B689B69019308BD4C02030008B5024B98
:1041EC001B68DB69019308BD4C02030008B5024B48
:1041FC001B681B6A019308BD4C02030008B5024BF7
:10420C001B689B68019308BD6002030008B5024B54
:10421C001B68DB68019308BD6002030008B5024B04
:10422C001B689B69019308BD6002030008B5024B33
:10423C001B685B68019308BD2002030008B5024BA4
:10424C001B68DB6A019308BD2002030008B5034B11
:10425C001B68D3F88830019308BD000020020300CE
:10426C0008B5034B1B68D3F89430019308BD0000CC
:10427C002002030008B5024B1B685B68019308BD64
:10428C004002030008B5024B1B689B68019308BDF4
:10429C004002030008B5024B1B68DB68019308BDA4
:1042AC004002030008B5024B1B681B69019308BD53
:1042BC004002030008B5024B1B685B69019308BD03
:1042CC004002030008B5024B1B689B69019308BDB3
:1042DC004002030008B5024B1B68DB69019308BD63
:1042EC004002030008B5024B1B681B6A019308BD12
:1042FC004002030008B5024B1B681B6B019308BD01
:10430C004002030008B5024B1B685B6B019308BDB0
:10431C004002030008B5024B1B681B6C019308BDDF
:10432C004002030008B5024B1B685B6C019308BD8F
:10433C004002030008B5024B1B68DB6B019308BD00
:10434C004402030008B5024B1B681B68019308BDAF
:10435C001C02030008B5024B1B685B68019308BD87
:10436C001C02030008B5024B1B681B6C019308BDB3
:10437C001C02030008B5024B1B685B6C019308BD63
:10438C001C020300002240681146FFF7ABBF00225D
:10439C0040681146FFF7B6BF40680022FFF7AABF7E
:1043AC004068002281F00101FFF794BF00234068B0
:1043BC001A461946FFF786BF002340681A4619466D
:1043CC00FFF778BF002240681146FFF76BBF002251
:1043DC0040681146FFF756BF406800220221FFF7E4
:1043EC0059BF002340681A46FFF744BF024B032213
:1043FC005A60024A1A607047DCE60320E44C0B005A
:10440C00054B02221A60054B054A9A600020C3E94D
:10441C000000FFF70BBF00BFF0E60320E4E603202B
:10442C000000FFFF024800230360FFF76FBE00BFD0
:10443C00F4E60320F8B506460D468F180024BD425D
:10444C000CD0336815F8011B9B6830469847031E47
:10445C0001DB1C44F3E7002C08BF1C462046F8BDCA
:10446C0013B50446084659B1019100F0B9FB236815
:10447C000199DB680246204602B0BDE8104018479F
:10448C0002B010BD03689B68184730B58BB0002391
:10449C00012A8DF8243098BF0A2209AC0D46B1FBD5
:1044AC00F2F101FB125303F0FF03092B94BF3033DD
:1044BC003733DBB2AA4204F8013DEFD92146FFF7AE
:1044CC00CFFF0BB030BD0000014B024A1A607047A1
:1044DC00F8E60320184D0B00024B1A68024B1A60C9
:1044EC00704700BF64E60320FCE6032010B50446C9
:1044FC00FFF794FE844208D01CB1BDE81040FFF7D2
:10450C007DBEBDE81040FFF781BE10BD014B0022FF
:10451C009A60704700E70320014B1860704700BF9A
:10452C0068E603207047000008B50B4B43B100F060
:10453C0063F903681B699847002801DDAFF300801D
:10454C00064B43B100F0DCFA03681B69984700285E
:10455C0001DDAFF3008008BD00000000000000008A
:10456C0008B5FFF7E1FFFFF7C9FD014B186008BD67
:10457C0058E703200548064A064908B5121A00F008
:10458C00EBFA054B054A1A6008BD00BF00F4032086
:10459C0004F40320044F0B0000F403201E1C279A84
:1045AC0007B5002300931A466FF07701FFF758FE0A
:1045BC0003B05DF804FB000007B543880A2B08D054
:1045CC00502B0BD1094B1B684BB103B05DF804EBBE
:1045DC001847FFF7E5FF03B05DF804FB00230093D9
:1045EC001A466FF07701FFF73BFEF4E714E7032060
:1045FC0010B512480021FFF7BDFE114B1A68114B84
:10460C009A42114B0CBF012200221A7001D0FFF705
:10461C00B1FFFFF76BFD044600F0B4FA0B4B13B17E
:10462C002046AFF3008000210848FFF783FEBDE869
:10463C00104007480021FFF709BE00BF25450B00BD
:10464C0000F403201E1C279A10E703200000000032
:10465C00C5450B00704710B518210446FFF715FD32
:10466C00204610BDF0B5037D062B8DB00E4600F133
:10467C0004074FF0000412D000F1080515F8011DD5
:10468C000A223046FFF701FFAF42044419D0002C38
:10469C00F4D02E213046FFF7F5FE0444EEE72F232D
:1046AC006A4639460A208DF80040FFF737FD684608
:1046BC0000F096FA33680246DB6869463046984744
:1046CC00044620460DB0F0BD10B5054B0446112232
:1046DC0040F8043B002100F04DFA204610BD00BF0D
:1046EC00404D0B000346074A10B543F8042B01F16B
:1046FC00100251F8044B43F8044B9142F9D10A785B
:10470C001A7010BD404D0B0010B59DF8084044EADE
:10471C00032343EA024242EA016104234160037528
:10472C0010BD000007B5064B0360CB7800938B7867
:10473C004A780978FFF7E8FF03B05DF804FB00BF87
:10474C00404D0B00417470477047704708B500210D
:10475C00007CFFF73BFD40EAE07008BD08B5012185
:10476C00007CFFF733FD40EAE07008BD08B5007C23
:10477C00FFF724FD20EAE07008BD08B5007CFFF7C8
:10478C0015FD20EAE07008BD13B50446007C0191CC
:10479C00FFF714FD0028019901DC607C20B1207C1E
:1047AC00FFF71CFD20EAE07002B010BD007CFFF7A3
:1047BC001DBD10B514210446FFF767FC204610BD43
:1047CC0010B54FF47A73044608460021C4E901136E
:1047DC00044B23600123207463741146FFF7DEFC45
:1047EC00204610BD544D0B0010B514220446002178
:1047FC0000F0C0F9204610BD10B50F4C88B003A8CE
:10480C00FFF7F2FF2178BFF35B8F11F001010FD19D
:10481C0020460191FFF73BFC019948B103AA0748D8
:10482C00FFF7CEFF2046FFF737FC054800F08EF966
:10483C00024808B010BD00BF18E703201CE7032096
:10484C0055470B0070474174704708B5007CFFF763
:10485C0095FC20EAE07008BD08B5007CFFF76EFC03
:10486C0020EAE07008BD08B5007CFFF777FC40EA51
:10487C00E07008BD08B5007CFFF768FC40EAE0700A
:10488C0008BD007CFFF772BC37B5457C04462DB1E2
:10489C00207C03B0BDE83040FFF748BC007C0191A0
:1048AC00FFF76CFC00280199F2DC284603B030BD00
:1048BC0010B514210446FFF7E8FB204610BD00009C
:1048CC0010B54FF47A730446084611460022C4E929
:1048DC000123044B2360012320746374FFF756FCFF
:1048EC00204610BD844D0B00002240681146FFF796
:1048FC00D9BC002240681146FFF7F4BC0022406886
:10490C001146FFF7FFBC40680022FFF7F3BC40687C
:10491C00002281F00101FFF7DDBC002340681A463C
:10492C001946FFF7CFBC002340681A461946FFF71B
:10493C00C1BC002240681146FFF7A4BC40680022AD
:10494C000221FFF7A7BC002340681A46FFF792BC70
:10495C00024B04225A60024A1A60704730E7032067
:10496C00B44D0B00002340681A46FFF783BC406827
:10497C0000220221FFF78EBC002240681146FFF78F
:10498C0081BC002240681146FFF78CBC00234068B4
:10499C001A461946FFF78EBC002340681A46194682
:1049AC00FFF790BC40680021FFF7B4BC40680021C1
:1049BC00FFF7B8BC4068002281F00101FFF78ABC08
:1049CC0040680022FFF796BC002240681146FFF7B2
:1049DC0099BC002240681146FFF784BC2DE9F043D6
:1049EC0095B014460D460746FFF76EFE00211C22BB
:1049FC000DA8009100F0BEF840230C9320466B46A6
:104A0C000CAA0021FFF76AFB044600284BD1024692
:104A1C0001216868FFF746FC02218046224668683F
:104A2C00FFF740FC009E81462146002E3BD000291A
:104A3C0039D17368022B03D00A2B11D0F669F4E735
:104A4C00B8F1000FFAD0716906A8043107ADFFF771
:104A5C0069FE0FCD3C1D0FC42B6823704146EDE75A
:104A6C00B9F1000FEAD07469102201A800F082F8A5
:104A7C0006238DF8143001AD04F1080318341868BE
:104A8C0059682A4603C20833A3421546F7D101A937
:104A9C0006A807ADFFF726FE0FCD3C1D0FC42B68F3
:104AAC0023704946CAE70098FFF710FB384615B04B
:104ABC00BDE8F083024B034A1A6000225A6070472B
:104ACC0038E70320F04D0B007047000038B5044662
:104ADC0014252A46002100F04DF825804025074971
:104AEC0025812846258200F02FF80449606028466D
:104AFC0000F02AF8E060204638BD00BF244E0B00C1
:104B0C0030B50E4D2978BFF35B8F11F0010487B0DF
:104B1C0011D12846FFF7BBFA68B101A8FFF7D6FF01
:104B2C0001AA21460648FFF7CBFE2846FFF7B4FA48
:104B3C00044800F00BF8024807B030BD40E70320F2
:104B4C0044E70320D54A0B00FFF79DBA002301462A
:104B5C001A46184600F04CB80A44914200F1FF3353
:104B6C0000D1704710B511F8014B03F8014F914279
:104B7C00F9D110BD02440346934200D1704703F8AB
:104B8C00011BF9E738B5104B1D68AB6B0446B3B984
:104B9C001820FFF7D7FB0246A86320B90B4B0C4833
:104BAC004221FFF7DFFB0B490B4BC0E900130B4B0A
:104BBC0083600B23838100210120C2E90401AB6BCC
:104BCC0000221C615A6138BD68E60320254E0B009B
:104BDC003C4E0B000E33CDAB34126DE6ECDE050013
:104BEC00034613F8012B002AFBD1181A0138704721
:104BFC002DE9F843DFF8B8800646D8F800001F46C8
:104C0C000D46914600F056F8254B1C6834B9254CDE
:104C1C001C60254B13B11B68C4F8883063681F2BCC
:104C2C0007DDD8F8000000F047F84FF0FF30BDE882
:104C3C00F8834EB3D4F8880088B91C4B23B9D8F844
:104C4C00000000F038F8F0E74FF48470FFF77AFBBF
:104C5C000028F4D00023C0E94033C4F8880063680E
:104C6C0040F8239001229A4000EB8301D0F80031E8
:104C7C001343C0F80031022EC1F8807002BFD0F887
:104C8C0004311343C0F804316368D8F800005A1C8F
:104C9C000233626044F8235000F00EF80020C6E79F
:104CAC00E8E703205CE703200000000051430B0001
:104CBC00CCE6032070477047704700001D400B0086
:104CCC0059400B0081400B0085400B000000000098
:104CDC000000000000000000EF430B00E5430B0058
:104CEC00DB430B00D1430B00C5430B00B9430B0056
:104CFC00B1490B00B9490B00AD430B00A5430B00A8
:104D0C009B430B0091430B00E9490B006170700051
:104D1C0025592D256D2D25645425483A254D3A25C8
:104D2C0053257A0061736374696D6500000000009F
:104D3C000000000071460B0061460B0063460B003F
:104D4C00000000000000000057470B00BF470B009D
:104D5C0095470B0041440B0087470B0059470B004C
:104D6C0069470B00B9470B0079470B0051470B0003
:104D7C00000000000000000051480B00BD480B0073
:104D8C0095480B0041440B0065480B0081480B0013
:104D9C0073480B008F480B0053480B0057480B000F
:104DAC00000000000000000053490B0049490B00B3
:104DBC003F490B00F5480B0033490B0027490B000A
:104DCC00B1490B00B9490B001B490B0013490B00EF
:104DDC0009490B00FF480B00E9490B0000000000DB
:104DEC000000000071490B007B490B0085490B004A
:104DFC008F490B0099490B00A5490B00B1490B00D9
:104E0C00B9490B00C1490B00CD490B00D5490B002A
:104E1C00DF490B00E9490B00005245454E54206D0B
:104E2C00616C6C6F632073756363656564656400A6
:104E3C002F6D6E742F776F726B73706163652F7744
:104E4C006F726B73706163652F4743432D31302D47
:104E5C00706970656C696E652F6A656E6B696E73CF
:104E6C002D4743432D31302D706970656C696E652B
:104E7C002D34385F32303230313132345F313630AC
:104E8C00363138303634312F7372632F6E65776C50
:104E9C0069622F6E65776C69622F6C6962632F7320
:104EAC0074646C69622F72616E642E630000000082
:104EBC00B1400B00F9430B000D440B0031440B00C7
:104ECC00D5440B00E5440B0019450B005D490B0064
:044EDC00C14A0B00BC
:104EE000040000001400000003000000474E5500BD
:104EF000B135248F60F821EFDB22E06F7150366707
:044F000074226905A9
:044F040000000000A9
:104F0800304D0B006CE6032000000000000000009C
:104F18000000000000000000000000000000000089
:104F28000000000000000000000000000000000079
:104F38000000000000000000000000000000000069
:104F48000000000000000000000000000000000059
:104F58000000000000000000000000000000000049
:0C4F68000000000000000000ECE7032047
:104F7400FFFFFFFF00000102030405060708090AFA
:104F84000B0C0D0E0F101112131415161718191AF5
:084F94001B1C1D1E1F2028003C
:044F9C0078563412FD
:04000003B000401CED
:00000001FF
