:02000002B0004C
:1040000000400B00589C0B00000006000C0005024D
:0840100004010410000000008F
:04401800A8950B005C
:1040200009480A49884208B505D0094A824202D0A7
:10403000121A05F007FA0748074A0021121A05F07C
:104040000FFA014808BD00BFE8E00320689B0B00A1
:10405000B0E10320B0E10320EDE7032070B5074E87
:10406000074C04F0EBF8A41BA4080025AC4200D1D7
:1040700070BD56F8043B98470135F7E7109B0B00DD
:10408000349B0B0000F0C0B808B500F0D9F9BDE8CA
:10409000084004F08BB803F0A9BD03F0A7BD03F0FE
:1040A000ADBD0078B0FA80F040097047012303707D
:1040B00070477047037C13F008031EBFC36A406A51
:1040C0001B1A002BACBF18466FF0004070477047BA
:1040D00010B510210446FFF7E2FF204610BD10B5D1
:1040E00034210446FFF7DBFF204610BD103002F0FC
:1040F000EBB8103002F009B807B501220DF1070145
:10410000103001F054FF01280CBF9DF807004FF05C
:10411000FF3003B05DF804FB103002F05FB907B563
:1041200001228DF8071010300DF1070102F056F949
:1041300003B05DF804FB70B50C1E064615460BDA9D
:104140000A2A09D12D2103F0B1FE6142EAB23046BC
:10415000BDE8704003F0C5BE2146F7E712B9036819
:104160009B681847D2B203F0BCBE10B42AB90268EB
:104170005DF8044B9268C9B210475DF8044BD2B2A7
:1041800003F0AFBE10B50446FFF7EFFF2046BDE8D1
:10419000104003F08EBE0EB403B503AB002153F8FC
:1041A000042B019303F093FF02B05DF804EB03B01E
:1041B0007047000073B5044608462279A36832B1FF
:1041C000A3B90B4902B0BDE8704003F06BBE094AC9
:1041D000267B094D0949647B012E18BF2946CDE98C
:1041E00000140749FFF7D7FF02B070BD054AEFE79B
:1041F000CD950B00DE970B00C9950B00C5950B0004
:10420000E3950B00BC950B0070B58EB004F024F95B
:104210004FF4165104F00EF904F01EF904F011F9F0
:1042200018B9012003F096FFF6E704F0CBFB00235A
:10423000024639216C4802F027FE40B904F00CF91F
:104240006A4903F042FE0A2003F084FFFBE73B21AA
:10425000654802F0F1FE40F25721634802F011FF79
:104260006148032102F034FF614803F00DF928B9D9
:1042700004F0F2F85F4903F028FEFEE75C4803F023
:1042800005F920B904F0E8F85B4903F01EFE04F0DC
:1042900099FB58210246594803F04EFA40B904F000
:1042A000DBF8574903F011FE0A2003F053FFFBE748
:1042B00004F0D2F85349544C03F007FE534B4F48D7
:1042C0001978032203F0DDF9514B019300238DF897
:1042D000083004F58C664F4B0393012501AB052292
:1042E00004F26C413046ADF8105002F0B3FBF8B167
:1042F00004F23C40266002F01DF82946204602F0F8
:1043000053FA04F23C45014668B13F4901F23C4092
:1043100001F047FE60B194F83C3413F0700F1CBFFD
:104320003D4B1D6004E0204602F03EFA0028ECD12F
:1043300000234FF47A72CDE902320593374B019393
:10434000374A384944F2022305A801F0FAFF9DF8E4
:104350001430002B42D0344901A803F0A3FD2C21D6
:1043600001A803F0A3FD204802F09FFE0A220146A7
:1043700001A8FFF707FF2D4901A803F093FD2C21A9
:1043800001A803F093FD184802F069FE0A220146D5
:1043900001A803F0A6FD01A803F08BFD244901A8A4
:1043A00003F080FD2C2101A803F080FD0E4802F0EF
:1043B000A2FE0A22014601A803F093FD01A803F022
:1043C00078FD1C4901A803F080FD1B4901A803F0FA
:1043D0007CFD05A801F0AEFF0EB070BD04F03CF806
:1043E000164903F07CFDF7E750E6032000960B002A
:1043F000B0E6032016960B0028960B0078E6032003
:104400003C960B005C960B00C0E10320BCE103204E
:1044100078980B0080F0FA02B8E603208C980B0025
:104420006A960B00FCE5032073960B007A960B004E
:1044300081960B00DD970B0095960B0087970B007C
:104440002DE9F0472DED0A8BA4B04FF47A750023C7
:10445000CDE918351B93524B524A534917931BA869
:1044600044F2022301F06DFF01A803F030F803F0DD
:10447000E1F94E4BB0FBF5F404FB1504B4F5FA7FFB
:1044800019784B4E2ABF4B4B32781A784A4803F0C2
:10449000D1F8FA2003F05EFE03F0DEFF474903F097
:1044A00001FD03F0D9FF464903F0FCFC03F0D4FF03
:1044B00031680A220546FFF73EFE284603F0F9FC64
:1044C00003F0CAFF03F0F5FC03F0C6FF9DF80410EB
:1044D0000A2201F5FA61FFF748FE03F0BDFF2F2124
:1044E00003F0E4FC03F0B8FF0A229DF80510FFF783
:1044F00035FE03F0B1FF2F2103F0D8FC03F0ACFF31
:104500000A229DF80610FFF729FE03F0A5FF2D49AA
:1045100003F0C8FC03F0A0FF054601A802F09EFFCF
:10452000294B01B201EB410103EB8101284603F065
:10453000B9FC03F091FF254903F0B4FC03F08CFFB4
:104540000A229DF80710FFF709FE03F085FF3A21C4
:1045500003F0ACFC03F080FF0A229DF80810FFF77F
:10456000FDFD03F079FF3A2103F0A0FC03F074FF96
:104570009DF809100A22FFF7F1FD03F06DFF03F02B
:1045800098FC134805A902F010FF28BB03F064FF54
:10459000104903F09AFC24B0BDEC0A8BBDE8F0870B
:1045A0008C980B006A960B00FCE50320BCE103200D
:1045B000E8E00320ECE0032078E603209F970B005F
:1045C000DD970B00AE970B00F0E00320B1970B00D6
:1045D00050E60320B4970B0005AD0BAFDFF8ECA35A
:1045E000B846A946FC26012E06D9B9F80010504657
:1045F00002F096FD88ED000A0136F6B2082E09F1A8
:10460000020908F10408EED103F026FFDD4903F0AA
:1046100049FC03F021FFDDED0BCA0221B0EE6C0A6C
:1046200003F046FD03F018FFD74903F03BFC03F00D
:1046300013FFD64903F036FC03F00EFF0A22BDF843
:104640001410FFF79FFD03F007FFD14903F02AFC88
:1046500003F002FF9DED0CCA0221B0EE4C0A03F0FC
:1046600027FD03F0F9FEC84903F01CFC03F0F4FE3B
:10467000C64903F017FC03F0EFFE0A22BDF816103E
:10468000FFF780FD03F0E8FEC24903F00BFC03F0E6
:10469000E3FEDDED0DBA0221B0EE6B0A03F008FD7A
:1046A00003F0DAFEB84903F0FDFB03F0D5FEB7498D
:1046B00003F0F8FB03F0D0FE0A22BDF81810FFF754
:1046C00061FD03F0C9FEB44903F0ECFB03F0C4FE46
:1046D0009DED0EBA0221B0EE4B0A03F0E9FC03F0A7
:1046E000BBFEA94903F0DEFB03F0B6FEA74903F0C9
:1046F000D9FB03F0B1FE0A22BDF81A10FFF742FD04
:1047000003F0AAFEA54903F0CDFB03F0A5FEDDED05
:1047100011AA0221B0EE6A0A03F0CAFC03F09CFE63
:10472000994903F0BFFB03F097FE984903F0BAFBE9
:1047300003F092FE0A22BDF82010FFF723FD03F0DC
:104740008BFE974903F0AEFB03F086FE9DED12AAA7
:104750000221B0EE4A0A03F0ABFC03F07DFE8A4969
:1047600003F0A0FB03F078FE884903F09BFB03F005
:1047700073FE0A22BDF82210FFF704FD03F06CFE61
:10478000884903F08FFB03F067FEDDED139A0221E9
:10479000B0EE690A03F08CFC03F05EFE7A4903F088
:1047A00081FB03F059FE794903F07CFB03F054FED2
:1047B0000A22BDF82410FFF7E5FC03F04DFE7A490C
:1047C00003F070FB03F048FE9DED149A0221B0EE59
:1047D000490A03F06DFC03F03FFE6B4903F062FBF6
:1047E00003F03AFE694903F05DFB03F035FE0A224F
:1047F000BDF82610FFF7C6FC03F02EFE6B4903F050
:1048000051FB03F029FEDDED158A0221B0EE680AA6
:1048100003F04EFC03F020FE5B4903F043FB03F082
:104820001BFE5A4903F03EFB03F016FE0A22BDF8B8
:104830002810FFF7A7FC03F00FFE5D4903F032FBE1
:1048400003F00AFE9DED168A0221B0EE480A03F03D
:104850002FFC03F001FE4C4903F024FB03F0FCFDA8
:104860004A4903F01FFB03F0F7FD0A22BDF82A10A6
:10487000FFF788FC03F0F0FD434903F013FB03F05E
:10488000EBFD03F016FB9DF86C30002B00F0C484A8
:10489000B4F5FA7F34BF474B474B0A22196817A873
:1048A000FFF749FC2C2117A803F000FB9DF804102A
:1048B0000A2201F5FA6117A8FFF757FC2F2117A864
:1048C00003F0F4FA0A229DF8051017A8FFF746FC3A
:1048D0002F2117A803F0EAFA0A229DF8061017A85C
:1048E000FFF73CFC354917A803F0DCFA01A802F0F9
:1048F000B5FD334900B200EB400001EB800117A881
:1049000003F0D0FA2F4917A803F0CCFA2C2117A8EE
:1049100003F0CCFA0A229DF8071017A8FFF71EFC37
:104920003A2117A803F0C2FA0A229DF8081017A826
:10493000FFF714FC3A2117A803F0B8FA0A229DF8F1
:10494000091017A8FFF70AFC2C2117A803F0AEFAEC
:104950001D4917A803F0A6FA2C2117A803F0A6FA00
:10496000B0EE6C0A022117A803F0A2FB2C2117A8B5
:1049700003F09CFAB0EE4C0A022117A803F098FB52
:104980002C2125E0D0970B00DC970B00DF970B0064
:10499000EC970B00F8970B0004980B0010980B0095
:1049A0001C980B0028980B0034980B0040980B00C3
:1049B0004C980B00E8E00320ECE00320AE970B00DE
:1049C000F0E00320B1970B0058980B0050E603204D
:1049D00017A803F06BFAB0EE6B0A022117A803F0D8
:1049E00067FB2C2117A803F061FAB0EE4B0A0221F5
:1049F00017A803F05DFB2C2117A803F057FAB0EEBF
:104A00006A0A022117A803F053FB2C2117A803F010
:104A10004DFAB0EE4A0A022117A803F049FB2C21F7
:104A200017A803F043FAB0EE690A022117A803F0B1
:104A30003FFB2C2117A803F039FAB0EE490A0221F6
:104A400017A803F035FB2C2117A803F02FFAB0EEBE
:104A5000680A022117A803F02BFB2C2117A803F0EA
:104A600025FAB0EE480A022117A803F021FB2C21F9
:104A700017A803F01BFADF4917A803F013FA2C213B
:104A800017A803F013FA0A22BDF8141017A8FFF7AD
:104A90006CFB2C2117A803F009FA0A22BDF81610A6
:104AA00017A8FFF762FB2C2117A803F0FFF90A22D1
:104AB000BDF8181017A8FFF758FB2C2117A803F012
:104AC000F5F90A22BDF81A1017A8FFF74EFB2C21A2
:104AD00017A803F0EBF90A22BDF8201017A8FFF77A
:104AE00044FB2C2117A803F0E1F90A22BDF822109B
:104AF00017A8FFF73AFB2C2117A803F0D7F90A22D1
:104B0000BDF8241017A8FFF730FB2C2117A803F0DD
:104B1000CDF90A22BDF8261017A8FFF726FB2C2195
:104B200017A803F0C3F90A22BDF8281017A8FFF749
:104B30001CFB2C2117A803F0B9F9BDF82A100A2292
:104B400017A8FFF71FFBFA2003F004FB03A802F0ED
:104B5000BEFCA94BDFF8E4821978A848B4F5FA7FC7
:104B600096BFA74B98F800201A7802F063FDFA2050
:104B700003F0F0FA03F070FCA24903F093F903F09C
:104B80006BFCA14903F08EF903F066FCD8F8001025
:104B90000A220646FFF7CFFA304603F08AF903F0FF
:104BA0005BFC03F086F903F057FC9DF80C100A2219
:104BB00001F5FA61FFF7D9FA03F04EFC2F2103F05B
:104BC00075F903F049FC0A229DF80D10FFF7C6FAAB
:104BD00003F042FC2F2103F069F903F03DFC0A22A7
:104BE0009DF80E10FFF7BAFA03F036FC874903F080
:104BF00059F903F031FC064603A802F02FFC844B60
:104C000001B201EB410103EB8101304603F04AF9A7
:104C100003F022FC7F4903F045F903F01DFC0A2252
:104C20009DF80F10FFF79AFA03F016FC3A2103F0F3
:104C30003DF903F011FC0A229DF81010FFF78EFADF
:104C400003F00AFC3A2103F031F903F005FC9DF86A
:104C500011100A22FFF782FA03F0FEFB03F029F994
:104C60006D4805A902F0A1FB00283FF48FACDFF8E6
:104C7000A881FC26012E05D92988404602F050FA69
:104C800087ED000A0136F6B2082E05F1020507F19C
:104C90000407EFD103F0E0FB604903F003F903F0F0
:104CA000DBFBDDED0BCA0221B0EE6C0A03F000FA6B
:104CB00003F0D2FB5A4903F0F5F803F0CDFB594954
:104CC00003F0F0F803F0C8FB0A22BDF81410FFF758
:104CD00059FA03F0C1FB544903F0E4F803F0BCFBBC
:104CE0009DED0CCA0221B0EE4C0A03F0E1F903F08D
:104CF000B3FB4B4903F0D6F803F0AEFB494903F090
:104D0000D1F803F0A9FB0A22BDF81610FFF73AFA12
:104D100003F0A2FB454903F0C5F803F09DFBDDED70
:104D20000DBA0221B0EE6B0A03F0C2F903F094FB56
:104D30003B4903F0B7F803F08FFB3A4903F0B2F8B0
:104D400003F08AFB0A22BDF81810FFF71BFA03F0E4
:104D500083FB374903F0A6F803F07EFB9DED0EBA06
:104D60000221B0EE4B0A03F0A3F903F075FB2C49C6
:104D700003F098F803F070FB2A4903F093F803F06E
:104D80006BFB0A22BDF81A10FFF7FCF903F064FB75
:104D9000284903F087F803F05FFBDDED11AA02213B
:104DA000B0EE6A0A03F084F903F056FB1C4903F0E5
:104DB00079F803F051FB1B4903F074F803F04CFB46
:104DC0000A22BDF82010FFF7DDF903F045FB1A4970
:104DD00003F068F803F040FB9DED12AA0221B0EE4B
:104DE0004A0A03F065F903F037FB0D4903F05AF85E
:104DF00026E000BF65980B00BCE1032078E60320A5
:104E0000E8E003209F970B00DD970B00AE970B00A7
:104E1000F0E00320B1970B0050E60320D0970B0081
:104E2000DC970B00DF970B00EC970B00F8970B005B
:104E300004980B0010980B001C980B00ECE003206A
:104E400003F00AFBD54903F02DF803F005FB0A2215
:104E5000BDF82210FFF796F903F0FEFAD04903F0EF
:104E600021F803F0F9FADDED139A0221B0EE690A98
:104E700003F01EF903F0F0FACA4903F013F803F047
:104E8000EBFAC64903F00EF803F0E6FA0A22BDF881
:104E90002410FFF777F903F0DFFAC34903F002F8B3
:104EA00003F0DAFA9DED149A0221B0EE490A03F0FC
:104EB000FFF803F0D1FABB4902F0F4FF03F0CCFA9B
:104EC000B64902F0EFFF03F0C7FA0A22BDF8261038
:104ED000FFF758F903F0C0FAB44902F0E3FF03F01A
:104EE000BBFADDED158A0221B0EE680A03F0E0F8A6
:104EF00003F0B2FAAB4902F0D5FF03F0ADFAA749CF
:104F000002F0D0FF03F0A8FA0A22BDF82810FFF73C
:104F100039F903F0A1FAA64902F0C4FF03F09CFAA4
:104F20009DED168A0221B0EE480A03F0C1F803F0A5
:104F300093FA9C4902F0B6FF03F08EFA974902F00B
:104F4000B1FF03F089FA0A22BDF82A10FFF71AF917
:104F500003F082FA934902F0A5FF03F07DFA02F014
:104F6000A8FF9DF86C30002B00F05C81914B9249BA
:104F700017A8B4F5FA7F28BF194602F093FF2C2139
:104F800017A802F093FF9DF80C100A2201F5FA61B0
:104F900017A8FFF7EAF82F2117A802F087FF0A22C7
:104FA0009DF80D1017A8FFF7D9F82F2117A802F0C8
:104FB0007DFF0A229DF80E1017A8FFF7CFF87F4952
:104FC00017A802F06FFF03A802F048FA7C4900B26C
:104FD00000EB400001EB800117A802F063FF794964
:104FE00017A802F05FFF2C2117A802F05FFF0A222A
:104FF0009DF80F1017A8FFF7B1F83A2117A802F093
:1050000055FF0A229DF8101017A8FFF7A7F83A21BC
:1050100017A802F04BFF0A229DF8111017A8FFF7FE
:105020009DF82C2117A802F041FF674917A802F04C
:1050300039FF2C2117A802F039FFB0EE6C0A0221CB
:1050400017A803F035F82C2117A802F02FFFB0EEB7
:105050004C0A022117A803F02BF82C2117A802F004
:1050600025FFB0EE6B0A022117A803F021F82C21CE
:1050700017A802F01BFFB0EE4B0A022117A803F09D
:1050800017F82C2117A802F011FFB0EE6A0A0221CE
:1050900017A803F00DF82C2117A802F007FFB0EEB7
:1050A0004A0A022117A803F003F82C2117A802F0DE
:1050B000FDFEB0EE690A022117A802F0F9FF2C21CB
:1050C00017A802F0F3FEB0EE490A022117A802F079
:1050D000EFFF2C2117A802F0E9FEB0EE680A0221CA
:1050E00017A802F0E5FF2C2117A802F0DFFEB0EEB2
:1050F000480A022117A802F0DBFF2C2117A802F0B2
:10510000D5FE324917A802F0CDFE2C2117A802F0D7
:10511000CDFE0A22BDF8141017A8FFF726F82C219F
:1051200017A802F0C3FE0A22BDF8161017A8FFF751
:105130001CF82C2117A802F0B9FE0A22BDF818109D
:1051400017A8FFF712F82C2117A802F0AFFE0A22C9
:10515000BDF81A1017A8FFF708F82C2117A802F0BD
:10516000A5FE0A22BDF8201017A8FEF7FEFF2C218D
:1051700017A802F09BFE0A22BDF8221017A8FEF71E
:10518000F4FF2C2117A802F091FE0A22BDF824108A
:1051900017A8FEF7EAFF2C2117A819E0DF970B00EC
:1051A00028980B00DC970B0034980B0040980B00FC
:1051B0004C980B0014960B009B970B00AE970B00BE
:1051C000F0E00320B1970B0058980B0065980B0096
:1051D00002F06CFE0A22BDF8261017A8FEF7C5FFE4
:1051E0002C2117A802F062FE0A22BDF8281017A889
:1051F000FEF7BBFF2C2117A802F058FE17A8BDF838
:105200002A100A22FEF7BEFF1BA801F093F8FA202D
:1052100002F0A0FFFFF7BFB903F01EF9044902F046
:105220005EFE90E403F018F9014902F058FEEEE743
:1052300087970B0037B52448244C254D01F01CFE00
:10524000244802F0BAF9244A00234FF47A71C2E9E3
:1052500001312249136111606422C4F86024204A9C
:10526000C4F8702401226360C4F83C34C4F8683484
:1052700084F87424C4F87834A4F87C342978BFF313
:105280005B8F11400BD128460191FEF70AFF01996F
:1052900028B1144802F016FD2846FEF707FF114B0F
:1052A000C4F86C340021012002F014FC0E4B0022E3
:1052B000C3E900220220A2F580329A6003B0BDE863
:1052C000304002F0F7BB00BF50E60320C0E10320EE
:1052D000B0E1032078E603207CE603208C980B00E5
:1052E00078980B00B4E1032044E6032030B5002594
:1052F000C0E9001542819DF810109DF80C20456111
:1053000041738273037330BDF0B54589847A85B0EB
:10531000034600688DF80C402D0A0E4617468DF89E
:105320000D5040B15B7B019303AB0093012300F070
:105330002CFA05B0F0BD58680028FAD093F808E0C0
:1053400093F80DC0BEF1030F0CD10CF1010325F051
:10535000010500938DF80C508DF80D4003AB00F063
:10536000A3F9E6E7BEF1000F09D104F07F048DF840
:105370000C40CDF800C003AB3A463146EFE7BEF132
:10538000020F02D164F07F04F1E7BEF1010F01BF0B
:105390009DF80C3003F07F0343F040038DF80C3090
:1053A000E7E7F0B40B4602B9027B042A14D800F1F7
:1053B0000F05436184182946844209D0877BDEB2F9
:1053C00027B92E701B0A0135013CF5E7A673F9E7F2
:1053D0002046F0BCFFF798BF0020F0BC70477FB5B7
:1053E0004689857A8DF80C5004460068360A0B46CB
:1053F0008DF80D6040B10021CDE9002103A9627B49
:1054000000F031FA04B070BD60680028FAD0217A4B
:10541000647B03290DD146F00106FF21CDE900216F
:105420008DF80C608DF80D50621C03A900F05EF938
:10543000E8E741B965F07F058DF80C50FF21CDE913
:1054400000212246F1E7022902D105F07F05F3E7AA
:10545000012902BF9DF80C1061F03F018DF80C107E
:10546000ECE738B500F10F05027B29460446FFF74B
:10547000B6FF78B1227B294622440020A2420BD0FD
:105480000302A07B20B9907B1843013A0131F5E774
:105490000878F9E74FF0FF3038BD10B501600271B0
:1054A000437110BD10B504460068FFF7DAFF22799A
:1054B000012393406279013BD040184010BD70B584
:1054C000044600680E46FFF7CCFF2379617901227C
:1054D0009A40531E03FA01F520EA0505334020687F
:1054E00003FA01F12943027BBDE87040FFF759BF81
:1054F0002DE9F04F0446006885B00D4640B1002309
:10550000009313460A4602F089FC05B0BDE8F08F0F
:10551000237BA068484FB7FBF0F7002B0B780CBF3C
:105520004FF0010B4FF0800B1BEA030F01EB02035E
:105530000CBF4FF001094FF00009FFB20393039B2A
:10554000AB42E2D095F800A05E464FF0000817B1DC
:10555000384602F05FF9637B13F0FD0F41D194F9F7
:1055600010305A1C0FD01AEA060114BF0123002381
:105570004B4508D06369606A1A6800292CD0024341
:105580001A604FF00109A169E36A0A6813430B60CE
:1055900017B1384602F03EF994F91130013306D0C4
:1055A000E3691A68A36A1A4218BF46EA0808A169A3
:1055B000E36A0A6822EA03030B6094F911300133AD
:1055C00018BF85F80080237B002B32D17600F6B21D
:1055D000002EBCD10135B2E722EA00021A608946EA
:1055E000D1E7A169E36A0A6813430B6017B1384633
:1055F00002F010F994F91030013308D06369616A40
:105600001A681AEA060F14BF0A438A431A60A1698E
:10561000E36A0A6822EA03030B6094F9113001334C
:10562000CBD0E3691A68A36A1A4218BF46EA080891
:10563000C3E77608CCE700BF20A1070007B5012229
:105640008DF807100DF10701FFF752FF9DF80700D5
:1056500003B05DF804FB03681BB14168184602F013
:1056600069BB7047006808B102F04ABB704790F907
:105670000E00431C03D0C9B280B203F02EB97047AC
:1056800010B50446FFF7E7FF20460021BDE81040B3
:10569000FFF7EDBF10B501210446FFF7E8FF2046F4
:1056A000BDE81040FFF7DEBF2DE9F0411C4606467D
:1056B0000D461746FFF7E4FF069B04EB030844453D
:1056C00008D12F44BD420BD015F8011B3046FFF71F
:1056D000B5FFF7E714F8011B3046FFF7AFFFEEE721
:1056E0003046FFF7D7FF0120BDE8F0812DE9F041FA
:1056F0000D4617469DF81C8006461C46FFF7C0FF66
:105700002F44BD420AD1069BE518AC420CD041465D
:105710003046FFF793FF04F8010BF6E715F8011B7D
:105720003046FFF78BFFECE73046FFF7B3FF012071
:10573000BDE8F08142600022027220220170C26046
:10574000704710B5037A044653B12178606802F0BF
:1057500077FF606802F07FFFB0FA80F0400910BD6B
:10576000012100F003F80028EFD1F8E738B504462E
:1057700040680D4602F032FF0120207225B120461C
:10578000BDE83840FFF7DDBF38BD2DE9F843DDE95E
:1057900008961F46C368154632449A420446884616
:1057A00002D90020BDE8F8830178406802F048FF84
:1057B0007EB9606803682A46DB684146984785429F
:1057C000EFD16068394602F042FFB0FA80F040093C
:1057D000E8E7B9F1000FECD0606803683246DB6897
:1057E000494698478642DCD1E3E72DE9F04115466A
:1057F00004460E46D2B20178406802F00CFF8542A2
:105800000DD100271FFA87F8A84507F1010709D233
:10581000606803685B69984706F80800F2E70020B3
:10582000BDE8F0810120FBE72DE9F84307468846F3
:10583000164699460025B54212D2FA68741B944266
:1058400028BF1446331BAB4294BF4B46002322466D
:1058500008EB05013846FFF7C8FF10B12544EAE719
:105860000120BDE8F88373B51D460023CDE9003360
:105870009DF81C30069E0446FFF787FF40B10123C8
:1058800032462946204602B0BDE87040FFF7CCBF43
:1058900002B070BD042904D800EB4100B0F801004B
:1058A00070470A299BBF01F1FF3100EB4100013134
:1058B000C08884BF00EB41008088704710B5044663
:1058C000243000F063FE28B104F50C70BDE81040F0
:1058D00000F05CBE10BD411E00F10A03002042082A
:1058E00042EAC01011F8012F52FA80F08B42C0B288
:1058F000F5D170472DE9F047064610F8013B202B03
:10590000FAD06A4D8E600024335DC3B12F2B16D0C0
:105910005C2B02D10020BDE8F087A3F12200C0B2C9
:105920001D2803D825FA00F0C007F3D403F0BF0008
:105930003C28EFD0203B5E2BECD80134E4E7331950
:105940001846074610F8015B202DFAD02F2DF8D00D
:1059500017604CB113F8012D2E2A01D0202A01D155
:10596000013CF6E7FF2CD5DC4FF02033C1F81130B5
:105970004C60C1F80D304B614FF0000816F808304C
:105980002E2B01D0202B02D108F10108F6E7B8FA3E
:1059900088F04009651E6B1C02D0735D2E2B14D15C
:1059A0004FF0000907274A46CA464FF0080EA045A7
:1059B00068DA16F80830202B03D02E2B07D1A84523
:1059C00012D0002008F10108F1E7013DE3E7222BA6
:1059D00008D07C2B06D0A3F12A0CBCF1050F0AD805
:1059E0002D2B12D0A8455BD10A2F4AD00A270822B6
:1059F0004FF0100EE6E7A3F13A0CBCF1050FF1D918
:105A0000A3F15B0CBCF1020FECD9A3F1210CBCF1AA
:105A10005D0FE7D8A845E7D0BA4230D8A3F1610CB2
:105A2000BCF1190F1AD8203B4EEA0909DBB25FFA24
:105A300089F902F1010C5FFA8CFC0A44BCF1060FF3
:105A4000537301D881F80CC06246BBE7A84518DC47
:105A5000A8460A2708224FF0100EB2E7A3F1410C26
:105A6000BCF1190F98BF4EEA0A0AE2E70B7B01204E
:105A7000087019447E234B7331238B734BE70A2F35
:105A8000E4D100204B7B202B3FF444AF0028EDD025
:105A90001AEA090F18BF4FF0020981F800903AE79F
:105AA000BA42ECD800205F23C3E700BF01010031F8
:105AB0002DE9F84391F80C9006460C4602257E2706
:105AC00001F10D086168A2686B189BB21144914204
:105AD00006D012F8010B03EB431343409BB2F6E7E9
:105AE000B9F1030F28BF4FF0030909F10402D2B244
:105AF00003F00F01A018013A0929D2B294BF303146
:105B00003731914541734FEA1313F1D104EB090387
:105B100000215F73304600F02AFB0121304600F07F
:105B200007FB014628B97078B0FA80F04009BDE85B
:105B3000F88303786BB1C37A1B07EED40B2240467F
:105B400003F070FC0028E8D10135ADB2642DB9D165
:105B5000EDE70120EBE700002DE9F04F2DED028B82
:105B60008BB00D4606930B78079013F0700F174615
:105B700005D100200BB0BDEC028BBDE8F08F079B78
:105B80001B78002BF5D15368059313789C071FBF32
:105B9000059B0C330D22B3FBF2F31ABF0133DBB2CA
:105BA000012300212846039300F0E1FA07F10D03D9
:105BB0004FF0000B08EE103ADA465C465E46CDF830
:105BC00010B0D9466B6901212846C3F34F1800F085
:105BD000AFFA0346002871D16B78002BC9D1069B20
:105BE0009A05C6D503F00303013B012BC1D8049BE2
:105BF000002C08BF43460493039B9C42C0F0F180F5
:105C0000B9F1000F40F00A81049B2846590100F0C9
:105C1000AEFA0028ADD0039B03F1FF395FFA89F992
:105C20004E464FF0000A4FF00F08002E00F00D8195
:105C30000021284600F07CFA0446002899D0AA6882
:105C400092F824304E4543F001030CBF46F0400B60
:105C5000B34682F8243080F800B080F80B8080F8DA
:105C60000CA007F10D00FFF736FE84F81AA0607350
:105C700084F81BA00BF01F030D22013BD7F808C0CE
:105C8000534300220599994240F2D0801CF803103A
:105C9000042A5FFA82FE02F1010000F2CD8004EBDB
:105CA0004202A2F801100D2803F101030246E9D1D6
:105CB000013EF6B2B9E74FF0010983E70278E52A21
:105CC00000D07AB90499002C08BF41460491039989
:105CD0008C423CBF0134E4B2002A80D0E52A05D1D1
:105CE00000266FE703998C4238BF00242E2AF7D094
:105CF000D97A0F294AD116BB12F040063FF462AFA1
:105D000002F01F0693F80DB0B2460D220AF1FF38DB
:105D100002FB08F8059A4245E2D9A2EB0802089274
:105D2000002202EB080109911846D1B2FFF7B2FD3B
:105D300008998A420DD1002818BF002642E70AF1CF
:105D4000FF3A5FFA8AFA5245CAD15A7B5A45DCD0EB
:105D5000C6E7FF28C4D85FFA80FEAEF141011929D9
:105D6000B9689CBF0EF120005FFA80FE08460999D1
:105D7000415CA1F1410CBCF1190F9CBF2031C9B2AB
:105D80007145ADD101320D2ACBD11BE70807A7D44D
:105D90005EB1BAF1010F7FF4ECAE1846FFF79BFD40
:105DA00058457FF4E6AEB1460EE018EE101A0B220D
:105DB000184603F037FB00287FF404AF97F80090F3
:105DC00019F001097FF477AF069B19053FF5D1AEB5
:105DD000069B0798CDF800904246294600F00AFA43
:105DE000C8E60021284600F0A3F9A0B96B78002B83
:105DF0007FF4BFAE284600F087F800283FF4B9AE24
:105E0000AB681B79012B3FF6FBAE039B1034E4B269
:105E1000A342EFD8F4E60134E4B2EDE63946284671
:105E2000FFF746FE00287FF4EFAEA2E614BF4FF066
:105E3000FF31002189B22BE7BEF10A0F94BF04EBBA
:105E4000420204EB400291802DE731462846D5F806
:105E5000148000F06DF9044600283FF48AAE202239
:105E6000314603F0FDFAD7F80D302360D7F8113032
:105E70006360B7F815302381FB7DA3723B7803F094
:105E8000180323730F4B1B689BB104F10E0104F13F
:105E900010009847238A63822383E389E382AA68F8
:105EA00092F8243043F00103C8F34F1882F82430ED
:105EB0008EE721232374282363740823A673E373D6
:105EC000E8E700BFB4E6032038B504460D462422B7
:105ED000002103F0C5FAA560EB79102B03D0202B2D
:105EE00006D0002038BD202301202370A070F9E7E0
:105EF0004023F9E78378016943F00403837000F1DC
:105F00001002806800F0F8BB2DE9F041017811F033
:105F10002005044603D000263046BDE8F0814269E2
:105F2000174B9A42F7D2FFF7E5FF06460028F2D05A
:105F30002169A06800F075FB0746A0680522394674
:105F4000243000F04BFB80460028E4D029464FF473
:105F5000007203F085FA0125A3681A79AA4209D9CB
:105F600018684246E91900F0A6FE0028D3D0013592
:105F7000EDB2F1E7636903EB42236361CCE700BF55
:105F800000FE1F0010B5044680680A462430A1694F
:105F900000F024FB20B1A38803F00F0300EB4310B3
:105FA00010BD03780BB9FFF78FBF002070472DE9B4
:105FB000F74F0378044688461546002B5DD082785B
:105FC000D1075AD51A072DD5C36942699B1A9D423C
:105FD00028BF1D462E464FF0000904F1100B002E7D
:105FE00000F08F8022786369A0689706C3F3080ADF
:105FF0004FEA53211FD5006A0144A068BAF1000F8F
:1060000042D1B6F5007F3FD3C36A99423CD0B6F582
:10601000806F52D20068424600F0C4FD68B34FF46E
:10602000007744E09B06D5D583681A894369C3EBA2
:1060300042139BB2CBE790F8059009EA0109BAF147
:10604000000F08D1B9F1000F05D15BB951064CBF63
:10605000036A236A23612169A06800F0E2FA09EB70
:106060000001CAE721695A4600F0E1FA002804DB82
:10607000F1D1237813F0700F43D1637843F002031A
:1060800063704FF0FF303DE0CAF50077B7424FF044
:10609000000200F1240028BF374600F09FFA0028D4
:1060A000EBD000EB0A013A46404603F0CBF96369B6
:1060B0003B44B8446361F61B91E7227892064FEAAD
:1060C000562A06D40279A2EB0902D2B2924528BF21
:1060D000924699424FEA4A2708D2A0685346006880
:1060E000424600F0A7FD0028E1D1C6E753448B42A9
:1060F000F3D92430019100F049FA01990028ECD13C
:10610000BBE7A81B03B0BDE8F08F73B501220DF10A
:106110000701D0E904560446FFF749FF01280ABFEA
:106120009DF807004FF0FF30C4E9045602B070BD7F
:1061300037B5436913F4F07F0446C3F3431500D029
:1061400099B901220DF107012046FFF730FF40B257
:10615000012802D0002003B030BD63691F33A0685E
:106160006361303000EB4510F5E72033F7E72DE9A8
:10617000F0410278076904460D4662B140698842E1
:1061800002D019B921616561012006E0160706D524
:10619000E3698B420BD227610020BDE8F0819106B4
:1061A00005D5A3681B89B5EB431FECD9F3E7D4F8F9
:1061B00008C09CF80660431E06F109016E1ECB4024
:1061C000CE40B34200D898B953064CBFDCF820301B
:1061D000236A236104F11008002ED4D02169A0683D
:1061E000424600F024FA002806F1FF36F4DCD2E73C
:1061F000F61AEFE7F8B50F460446154600212422AB
:106200001E4603F02DF9B868A060A58005F00F05C3
:106210003B6AE3606A0100EB451595F83B301F07C8
:1062200044D403F01703237095F83B1011F0180FB6
:1062300004BF43F0080323709DF81830E37006F0A4
:106240000303012B2CD0022B28D07BBB71052DD44E
:106250000123A370A1788B0704D52378DF0625D40A
:10626000DD0723D4B31123F07F0306F008052B4389
:106270000B43A370C36AA3618318B3F84420B3F837
:106280004A1041EA0241720513D559B9A37843F087
:106290000403A370730410D40120F8BD0323D8E7CE
:1062A0000223D6E700F063FA0028EFD10020207027
:1062B000F3E72162DB6CE361ECE7E1692046FFF77D
:1062C00056FF0028E8D1F1E738B5037804460BB94A
:1062D000012038BD83785A0723D50121FFF752FEEC
:1062E000054628B9637843F0010363700020F0E7A6
:1062F0000378E52BF6D023781B0744BFE369C3611D
:10630000236A4383638C8382094B1B682BB100F1A2
:106310001601183098472B8B6B82A37823F0040367
:10632000A370A068FFF7CAFA0028DBD0D0E700BF4F
:10633000B4E6032010B50446FFF7C6FF0023237020
:1063400010BDF0B593B01F46002309930378019266
:1063500006460C4613B1002013B0F0BD0B7813F0C5
:10636000700FF8D013782F2B12D1019A13782F2B9E
:1063700002D101320192F8E7A1681BB93046FFF75C
:1063800010FEE9E709A8FFF79FFD0028E3D009AC5C
:10639000019801AA03A9FFF7ADFA0028DBD0019B01
:1063A0001B789BB1002303AA21463046FFF7D4FB9C
:1063B0000028D0D035460FCD09AC0FC40FCD0FC487
:1063C0002B6823603046FFF7B5FFE0E73B4603AAA2
:1063D00021463046FFF7C0FBBEE700002DE9F0473D
:1063E000037889461907044617465BD583789A07D0
:1063F00058D51B0751D46369DB43BB4252D3B8461F
:1064000004F1100A6669B8F1000F00F09180A068ED
:106410004379C6F3080513EA56260ED16DB92169F2
:10642000002946D0524600F002F900283ADB04D198
:106430002046FFF75FFD002834D02169A06800F0F6
:10644000F0F83118A06815B9B8F5007F3FD2C5F54E
:106450000076464528BF4646002D36D16269E3697D
:106460009A4234BF01220522243000F0B7F8C8B1A7
:10647000284432464946354402F0E4FFB5F5007F32
:1064800004D1A068243000F081F858B16369334426
:106490006361B144A8EB0608B4E7C169FFF767FE82
:1064A0000028A8D1637843F0010363704FF0FF30F8
:1064B00050E0236A3BB92046FFF71CFD0028F1D0CD
:1064C00023692362B9E72361B7E70122CCE7B8F576
:1064D000806FC26A1BD390F804C0ACEB0606F3B21F
:1064E0004FEA582E734528BF734691424FEA432620
:1064F00007D31A448A4282BF4FF0FF3280F82450FB
:10650000C262A5684A46286800F04BFCBDE791428C
:1065100002BF4FF0FF3380F82450C362A3684A469D
:10652000186800F0C8FB0028BCD04FF40076ADE737
:10653000E269A378B24204D2E66143F00403A37097
:1065400003E0084A1268002AF7D194F90230002BC0
:1065500002DB3846BDE8F0872046FFF7B5FE00288D
:10656000F7D19FE7B4E6032013B50446084659B1B6
:10657000019102F0ABFF23680199DB6802462046D7
:1065800002B0BDE81040184702B010BD37B503781F
:10659000DA07044620D54368816800F10C021868C8
:1065A000019200F088FB019A054618B9002528469B
:1065B00003B030BD23789B0704D4237823F0010374
:1065C0002370F4E7D4E9013019690144186800F038
:1065D00072FB0028F1D1E9E70125E8E770B583688F
:1065E0008B4204460E46154609D0FFF7CFFF08B987
:1065F000002070BD6B070AD500232370A6602278A7
:1066000005F003052046154300F80C5BF1E76368CD
:1066100004F10C021868314600F0C4FA0028EBD1EE
:10662000E6E78379406902399940084470470129B7
:1066300070B505460C46164602D84FF0FF3070BDC7
:10664000C3698B42F9D3C379202B16D18169022209
:1066500001EBD41100F50C70FFF7C0FF0028ECD05F
:1066600004F07F0450F8243023F07043EA699A4222
:1066700026BF336001200020E1E7102BDDD1C1F3FC
:10668000072381690222194400F50C70FFF7A6FF69
:106690000028D2D0E4B230F81430E7E7012938B549
:1066A0000C46154601D8002038BDC3698B42FAD389
:1066B000C379202B0FD18169032201EBD41100F59E
:1066C0000C70FFF78BFF0028EDD004F07F0440F83A
:1066D00024500120E8E7102BE5D1C1F3072381699D
:1066E0000322194400F50C70FFF778FF0028DAD078
:1066F000E4B220F81450ECE72DE9F341C4688C4271
:1067000005460E46904601D3012701E00C460027BE
:10671000EB690134A34202D2C7B9EC68F4E7A642A0
:1067200014D001AA21462846FFF781FF00280DDB7F
:10673000EED0019B002BEBD107B1EC606FF0704203
:1067400021462846FFF7AAFF074620B9002738460A
:1067500002B0BDE8F08116B9C8F80040F7E722465C
:1067600031462846FFF79AFF0028F5D1EEE773B5CA
:1067700005460C4601AA21462846FFF758FF061E8B
:1067800010DB002221462846FFF788FF50B1EB6856
:10679000A34224BF04F1FF34EC60019C002EE9D138
:1067A00002B070BD0020FBE7012370B50022C3607A
:1067B0004FF0FF330446C27100F12406806280F876
:1067C0002420C362C0F8340280F83022C0F8383286
:1067D0000D46B9B1042901D9002070BD11463046DB
:1067E000FFF7FCFE0028F7D000EB051393F8AE315D
:1067F0005B06F1D105F11B0100EB0110D0F806504A
:10680000002DE9D0002229463046FFF7E7FE002898
:10681000E2D0B0F80B30B3F5007FDDD1037C022B62
:10682000DAD1C389002BD7D0417B21714B1E637114
:106830000023A37109260123994207D0013ECBD042
:10684000A2795B000132DBB2A271F5E7C18A01B91E
:10685000416A2161C3892B44A361B0F811202281D0
:1068600003EB41032362B0F81110490101F2FF115B
:1068700003EB51236361B0F8132002B9026AE91AED
:10688000A3791144D9404B1CE36140F6F47399425B
:1068900002D80C23E3719FE74FF6F473994285BF4A
:1068A000C36A236210232023E371012095E700F0DF
:1068B000CBBA00F0AEBA000070B50E4E0D461446CD
:1068C00000F0B0FF3368C01A0B4B984208D900F0B3
:1068D000B1FF0A4B186001F079F900F0A3FF3060B6
:1068E00000F0A8FF80B2401BA042D4BF00200120CE
:1068F00070BD00BFBCE60320A086010040E7032076
:1069000038B5057A04464DB9406800F06BFA636803
:106910002946187D01F0E1FF0123237238BD10B52F
:10692000037A04466BB143680121187D01F0D5FF5D
:106930006068FF21FFF7BBFF606800F067FA002383
:10694000237210BDF8B504460D46164600F072FFDE
:1069500087B26068FFF7ADFFFF2860720ED14FF479
:106960007A7239462046FFF7A7FF0028F1D0552359
:1069700020462370FFF7D3FF0020F8BDFE2801D08A
:106980005023F5E760683246294600F047FA607206
:1069900008B16023ECE76068FFF78BFF6068FFF7E2
:1069A00088FF0120E9E770B504460E4600F042FF7B
:1069B00085B2324629462046FFF77EFF30B960682F
:1069C000FFF777FFFF28F4D1012070BD0020FCE71E
:1069D000F7B5037A019204460D460BB9FFF790FF15
:1069E00025B14FF496712046FFF7DDFF606845F052
:1069F0004001FFF75CFF032601AFB95D6068FFF758
:106A000056FF013EF9D2002D60680CBF9521872109
:106A1000FFF74DFF6068FFF74CFF0B256068FFF73D
:106A200048FF0306607203D5013D15F0FF05F5D15F
:106A300003B0F0BD70B504460D461646372100225E
:106A4000FFF7C6FF324629462046BDE87040FFF7F3
:106A5000BFBF00002DE9F041002505720570857269
:106A60004160044690461E4600F0E4FE414607465B
:106A7000606800F0BBF96368494A1D720125DA605D
:106A80001D822046FFF73CFF63682946187D01F010
:106A900024FF0A256068FF21013DFFF708FF15F07C
:106AA000FF05F7D163682946187D01F016FF0A2516
:106AB000002211462046FFF78BFF0128804618D0A0
:106AC000013D15F0FF0507D1202320462370FFF775
:106AD00026FF0020BDE8F0816068FD21FFF7E7FE9A
:106AE0004FF402786068FFF7E4FEB8F10108F9D1CD
:106AF000DEE74FF4D57208212046FFF769FF05282D
:106B000014D184F80A800025BFB22A4629212046E4
:106B1000FFF790FF0246D8B14FF4FA62394620469B
:106B2000FFF7CAFE0028F0D04323CEE704256068B3
:106B3000FFF7BFFE013D15F0FF056072F7D1AA28EF
:106B400004D10223A3724FF08045DDE72523BCE783
:106B5000A37A022B18D13A212046FFF739FF08B15A
:106B60003723B2E76068FFF7A4FE00F0C000C0283A
:106B700004BF0323A3726068FFF79BFE6068FFF702
:106B800098FE6068FFF795FE2046FFF7C8FE636831
:106B90003079B168B2891A821872D960012099E7F8
:106BA00090D0030038B5837A032B18BF49021546ED
:106BB0000A4611210446FFF70BFF30B13023237042
:106BC0002046FFF7ACFE00250BE029464FF400728B
:106BD0002046FFF7B7FE05460028F1D02046FFF714
:106BE0009EFE284638BD10B5837A032B0A4618BF8F
:106BF0004A0212210446FFF7EBFE30B13123204652
:106C00002370FFF78CFE002010BD0120FCE710B5BB
:106C100000220C210446FFF7DBFE30B1282320467A
:106C20002370FFF77CFE002010BD2046FFF777FEA3
:106C30000120F9E7F8B5044616461F46FFF7D3FFD3
:106C400068B10025ABB29F4206EB452109D94FF44C
:106C500000722046FFF776FE01350028F2D10020B1
:106C6000F8BD2046BDE8F840FFF7D1BF38B504466F
:106C700015464068FFF71BFE4FF400726068294616
:106C800000F0E6F86068FF21FFF711FE6068FF2161
:106C9000FFF70DFE6068FFF70CFE607200F01F004A
:106CA000052806D0572320462370FFF738FE002022
:106CB00038BD0120FCE770B5837A032B18BF490269
:106CC00015460A4618210446FFF782FE064630B1F3
:106CD000322323702046FFF722FE00251FE02A46BC
:106CE000FE212046FFF7C2FF0028F3D04FF4FA61DF
:106CF0002046FFF758FE054608B95A23E9E7324611
:106D00000D212046FFF764FE08B12923E1E7606802
:106D1000FFF7CFFD0028F8D12046FFF700FE2846F8
:106D200070BD13B501914FF4FA610446FFF73BFEC5
:106D3000019A30B95B2323702046FFF7F0FD002055
:106D400005E0FC212046FFF791FF0028F4D002B0B7
:106D500010BD10B5837A032B0A4618BF4A021921C9
:106D60000446FFF735FE30B1332320462370FFF78A
:106D7000D6FD002010BD0120FCE738B54FF4FA61C4
:106D80000446FFF710FE054630B95623237020460F
:106D9000FFF7C5FD284638BD6068FD21FFF787FD78
:106DA000F5E7F8B5044616461F46FFF7D2FF70B167
:106DB0000025BD4206EB4521204604D0FFF7B1FF78
:106DC00028B10135F5E7BDE8F840FFF7D6BF20460A
:106DD000FFF7A5FD0020F8BD014B01221A70704796
:106DE000C0E60320011D006800F0A4BF10B50446F2
:106DF0000175006800F070FF207D012101F05CFD4D
:106E0000207D0121BDE8104001F067BD006800F061
:106E100077BF0068FF2100F0FBBF000037B51346C5
:106E2000074A00920025074C006825700A4629464B
:106E300000F0F4FF2378002BFCD0002003B030BD1D
:106E4000D96D0B00C0E60320006800F0E1BF000030
:106E500037B51346064A00920025064C0068257097
:106E60002A4600F0DBFF2378002BFCD003B030BDB6
:106E7000D96D0B00C0E60320024A026000220271B5
:106E800082607047E0980B002DE9F041044680686D
:106E90000F4690461E4610B11021FDF700F9102054
:106EA000FDF7F9F8054618B142463946FEF742FCAF
:106EB000A56001212846FEF759FC30B12368314610
:106EC00020461B68BDE8F0411847BDE8F08170B569
:106ED00001258AB00026CDE900650C462B46816865
:106EE000802204A8FEF702FA33462A4604A902A823
:106EF000FEF7D3FA214602A8FEF7E1FA0AB070BD08
:106F000070B5012588B00024CDE900452B46816885
:106F10009222064602A8FEF7E9F902A8FEF7A1FAB6
:106F2000C30706D430462946FFF7D1FF284608B0EC
:106F300070BD2046FBE710B501238AB00022CDE9E1
:106F400000230C468022816804A8FEF7CFF90123B4
:106F50001A4604A902A8FEF7A0FA214602A8FEF7E5
:106F6000AEFA0AB010BD30B501258BB00024CDE9D2
:106F700000452B468168802204A8FEF7B7F92A460F
:106F8000042304A902A8FEF788FA294602A8FEF7FE
:106F900096FA054602A8FEF785FA38B1B4F57A7F6D
:106FA0000BD0012001F0D6F80134F3E7B4F57A7F75
:106FB00008BF002528460BB030BD0025FAE710B504
:106FC00001238AB00022CDE900230C46AF2281685C
:106FD00004A8FEF78BF90323022204A902A8FEF7F6
:106FE0005CFA214602A8FEF76AFA0AB010BD10B595
:106FF00000238AB00124CDE90034A322816823460E
:1070000004A8FEF773F90623224604A902A8FEF796
:1070100044FA02A8FEF746FA003818BF01200AB069
:1070200010BD10B504462046FFF7E1FF18B9012056
:1070300001F090F8F7E710BD30B5012389B00025C5
:10704000CDE900530C468122816802A8FEF74EF973
:107050002A46214602A8FEF7A4F909B030BD00B5C2
:10706000012389B00022CDE900238122816802A892
:10707000FEF73CF902A8FEF7F4F9C0B209B05DF8DA
:1070800004FB30B5012389B00025CDE900530C463F
:1070900002238168CA2202A8FEF728F92A4621465F
:1070A00002A8FEF77EF909B030BD00B5002389B013
:1070B0000122CDE9003202238168CA2202A8FEF72C
:1070C00015F902A8FEF7CDF980B209B05DF804FB0E
:1070D00030B5012389B00025CDE900530C46AA2222
:1070E000816802A8FEF702F92A46214602A8FEF7A7
:1070F00058F909B030BD00B5012389B00022CDE9AF
:107100000023AA22816802A8FEF7F0F802A8FEF781
:10711000A8F9C0B209B05DF804FB0000000000004F
:10712000F8B52DED028B0D460446FFF7E4FF0A2863
:1071300097BF1F4BDFED1F8A03EB8000D0ED008A65
:107140002046FFF78CFF431C204608EE103AFFF75D
:10715000ACFF04460134284601F0ACFDB8EEC88A05
:1071600007EE904A28EE288AF8EEE77A064667EEA0
:10717000887A0F4617EE900A01F0AEFD0AA3D3E914
:10718000002301F001FE0C4B002201F027FF024614
:107190000B463046394601F021FF02F0EDF8BDEC18
:1071A000028B00EE100AF8BD3D0AD7A3703D0640E1
:1071B000AC980B000000000000408F4030B5012368
:1071C00089B00025CDE9005314460A46816802A81B
:1071D000FEF78CF82A46214602A8FEF7E2F809B02D
:1071E00030BD10B5302200210446FFF7E7FF012231
:1071F00011462046FFF7E2FF204600220221FFF75A
:10720000DDFF204600220321FFF7D8FF20460022A1
:107210000421FFF7D3FF204642220521FFF7CEFFCE
:10722000204600220621FFF7C9FF20460022072141
:10723000FFF7C4FF204650220821FFF7BFFF20467A
:1072400000220921FFF7BAFF204600220A21FFF79A
:10725000B5FF204600220B21FFF7B0FF2046202279
:107260000C21FFF7ABFF204604220D21FFF7A6FFFC
:10727000204600220E21FFF7A1FF204630220F21D9
:10728000FFF79CFF204601221021FFF797FF2046C1
:1072900050221121FFF792FF204600221221FFF712
:1072A0008DFF20460622BDE810401321FFF786BF60
:1072B000002210B511460446FFF780FF2046002249
:1072C0000121FFF77BFF204600220221FFF776FF16
:1072D000204640220321FFF771FF204602220421AD
:1072E000FFF76CFF204600220521FFF767FF2046CD
:1072F00010220621FFF762FF204603220721FFF735
:107300005DFF204650220821FFF758FF204610223B
:107310000921FFF753FF204603220A21FFF74EFF02
:10732000204600220B21FFF749FF204600220C21B6
:10733000FFF744FF204600220D21FFF73FFF2046C4
:1073400024220E21FFF73AFF204600220F21FFF7EB
:1073500035FF204600221021FFF730FF2046502243
:107360001121FFF72BFF204600221221FFF726FFF5
:1073700020460622BDE810401321FFF71FBF38B595
:1073800004460D460021FFF7D6FD02212046FFF7F7
:1073900016FE204635B1FFF724FF2046BDE83840F1
:1073A000FFF7E1BDFFF784FFF7E72DE9F041044661
:1073B00088B00E460121FFF7E2FF01212046FFF7CA
:1073C000BAFD4FF0000820460127FFF72AFE0223EE
:1073D000A1689522CDE9008702A8FDF787FF0C225E
:1073E000314602A8FDF7FBFF414605462046FFF760
:1073F000C6FF39462046FFF79EFD2046FFF711FEE7
:107400002DB10C22B11802A8FDF7E9FF0546284668
:1074100008B0BDE8F081000030B50F4C0023013307
:10742000DDB28D4204D214F8015B2A4492B2F6E731
:10743000022903D9830704BF013292B200EBC001D5
:10744000C31C00EBC10000EB8000C3F38D030138C7
:107450001844104480B230BDE4980B0008B582781F
:1074600041780078FFF7D8FF07230630B0FBF3F32D
:10747000C3EBC303C01AC0B208BD08B501F0A2FA3D
:1074800001F0ACF8012008BDFFF7F7BF08B501F027
:1074900099FA682101F0D8F801F094FA0368022102
:1074A0009B68984701F08EFA01F0D5F801F08AFA4E
:1074B0000122682101F0C1F801F084FA03685B69D8
:1074C000984700F0E000E03818BF012008BD2DE922
:1074D000F843044601F076FA682101F0B5F801F0AE
:1074E00071FA036803219B68984701F06BFA01F079
:1074F000B2F801F067FA0722682101F09EF801F066
:1075000061FA03685B69984700F07F09C0F30210D5
:10751000A0EB800009EB40005FFA80F901F052FA1D
:1075200003685B699847C0F30315A5EB850500EB7D
:10753000450000F0FF0501F045FA03685B699847D4
:10754000C0F30316A6EB860600EB460000F0FF062C
:1075500001F038FA03685B699847C0F30317A7EB9B
:10756000870700EB470000F0FF0701F02BFA0368E4
:107570005B69984701F026FA03685B699847C0F396
:107580000318A8EB880800EB480000F0FF0801F0A2
:1075900019FA03685B699847C0F30313A3EB8303ED
:1075A00000EB4300207084F80180A770E67025711D
:1075B00084F805902046BDE8F883002202607047F9
:1075C00010B5012388B00024CDE900437F22016873
:1075D00002A8FDF78BFE2246214602A8FDF7E1FE38
:1075E00008B010BD30B5012389B00025CDE90053A6
:1075F0000C4602230168062202A8FDF777FE2A4600
:10760000E14302A8FDF7CDFE09B030BD30B501233E
:1076100089B00025CDE900530C46022301680422FD
:1076200002A8FDF763FE2A46E14302A8FDF7B9FE72
:1076300009B030BD30B50729144689B04FF00002BB
:1076400011D801F12403DAB201230025CDE900535A
:10765000016802A8FDF74AFE2A46214602A8FDF766
:10766000A0FE09B030BDA1F10803032B02D801F13F
:107670001803E8E7A1F10C03032BE5D801F120037F
:10768000E1E72DE9F041012492B00026CDE9006444
:107690000F468046016815460223042206A8FDF71E
:1076A00025FE3B46224606A902A8FDF7F6FED8F8BD
:1076B000001002231222CDE900640CA8FDF716FE8B
:1076C0003B4622460CA904A8FDF7E7FEA5420AD1D5
:1076D000314602A8FDF7F3FE294604A8FDF7EFFEA8
:1076E00012B0BDE8F0813DB1032DF9D1314602A8B9
:1076F000FDF7E5FE3146F0E7214602A8FDF7DFFE83
:107700002146EAE730B500238BB00125CDE90035ED
:107710000C462B460168112204A8FDF7E7FD04235F
:107720002A4604A902A8FDF7B8FE84EA050102A8CA
:10773000FDF7C5FE0BB030BDF0B50446006889B05A
:107740000E46174610B11021FCF7A9FC1020FCF7DB
:10775000A2FC054618B13A463146FDF7EBFF25601D
:1077600001212846FEF702F818B90025284609B07D
:10777000F0BD2046FFF724FF05460028F5D0012381
:107780000026CDE900632168102202A8FDF7AEFDB6
:1077900002A8FDF766FE2328E7D131462046FFF711
:1077A00035FF31462046FFF7ADFF31462046FFF753
:1077B00019FFDBE708B5024B1B689B68019308BD06
:1077C0006802030008B5024B1B68DB68019308BD23
:1077D0006802030008B5024B1B689B68019308BD53
:1077E0002C02030008B5024B1B68DB68019308BD3F
:1077F0002C02030008B5024B1B681B69019308BDEE
:107800002C02030008B5024B1B685B68019308BD9E
:107810001802030008B5024B1B68DB68019308BD22
:107820001802030008B5024B1B681B69019308BDD1
:107830001802030008B5024B1B685B69019308BD81
:107840001802030008B5024B1B685B6C019308BD6E
:107850004802030008B5024B1B685B69019308BD31
:107860006402030008B5024B1B68DB68019308BD86
:107870003C02030008B5024B1B681B69019308BD5D
:107880003C02030008B5024B1B685B69019308BD0D
:107890003C02030008B5024B1B689B69019308BDBD
:1078A0003C02030008B5024B1B68DB69019308BD6D
:1078B0003C02030008B5024B1B681B6A019308BD1C
:1078C0003C02030008B5024B1B689B6A019308BD8C
:1078D0003C02030008B5024B1B681B6C019308BDFA
:1078E0003C02030008B5024B1B68DB68019308BD2E
:1078F0002802030008B5024B1B689B69019308BD71
:107900002802030008B5024B1B68DB69019308BD20
:107910002802030008B5024B1B681B6A019308BDCF
:107920002802030008B5024B1B685B6A019308BD7F
:107930002802030008B5024B1B689B6A019308BD2F
:107940002802030008B5024B1B68DB6A019308BDDF
:107950002802030008B5024B1B681B6B019308BD8E
:107960002802030008B5024B1B685B6B019308BD3E
:107970002802030008B5024B1B681B6C019308BD6D
:107980002802030008B5024B1B681B6D019308BD5C
:107990002802030008B5024B1B681B68019308BD51
:1079A0003002030008B5024B1B685B69019308BDF8
:1079B0003002030008B5024B1B68DB69019308BD68
:1079C0003002030008B5024B1B681B6A019308BD17
:1079D0003002030008B5024B1B685B6A019308BDC7
:1079E0003002030008B5024B1B689B6A019308BD77
:1079F0003002030008B5024B1B689B6B019308BD66
:107A00003002030008B5024B1B68DB6B019308BD15
:107A10003002030008B5024B1B681B6C019308BDC4
:107A20003002030008B5024B1B685B6C019308BD74
:107A30003002030008B5024B1B681B68019308BDA8
:107A40004C02030008B5024B1B685B68019308BD3C
:107A50004C02030008B5024B1B681B69019308BD6B
:107A60004C02030008B5024B1B685B69019308BD1B
:107A70004C02030008B5024B1B689B69019308BDCB
:107A80004C02030008B5024B1B68DB69019308BD7B
:107A90004C02030008B5024B1B681B6A019308BD2A
:107AA0004C02030008B5024B1B685B6A019308BDDA
:107AB0004C02030008B5024B1B685B68019308BDCC
:107AC0002002030008B5024B1B685B69019308BDE7
:107AD0002002030008B5024B1B68DB6A019308BD56
:107AE0002002030008B5034B1B68D3F888300193CC
:107AF00008BD00002002030008B5034B1B68D3F843
:107B00009430019308BD00002002030008B5024B29
:107B10001B685B68019308BD4002030008B5024B77
:107B20001B689B68019308BD4002030008B5024B27
:107B30001B68DB68019308BD4002030008B5024BD7
:107B40001B681B69019308BD4002030008B5024B86
:107B50001B685B69019308BD4002030008B5024B36
:107B60001B689B69019308BD4002030008B5024BE6
:107B70001B68DB69019308BD4002030008B5024B96
:107B80001B681B6A019308BD4002030008B5024B45
:107B90001B681B6B019308BD4002030008B5024B34
:107BA0001B685B6B019308BD4002030008B5024BE4
:107BB0001B681B6C019308BD4002030008B5024B13
:107BC0001B685B6C019308BD4002030008B5024BC3
:107BD0001B689B68019308BD4402030008B5024B73
:107BE0001B68DB6B019308BD4402030008B5024B20
:107BF0001B681B68019308BD1C02030008B5024BFB
:107C00001B685B68019308BD1C02030008B5024BAA
:107C10001B685B6A019308BD1C02030008B5024B98
:107C20001B681B6C019308BD1C02030008B5024BC6
:107C30001B685B6C019308BD1C02030000224068B6
:107C40001146FFF79BBF002240681146FFF7A6BF11
:107C500040680022FFF79ABF4068002281F00101CE
:107C6000FFF784BF002340681A461946FFF776BF26
:107C7000002340681A461946FFF768BF0022406893
:107C80001146FFF75BBF002240681146FFF746BF71
:107C9000406800220221FFF749BF002340681A46CE
:107CA000FFF734BF024B03225A60024A1A60704742
:107CB000C4E60320F8980B000021FFF7B3BE0021B3
:107CC000FFF7A8BE10B5044608462170FFF772FE04
:107CD00000236360204610BD13B504460078FFF70B
:107CE000EEFF58B9207801904FF6FF71FFF752FE72
:107CF000019802B0BDE81040FFF7DEBF02B010BD32
:107D00000078FFF7D9BF0000400830B518600024A4
:107D100018688842E5B206D90134082C02D0400820
:107D20001860F5E70725024B5B5D137030BD00BF9F
:107D30002C990B002DE9F04306468FB000780C46D5
:107D4000FFF7BDFF00281BDB35781422002109A8AE
:107D500001F086FB0B23002209A92846ADF8243048
:107D6000FFF738FE9DF82D3013B19DF82C5055B11A
:107D70000027B946B846012523795DB1C3B100207B
:107D80000FB0BDE8F083DDF830809DF834909DF8A9
:107D90003570F1E7002B35D1A368434508D18DF844
:107DA00020908DF82170BDF82020A3899A42E6D05A
:107DB0000023A1688DF80F300A9804AB0DF10F0273
:107DC000FFF7A2FF217985B989B9A36843450ED38E
:107DD0008DF820908DF82170BDF82020A3899A425B
:107DE00005D1049B434502D1C9E70029F9D10023FD
:107DF0000193637B00939DF80F20237B3078FFF77E
:107E000001FEBCE7CDE900552B462A460121F5E7E6
:107E100008B50078FFF7C6FDC0B208BD30B587B021
:107E200004460A9D00950078FFF7DCFD3DB92078F7
:107E300002A9FFF7DFFD9DF81430DB07F7D407B088
:107E400030BD0000054B02221A60054B054A9A60BE
:107E50000020C3E90000FFF72DBE00BFD8E60320D5
:107E6000CCE603200000FFFF024800230360FFF779
:107E7000E9BC00BFDCE60320F8B506460D468F18C6
:107E80000024BD420CD0336815F8011B9B683046B6
:107E90009847031E01DB1C44F3E7002C08BF1C4677
:107EA0002046F8BD08B5FEF75FFB08BD03689B6878
:107EB000184738B50D210546FFF7F8FF0A2104469B
:107EC0002846FFF7F3FF204438BD38B50546FEF7D6
:107ED0004BFB04462846FFF7ECFF204438BDFFF774
:107EE000F4BF30B58BB00023012A8DF8243098BF41
:107EF0000A2209AC0D46B1FBF2F101FB125303F06B
:107F0000FF03092B94BF30333733DBB2AA4204F8A6
:107F1000013DEFD92146FEF727FB0BB030BD000035
:107F20002DE9F74F55EC104B06460F4610EE102A80
:107F300010EE100A2B46294601F0C0F940B1534912
:107F40003046FEF711FB8246504603B0BDE8F08F85
:107F500025F000494E4B4FF0FF322046494601F0D4
:107F6000ADF948B94A4B4FF0FF322046494601F07F
:107F700087F908B94749E3E7474B4FF0604220468D
:107F8000294601F091F908B14449D9E7444B4FF033
:107F900060422046294601F069F90028F4D1002208
:107FA00000232046294601F061F9D0B12D21304649
:107FB000FFF77CFF05F1004382461D463949DFF893
:107FC000EC904FF0000B00204FF000085FFA8BF3AD
:107FD0009F4208D942464B4601F000F80BF1010BD5
:107FE000F4E78246EAE722462B4600F017FD0D46ED
:107FF000044601F0A1F9804600F04CFE02460B4613
:108000002046294600F008FD0A2204460D46304667
:108010004146FFF766FF8244002F95D02249DFF8E2
:108020008C903046FEF7A0FA4FF000088244002FF3
:108030008AD042464B462046294600F0A5FE04461B
:108040000D4601F051F9B0F1000B1CDA2D2130463C
:10805000FFF72CFFCBF1000103460A2230460193C3
:10806000FFF73FFF019B18448244584600F022FE70
:1080700002460B462046294600F0CEFC013F04464E
:108080000D46FFB2D3E759460023E6E734990B00CB
:10809000FFFFEF7F38990B00FFFFEF413C990B008A
:1080A000FFFFEFC10000E03F40990B0000002440BB
:1080B00038B5044610EE100ACDB200F00DFE41ECCA
:1080C000100B29462046BDE83840FFF729BF2DE9AF
:1080D000F04186B000AF05460E46381D1421144607
:1080E0003B60FFF793FD13280ED8391D2846FEF795
:1080F0003BFA04461EB12846FFF7DBFE0444204647
:108100001837BD46BDE8F08100F1080323F00703EE
:10811000E846ADEB030D2246411C3B686846FFF77D
:1081200075FD69462846FEF71FFA0446C546E1E795
:10813000014B024A1A607047E0E6032042990B00A7
:10814000024B1A68024B1A60704700BF44E10320DB
:10815000E4E603200021FFF7B5BC0000014B00223C
:108160009A607047E8E60320014B1860704700BF33
:1081700048E1032008B50B4B43B100F06DF90368EB
:108180001B699847002801DDAFF30080064B43B11F
:1081900000F0D8FB03681B699847002801DDAFF3A6
:1081A000008008BD000000000000000008B5FFF7D7
:1081B000E1FFFFF73FFB014B186008BD40E70320DC
:1081C0000548064A064908B5121A01F03BF9054B65
:1081D000054A1A6008BD00BF00F4032004F4032020
:1081E000649B0B0000F403201E1C279A07B5002394
:1081F00000931A466FF07701FFF77EFC03B05DF83D
:1082000004FB000007B543880A2B08D0502B0BD184
:10821000094B1B684BB103B05DF804EB1847FFF73F
:10822000E5FF03B05DF804FB002300931A466FF0EE
:108230007701FFF761FCF4E7FCE6032010B5124874
:108240000021FFF7F3FC114B1A68114B9A42114BB6
:108250000CBF012200221A7001D0FFF7B1FFFFF717
:10826000D1FA044601F004F90B4B13B12046AFF3E9
:10827000008000210848FFF7B1FCBDE81040074826
:108280000021FFF72FBC00BF69810B0000F4032021
:108290001E1C279AF8E603200000000005820B0050
:1082A000704710B518210446FBF7F9FE204610BDB3
:1082B000F0B5037D062B8DB00E4600F104074FF09C
:1082C000000412D000F1080515F8011D0A223046FD
:1082D000FFF707FEAF42044419D0002CF4D02E2142
:1082E0003046FFF7E3FD0444EEE72F236A463946A4
:1082F0000A208DF80040FFF7ADFA684601F0E6F875
:1083000033680246DB686946304698470446204693
:108310000DB0F0BD10B5054B0446112240F8043BEA
:10832000002101F09DF8204610BD00BF6C990B00A4
:108330000346074A10B543F8042B01F1100251F827
:10834000044B43F8044B9142F9D10A781A7010BDDE
:108350006C990B0010B59DF8084044EA032343EAEA
:10836000024242EA016104234160037510BD00002E
:1083700007B5064B0360CB7800938B784A78097871
:10838000FFF7E8FF03B05DF804FB00BF6C990B003A
:10839000417470477047704708B50021007CFFF7B3
:1083A00069FB40EAE07008BD08B50121007CFFF7D9
:1083B00061FB40EAE07008BD08B5007CFFF752FBA6
:1083C00020EAE07008BD08B5007CFFF743FB20EA17
:1083D000E07008BD13B50446007C0191FFF742FB35
:1083E0000028019901DC607C20B1207CFFF74AFB6A
:1083F00020EAE07002B010BD007CFFF74BBB10B567
:1084000014210446FBF74BFE204610BD10B54FF477
:108410007A73044608460021C4E90113044B236023
:108420000123207463741146FFF704FB204610BD3E
:1084300080990B00007C0022FFF704BB007CFFF753
:1084400031BBFFF7FBBF10B514220446002101F039
:1084500007F8204610BD000010B50F4C88B003A8E7
:10846000FFF7F1FF2178BFF35B8F11F001010FD10E
:1084700020460191FBF715FE019948B103AA074870
:10848000FFF7C4FF2046FBF711FE054800F0C4FFCC
:10849000024808B010BD00BF00E7032004E7032036
:1084A00095830B0070474174704708B5007CFFF757
:1084B00009FA20EAE07008BD08B5007CFFF7DAF998
:1084C00020EAE07008BD08B5007CFFF7E3F940EA58
:1084D000E07008BD08B5007CFFF7D4F940EAE07011
:1084E00008BD007CFFF7DEB937B5457C04462DB1E9
:1084F000207C03B0BDE83040FFF7B4B9007C0191A7
:10850000FFF7E0F900280199F2DC284603B030BDFE
:1085100010B514210446FBF7C2FD204610BD000033
:1085200010B54FF47A730446084611460022C4E998
:108530000123044B2360012320746374FFF7CAF9FD
:10854000204610BDB0990B007047F8B50646154699
:108550000C468F18BC4206D0336814F8011B9B6888
:1085600030469847F6E72846F8BD007C0022FFF722
:10857000D1B9007C0021FFF7D5B9007C0021FFF7BD
:10858000D9B9007C0021FFF7DDB9007C0021FFF79D
:10859000E1B910B514210446FBF781FD204610BD5A
:1085A00038B5044615464FF47A730022C4E9012316
:1085B000094B2174084623602946FFF7DBF9BF30D9
:1085C00008D16B69DB0705D56868FFF717FBE8681A
:1085D000FFF714FB204638BDE0990B000023007C18
:1085E0001A461946FFF77EB97FB500221423CDE95C
:1085F0000122ADF804300B788DF808304B680393F6
:10860000CB680493007C0B7A059301A9FFF7BAF9B4
:1086100007B05DF804FB1FB5003B8DF800104FF06C
:108620006401039118BF0123694601928DF8083057
:10863000FFF7DAFF05B05DF804FB0123FFF7EBBF9E
:10864000007C0022FFF756B9C9B2FFF7F9BF007CE2
:108650000022FFF757B90121FFF7F9BF0022406858
:108660001146FFF76BBA002240681146FFF786BA41
:10867000002240681146FFF791BA40680022FFF7D8
:1086800085BA4068002281F00101FFF76FBA00232C
:1086900040681A461946FFF761BA002340681A4637
:1086A0001946FFF753BA002240681146FFF736BA61
:1086B000406800220221FFF739BA002340681A46B9
:1086C000FFF724BA024B04225A60024A1A6070472C
:1086D00018E70320089A0B00002340681A46FFF7AA
:1086E00015BA406800220221FFF720BA0022406834
:1086F0001146FFF713BA002240681146FFF71EBA71
:10870000002340681A461946FFF720BA0023406844
:108710001A461946FFF722BA40680021FFF746BA09
:1087200040680021FFF74ABA4068002281F0010149
:10873000FFF71CBA40680022FFF728BA0022406801
:108740001146FFF72BBA002240681146FFF716BA10
:108750002DE9F04395B014460D460746FFF7DAFDC4
:1087600000211C220DA8009100F07AFE40230C93FA
:1087700020466B460CAA0021FFF724F80446002887
:108780004BD1024601216868FFF7D8F902218046E3
:1087900022466868FFF7D2F9009E81462146002EE6
:1087A0003BD0002939D17368022B03D00A2B11D09A
:1087B000F669F4E7B8F1000FFAD0716906A8043140
:1087C00007ADFFF7D5FD0FCD3C1D0FC42B682370FF
:1087D0004146EDE7B9F1000FEAD07469102201A813
:1087E00000F03EFE06238DF8143001AD04F10803BD
:1087F0001834186859682A4603C20833A34215463C
:10880000F7D101A906A807ADFFF792FD0FCD3C1DDA
:108810000FC42B6823704946CAE70098FEF7CAFFC9
:10882000384615B0BDE8F083024B034A1A600022B7
:108830005A60704720E70320449A0B00232813B5A1
:1088400002D9002002B010BDA0F10B03022B1AD8F0
:10885000174C2178BFF35B8F11F001010BD120463B
:108860000191FBF71EFC019928B11248FFF72AFA83
:108870002046FBF71BFC0F4B1878FFF7A3F80028E6
:10888000DFD10120DEE7012809D800F09BF80021A4
:10889000007CFFF767F880F00100C0B2D2E709382A
:1088A0000128EED800F04EF8007CFFF703F8F2E75D
:1088B000B0E10320B4E10320232838B504460D4677
:1088C0000AD8FF2908D0FFF7B9FF28B1294620466A
:1088D000BDE83840FEF77EBF38BD38B504460D46CA
:1088E000FEF780FFFF2810D0062804D84D2323FA76
:1088F00000F0C30709D42046FFF7A0FF28B129469E
:108900002046BDE83840FEF775BF38BD704700000F
:1089100038B5044614252A46002100F0A1FD258023
:108920004025074925812846258200F06FF8044933
:108930006060284600F06AF8E060204638BD00BF5D
:10894000789A0B0030B50E4D2978BFF35B8F11F08C
:10895000010487B011D12846FBF7A3FB68B101A839
:10896000FFF7D6FF01AA21460648FFF7D9FD2846A2
:10897000FBF79CFB044800F04FFD024807B030BDF8
:1089800028E703202CE703200D890B007047000027
:1089900038B50A4B0360012304464361084920208F
:1089A00000F034F8202560600549A560284600F0F5
:1089B0002DF8C4E90305204638BD00BF18000100AA
:1089C000789A0B0030B50E4D2978BFF35B8F11F00C
:1089D000010487B011D12846FBF763FB68B16846F4
:1089E000FFF7D6FF6A4621460648FFF7D9FD28461D
:1089F000FBF75CFB044800F00FFD024807B030BDF8
:108A000044E7032048E703208D890B00FBF745BBB3
:108A100081F0004102E000BF83F0004330B54FEA2F
:108A200041044FEA430594EA050F08BF90EA020F9C
:108A30001FBF54EA000C55EA020C7FEA645C7FEA2F
:108A4000655C00F0E2804FEA5454D4EB5555B8BF52
:108A50006D420CDD2C4480EA020281EA030382EAC3
:108A6000000083EA010180EA020281EA0303362D55
:108A700088BF30BD11F0004F4FEA01314FF4801C28
:108A80004CEA113102D0404261EB410113F0004F3A
:108A90004FEA03334CEA133302D0524263EB4303F1
:108AA00094EA050F00F0A780A4F10104D5F1200E8F
:108AB0000DDB02FA0EFC22FA05F2801841F10001EA
:108AC00003FA0EF2801843FA05F359410EE0A5F1BE
:108AD00020050EF1200E012A03FA0EFC28BF4CF0EF
:108AE000020C43FA05F3C01851EBE37101F00045A5
:108AF00007D54FF0000EDCF1000C7EEB00006EEBB2
:108B00000101B1F5801F1BD3B1F5001F0CD349083B
:108B10005FEA30004FEA3C0C04F101044FEA445292
:108B200012F5800F80F09A80BCF1004F08BF5FEA19
:108B3000500C50F1000041EB045141EA050130BDF9
:108B40005FEA4C0C404141EB0101013C28BFB1F50B
:108B5000801FE9D291F0000F04BF01460020B1FA56
:108B600081F308BF2033A3F10B03B3F120020CDA29
:108B70000C3208DD02F1140CC2F10C0201FA0CF007
:108B800021FA02F10CE002F11402D8BFC2F1200C6C
:108B900001FA02F120FA0CFCDCBF41EA0C01904022
:108BA000E41AA2BF01EB0451294330BD6FEA04046B
:108BB0001F3C1CDA0C340EDC04F11404C4F1200256
:108BC00020FA04F001FA02F340EA030021FA04F368
:108BD00045EA030130BDC4F10C04C4F1200220FABF
:108BE00002F001FA04F340EA0300294630BD21FAFD
:108BF00004F0294630BD94F0000F83F4801306BFC3
:108C000081F480110134013D4EE77FEA645C18BFB6
:108C10007FEA655C29D094EA050F08BF90EA020F4D
:108C200005D054EA000C04BF1946104630BD91EA45
:108C3000030F1EBF0021002030BD5FEA545C05D148
:108C40004000494128BF41F0004130BD14F5800487
:108C50003CBF01F5801130BD01F0004545F0FE41FB
:108C600041F470014FF0000030BD7FEA645C1ABF30
:108C7000194610467FEA655C1CBF0B46024650EA67
:108C8000013406BF52EA033591EA030F41F4002193
:108C900030BD00BF90F0000F04BF0021704730B519
:108CA0004FF4806404F132044FF000054FF00001EE
:108CB00050E700BF90F0000F04BF0021704730B5AF
:108CC0004FF4806404F1320410F0004548BF404284
:108CD0004FF000013EE700BF42004FEAE2014FEAD9
:108CE00031014FEA02701FBF12F07F4393F07F4FB4
:108CF00081F06051704732F07F4208BF704793F0B7
:108D00007F4F04BF41F40021704730B54FF46074C9
:108D100001F0004521F000411CE700BF50EA0102CC
:108D200008BF704730B54FF000050AE050EA010275
:108D300008BF704730B511F0004502D5404261EBE5
:108D400041014FF4806404F132045FEA915C3FF426
:108D5000D8AE4FF003025FEADC0C18BF03325FEAC3
:108D6000DC0C18BF033202EBDC02C2F1200300FA74
:108D700003FC20FA02F001FA03FE40EA0E0021FA99
:108D800002F11444BDE600BF70B54FF0FF0C4CF487
:108D9000E06C1CEA11541DBF1CEA135594EA0C0F39
:108DA00095EA0C0F00F0DEF82C4481EA030621EA74
:108DB0004C5123EA4C5350EA013518BF52EA0335AF
:108DC00041F4801143F4801338D0A0FB02CE4FF061
:108DD0000005E1FB02E506F00042E0FB03E54FF091
:108DE0000006E1FB03569CF0000F18BF4EF0010E89
:108DF000A4F1FF04B6F5007F64F5407404D25FEA85
:108E00004E0E6D4146EB060642EAC62141EA555137
:108E10004FEAC52040EA5E504FEACE2EB4F1FD0C79
:108E200088BFBCF5E06F1ED8BEF1004F08BF5FEAF7
:108E3000500E50F1000041EB045170BD06F00046A9
:108E400046EA010140EA020081EA0301B4EB5C0456
:108E5000C2BFD4EB0C0541EA045170BD41F480114E
:108E60004FF0000E013C00F3AB8014F1360FDEBF73
:108E7000002001F0004170BDC4F10004203C35DA4F
:108E80000C341BDC04F11404C4F1200500FA05F3D2
:108E900020FA04F001FA05F240EA020001F0004273
:108EA00021F0004110EBD37021FA04F642EB0601E9
:108EB0005EEA430E08BF20EAD37070BDC4F10C0413
:108EC000C4F1200500FA04F320FA05F001FA04F2D7
:108ED00040EA020001F0004110EBD37041F10001C3
:108EE0005EEA430E08BF20EAD37070BDC4F12005CE
:108EF00000FA05F24EEA020E20FA04F301FA05F236
:108F000043EA020321FA04F001F0004121FA04F2DD
:108F100020EA020000EBD3705EEA430E08BF20EAAD
:108F2000D37070BD94F0000F0FD101F000464000E7
:108F300041EB010111F4801F08BF013CF7D041EA69
:108F4000060195F0000F18BF704703F0004652006D
:108F500043EB030313F4801F08BF013DF7D043EA3E
:108F60000603704794EA0C0F0CEA135518BF95EAF4
:108F70000C0F0CD050EA410618BF52EA4306D1D17B
:108F800081EA030101F000414FF0000070BD50EA9A
:108F9000410606BF1046194652EA430619D094EA24
:108FA0000C0F02D150EA013613D195EA0C0F05D10E
:108FB00052EA03361CBF104619460AD181EA030162
:108FC00001F0004141F0FE4141F470014FF000001A
:108FD00070BD41F0FE4141F4780170BD70B54FF0B5
:108FE000FF0C4CF4E06C1CEA11541DBF1CEA135535
:108FF00094EA0C0F95EA0C0F00F0A7F8A4EB050417
:1090000081EA030E52EA03354FEA013100F088800D
:109010004FEA03334FF0805545EA131343EA1263D6
:109020004FEA022245EA111545EA10654FEA00268B
:109030000EF000419D4208BF964244F1FD0404F544
:10904000407402D25B084FEA3202B61A65EB0305A0
:109050005B084FEA32024FF480104FF4002CB6EB5D
:10906000020E75EB030E22BFB61A754640EA0C00DD
:109070005B084FEA3202B6EB020E75EB030E22BF1D
:10908000B61A754640EA5C005B084FEA3202B6EB5E
:10909000020E75EB030E22BFB61A754640EA9C001D
:1090A0005B084FEA3202B6EB020E75EB030E22BFED
:1090B000B61A754640EADC0055EA060E18D04FEAAB
:1090C000051545EA16754FEA06164FEAC30343EA4B
:1090D00052734FEAC2025FEA1C1CC0D111F4801F18
:1090E0000BD141EA00014FF000004FF0004CB6E711
:1090F00011F4801F04BF01430020B4F1FD0C88BFB0
:10910000BCF5E06F3FF6AFAEB5EB030C04BFB6EBBA
:10911000020C5FEA500C50F1000041EB045170BDAD
:109120000EF0004E4EEA113114EB5C04C2BFD4EBDA
:109130000C0541EA045170BD41F480114FF0000E5E
:10914000013C90E645EA060E8DE60CEA135594EADA
:109150000C0F08BF95EA0C0F3FF43BAF94EA0C0FDD
:109160000AD150EA01347FF434AF95EA0C0F7FF452
:1091700025AF104619462CE795EA0C0F06D152EAA6
:1091800003353FF4FDAE1046194622E750EA41068A
:1091900018BF52EA43067FF4C5AE50EA41047FF49B
:1091A0000DAF52EA43057FF4EBAE12E74FF0FF3C00
:1091B00006E000BF4FF0010C02E000BF4FF0010CD1
:1091C0004DF804CD4FEA410C7FEA6C5C4FEA430C4A
:1091D00018BF7FEA6C5C1BD001B050EA410C0CBF99
:1091E00052EA430C91EA030F02BF90EA020F0020FB
:1091F000704710F1000F91EA030F58BF994208BF62
:1092000090422CBFD8176FEAE37040F0010070471E
:109210004FEA410C7FEA6C5C02D150EA013C07D175
:109220004FEA430C7FEA6C5CD6D152EA033CD3D0C0
:109230005DF8040B704700BF8446104662468C46BA
:109240001946634600E000BF01B5FFF7B7FF0028ED
:1092500048BF10F1000F01BD4DF808EDFFF7F4FF16
:109260000CBF012000205DF808FB00BF4DF808EDA1
:10927000FFF7EAFF34BF012000205DF808FB00BFC4
:109280004DF808EDFFF7E0FF94BF012000205DF8E6
:1092900008FB00BF4DF808EDFFF7CEFF94BF01209B
:1092A00000205DF808FB00BF4DF808EDFFF7C4FF94
:1092B00034BF012000205DF808FB00BF4FEA410CDD
:1092C0007FEA6C5C02D150EA013C0AD14FEA430CC0
:1092D0007FEA6C5C02D152EA033C02D14FF00000FD
:1092E00070474FF0010070474FEA410212F500123B
:1092F00015D211D56FF47873B3EB625212D94FEADD
:10930000C12343F0004343EA505311F0004F23FAC6
:1093100002F018BF404270474FF00000704750EA1B
:10932000013005D111F0004008BF6FF000407047D8
:109330004FF00000704700BF4A0011D212F5001232
:1093400011D20DD56FF47873B3EB62520ED44FEA9D
:10935000C12343F0004343EA505323FA02F070471D
:109360004FF00000704750EA013002D14FF0FF305B
:1093700070474FF0000070474FEA4102B2F1E043FE
:1093800024BFB3F5001CDCF1FE5C0DD901F0004CEC
:109390004FEAC0024CEA5070B2F1004F40EB83003C
:1093A00008BF20F00100704711F0804F21D113F168
:1093B0003872BCBF01F00040704741F480114FEAA1
:1093C0005252C2F11802C2F1200C10FA0CF320FA2A
:1093D00002F018BF40F001004FEAC1234FEAD32347
:1093E00003FA0CFC40EA0C0023FA02F34FEA4303B1
:1093F000CCE77FEA625307D150EA01331EBF4FF03A
:10940000FE4040F44000704701F0004040F0FE4054
:1094100040F40000704700BF002301461A4618467A
:1094200000F05CB810B501390244904201D100202F
:1094300005E0037811F8014FA34201D0181B10BDBD
:109440000130F2E70A44914200F1FF3300D1704746
:1094500010B511F8014B03F8014F9142F9D110BD3D
:1094600002440346934200D1704703F8011BF9E719
:1094700038B5104B1D68AB6B0446B3B91820FEF726
:10948000B5FB0246A86320B90B4B0C484221FEF7FE
:10949000C5FB0B490B4BC0E900130B4B83600B233F
:1094A000838100210120C2E90401AB6B00221C6111
:1094B0005A6138BD48E10320799A0B00909A0B005D
:1094C0000E33CDAB34126DE6ECDE0500034613F827
:1094D000012B002AFBD1181A013870472DE9F843F7
:1094E000DFF8B8800646D8F800001F460D469146C2
:1094F00000F056F8254B1C6834B9254C1C60254BF0
:1095000013B11B68C4F8883063681F2B07DDD8F8D7
:10951000000000F047F84FF0FF30BDE8F8834EB38D
:10952000D4F8880088B91C4B23B9D8F8000000F0A3
:1095300038F8F0E74FF48470FEF758FB0028F4D0B9
:109540000023C0E94033C4F88800636840F82390E2
:1095500001229A4000EB8301D0F800311343C0F898
:109560000031022EC1F8807002BFD0F804311343DD
:10957000C0F804316368D8F800005A1C02336260F6
:1095800044F8235000F00EF80020C6E7E8E7032077
:109590005CE7032000000000ED7B0B00ACE1032042
:1095A000704770477047000021400B005D400B0082
:1095B00085400B0089400B00000000006465666177
:1095C000756C7420004D5342004C5342003C535084
:1095D0004953657474696E67732064656661756C60
:1095E000743E003C53504953657474696E67732030
:1095F00025732575202573204D4F444525753E0064
:10960000436F756C64206E6F742066696E642041D0
:10961000533733343100436F756C646E27742066A2
:10962000696E642052544300525443206973204EA3
:109630004F542072756E6E696E672100415739353F
:109640003233206E6F7420666F756E643F204368FE
:1096500065636B20776972696E6721004157393500
:10966000323320666F756E642100646174612E630D
:1096700073760041535445503A004154494D453AA0
:10968000004741494E2028636865636B207461621E
:109690006C65293A004C454420496E74656E7369C7
:1096A00074792C446174652C54696D652C547970FF
:1096B000652C463120284261736963292C4632208B
:1096C000284261736963292C4633202842617369FB
:1096D00063292C463420284261736963292C46355E
:1096E00020284261736963292C4636202842617321
:1096F0006963292C463720284261736963292C4607
:109700003820284261736963292C436C656172209B
:10971000284261736963292C4E49522028426173A3
:109720006963292C547970652C4631202852617761
:10973000292C46322028526177292C463320285282
:109740006177292C46342028526177292C46352010
:1097500028526177292C46362028526177292C46D9
:10976000372028526177292C4638202852617729E2
:109770002C436C6561722028526177292C4E495226
:10978000202852617729004572726F72206F7065D0
:109790006E696E672066696C652100323530004C59
:1097A000454420494E54454E534954593A002028C7
:1097B000002920004572726F722072656164696EC3
:1097C0006720616C6C206368616E6E656C7321004C
:1097D0004631203431356E6D203A20002020005271
:1097E00061772056616C7565203A2000463220343E
:1097F00034356E6D203A20004633203438306E6D9B
:10980000203A20004634203531356E6D203A200054
:109810004635203535356E6D203A200046362035E8
:1098200039306E6D203A20004637203633306E6D69
:10983000203A20004638203638306E6D203A20001D
:10984000436C656172202020203A20004E4952204E
:1098500020202020203A2000424153494320434FFA
:10986000554E5453005241572056414C55455300D4
:109870000000000000000000B5410B00B3400B00E9
:10988000D1400B000000000000000000CF400B00A2
:10989000DF400B001F410B0019410B00B5400B00CE
:1098A000F9400B00F3400B00ED400B000000003FBF
:1098B0000000803F000000400000804000000041A8
:1098C0000000804100000042000080420000004390
:1098D0000000804300000044000000000000000081
:1098E000016F0B001F1C1F1E1F1E1F1F1E1F1E1F90
:1098F00000000000000000009B7C0B00917C0B002E
:10990000877C0B007D7C0B00717C0B00657C0B0061
:1099100019870B0021870B00597C0B00517C0B0031
:10992000477C0B003D7C0B0051870B000008101892
:10993000202830386E616E00696E66006F766600B2
:109940002E006170700025592D256D2D256454253C
:10995000483A254D3A2553257A0061736374696D41
:10996000650000000000000000000000B1820B0054
:10997000A1820B00A3820B00000000000000000089
:1099800097830B00FF830B00D5830B00797E0B00C0
:10999000C7830B0099830B00A9830B00F9830B008D
:1099A000B9830B0091830B00000000000000000051
:1099B000A5840B0011850B00E9840B00797E0B0058
:1099C000B9840B00D5840B00C7840B00E3840B0023
:1099D000A7840B00AB840B00000000000000000017
:1099E00049850B0093850B006B850B004B850B00A5
:1099F00073850B007B850B0083850B008B850B002B
:109A00000000000000000000BB860B00B1860B00C8
:109A1000A7860B005D860B009B860B008F860B00D4
:109A200019870B0021870B0083860B007B860B00B8
:109A300071860B0067860B0051870B000000000049
:109A400000000000D9860B00E3860B00ED860B00BA
:109A5000F7860B0001870B000D870B0019870B00A1
:109A600021870B0029870B0035870B003D870B00F2
:109A700047870B0051870B00005245454E54206D1F
:109A8000616C6C6F63207375636365656465640006
:109A90002F6D6E742F776F726B73706163652F77A4
:109AA0006F726B73706163652F4743432D31302DA7
:109AB000706970656C696E652F6A656E6B696E732F
:109AC0002D4743432D31302D706970656C696E658B
:109AD0002D34385F32303230313132345F3136300C
