:02000002B0004C
:1040000000400B00C89C0B00000006000C000502DD
:0840100004010410000000008F
:0440180020960B00E3
:1040200009480A49884208B505D0094A824202D0A7
:10403000121A05F043FA0748074A0021121A05F040
:104040004BFA014808BD00BFE8E00320D89B0B00F5
:10405000B0E10320B0E10320EDE7032070B5074E87
:10406000074C04F027F9A41BA4080025AC4200D19A
:1040700070BD56F8043B98470135F7E7849B0B0069
:10408000A89B0B0000F0C8B808B500F0E1F9BDE846
:10409000084004F0C7B803F0E5BD03F0E3BD03F04A
:1040A000E9BD0078B0FA80F0400970470123037041
:1040B00070477047037C13F008031EBFC36A406A51
:1040C0001B1A002BACBF18466FF0004070477047BA
:1040D00010B510210446FFF7E2FF204610BD10B5D1
:1040E00034210446FFF7DBFF204610BD103002F0FC
:1040F00027B9103002F045B807B501220DF10701CC
:10410000103001F090FF01280CBF9DF807004FF020
:10411000FF3003B05DF804FB103002F09BB907B527
:1041200001228DF8071010300DF1070102F092F90D
:1041300003B05DF804FB70B506460C4615462AB977
:104140000368BDE870409B68C9B2184700290BDAC4
:104150000A2A09D12D2103F0E5FE6142EAB2304678
:10416000BDE8704003F0F9BE2146F7E712B90368D5
:104170009B681847D2B203F0F0BE10B42AB90268A7
:104180005DF8044B9268C9B210475DF8044BD2B297
:1041900003F0E3BE10B50446FFF7EFFF2046BDE88D
:1041A000104003F0C2BE0EB403B503AB002153F8B8
:1041B000042B019303F0C7FF02B05DF804EB03B0DA
:1041C0007047000073B5044608462279A36832B1EF
:1041D000A3B90B4902B0BDE8704003F09FBE094A85
:1041E000267B094D0949647B012E18BF2946CDE97C
:1041F00000140749FFF7D7FF02B070BD054AEFE78B
:1042000045960B0052980B0041960B003D960B0013
:104210005B960B0034960B0070B58EB004F058F925
:104220004FF4165104F042F904F052F904F045F944
:1042300018B9012003F0CAFFF6E704F0FFFB0023E2
:10424000024639216C4802F05BFE40B904F040F9A7
:104250006A4903F076FE0A2003F0B8FFFBE73B2132
:10426000654802F025FF40F25721634802F045FF00
:104270006148032102F068FF614803F041F928B961
:1042800004F026F95F4903F05CFEFEE75C4803F0AA
:1042900039F920B904F01CF95B4903F052FE04F02F
:1042A000CDFB58210246594803F082FA40B904F088
:1042B0000FF9574903F045FE0A2003F087FFFBE79B
:1042C00004F006F95349544C03F03BFE534B4F485E
:1042D0001978032203F011FA514B019300238DF852
:1042E000083004F58C664F4B0393012501AB052282
:1042F00004F26C413046ADF8105002F0E7FBF8B123
:1043000004F23C40266002F051F82946204602F0B3
:1043100087FA04F23C45014668B13F4901F23C404E
:1043200001F07BFE60B194F83C3413F0700F1CBFB9
:104330003D4B1D6004E0204602F072FA0028ECD1EB
:1043400000234FF47A72CDE902320593374B019383
:10435000374A384944F2022305A802F02EF89DF8A6
:104360001430002B42D0344901A803F0D7FD2C2192
:1043700001A803F0D7FD204802F0D3FE0A2201462F
:1043800001A8FFF707FF2D4901A803F0C7FD2C2165
:1043900001A803F0C7FD184802F09DFE0A2201465D
:1043A00001A803F0DAFD01A803F0BFFD244901A82C
:1043B00003F0B4FD2C2101A803F0B4FD0E4802F077
:1043C000D6FE0A22014601A803F0C7FD01A803F0AA
:1043D000ACFD1C4901A803F0B4FD1B4901A803F082
:1043E000B0FD05A801F0E2FF0EB070BD04F070F85A
:1043F000164903F0B0FDF7E750E6032078960B006E
:10440000B0E603208E960B00A0960B0078E6032002
:10441000B4960B00D4960B00C0E10320BCE103204E
:10442000EC980B0080F0FA02B8E6032000990B002C
:10443000E2960B00FCE50320EB960B00F2960B00D6
:10444000F9960B0051980B000D970B00FF970B008E
:104450002DE9F04F2DED0A8BA5B04FF47A760023AD
:10446000CDE918361B935B4B5B4A5C4917931BA83D
:1044700044F2022301F0A1FF01A803F064F803F065
:1044800015FAB0FBF6F404FB160403F00FFA544BD4
:10449000B0FBF6F505FB1605B5F5FA7F1978514F17
:1044A0002ABF514B3A781A78504803F0FFF8FA20A7
:1044B00003F08CFE04F00CF84D4903F02FFD04F0DE
:1044C00007F84C4903F02AFD04F002F839680A2283
:1044D0000646FFF730FE304603F027FD03F0F8FFF5
:1044E00003F023FD03F0F4FF9DF804100A2201F508
:1044F000FA61FFF742FE03F0EBFF2F2103F012FDFC
:1045000003F0E6FF0A229DF80510FFF72FFE03F0E7
:10451000DFFF2F2103F006FD03F0DAFF0A229DF8EA
:104520000610FFF723FE03F0D3FF334903F0F6FC38
:1045300003F0CEFF064601A802F0CCFF2F4B01B2DC
:1045400001EB410103EB8101304603F0E7FC03F08E
:10455000BFFF2B4903F0E2FC03F0BAFF0A229DF8EB
:104560000710FFF703FE03F0B3FF3A2103F0DAFC74
:1045700003F0AEFF0A229DF80810FFF7F7FD03F0E5
:10458000A7FF3A2103F0CEFC03F0A2FF0A229DF818
:104590000910FFF7EBFD03F09BFF2E2103F0C2FC97
:1045A00003F096FF21460A2203F0D7FC03F090FFA8
:1045B00003F0BBFC134805A902F033FF30BB03F046
:1045C00087FF114903F0BDFC25B0BDEC0A8BBDE8A7
:1045D000F08F00BF00990B00E2960B00FCE5032072
:1045E000BCE10320E8E00320ECE0032078E60320B0
:1045F00013980B0051980B0022980B00F0E0032059
:1046000025980B0050E6032028980B0005AE0DF10D
:104610002C08DFF8F0B3C146B246FC27012F06D9BB
:10462000BAF80010584602F0B7FD89ED000A0137CC
:10463000FFB2082F0AF1020A09F10409EED103F0D2
:1046400047FFDE4903F06AFC03F042FFDDED0BCAD1
:104650000221B0EE6C0A03F067FD03F039FFD84980
:1046600003F05CFC03F034FFD64903F057FC03F081
:104670002FFF0A22BDF81410FFF78CFD03F028FF6E
:10468000D14903F04BFC03F023FF9DED0CCA02213E
:10469000B0EE4C0A03F048FD03F01AFFC84903F0DE
:1046A0003DFC03F015FFC74903F038FC03F010FF91
:1046B0000A22BDF81610FFF76DFD03F009FFC3498C
:1046C00003F02CFC03F004FFDDED0DBA0221B0EE87
:1046D0006B0A03F029FD03F0FBFEB94903F01EFC51
:1046E00003F0F6FEB74903F019FC03F0F1FE0A22CD
:1046F000BDF81810FFF74EFD03F0EAFEB44903F0D1
:104700000DFC03F0E5FE9DED0EBA0221B0EE4B0A62
:1047100003F00AFD03F0DCFEA94903F0FFFB03F000
:10472000D7FEA84903F0FAFB03F0D2FE0A22BDF837
:104730001A10FFF72FFD03F0CBFEA64903F0EEFBA6
:1047400003F0C6FEDDED11AA0221B0EE6A0A03F005
:10475000EBFC03F0BDFE9A4903F0E0FB03F0B8FE6A
:10476000984903F0DBFB03F0B3FE0A22BDF82010EA
:10477000FFF710FD03F0ACFE974903F0CFFB03F009
:10478000A7FE9DED12AA0221B0EE4A0A03F0CCFC6E
:1047900003F09EFE8A4903F0C1FB03F099FE8949AC
:1047A00003F0BCFB03F094FE0A22BDF82210FFF7D1
:1047B000F1FC03F08DFE894903F0B0FB03F088FEA5
:1047C000DDED139A0221B0EE690A03F0ADFC03F0AF
:1047D0007FFE7B4903F0A2FB03F07AFE794903F0E8
:1047E0009DFB03F075FE0A22BDF82410FFF7D2FCF2
:1047F00003F06EFE7A4903F091FB03F069FE9DED34
:10480000149A0221B0EE490A03F08EFC03F060FE18
:104810006B4903F083FB03F05BFE6A4903F07EFB08
:1048200003F056FE0A22BDF82610FFF7B3FC03F092
:104830004FFE6C4903F072FB03F04AFEDDED158A72
:104840000221B0EE680A03F06FFC03F041FE5C4900
:1048500003F064FB03F03CFE5A4903F05FFB03F0F6
:1048600037FE0A22BDF82810FFF794FC03F030FE53
:104870005D4903F053FB03F02BFE9DED168A0221E8
:10488000B0EE480A03F050FC03F022FE4C4903F05E
:1048900045FB03F01DFE4B4903F040FB03F018FEFF
:1048A0000A22BDF82A10FFF775FC03F011FE4449F7
:1048B00003F034FB03F00CFE03F037FB9DF86C3083
:1048C000002B00F0E484B5F5FA7F34BF474B484B2A
:1048D0000A22196817A8FFF72EFC2C2117A803F04D
:1048E00021FB9DF804100A2201F5FA6117A8FFF7D1
:1048F00044FC2F2117A803F015FB0A229DF8051090
:1049000017A8FFF733FC2F2117A803F00BFB0A228F
:104910009DF8061017A8FFF729FC364917A803F0E1
:10492000FDFA01A802F0D6FD334900B200EB4000C9
:1049300001EB800117A803F0F1FA304917A803F042
:10494000EDFA2C2117A803F0EDFA0A229DF80710C2
:1049500017A8FFF70BFC3A2117A803F0E3FA0A2285
:104960009DF8081017A8FFF701FC3A2117A803F0DB
:10497000D9FA0A229DF8091017A8FFF7F7FB3A2188
:1049800017A803F0CFFA0A22214617A803F0E5FA88
:104990002C2117A803F0C6FA194917A803F0BEFA8C
:1049A0002C2117A803F0BEFAB0EE6C0A022117A85A
:1049B00003F0BAFB2C2117A826E000BF44980B0097
:1049C00050980B0053980B0060980B006C980B00EC
:1049D00078980B0084980B0090980B009C980B0023
:1049E000A8980B00B4980B00C0980B00E8E00320D7
:1049F000ECE0032022980B00F0E0032025980B0048
:104A0000CC980B0050E6032003F08CFAB0EE4C0A71
:104A1000022117A803F088FB2C2117A803F082FAC3
:104A2000B0EE6B0A022117A803F07EFB2C2117A819
:104A300003F078FAB0EE4B0A022117A803F074FBDA
:104A40002C2117A803F06EFAB0EE6A0A022117A80B
:104A500003F06AFB2C2117A803F064FAB0EE4A0AAF
:104A6000022117A803F060FB2C2117A803F05AFAC3
:104A7000B0EE690A022117A803F056FB2C2117A8F3
:104A800003F050FAB0EE490A022117A803F04CFBDC
:104A90002C2117A803F046FAB0EE680A022117A8E5
:104AA00003F042FB2C2117A803F03CFAB0EE480AB1
:104AB000022117A803F038FB2C2117A803F032FAC3
:104AC000DF4917A803F02AFA2C2117A803F02AFAC5
:104AD0000A22BDF8141017A8FFF74FFB2C2117A8C6
:104AE00003F020FA0A22BDF8161017A8FFF745FBBD
:104AF0002C2117A803F016FA0A22BDF8181017A8DF
:104B0000FFF73BFB2C2117A803F00CFA0A22BDF893
:104B10001A1017A8FFF731FB2C2117A803F002FA8F
:104B20000A22BDF8201017A8FFF727FB2C2117A891
:104B300003F0F8F90A22BDF8221017A8FFF71DFBB1
:104B40002C2117A803F0EEF90A22BDF8241017A8AB
:104B5000FFF713FB2C2117A803F0E4F90A22BDF894
:104B6000261017A8FFF709FB2C2117A803F0DAF984
:104B70000A22BDF8281017A8FFF7FFFA2C2117A862
:104B800003F0D0F9BDF82A100A2217A8FFF702FB9C
:104B9000FA2003F01BFB03A802F0D5FCA94BDFF8B9
:104BA000E8921978A848B5F5FA7F96BFA74B99F80F
:104BB00000201A7802F07AFDFA2003F007FB03F0D8
:104BC00087FCA34903F0AAF903F082FCA14903F092
:104BD000A5F903F07DFCD9F800100A220746FFF77B
:104BE000AAFA384603F0A1F903F072FC03F09DF92C
:104BF00003F06EFC9DF80C100A2201F5FA61FFF734
:104C0000BCFA03F065FC2F2103F08CF903F060FC83
:104C10000A229DF80D10FFF7A9FA03F059FC2F2185
:104C200003F080F903F054FC0A229DF80E10FFF700
:104C30009DFA03F04DFC884903F070F903F048FC3D
:104C4000074603A802F046FC844B01B201EB410188
:104C500003EB8101384603F061F903F039FC804928
:104C600003F05CF903F034FC0A229DF80F10FFF703
:104C70007DFA03F02DFC3A2103F054F903F028FCEF
:104C80000A229DF81010FFF771FA03F021FC3A2177
:104C900003F048F903F01CFC0A229DF81110FFF7FD
:104CA00065FA03F015FC2E2103F03CF903F010FC2B
:104CB00021460A2203F051F903F00AFC03F035F90A
:104CC000684805A902F0ADFB00283FF478ACDFF896
:104CD0009491FC27012F05D93188484602F05CFAEF
:104CE00088ED000A0137FFB2082F06F1020608F12D
:104CF0000408EFD103F0ECFB5B4903F00FF903F07C
:104D0000E7FBDDED0BCA0221B0EE6C0A03F00CFAF2
:104D100003F0DEFB554903F001F903F0D9FB5449D8
:104D200003F0FCF803F0D4FB0A22BDF81410FFF7DF
:104D300031FA03F0CDFB4F4903F0F0F803F0C8FB64
:104D40009DED0CCA0221B0EE4C0A03F0EDF903F020
:104D5000BFFB464903F0E2F803F0BAFB444903F015
:104D6000DDF803F0B5FB0A22BDF81610FFF712FAC2
:104D700003F0AEFB404903F0D1F803F0A9FBDDEDF1
:104D80000DBA0221B0EE6B0A03F0CEF903F0A0FBDE
:104D9000364903F0C3F803F09BFB354903F0BEF836
:104DA00003F096FB0A22BDF81810FFF7F3F903F0A1
:104DB0008FFB324903F0B2F803F08AFB9DED0EBA87
:104DC0000221B0EE4B0A03F0AFF903F081FB274953
:104DD00003F0A4F803F07CFB254903F09FF803F0EF
:104DE00077FB0A22BDF81A10FFF7D4F903F070FB25
:104DF000234903F093F803F06BFBDDED11AA0221C8
:104E0000B0EE6A0A03F090F903F062FB174903F071
:104E100085F803F05DFB164903F080F803F058FBBA
:104E20000A22BDF82010FFF7B5F903F051FB154930
:104E300003F074F803F04CFB9DED12AA26E000BFCE
:104E4000D9980B00BCE1032078E60320E8E00320BA
:104E500013980B0051980B0022980B00F0E00320F0
:104E600025980B0050E6032044980B0050980B0047
:104E700053980B0060980B006C980B0078980B000F
:104E800084980B0090980B00ECE003200221B0EE18
:104E90004A0A03F049F903F01BFBD64903F03EF838
:104EA00003F016FBD44903F039F803F011FB0A2292
:104EB000BDF82210FFF76EF903F00AFBCF4903F0AB
:104EC0002DF803F005FBDDED139A0221B0EE690A1F
:104ED00003F02AF903F0FCFAC64903F01FF803F0C7
:104EE000F7FAC54903F01AF803F0F2FA0A22BDF8FE
:104EF0002410FFF74FF903F0EBFAC14903F00EF865
:104F000003F0E6FA9DED149A0221B0EE490A03F08F
:104F10000BF903F0DDFAB74903F000F803F0D8FA13
:104F2000B54902F0FBFF03F0D3FA0A22BDF82610C0
:104F3000FFF730F903F0CCFAB24902F0EFFF03F0CB
:104F4000C7FADDED158A0221B0EE680A03F0ECF82D
:104F500003F0BEFAA74902F0E1FF03F0B9FAA6494F
:104F600002F0DCFF03F0B4FA0A22BDF82810FFF7C4
:104F700011F903F0ADFAA44902F0D0FF03F0A8FA4A
:104F80009DED168A0221B0EE480A03F0CDF803F039
:104F90009FFA984902F0C2FF03F09AFA964902F08C
:104FA000BDFF03F095FA0A22BDF82A10FFF7F2F8C8
:104FB00003F08EFA8F4902F0B1FF03F089FA02F094
:104FC000B4FF9DF86C30002B00F06781B5F5FA7FD7
:104FD00034BF8E4B8E4B0A22196817A8FFF7ABF827
:104FE0002C2117A802F09EFF9DF80C100A2201F553
:104FF000FA6117A8FFF7C1F82F2117A802F092FF56
:105000000A229DF80D1017A8FFF7B0F82F2117A856
:1050100002F088FF0A229DF80E1017A8FFF7A6F8E5
:105020007C4917A802F07AFF03A802F053FA7A49E4
:1050300000B200EB400001EB800117A802F06EFF08
:10504000764917A802F06AFF2C2117A802F06AFF20
:105050000A229DF80F1017A8FFF788F83A2117A821
:1050600002F060FF0A229DF8101017A8FFF77EF8E3
:105070003A2117A802F056FF0A229DF8111017A82E
:10508000FFF774F83A2117A802F04CFF0A222146D4
:1050900017A802F062FF2C2117A802F043FF604915
:1050A00017A802F03BFF2C2117A802F03BFFB0EE3F
:1050B0006C0A022117A803F037F82C2117A802F078
:1050C00031FFB0EE4C0A022117A803F02DF82C2175
:1050D00017A802F027FFB0EE6B0A022117A803F011
:1050E00023F82C2117A802F01DFFB0EE4B0A022175
:1050F00017A803F019F82C2117A802F013FFB0EE3F
:105100006A0A022117A803F00FF82C2117A802F051
:1051100009FFB0EE4A0A022117A803F005F82C2176
:1051200017A802F0FFFEB0EE690A022117A802F0EC
:10513000FBFF2C2117A802F0F5FEB0EE490A022170
:1051400017A802F0F1FF2C2117A802F0EBFEB0EE39
:10515000680A022117A802F0E7FF2C2117A802F025
:10516000E1FEB0EE480A022117A802F0DDFF2C2173
:1051700017A802F0D7FE2B4917A802F0CFFE2C216A
:1051800017A802F0CFFE0A22BDF8141017A8FEF7E8
:10519000F4FF2C2117A802F0C5FE0A22BDF8161054
:1051A00017A8FEF7EAFF2C2117A802F0BBFE0A227F
:1051B000BDF8181017A8FEF7E0FF2C2117A802F081
:1051C000B1FE0A22BDF81A1017A8FEF7D6FF2C214F
:1051D00017A802F0A7FE0A22BDF8201017A8FEF7B4
:1051E000CCFF2C2117A802F09DFE0A22BDF8221048
:1051F0001AE000BF50980B0053980B009C980B00CE
:10520000A8980B00B4980B00C0980B00E8E00320AE
:10521000ECE0032022980B00F0E0032025980B001F
:10522000CC980B00D9980B0017A8FEF7A6FF2C21ED
:1052300017A802F077FE0A22BDF8241017A8FEF77F
:105240009CFF2C2117A802F06DFE0A22BDF8261043
:1052500017A8FEF792FF2C2117A802F063FE0A227E
:10526000BDF8281017A8FEF788FF2C2117A802F018
:1052700059FE17A8BDF82A100A22FEF78BFF1BA8BB
:1052800001F094F8FA2002F0A1FFFFF79DB903F0B6
:105290001FF9054902F05FFE7AE403F019F90249AB
:1052A00002F059FEEEE700BFFF970B0037B5244828
:1052B000244C254D01F01CFE244802F0BAF9244A82
:1052C00000234FF47A71C2E9013122491361116060
:1052D0006422C4F86024204AC4F870240122636068
:1052E000C4F83C34C4F8683484F87424C4F87834BE
:1052F000A4F87C342978BFF35B8F11400BD128468A
:105300000191FEF7CEFE019928B1144802F016FD76
:105310002846FEF7CBFE114BC4F86C340021012067
:1053200002F014FC0E4B0022C3E900220220A2F579
:1053300080329A6003B0BDE8304002F0F7BB00BF96
:1053400050E60320C0E10320B0E1032078E603200B
:105350007CE6032000990B00EC980B00B4E10320DD
:1053600044E6032030B50025C0E9001542819DF8D0
:1053700010109DF80C20456141738273037330BD9A
:10538000F0B54589847A85B0034600688DF80C40F5
:105390002D0A0E4617468DF80D5040B15B7B0193E8
:1053A00003AB0093012300F02CFA05B0F0BD586860
:1053B0000028FAD093F808E093F80DC0BEF1030F6F
:1053C0000CD10CF1010325F0010500938DF80C5070
:1053D0008DF80D4003AB00F0A3F9E6E7BEF1000F36
:1053E00009D104F07F048DF80C40CDF800C003AB68
:1053F0003A463146EFE7BEF1020F02D164F07F0476
:10540000F1E7BEF1010F01BF9DF80C3003F07F03FF
:1054100043F040038DF80C30E7E7F0B40B4602B9D7
:10542000027B042A14D800F10F0543618418294631
:10543000844209D0877BDEB227B92E701B0A013562
:10544000013CF5E7A673F9E72046F0BCFFF798BFEB
:105450000020F0BC70477FB54689857A8DF80C50E6
:1054600004460068360A0B468DF80D6040B10021F5
:10547000CDE9002103A9627B00F031FA04B070BDD0
:1054800060680028FAD0217A647B03290DD146F0A8
:105490000106FF21CDE900218DF80C608DF80D503B
:1054A000621C03A900F05EF9E8E741B965F07F05E9
:1054B0008DF80C50FF21CDE900212246F1E70229A9
:1054C00002D105F07F05F3E7012902BF9DF80C101A
:1054D00061F03F018DF80C10ECE738B500F10F05D5
:1054E000027B29460446FFF7B6FF78B1227B2946A6
:1054F00022440020A2420BD00302A07B20B9907B63
:105500001843013A0131F5E70878F9E74FF0FF3029
:1055100038BD10B501600271437110BD10B504466D
:105520000068FFF7DAFF2279012393406279013B9B
:10553000D040184010BD70B5044600680E46FFF715
:10554000CCFF2379617901229A40531E03FA01F5B9
:1055500020EA05053340206803FA01F12943027B64
:10556000BDE87040FFF759BF2DE9F04F04460068D1
:1055700085B00D4640B10023009313460A4602F061
:1055800089FC05B0BDE8F08F237BA068484FB7FBCE
:10559000F0F7002B0B780CBF4FF0010B4FF0800B96
:1055A0001BEA030F01EB02030CBF4FF001094FF0A0
:1055B0000009FFB20393039BAB42E2D095F800A031
:1055C0005E464FF0000817B1384602F05FF9637B82
:1055D00013F0FD0F41D194F910305A1C0FD01AEA84
:1055E000060114BF012300234B4508D06369606A9C
:1055F0001A6800292CD002431A604FF00109A169F2
:10560000E36A0A6813430B6017B1384602F03EF9AB
:1056100094F91130013306D0E3691A68A36A1A427B
:1056200018BF46EA0808A169E36A0A6822EA030388
:105630000B6094F91130013318BF85F80080237B8B
:10564000002B32D17600F6B2002EBCD10135B2E784
:1056500022EA00021A608946D1E7A169E36A0A6872
:1056600013430B6017B1384602F010F994F910306B
:10567000013308D06369616A1A681AEA060F14BF19
:105680000A438A431A60A169E36A0A6822EA0303AB
:105690000B6094F911300133CBD0E3691A68A36A27
:1056A0001A4218BF46EA0808C3E77608CCE700BFED
:1056B00020A1070007B501228DF807100DF10701A1
:1056C000FFF752FF9DF8070003B05DF804FB036885
:1056D0001BB14168184602F069BB7047006808B109
:1056E00002F04ABB704790F90E00431C03D0C9B2C8
:1056F00080B203F02EB9704710B50446FFF7E7FFFC
:1057000020460021BDE81040FFF7EDBF10B5012194
:105710000446FFF7E8FF2046BDE81040FFF7DEBF74
:105720002DE9F0411C4606460D461746FFF7E4FFFB
:10573000069B04EB0308444508D12F44BD420BD01F
:1057400015F8011B3046FFF7B5FFF7E714F8011B0A
:105750003046FFF7AFFFEEE73046FFF7D7FF0120F7
:10576000BDE8F0812DE9F0410D4617469DF81C80FB
:1057700006461C46FFF7C0FF2F44BD420AD1069BD8
:10578000E518AC420CD041463046FFF793FF04F8D1
:10579000010BF6E715F8011B3046FFF78BFFECE72E
:1057A0003046FFF7B3FF0120BDE8F08142600022E0
:1057B000027220220170C260704710B5037A04465D
:1057C00053B12178606802F077FF606802F07FFFD4
:1057D000B0FA80F0400910BD012100F003F8002864
:1057E000EFD1F8E738B5044640680D4602F032FFC5
:1057F0000120207225B12046BDE83840FFF7DDBF0B
:1058000038BD2DE9F843DDE908961F46C368154603
:1058100032449A420446884602D90020BDE8F88303
:105820000178406802F048FF7EB9606803682A4644
:10583000DB68414698478542EFD16068394602F0FF
:1058400042FFB0FA80F04009E8E7B9F1000FECD070
:10585000606803683246DB68494698478642DCD177
:10586000E3E72DE9F041154604460E46D2B2017831
:10587000406802F00CFF85420DD100271FFA87F81F
:10588000A84507F1010709D2606803685B6998477A
:1058900006F80800F2E70020BDE8F0810120FBE7F0
:1058A0002DE9F84307468846164699460025B54235
:1058B00012D2FA68741B944228BF1446331BAB42C1
:1058C00094BF4B460023224608EB05013846FFF7FC
:1058D000C8FF10B12544EAE70120BDE8F88373B59D
:1058E0001D460023CDE900339DF81C30069E04467A
:1058F000FFF787FF40B1012332462946204602B018
:10590000BDE87040FFF7CCBF02B070BD042904D8D9
:1059100000EB4100B0F8010070470A299BBF01F17C
:10592000FF3100EB41000131C08884BF00EB410032
:105930008088704710B50446243000F063FE28B11B
:1059400004F50C70BDE8104000F05CBE10BD411EB7
:1059500000F10A030020420842EAC01011F8012FAA
:1059600052FA80F08B42C0B2F5D170472DE9F04772
:10597000064610F8013B202BFAD06A4D8E600024B9
:10598000335DC3B12F2B16D05C2B02D10020BDE8B4
:10599000F087A3F12200C0B21D2803D825FA00F039
:1059A000C007F3D403F0BF003C28EFD0203B5E2BB0
:1059B000ECD80134E4E733191846074610F8015BC8
:1059C000202DFAD02F2DF8D017604CB113F8012DEF
:1059D0002E2A01D0202A01D1013CF6E7FF2CD5DC8C
:1059E0004FF02033C1F811304C60C1F80D304B61DD
:1059F0004FF0000816F808302E2B01D0202B02D1D2
:105A000008F10108F6E7B8FA88F04009651E6B1C3A
:105A100002D0735D2E2B14D14FF0000907274A46A0
:105A2000CA464FF0080EA04568DA16F80830202B59
:105A300003D02E2B07D1A84512D0002008F1010871
:105A4000F1E7013DE3E7222B08D07C2B06D0A3F140
:105A50002A0CBCF1050F0AD82D2B12D0A8455BD11A
:105A60000A2F4AD00A2708224FF0100EE6E7A3F1CA
:105A70003A0CBCF1050FF1D9A3F15B0CBCF1020F9C
:105A8000ECD9A3F1210CBCF15D0FE7D8A845E7D014
:105A9000BA4230D8A3F1610CBCF1190F1AD8203BDF
:105AA0004EEA0909DBB25FFA89F902F1010C5FFAEB
:105AB0008CFC0A44BCF1060F537301D881F80CC06A
:105AC0006246BBE7A84518DCA8460A2708224FF023
:105AD000100EB2E7A3F1410CBCF1190F98BF4EEACA
:105AE0000A0AE2E70B7B0120087019447E234B73FE
:105AF00031238B734BE70A2FE4D100204B7B202B03
:105B00003FF444AF0028EDD01AEA090F18BF4FF058
:105B1000020981F800903AE7BA42ECD800205F23EE
:105B2000C3E700BF010100312DE9F84391F80C9063
:105B300006460C4602257E2701F10D086168A26821
:105B40006B189BB21144914206D012F8010B03EB83
:105B5000431343409BB2F6E7B9F1030F28BF4FF060
:105B6000030909F10402D2B203F00F01A018013AAF
:105B70000929D2B294BF30313731914541734FEA90
:105B80001313F1D104EB090300215F73304600F0D9
:105B90002AFB0121304600F007FB014628B9707846
:105BA000B0FA80F04009BDE8F88303786BB1C37A9E
:105BB0001B07EED40B22404603F070FC0028E8D10E
:105BC0000135ADB2642DB9D1EDE70120EBE700005E
:105BD0002DE9F04F2DED028B8BB00D4606930B781F
:105BE000079013F0700F174605D100200BB0BDECE5
:105BF000028BBDE8F08F079B1B78002BF5D1536813
:105C0000059313789C071FBF059B0C330D22B3FB34
:105C1000F2F31ABF0133DBB20123002128460393BC
:105C200000F0E1FA07F10D034FF0000B08EE103A17
:105C3000DA465C465E46CDF810B0D9466B69012164
:105C40002846C3F34F1800F0AFFA0346002871D17D
:105C50006B78002BC9D1069B9A05C6D503F00303C8
:105C6000013B012BC1D8049B002C08BF4346049381
:105C7000039B9C42C0F0F180B9F1000F40F00A8113
:105C8000049B2846590100F0AEFA0028ADD0039BD2
:105C900003F1FF395FFA89F94E464FF0000A4FF0E1
:105CA0000F08002E00F00D810021284600F07CFA3C
:105CB0000446002899D0AA6892F824304E4543F053
:105CC00001030CBF46F0400BB34682F8243080F845
:105CD00000B080F80B8080F80CA007F10D00FFF7F2
:105CE00036FE84F81AA0607384F81BA00BF01F0323
:105CF0000D22013BD7F808C0534300220599994271
:105D000040F2D0801CF80310042A5FFA82FE02F1F0
:105D1000010000F2CD8004EB4202A2F801100D2830
:105D200003F101030246E9D1013EF6B2B9E74FF0B3
:105D3000010983E70278E52A00D07AB90499002C9A
:105D400008BF4146049103998C423CBF0134E4B240
:105D5000002A80D0E52A05D100266FE703998C42FE
:105D600038BF00242E2AF7D0D97A0F294AD116BB82
:105D700012F040063FF462AF02F01F0693F80DB038
:105D8000B2460D220AF1FF3802FB08F8059A424597
:105D9000E2D9A2EB08020892002202EB0801099165
:105DA0001846D1B2FFF7B2FD08998A420DD10028FA
:105DB00018BF002642E70AF1FF3A5FFA8AFA524515
:105DC000CAD15A7B5A45DCD0C6E7FF28C4D85FFA4F
:105DD00080FEAEF141011929B9689CBF0EF1200087
:105DE0005FFA80FE08460999415CA1F1410CBCF1C3
:105DF000190F9CBF2031C9B27145ADD101320D2AB6
:105E0000CBD11BE70807A7D45EB1BAF1010F7FF42D
:105E1000ECAE1846FFF79BFD58457FF4E6AEB14661
:105E20000EE018EE101A0B22184603F037FB00287C
:105E30007FF404AF97F8009019F001097FF477AF71
:105E4000069B19053FF5D1AE069B0798CDF800904B
:105E50004246294600F00AFAC8E60021284600F02A
:105E6000A3F9A0B96B78002B7FF4BFAE284600F0F1
:105E700087F800283FF4B9AEAB681B79012B3FF6D9
:105E8000FBAE039B1034E4B2A342EFD8F4E6013436
:105E9000E4B2EDE639462846FFF746FE00287FF4D7
:105EA000EFAEA2E614BF4FF0FF31002189B22BE71D
:105EB000BEF10A0F94BF04EB420204EB4002918052
:105EC0002DE731462846D5F8148000F06DF90446D8
:105ED00000283FF48AAE2022314603F0FDFAD7F8BD
:105EE0000D302360D7F811306360B7F81530238187
:105EF000FB7DA3723B7803F0180323730F4B1B68E1
:105F00009BB104F10E0104F110009847238A6382CB
:105F10002383E389E382AA6892F8243043F00103E3
:105F2000C8F34F1882F824308EE7212323742823E6
:105F300063740823A673E373E8E700BFB4E60320A5
:105F400038B504460D462422002103F0C5FAA560A9
:105F5000EB79102B03D0202B06D0002038BD202356
:105F600001202370A070F9E74023F9E783780169E5
:105F700043F00403837000F11002806800F0F8BB66
:105F80002DE9F041017811F02005044603D00026E8
:105F90003046BDE8F0814269174B9A42F7D2FFF7CD
:105FA000E5FF06460028F2D02169A06800F075FBE5
:105FB0000746A06805223946243000F04BFB804696
:105FC0000028E4D029464FF4007203F085FA012539
:105FD000A3681A79AA4209D918684246E91900F05B
:105FE000A6FE0028D3D00135EDB2F1E7636903EBDB
:105FF00042236361CCE700BF00FE1F0010B50446DA
:1060000080680A462430A16900F024FB20B1A388EF
:1060100003F00F0300EB431010BD03780BB9FFF73B
:106020008FBF002070472DE9F74F0378044688465C
:106030001546002B5DD08278D1075AD51A072DD589
:10604000C36942699B1A9D4228BF1D462E464FF0E8
:10605000000904F1100B002E00F08F802278636994
:10606000A0689706C3F3080A4FEA53211FD5006AB8
:106070000144A068BAF1000F42D1B6F5007F3FD3CA
:10608000C36A99423CD0B6F5806F52D2006842464E
:1060900000F0C4FD68B34FF4007744E09B06D5D50B
:1060A00083681A894369C3EB42139BB2CBE790F82C
:1060B000059009EA0109BAF1000F08D1B9F1000F02
:1060C00005D15BB951064CBF036A236A236121697C
:1060D000A06800F0E2FA09EB0001CAE721695A461C
:1060E00000F0E1FA002804DBF1D1237813F0700FFF
:1060F00043D1637843F0020363704FF0FF303DE01B
:10610000CAF50077B7424FF0000200F1240028BF23
:10611000374600F09FFA0028EBD000EB0A013A4620
:10612000404603F0CBF963693B44B8446361F61B16
:1061300091E7227892064FEA562A06D40279A2EB1A
:106140000902D2B2924528BF924699424FEA4A27A5
:1061500008D2A06853460068424600F0A7FD002818
:10616000E1D1C6E753448B42F3D92430019100F0CA
:1061700049FA01990028ECD1BBE7A81B03B0BDE8A0
:10618000F08F73B501220DF10701D0E904560446E2
:10619000FFF749FF01280ABF9DF807004FF0FF30C5
:1061A000C4E9045602B070BD37B5436913F4F07FFB
:1061B0000446C3F3431500D099B901220DF107013C
:1061C0002046FFF730FF40B2012802D0002003B084
:1061D00030BD63691F33A0686361303000EB451048
:1061E000F5E72033F7E72DE9F04102780769044627
:1061F0000D4662B14069884202D019B921616561DA
:10620000012006E0160706D5E3698B420BD2276111
:106210000020BDE8F081910605D5A3681B89B5EB88
:10622000431FECD9F3E7D4F808C09CF80660431E7E
:1062300006F109016E1ECB40CE40B34200D898B99A
:1062400053064CBFDCF82030236A236104F11008A8
:10625000002ED4D02169A068424600F024FA00281C
:1062600006F1FF36F4DCD2E7F61AEFE7F8B50F4691
:1062700004461546002124221E4603F02DF9B86875
:10628000A060A58005F00F053B6AE3606A0100EBA2
:10629000451595F83B301F0744D403F017032370CE
:1062A00095F83B1011F0180F04BF43F0080323705A
:1062B0009DF81830E37006F00303012B2CD0022B5D
:1062C00028D07BBB71052DD40123A370A1788B0747
:1062D00004D52378DF0625D4DD0723D4B31123F0BA
:1062E0007F0306F008052B430B43A370C36AA36129
:1062F0008318B3F84420B3F84A1041EA024172050A
:1063000013D559B9A37843F00403A370730410D4D0
:106310000120F8BD0323D8E70223D6E700F063FA93
:106320000028EFD100202070F3E72162DB6CE361ED
:10633000ECE7E1692046FFF756FF0028E8D1F1E7D6
:1063400038B5037804460BB9012038BD83785A0765
:1063500023D50121FFF752FE054628B9637843F0A3
:10636000010363700020F0E70378E52BF6D0237873
:106370001B0744BFE369C361236A4383638C838241
:10638000094B1B682BB100F11601183098472B8B75
:106390006B82A37823F00403A370A068FFF7CAFA06
:1063A0000028DBD0D0E700BFB4E6032010B50446D8
:1063B000FFF7C6FF0023237010BDF0B593B01F4652
:1063C000002309930378019206460C4613B100207E
:1063D00013B0F0BD0B7813F0700FF8D013782F2B9B
:1063E00012D1019A13782F2B02D101320192F8E7D2
:1063F000A1681BB93046FFF710FEE9E709A8FFF7CF
:106400009FFD0028E3D009AC019801AA03A9FFF77A
:10641000ADFA0028DBD0019B1B789BB1002303AAB7
:1064200021463046FFF7D4FB0028D0D035460FCDAB
:1064300009AC0FC40FCD0FC42B6823603046FFF7A3
:10644000B5FFE0E73B4603AA21463046FFF7C0FB15
:10645000BEE700002DE9F047037889461907044696
:1064600017465BD583789A0758D51B0751D46369C3
:10647000DB43BB4252D3B84604F1100A6669B8F157
:10648000000F00F09180A0684379C6F3080513EA75
:1064900056260ED16DB92169002946D0524600F02A
:1064A00002F900283ADB04D12046FFF75FFD0028FF
:1064B00034D02169A06800F0F0F83118A06815B94F
:1064C000B8F5007F3FD2C5F50076464528BF464661
:1064D000002D36D16269E3699A4234BF0122052258
:1064E000243000F0B7F8C8B1284432464946354454
:1064F00002F0E4FFB5F5007F04D1A068243000F07D
:1065000081F858B1636933446361B144A8EB06086C
:10651000B4E7C169FFF767FE0028A8D1637843F0AC
:10652000010363704FF0FF3050E0236A3BB920460F
:10653000FFF71CFD0028F1D023692362B9E723612E
:10654000B7E70122CCE7B8F5806FC26A1BD390F899
:1065500004C0ACEB0606F3B24FEA582E734528BFD1
:10656000734691424FEA432607D31A448A4282BFB8
:106570004FF0FF3280F82450C262A5684A4628686E
:1065800000F04BFCBDE7914202BF4FF0FF3380F8B3
:106590002450C362A3684A46186800F0C8FB00286C
:1065A000BCD04FF40076ADE7E269A378B24204D2E2
:1065B000E66143F00403A37003E0084A1268002A6E
:1065C000F7D194F90230002B02DB3846BDE8F087A2
:1065D0002046FFF7B5FE0028F7D19FE7B4E6032079
:1065E00013B50446084659B1019102F0ABFF236888
:1065F0000199DB680246204602B0BDE8104018470A
:1066000002B010BD37B50378DA07044620D54368D9
:10661000816800F10C021868019200F088FB019A71
:10662000054618B90025284603B030BD23789B07DE
:1066300004D4237823F001032370F4E7D4E9013074
:1066400019690144186800F072FB0028F1D1E9E7EC
:106650000125E8E770B583688B4204460E4615466F
:1066600009D0FFF7CFFF08B9002070BD6B070AD52E
:1066700000232370A660227805F003052046154309
:1066800000F80C5BF1E7636804F10C02186831460E
:1066900000F0C4FA0028EBD1E6E7837940690239BB
:1066A000994008447047012970B505460C461646C6
:1066B00002D84FF0FF3070BDC3698B42F9D3C37964
:1066C000202B16D18169022201EBD41100F50C7048
:1066D000FFF7C0FF0028ECD004F07F0450F824300E
:1066E00023F07043EA699A4226BF336001200020FC
:1066F000E1E7102BDDD1C1F30723816902221944A0
:1067000000F50C70FFF7A6FF0028D2D0E4B230F8F5
:106710001430E7E7012938B50C46154601D80020AA
:1067200038BDC3698B42FAD3C379202B0FD181695D
:10673000032201EBD41100F50C70FFF78BFF00284A
:10674000EDD004F07F0440F824500120E8E7102B3E
:10675000E5D1C1F3072381690322194400F50C70C8
:10676000FFF778FF0028DAD0E4B220F81450ECE705
:106770002DE9F341C4688C4205460E46904601D38C
:10678000012701E00C460027EB690134A34202D245
:10679000C7B9EC68F4E7A64214D001AA21462846FE
:1067A000FFF781FF00280DDBEED0019B002BEBD122
:1067B00007B1EC606FF0704221462846FFF7AAFF50
:1067C000074620B90027384602B0BDE8F08116B967
:1067D000C8F80040F7E7224631462846FFF79AFFFF
:1067E0000028F5D1EEE773B505460C4601AA21460F
:1067F0002846FFF758FF061E10DB002221462846D8
:10680000FFF788FF50B1EB68A34224BF04F1FF34C7
:10681000EC60019C002EE9D102B070BD0020FBE7C6
:10682000012370B50022C3604FF0FF330446C271EC
:1068300000F12406806280F82420C362C0F834028C
:1068400080F83022C0F838320D46B9B1042901D998
:10685000002070BD11463046FFF7FCFE0028F7D03F
:1068600000EB051393F8AE315B06F1D105F11B0186
:1068700000EB0110D0F80650002DE9D00022294687
:106880003046FFF7E7FE0028E2D0B0F80B30B3F552
:10689000007FDDD1037C022BDAD1C389002BD7D056
:1068A000417B21714B1E63710023A37109260123D3
:1068B000994207D0013ECBD0A2795B000132DBB216
:1068C000A271F5E7C18A01B9416A2161C3892B44EC
:1068D000A361B0F81120228103EB41032362B0F8D9
:1068E0001110490101F2FF1103EB51236361B0F86C
:1068F000132002B9026AE91AA3791144D9404B1C4A
:10690000E36140F6F473994202D80C23E3719FE7E8
:106910004FF6F473994285BFC36A23621023202384
:10692000E371012095E700F0CBBA00F0AEBA0000A9
:1069300070B50E4E0D46144600F0B0FF3368C01A15
:106940000B4B984208D900F0B1FF0A4B186001F0D8
:1069500079F900F0A3FF306000F0A8FF80B2401B7F
:10696000A042D4BF0020012070BD00BFBCE60320C0
:10697000A086010040E7032038B5057A04464DB9EA
:10698000406800F06BFA63682946187D01F0E1FF6A
:106990000123237238BD10B5037A04466BB14368F6
:1069A0000121187D01F0D5FF6068FF21FFF7BBFFD3
:1069B000606800F067FA0023237210BDF8B5044642
:1069C0000D46164600F072FF87B26068FFF7ADFF14
:1069D000FF2860720ED14FF47A7239462046FFF7D5
:1069E000A7FF0028F1D0552320462370FFF7D3FFDF
:1069F0000020F8BDFE2801D05023F5E7606832463C
:106A0000294600F047FA607208B16023ECE760683D
:106A1000FFF78BFF6068FFF788FF0120E9E770B59B
:106A200004460E4600F042FF85B232462946204613
:106A3000FFF77EFF30B96068FFF777FFFF28F4D1DA
:106A4000012070BD0020FCE7F7B5037A01920446EF
:106A50000D460BB9FFF790FF25B14FF49671204614
:106A6000FFF7DDFF606845F04001FFF75CFF03269C
:106A700001AFB95D6068FFF756FF013EF9D2002D06
:106A800060680CBF95218721FFF74DFF6068FFF715
:106A90004CFF0B256068FFF748FF0306607203D5C3
:106AA000013D15F0FF05F5D103B0F0BD70B504460A
:106AB0000D46164637210022FFF7C6FF324629460B
:106AC0002046BDE87040FFF7BFBF00002DE9F04150
:106AD00000250572057085724160044690461E4689
:106AE00000F0E4FE41460746606800F0BBF96368C9
:106AF000494A1D720125DA601D822046FFF73CFFDE
:106B000063682946187D01F024FF0A256068FF218B
:106B1000013DFFF708FF15F0FF05F7D1636829462F
:106B2000187D01F016FF0A25002211462046FFF7C6
:106B30008BFF0128804618D0013D15F0FF0507D1D5
:106B4000202320462370FFF726FF0020BDE8F081B8
:106B50006068FD21FFF7E7FE4FF402786068FFF7F9
:106B6000E4FEB8F10108F9D1DEE74FF4D57208214F
:106B70002046FFF769FF052814D184F80A80002514
:106B8000BFB22A4629212046FFF790FF0246D8B11E
:106B90004FF4FA6239462046FFF7CAFE0028F0D0CB
:106BA0004323CEE704256068FFF7BFFE013D15F0E3
:106BB000FF056072F7D1AA2804D10223A3724FF017
:106BC0008045DDE72523BCE7A37A022B18D13A21C3
:106BD0002046FFF739FF08B13723B2E76068FFF7B7
:106BE000A4FE00F0C000C02804BF0323A3726068A5
:106BF000FFF79BFE6068FFF798FE6068FFF795FE61
:106C00002046FFF7C8FE63683079B168B2891A82FE
:106C10001872D960012099E790D0030038B5837AC3
:106C2000032B18BF490215460A4611210446FFF7F7
:106C30000BFF30B1302323702046FFF7ACFE002558
:106C40000BE029464FF400722046FFF7B7FE0546D9
:106C50000028F1D02046FFF79EFE284638BD10B52B
:106C6000837A032B0A4618BF4A0212210446FFF713
:106C7000EBFE30B1312320462370FFF78CFE00205D
:106C800010BD0120FCE710B500220C210446FFF7DF
:106C9000DBFE30B1282320462370FFF77CFE002066
:106CA00010BD2046FFF777FE0120F9E7F8B504464E
:106CB00016461F46FFF7D3FF68B10025ABB29F42CF
:106CC00006EB452109D94FF400722046FFF776FE06
:106CD00001350028F2D10020F8BD2046BDE8F8407B
:106CE000FFF7D1BF38B5044615464068FFF71BFED5
:106CF0004FF400726068294600F0E6F86068FF21F2
:106D0000FFF711FE6068FF21FFF70DFE6068FFF7D7
:106D10000CFE607200F01F00052806D057232046A5
:106D20002370FFF738FE002038BD0120FCE770B566
:106D3000837A032B18BF490215460A4618210446D8
:106D4000FFF782FE064630B1322323702046FFF75C
:106D500022FE00251FE02A46FE212046FFF7C2FF43
:106D60000028F3D04FF4FA612046FFF758FE05469D
:106D700008B95A23E9E732460D212046FFF764FEA1
:106D800008B12923E1E76068FFF7CFFD0028F8D1BB
:106D90002046FFF700FE284670BD13B501914FF461
:106DA000FA610446FFF73BFE019A30B95B2323707A
:106DB0002046FFF7F0FD002005E0FC212046FFF70C
:106DC00091FF0028F4D002B010BD10B5837A032BD8
:106DD0000A4618BF4A0219210446FFF735FE30B1B2
:106DE000332320462370FFF7D6FD002010BD01207D
:106DF000FCE738B54FF4FA610446FFF710FE05468C
:106E000030B9562323702046FFF7C5FD284638BD0C
:106E10006068FD21FFF787FDF5E7F8B504461646E3
:106E20001F46FFF7D2FF70B10025BD4206EB45219A
:106E3000204604D0FFF7B1FF28B10135F5E7BDE8E2
:106E4000F840FFF7D6BF2046FFF7A5FD0020F8BDAC
:106E5000014B01221A707047C0E60320011D006833
:106E600000F0A4BF10B504460175006800F070FF83
:106E7000207D012101F05CFD207D0121BDE8104055
:106E800001F067BD006800F077BF0068FF2100F0E7
:106E9000FBBF000037B51346074A00920025074C98
:106EA000006825700A46294600F0F4FF2378002B7D
:106EB000FCD0002003B030BD516E0B00C0E60320B3
:106EC000006800F0E1BF000037B51346064A0092A3
:106ED0000025064C006825702A4600F0DBFF237869
:106EE000002BFCD003B030BD516E0B00C0E6032078
:106EF000024A0260002202718260704754990B00BE
:106F00002DE9F041044680680F4690461E4610B1B8
:106F10001021FDF7C4F81020FDF7BDF8054618B1A3
:106F200042463946FEF742FCA56001212846FEF79D
:106F300059FC30B12368314620461B68BDE8F0415A
:106F40001847BDE8F08170B501258AB00026CDE96B
:106F500000650C462B468168802204A8FEF702FAE1
:106F600033462A4604A902A8FEF7D3FA214602A80E
:106F7000FEF7E1FA0AB070BD70B5012588B00024B3
:106F8000CDE900452B4681689222064602A8FEF70D
:106F9000E9F902A8FEF7A1FAC30706D4304629464C
:106FA000FFF7D1FF284608B070BD2046FBE710B5BB
:106FB00001238AB00022CDE900230C46802281689B
:106FC00004A8FEF7CFF901231A4604A902A8FEF788
:106FD000A0FA214602A8FEF7AEFA0AB010BD30B5FD
:106FE00001258BB00024CDE900452B468168802225
:106FF00004A8FEF7B7F92A46042304A902A8FEF75D
:1070000088FA294602A8FEF796FA054602A8FEF776
:1070100085FA38B1B4F57A7F0BD0012001F0D6F8AB
:107020000134F3E7B4F57A7F08BF002528460BB09A
:1070300030BD0025FAE710B501238AB00022CDE962
:1070400000230C46AF22816804A8FEF78BF90323C6
:10705000022204A902A8FEF75CFA214602A8FEF764
:107060006AFA0AB010BD10B500238AB00124CDE938
:107070000034A3228168234604A8FEF773F906238F
:10708000224604A902A8FEF744FA02A8FEF746FA2F
:10709000003818BF01200AB010BD10B504462046C4
:1070A000FFF7E1FF18B9012001F090F8F7E710BDF4
:1070B00030B5012389B00025CDE900530C4681226B
:1070C000816802A8FEF74EF92A46214602A8FEF77B
:1070D000A4F909B030BD00B5012389B00022CDE983
:1070E00000238122816802A8FEF73CF902A8FEF77E
:1070F000F4F9C0B209B05DF804FB30B5012389B0E2
:107100000025CDE900530C4602238168CA2202A85B
:10711000FEF728F92A46214602A8FEF77EF909B0B3
:1071200030BD00B5002389B00122CDE90032022331
:107130008168CA2202A8FEF715F902A8FEF7CDF968
:1071400080B209B05DF804FB30B5012389B0002599
:10715000CDE900530C46AA22816802A8FEF702F985
:107160002A46214602A8FEF758F909B030BD00B5FD
:10717000012389B00022CDE90023AA22816802A858
:10718000FEF7F0F802A8FEF7A8F9C0B209B05DF862
:1071900004FB000000000000F8B52DED028B0D4649
:1071A0000446FFF7E4FF0A2897BF1F4BDFED1F8A55
:1071B00003EB8000D0ED008A2046FFF78CFF431CD4
:1071C000204608EE103AFFF7ACFF0446013428468B
:1071D00001F0ACFDB8EEC88A07EE904A28EE288A86
:1071E000F8EEE77A064667EE887A0F4617EE900AC1
:1071F00001F0AEFD0AA3D3E9002301F001FE0C4B20
:10720000002201F027FF02460B463046394601F0C6
:1072100021FF02F0EDF8BDEC028B00EE100AF8BD84
:107220003D0AD7A3703D064020990B0000000000E6
:1072300000408F4030B5012389B00025CDE90053CF
:1072400014460A46816802A8FEF78CF82A462146B1
:1072500002A8FEF7E2F809B030BD10B530220021D7
:107260000446FFF7E7FF012211462046FFF7E2FF41
:10727000204600220221FFF7DDFF204600220321E5
:10728000FFF7D8FF204600220421FFF7D3FF204656
:1072900042220521FFF7CEFF204600220621FFF7FC
:1072A000C9FF204600220721FFF7C4FF20465022D5
:1072B0000821FFF7BFFF204600220921FFF7BAFF90
:1072C000204600220A21FFF7B5FF204600220B21AD
:1072D000FFF7B0FF204620220C21FFF7ABFF20462E
:1072E00004220D21FFF7A6FF204600220E21FFF702
:1072F000A1FF204630220F21FFF79CFF20460122EC
:107300001021FFF797FF204650221121FFF792FF2F
:10731000204600221221FFF78DFF20460622BDE8FD
:1073200010401321FFF786BF002210B51146044616
:10733000FFF780FF204600220121FFF77BFF204658
:1073400000220221FFF776FF204640220321FFF7AB
:1073500071FF204602220421FFF76CFF2046002225
:107360000521FFF767FF204610220621FFF762FF85
:10737000204603220721FFF75DFF20465022082107
:10738000FFF758FF204610220921FFF753FF204640
:1073900003220A21FFF74EFF204600220B21FFF7B0
:1073A00049FF204600220C21FFF744FF204600221F
:1073B0000D21FFF73FFF204624220E21FFF73AFF61
:1073C000204600220F21FFF735FF20460022102122
:1073D000FFF730FF204650221121FFF72BFF2046F8
:1073E00000221221FFF726FF20460622BDE81040AA
:1073F0001321FFF71FBF38B504460D460021FFF7E4
:10740000D6FD02212046FFF716FE204635B1FFF7D4
:1074100024FF2046BDE83840FFF7E1BDFFF784FFB9
:10742000F7E72DE9F041044688B00E460121FFF749
:10743000E2FF01212046FFF7BAFD4FF00008204689
:107440000127FFF72AFE0223A1689522CDE90087D4
:1074500002A8FDF787FF0C22314602A8FDF7FBFFCB
:10746000414605462046FFF7C6FF39462046FFF74E
:107470009EFD2046FFF711FE2DB10C22B11802A887
:10748000FDF7E9FF0546284608B0BDE8F081000099
:1074900030B50F4C00230133DDB28D4204D214F815
:1074A000015B2A4492B2F6E7022903D9830704BF9D
:1074B000013292B200EBC001C31C00EBC10000EB33
:1074C0008000C3F38D0301381844104480B230BDEE
:1074D00058990B0008B5827841780078FFF7D8FFFB
:1074E00007230630B0FBF3F3C3EBC303C01AC0B2EB
:1074F00008BD08B501F0A2FA01F0ACF8012008BD02
:10750000FFF7F7BF08B501F099FA682101F0D8F844
:1075100001F094FA036802219B68984701F08EFA03
:1075200001F0D5F801F08AFA0122682101F0C1F8D2
:1075300001F084FA03685B69984700F0E000E038E6
:1075400018BF012008BD2DE9F843044601F076FA82
:10755000682101F0B5F801F071FA036803219B6816
:10756000984701F06BFA01F0B2F801F067FA0722D0
:10757000682101F09EF801F061FA03685B699847A1
:1075800000F07F09C0F30210A0EB800009EB40007F
:107590005FFA80F901F052FA03685B699847C0F31B
:1075A0000315A5EB850500EB450000F0FF0501F094
:1075B00045FA03685B699847C0F30316A6EB860695
:1075C00000EB460000F0FF0601F038FA03685B6943
:1075D0009847C0F30317A7EB870700EB470000F0BD
:1075E000FF0701F02BFA03685B69984701F026FA60
:1075F00003685B699847C0F30318A8EB880800EBA1
:10760000480000F0FF0801F019FA03685B69984729
:10761000C0F30313A3EB830300EB4300207084F853
:107620000180A770E670257184F805902046BDE8BA
:10763000F88300220260704710B5012388B000244F
:10764000CDE900437F22016802A8FDF78BFE2246A8
:10765000214602A8FDF7E1FE08B010BD30B50123B8
:1076600089B00025CDE900530C46022301680622AB
:1076700002A8FDF777FE2A46E14302A8FDF7CDFEFA
:1076800009B030BD30B5012389B00025CDE90053E4
:107690000C4602230168042202A8FDF763FE2A4675
:1076A000E14302A8FDF7B9FE09B030BD30B50729A6
:1076B000144689B04FF0000211D801F12403DAB268
:1076C00001230025CDE90053016802A8FDF74AFE19
:1076D0002A46214602A8FDF7A0FE09B030BDA1F15F
:1076E0000803032B02D801F11803E8E7A1F10C030A
:1076F000032BE5D801F12003E1E72DE9F041012456
:1077000092B00026CDE900640F4680460168154618
:107710000223042206A8FDF725FE3B46224606A9C1
:1077200002A8FDF7F6FED8F8001002231222CDE9D8
:1077300000640CA8FDF716FE3B4622460CA904A8DF
:10774000FDF7E7FEA5420AD1314602A8FDF7F3FE98
:10775000294604A8FDF7EFFE12B0BDE8F0813DB167
:10776000032DF9D1314602A8FDF7E5FE3146F0E7D9
:10777000214602A8FDF7DFFE2146EAE730B50023E7
:107780008BB00125CDE900350C462B46016811224E
:1077900004A8FDF7E7FD04232A4604A902A8FDF783
:1077A000B8FE84EA050102A8FDF7C5FE0BB030BDA6
:1077B000F0B50446006889B00E46174610B1102196
:1077C000FCF76DFC1020FCF766FC054618B13A4644
:1077D0003146FDF7EBFF256001212846FEF702F850
:1077E00018B90025284609B0F0BD2046FFF724FF50
:1077F00005460028F5D001230026CDE90063216865
:10780000102202A8FDF7AEFD02A8FDF766FE2328B0
:10781000E7D131462046FFF735FF31462046FFF7D6
:10782000ADFF31462046FFF719FFDBE708B5024BF5
:107830001B689B68019308BD6802030008B5024BF2
:107840001B68DB68019308BD6802030008B5024BA2
:107850001B689B68019308BD2C02030008B5024B0E
:107860001B68DB68019308BD2C02030008B5024BBE
:107870001B681B69019308BD2C02030008B5024B6D
:107880001B685B68019308BD1802030008B5024B32
:107890001B68DB68019308BD1802030008B5024BA2
:1078A0001B681B69019308BD1802030008B5024B51
:1078B0001B685B69019308BD1802030008B5024B01
:1078C0001B685B6C019308BD4802030008B5024BBE
:1078D0001B685B69019308BD6402030008B5024B95
:1078E0001B68DB68019308BD3C02030008B5024B2E
:1078F0001B681B69019308BD3C02030008B5024BDD
:107900001B685B69019308BD3C02030008B5024B8C
:107910001B689B69019308BD3C02030008B5024B3C
:107920001B68DB69019308BD3C02030008B5024BEC
:107930001B681B6A019308BD3C02030008B5024B9B
:107940001B689B6A019308BD3C02030008B5024B0B
:107950001B681B6C019308BD3C02030008B5024B79
:107960001B68DB68019308BD2802030008B5024BC1
:107970001B689B69019308BD2802030008B5024BF0
:107980001B68DB69019308BD2802030008B5024BA0
:107990001B681B6A019308BD2802030008B5024B4F
:1079A0001B685B6A019308BD2802030008B5024BFF
:1079B0001B689B6A019308BD2802030008B5024BAF
:1079C0001B68DB6A019308BD2802030008B5024B5F
:1079D0001B681B6B019308BD2802030008B5024B0E
:1079E0001B685B6B019308BD2802030008B5024BBE
:1079F0001B681B6C019308BD2802030008B5024BED
:107A00001B681B6D019308BD2802030008B5024BDB
:107A10001B681B68019308BD3002030008B5024BC8
:107A20001B685B69019308BD3002030008B5024B77
:107A30001B68DB69019308BD3002030008B5024BE7
:107A40001B681B6A019308BD3002030008B5024B96
:107A50001B685B6A019308BD3002030008B5024B46
:107A60001B689B6A019308BD3002030008B5024BF6
:107A70001B689B6B019308BD3002030008B5024BE5
:107A80001B68DB6B019308BD3002030008B5024B95
:107A90001B681B6C019308BD3002030008B5024B44
:107AA0001B685B6C019308BD3002030008B5024BF4
:107AB0001B681B68019308BD4C02030008B5024B0C
:107AC0001B685B68019308BD4C02030008B5024BBC
:107AD0001B681B69019308BD4C02030008B5024BEB
:107AE0001B685B69019308BD4C02030008B5024B9B
:107AF0001B689B69019308BD4C02030008B5024B4B
:107B00001B68DB69019308BD4C02030008B5024BFA
:107B10001B681B6A019308BD4C02030008B5024BA9
:107B20001B685B6A019308BD4C02030008B5024B59
:107B30001B685B68019308BD2002030008B5024B77
:107B40001B685B69019308BD2002030008B5024B66
:107B50001B68DB6A019308BD2002030008B5034BD4
:107B60001B68D3F88830019308BD00002002030091
:107B700008B5034B1B68D3F89430019308BD00008F
:107B80002002030008B5024B1B685B68019308BD27
:107B90004002030008B5024B1B689B68019308BDB7
:107BA0004002030008B5024B1B68DB68019308BD67
:107BB0004002030008B5024B1B681B69019308BD16
:107BC0004002030008B5024B1B685B69019308BDC6
:107BD0004002030008B5024B1B689B69019308BD76
:107BE0004002030008B5024B1B68DB69019308BD26
:107BF0004002030008B5024B1B681B6A019308BDD5
:107C00004002030008B5024B1B681B6B019308BDC3
:107C10004002030008B5024B1B685B6B019308BD73
:107C20004002030008B5024B1B681B6C019308BDA2
:107C30004002030008B5024B1B685B6C019308BD52
:107C40004002030008B5024B1B689B68019308BD06
:107C50004402030008B5024B1B68DB6B019308BDAF
:107C60004402030008B5024B1B681B68019308BD62
:107C70001C02030008B5024B1B685B68019308BD3A
:107C80001C02030008B5024B1B685B6A019308BD28
:107C90001C02030008B5024B1B681B6C019308BD56
:107CA0001C02030008B5024B1B685B6C019308BD06
:107CB0001C020300002240681146FFF79BBF002210
:107CC00040681146FFF7A6BF40680022FFF79ABF41
:107CD0004068002281F00101FFF784BF0023406863
:107CE0001A461946FFF776BF002340681A46194620
:107CF000FFF768BF002240681146FFF75BBF002214
:107D000040681146FFF746BF406800220221FFF796
:107D100049BF002340681A46FFF734BF024B0322D5
:107D20005A60024A1A607047C4E603206C990B003F
:107D30000021FFF7B3BE0021FFF7A8BE10B504462F
:107D400008462170FFF772FE00236360204610BDD5
:107D500013B504460078FFF7EEFF58B9207801907C
:107D60004FF6FF71FFF752FE019802B0BDE81040D8
:107D7000FFF7DEBF02B010BD0078FFF7D9BF0000EB
:107D8000400830B51860002418688842E5B206D96A
:107D90000134082C02D040081860F5E70725024B93
:107DA0005B5D137030BD00BFA0990B002DE9F0435F
:107DB00006468FB000780C46FFF7BDFF00281BDB9E
:107DC00035781422002109A801F086FB0B2300223C
:107DD00009A92846ADF82430FFF738FE9DF82D306C
:107DE00013B19DF82C5055B10027B946B84601256E
:107DF00023795DB1C3B100200FB0BDE8F083DDF899
:107E000030809DF834909DF83570F1E7002B35D126
:107E1000A368434508D18DF820908DF82170BDF8F6
:107E20002020A3899A42E6D00023A1688DF80F3064
:107E30000A9804AB0DF10F02FFF7A2FF217985B973
:107E400089B9A36843450ED38DF820908DF8217031
:107E5000BDF82020A3899A4205D1049B434502D155
:107E6000C9E70029F9D100230193637B00939DF8B2
:107E70000F20237B3078FFF701FEBCE7CDE90055EA
:107E80002B462A460121F5E708B50078FFF7C6FD25
:107E9000C0B208BD30B587B004460A9D0095007891
:107EA000FFF7DCFD3DB9207802A9FFF7DFFD9DF863
:107EB0001430DB07F7D407B030BD0000054B0222B9
:107EC0001A60054B054A9A600020C3E90000FFF7DD
:107ED0002DBE00BFD8E60320CCE603200000FFFF44
:107EE000024800230360FFF7E9BC00BFDCE6032083
:107EF000F8B506460D468F180024BD420CD03368F5
:107F000015F8011B9B6830469847031E01DB1C4493
:107F1000F3E7002C08BF1C462046F8BD08B5FEF765
:107F20005FFB08BD03689B68184738B50D210546FF
:107F3000FFF7F8FF0A2104462846FFF7F3FF204425
:107F400038BD38B50546FEF74BFB04462846FFF71B
:107F5000ECFF204438BDFFF7F4BF30B58BB00023F1
:107F6000012A8DF8243098BF0A2209AC0D46B1FBD6
:107F7000F2F101FB125303F0FF03092B94BF3033DE
:107F80003733DBB2AA4204F8013DEFD92146FEF7B0
:107F900027FB0BB030BD00002DE9F74F55EC104B1F
:107FA00006460F4610EE102A10EE100A2B46294600
:107FB00001F0C0F940B153493046FEF711FB82464B
:107FC000504603B0BDE8F08F25F000494E4B4FF00E
:107FD000FF322046494601F0ADF948B94A4B4FF00F
:107FE000FF322046494601F087F908B94749E3E7DF
:107FF000474B4FF060422046294601F091F908B105
:108000004449D9E7444B4FF060422046294601F0ED
:1080100069F90028F4D1002200232046294601F006
:1080200061F9D0B12D213046FFF77CFF05F1004307
:1080300082461D463949DFF8EC904FF0000B0020D6
:108040004FF000085FFA8BF39F4208D942464B4637
:1080500001F000F80BF1010BF4E78246EAE7224653
:108060002B4600F017FD0D46044601F0A1F98046AD
:1080700000F04CFE02460B462046294600F008FD63
:108080000A2204460D4630464146FFF766FF824409
:10809000002F95D02249DFF88C903046FEF7A0FAE9
:1080A0004FF000088244002F8AD042464B462046BB
:1080B000294600F0A5FE04460D4601F051F9B0F145
:1080C000000B1CDA2D213046FFF72CFFCBF100010D
:1080D00003460A2230460193FFF73FFF019B1844F5
:1080E0008244584600F022FE02460B4620462946AE
:1080F00000F0CEFC013F04460D46FFB2D3E75946DF
:108100000023E6E7A8990B00FFFFEF7FAC990B0077
:10811000FFFFEF41B0990B00FFFFEFC10000E03F10
:10812000B4990B000000244038B5044610EE100A44
:10813000CDB200F00DFE41EC100B29462046BDE803
:108140003840FFF729BF2DE9F04186B000AF054662
:108150000E46381D142114463B60FFF793FD13288B
:108160000ED8391D2846FEF73BFA04461EB12846B4
:10817000FFF7DBFE044420461837BD46BDE8F0811A
:1081800000F1080323F00703E846ADEB030D224698
:10819000411C3B686846FFF775FD69462846FEF7B7
:1081A0001FFA0446C546E1E7014B024A1A607047D0
:1081B000E0E60320B6990B00024B1A68024B1A60E6
:1081C000704700BF44E10320E4E603200021FFF7ED
:1081D000B5BC0000014B00229A607047E8E603201E
:1081E000014B1860704700BF48E1032008B50B4BF6
:1081F00043B100F06DF903681B699847002801DD61
:10820000AFF30080064B43B100F0D8FB03681B6955
:108210009847002801DDAFF3008008BD0000000092
:108220000000000008B5FFF7E1FFFFF73FFB014B3F
:10823000186008BD40E703200548064A064908B50E
:10824000121A01F03BF9054B054A1A6008BD00BF40
:1082500000F4032004F40320D49B0B0000F403205B
:108260001E1C279A07B5002300931A466FF077016A
:10827000FFF77EFC03B05DF804FB000007B5438800
:108280000A2B08D0502B0BD1094B1B684BB103B004
:108290005DF804EB1847FFF7E5FF03B05DF804FB5A
:1082A000002300931A466FF07701FFF761FCF4E7B3
:1082B000FCE6032010B512480021FFF7F3FC114B38
:1082C0001A68114B9A42114B0CBF012200221A70FE
:1082D00001D0FFF7B1FFFFF7D1FA044601F004F92E
:1082E0000B4B13B12046AFF3008000210848FFF785
:1082F000B1FCBDE8104007480021FFF72FBC00BFCC
:10830000E1810B0000F403201E1C279AF8E60320ED
:10831000000000007D820B00704710B51821044654
:10832000FBF7BDFE204610BDF0B5037D062B8DB0DA
:108330000E4600F104074FF0000412D000F10805CA
:1083400015F8011D0A223046FFF707FEAF4204442C
:1083500019D0002CF4D02E213046FFF7E3FD044461
:10836000EEE72F236A4639460A208DF80040FFF7D2
:10837000ADFA684601F0E6F833680246DB68694604
:1083800030469847044620460DB0F0BD10B5054B69
:108390000446112240F8043B002101F09DF82046DC
:1083A00010BD00BFE0990B000346074A10B543F823
:1083B000042B01F1100251F8044B43F8044B914295
:1083C000F9D10A781A7010BDE0990B0010B59DF82C
:1083D000084044EA032343EA024242EA01610423DB
:1083E0004160037510BD000007B5064B0360CB78F4
:1083F00000938B784A780978FFF7E8FF03B05DF8BF
:1084000004FB00BFE0990B00417470477047704750
:1084100008B50021007CFFF769FB40EAE07008BD69
:1084200008B50121007CFFF761FB40EAE07008BD60
:1084300008B5007CFFF752FB20EAE07008BD08B5E4
:10844000007CFFF743FB20EAE07008BD13B504464B
:10845000007C0191FFF742FB0028019901DC607C60
:1084600020B1207CFFF74AFB20EAE07002B010BD8B
:10847000007CFFF74BBB10B514210446FBF70FFE41
:10848000204610BD10B54FF47A730446084600210B
:10849000C4E90113044B2360012320746374114663
:1084A000FFF704FB204610BDF4990B00007C00226E
:1084B000FFF704BB007CFFF731BBFFF7FBBF10B534
:1084C00014220446002101F007F8204610BD0000E8
:1084D00010B50F4C88B003A8FFF7F1FF2178BFF368
:1084E0005B8F11F001010FD120460191FBF7D9FDFF
:1084F000019948B103AA0748FFF7C4FF2046FBF7DC
:10850000D5FD054800F0C4FF024808B010BD00BF0B
:1085100000E7032004E703200D840B00704741743B
:10852000704708B5007CFFF709FA20EAE07008BD43
:1085300008B5007CFFF7DAF920EAE07008BD08B55D
:10854000007CFFF7E3F940EAE07008BD08B5007C65
:10855000FFF7D4F940EAE07008BD007CFFF7DEB910
:1085600037B5457C04462DB1207C03B0BDE83040D2
:10857000FFF7B4B9007C0191FFF7E0F900280199F9
:10858000F2DC284603B030BD10B514210446FBF7D9
:1085900086FD204610BD000010B54FF47A730446E6
:1085A000084611460022C4E90123044B236001233D
:1085B00020746374FFF7CAF9204610BD249A0B009B
:1085C0007047F8B5064615460C468F18BC4206D0D3
:1085D000336814F8011B9B6830469847F6E7284635
:1085E000F8BD007C0022FFF7D1B9007C0021FFF725
:1085F000D5B9007C0021FFF7D9B9007C0021FFF735
:10860000DDB9007C0021FFF7E1B910B51421044663
:10861000FBF745FD204610BD38B5044615464FF41E
:108620007A730022C4E90123094B217408462360B0
:108630002946FFF7DBF9BF3008D16B69DB0705D5A9
:108640006868FFF717FBE868FFF714FB204638BDA2
:10865000549A0B000023007C1A461946FFF77EB996
:108660007FB500221423CDE90122ADF804300B7848
:108670008DF808304B680393CB680493007C0B7A29
:10868000059301A9FFF7BAF907B05DF804FB1FB520
:10869000003B8DF800104FF06401039118BF0123D7
:1086A000694601928DF80830FFF7DAFF05B05DF8F2
:1086B00004FB0123FFF7EBBF007C0022FFF756B954
:1086C000C9B2FFF7F9BF007C0022FFF757B90121BB
:1086D000FFF7F9BF002240681146FFF76BBA00228E
:1086E00040681146FFF786BA002240681146FFF73E
:1086F00091BA40680022FFF785BA4068002281F0F5
:108700000101FFF76FBA002340681A461946FFF7C8
:1087100061BA002340681A461946FFF753BA00228F
:1087200040681146FFF736BA406800220221FFF781
:1087300039BA002340681A46FFF724BA024B0422D4
:108740005A60024A1A60704718E703207C9A0B00AF
:10875000002340681A46FFF715BA4068002202213C
:10876000FFF720BA002240681146FFF713BA002233
:1087700040681146FFF71EBA002340681A461946A2
:10878000FFF720BA002340681A461946FFF722BABD
:1087900040680021FFF746BA40680021FFF74ABA57
:1087A0004068002281F00101FFF71CBA40680022F6
:1087B000FFF728BA002240681146FFF72BBA0022C3
:1087C00040681146FFF716BA2DE9F04395B01446FC
:1087D0000D460746FFF7DAFD00211C220DA8009187
:1087E00000F07AFE40230C9320466B460CAA002131
:1087F000FFF724F8044600284BD10246012168689F
:10880000FFF7D8F90221804622466868FFF7D2F9BF
:10881000009E81462146002E3BD0002939D1736845
:10882000022B03D00A2B11D0F669F4E7B8F1000F40
:10883000FAD0716906A8043107ADFFF7D5FD0FCD59
:108840003C1D0FC42B6823704146EDE7B9F1000FC2
:10885000EAD07469102201A800F03EFE06238DF8CC
:10886000143001AD04F108031834186859682A4619
:1088700003C20833A3421546F7D101A906A807ADE4
:10888000FFF792FD0FCD3C1D0FC42B6823704946A6
:10889000CAE70098FEF7CAFF384615B0BDE8F08376
:1088A000024B034A1A6000225A60704720E70320F7
:1088B000B89A0B00232813B502D9002002B010BDCE
:1088C000A0F10B03022B1AD8174C2178BFF35B8F52
:1088D00011F001010BD120460191FBF7E2FB019958
:1088E00028B11248FFF72AFA2046FBF7DFFB0F4BAF
:1088F0001878FFF7A3F80028DFD10120DEE7012870
:1089000009D800F09BF80021007CFFF767F880F0A1
:108910000100C0B2D2E709380128EED800F04EF8C5
:10892000007CFFF703F8F2E7B0E10320B4E1032095
:10893000232838B504460D460AD8FF2908D0FFF78A
:10894000B9FF28B129462046BDE83840FEF77EBF72
:1089500038BD38B504460D46FEF780FFFF2810D01D
:10896000062804D84D2323FA00F0C30709D4204673
:10897000FFF7A0FF28B129462046BDE83840FEF7A2
:1089800075BF38BD7047000038B5044614252A4627
:10899000002100F0A1FD25804025074925812846BA
:1089A000258200F06FF804496060284600F06AF8FC
:1089B000E060204638BD00BFEC9A0B0030B50E4D8C
:1089C0002978BFF35B8F11F0010487B011D12846DD
:1089D000FBF767FB68B101A8FFF7D6FF01AA2146A4
:1089E0000648FFF7D9FD2846FBF760FB044800F076
:1089F0004FFD024807B030BD28E703202CE70320D5
:108A000085890B007047000038B50A4B03600123CD
:108A1000044643610849202000F034F820256060B6
:108A20000549A560284600F02DF8C4E90305204655
:108A300038BD00BF18000100EC9A0B0030B50E4D98
:108A40002978BFF35B8F11F0010487B011D128465C
:108A5000FBF727FB68B16846FFF7D6FF6A46214659
:108A60000648FFF7D9FD2846FBF720FB044800F035
:108A70000FFD024807B030BD44E7032048E703205C
:108A8000058A0B00FBF709BB81F0004102E000BF43
:108A900083F0004330B54FEA41044FEA430594EABE
:108AA000050F08BF90EA020F1FBF54EA000C55EAF9
:108AB000020C7FEA645C7FEA655C00F0E2804FEACA
:108AC0005454D4EB5555B8BF6D420CDD2C4480EAAC
:108AD000020281EA030382EA000083EA010180EADC
:108AE000020281EA0303362D88BF30BD11F0004F2A
:108AF0004FEA01314FF4801C4CEA113102D0404260
:108B000061EB410113F0004F4FEA03334CEA13339A
:108B100002D0524263EB430394EA050F00F0A780B2
:108B2000A4F10104D5F1200E0DDB02FA0EFC22FAAD
:108B300005F2801841F1000103FA0EF2801843FAA1
:108B400005F359410EE0A5F120050EF1200E012A92
:108B500003FA0EFC28BF4CF0020C43FA05F3C018D0
:108B600051EBE37101F0004507D54FF0000EDCF149
:108B7000000C7EEB00006EEB0101B1F5801F1BD3F2
:108B8000B1F5001F0CD349085FEA30004FEA3C0CF6
:108B900004F101044FEA445212F5800F80F09A80EC
:108BA000BCF1004F08BF5FEA500C50F1000041EBF0
:108BB000045141EA050130BD5FEA4C0C404141EBF4
:108BC0000101013C28BFB1F5801FE9D291F0000FEF
:108BD00004BF01460020B1FA81F308BF2033A3F19E
:108BE0000B03B3F120020CDA0C3208DD02F1140C95
:108BF000C2F10C0201FA0CF021FA02F10CE002F1D0
:108C00001402D8BFC2F1200C01FA02F120FA0CFCC8
:108C1000DCBF41EA0C019040E41AA2BF01EB045111
:108C2000294330BD6FEA04041F3C1CDA0C340EDC0F
:108C300004F11404C4F1200220FA04F001FA02F352
:108C400040EA030021FA04F345EA030130BDC4F110
:108C50000C04C4F1200220FA02F001FA04F340EA05
:108C60000300294630BD21FA04F0294630BD94F0B6
:108C7000000F83F4801306BF81F480110134013D9D
:108C80004EE77FEA645C18BF7FEA655C29D094EA0E
:108C9000050F08BF90EA020F05D054EA000C04BF8C
:108CA0001946104630BD91EA030F1EBF0021002077
:108CB00030BD5FEA545C05D14000494128BF41F016
:108CC000004130BD14F580043CBF01F5801130BD7A
:108CD00001F0004545F0FE4141F470014FF0000005
:108CE00030BD7FEA645C1ABF194610467FEA655CB6
:108CF0001CBF0B46024650EA013406BF52EA033558
:108D000091EA030F41F4002130BD00BF90F0000F45
:108D100004BF0021704730B54FF4806404F1320481
:108D20004FF000054FF0000150E700BF90F0000F3A
:108D300004BF0021704730B54FF4806404F1320461
:108D400010F0004548BF40424FF000013EE700BF31
:108D500042004FEAE2014FEA31014FEA02701FBFC1
:108D600012F07F4393F07F4F81F06051704732F0F3
:108D70007F4208BF704793F07F4F04BF41F400214A
:108D8000704730B54FF4607401F0004521F00041A8
:108D90001CE700BF50EA010208BF704730B54FF032
:108DA00000050AE050EA010208BF704730B511F033
:108DB000004502D5404261EB41014FF4806404F16B
:108DC00032045FEA915C3FF4D8AE4FF003025FEAF1
:108DD000DC0C18BF03325FEADC0C18BF033202EB75
:108DE000DC02C2F1200300FA03FC20FA02F001FACF
:108DF00003FE40EA0E0021FA02F11444BDE600BF72
:108E000070B54FF0FF0C4CF4E06C1CEA11541DBF20
:108E10001CEA135594EA0C0F95EA0C0F00F0DEF8EB
:108E20002C4481EA030621EA4C5123EA4C5350EAD0
:108E3000013518BF52EA033541F4801143F4801321
:108E400038D0A0FB02CE4FF00005E1FB02E506F0B2
:108E50000042E0FB03E54FF00006E1FB03569CF007
:108E6000000F18BF4EF0010EA4F1FF04B6F5007F0D
:108E700064F5407404D25FEA4E0E6D4146EB06067F
:108E800042EAC62141EA55514FEAC52040EA5E5008
:108E90004FEACE2EB4F1FD0C88BFBCF5E06F1ED8B2
:108EA000BEF1004F08BF5FEA500E50F1000041EBE9
:108EB000045170BD06F0004646EA010140EA020096
:108EC00081EA0301B4EB5C04C2BFD4EB0C0541EAB8
:108ED000045170BD41F480114FF0000E013C00F3CD
:108EE000AB8014F1360FDEBF002001F0004170BDF1
:108EF000C4F10004203C35DA0C341BDC04F114040A
:108F0000C4F1200500FA05F320FA04F001FA05F295
:108F100040EA020001F0004221F0004110EBD37062
:108F200021FA04F642EB06015EEA430E08BF20EA8E
:108F3000D37070BDC4F10C04C4F1200500FA04F331
:108F400020FA05F001FA04F240EA020001F00041C3
:108F500010EBD37041F100015EEA430E08BF20EA36
:108F6000D37070BDC4F1200500FA05F24EEA020E7E
:108F700020FA04F301FA05F243EA020321FA04F0AD
:108F800001F0004121FA04F220EA020000EBD37064
:108F90005EEA430E08BF20EAD37070BD94F0000F64
:108FA0000FD101F00046400041EB010111F4801F98
:108FB00008BF013CF7D041EA060195F0000F18BF49
:108FC000704703F00046520043EB030313F4801F85
:108FD00008BF013DF7D043EA0603704794EA0C0F3F
:108FE0000CEA135518BF95EA0C0F0CD050EA410655
:108FF00018BF52EA4306D1D181EA030101F00041D2
:109000004FF0000070BD50EA410606BF10461946F9
:1090100052EA430619D094EA0C0F02D150EA013605
:1090200013D195EA0C0F05D152EA03361CBF104646
:1090300019460AD181EA030101F0004141F0FE41E5
:1090400041F470014FF0000070BD41F0FE4141F469
:10905000780170BD70B54FF0FF0C4CF4E06C1CEA69
:1090600011541DBF1CEA135594EA0C0F95EA0C0F1E
:1090700000F0A7F8A4EB050481EA030E52EA0335D9
:109080004FEA013100F088804FEA03334FF08055FA
:1090900045EA131343EA12634FEA022245EA111527
:1090A00045EA10654FEA00260EF000419D4208BFD8
:1090B000964244F1FD0404F5407402D25B084FEA85
:1090C0003202B61A65EB03055B084FEA32024FF431
:1090D00080104FF4002CB6EB020E75EB030E22BF8E
:1090E000B61A754640EA0C005B084FEA3202B6EB4E
:1090F000020E75EB030E22BFB61A754640EA5C00FD
:109100005B084FEA3202B6EB020E75EB030E22BF8C
:10911000B61A754640EA9C005B084FEA3202B6EB8D
:10912000020E75EB030E22BFB61A754640EADC004C
:1091300055EA060E18D04FEA051545EA16754FEAAE
:1091400006164FEAC30343EA52734FEAC2025FEACC
:109150001C1CC0D111F4801F0BD141EA00014FF05B
:1091600000004FF0004CB6E711F4801F04BF01432C
:109170000020B4F1FD0C88BFBCF5E06F3FF6AFAE48
:10918000B5EB030C04BFB6EB020C5FEA500C50F1D8
:10919000000041EB045170BD0EF0004E4EEA11315B
:1091A00014EB5C04C2BFD4EB0C0541EA045170BD62
:1091B00041F480114FF0000E013C90E645EA060EA6
:1091C0008DE60CEA135594EA0C0F08BF95EA0C0FD4
:1091D0003FF43BAF94EA0C0F0AD150EA01347FF41C
:1091E00034AF95EA0C0F7FF425AF104619462CE7F3
:1091F00095EA0C0F06D152EA03353FF4FDAE104656
:10920000194622E750EA410618BF52EA43067FF4A6
:10921000C5AE50EA41047FF40DAF52EA43057FF436
:10922000EBAE12E74FF0FF3C06E000BF4FF0010C41
:1092300002E000BF4FF0010C4DF804CD4FEA410CA5
:109240007FEA6C5C4FEA430C18BF7FEA6C5C1BD072
:1092500001B050EA410C0CBF52EA430C91EA030FF3
:1092600002BF90EA020F0020704710F1000F91EA50
:10927000030F58BF994208BF90422CBFD8176FEA1E
:10928000E37040F0010070474FEA410C7FEA6C5CEC
:1092900002D150EA013C07D14FEA430C7FEA6C5CF3
:1092A000D6D152EA033CD3D05DF8040B704700BF1F
:1092B0008446104662468C461946634600E000BF6D
:1092C00001B5FFF7B7FF002848BF10F1000F01BD3F
:1092D0004DF808EDFFF7F4FF0CBF012000205DF80A
:1092E00008FB00BF4DF808EDFFF7EAFF34BF01208F
:1092F00000205DF808FB00BF4DF808EDFFF7E0FF28
:1093000094BF012000205DF808FB00BF4DF808ED78
:10931000FFF7CEFF94BF012000205DF808FB00BFDF
:109320004DF808EDFFF7C4FF34BF012000205DF8C1
:1093300008FB00BF4FEA410C7FEA6C5C02D150EAA7
:10934000013C0AD14FEA430C7FEA6C5C02D152EA3D
:10935000033C02D14FF0000070474FF0010070470E
:109360004FEA410212F5001215D211D56FF478734D
:10937000B3EB625212D94FEAC12343F0004343EAF0
:10938000505311F0004F23FA02F018BF40427047CB
:109390004FF00000704750EA013005D111F0004055
:1093A00008BF6FF0004070474FF00000704700BFEB
:1093B0004A0011D212F5001211D20DD56FF4787354
:1093C000B3EB62520ED44FEAC12343F0004343EAA9
:1093D000505323FA02F070474FF00000704750EAF4
:1093E000013002D14FF0FF3070474FF0000070475E
:1093F0004FEA4102B2F1E04324BFB3F5001CDCF1B7
:10940000FE5C0DD901F0004C4FEAC0024CEA5070EE
:10941000B2F1004F40EB830008BF20F0010070471D
:1094200011F0804F21D113F13872BCBF01F0004020
:10943000704741F480114FEA5252C2F11802C2F152
:10944000200C10FA0CF320FA02F018BF40F00100D3
:109450004FEAC1234FEAD32303FA0CFC40EA0C0085
:1094600023FA02F34FEA4303CCE77FEA625307D1C2
:1094700050EA01331EBF4FF0FE4040F440007047F9
:1094800001F0004040F0FE4040F40000704700BF93
:10949000002301461A46184600F05CB810B50139A1
:1094A0000244904201D1002005E0037811F8014FF9
:1094B000A34201D0181B10BD0130F2E70A449142CB
:1094C00000F1FF3300D1704710B511F8014B03F8DC
:1094D000014F9142F9D110BD02440346934200D19D
:1094E000704703F8011BF9E738B5104B1D68AB6BEB
:1094F0000446B3B91820FEF7B5FB0246A86320B9AD
:109500000B4B0C484221FEF7C5FB0B490B4BC0E946
:1095100000130B4B83600B23838100210120C2E9E0
:109520000401AB6B00221C615A6138BD48E1032085
:10953000ED9A0B00049B0B000E33CDAB34126DE69D
:10954000ECDE0500034613F8012B002AFBD1181AA4
:10955000013870472DE9F843DFF8B8800646D8F89F
:1095600000001F460D46914600F056F8254B1C683A
:1095700034B9254C1C60254B13B11B68C4F88830E6
:1095800063681F2B07DDD8F8000000F047F84FF0A4
:10959000FF30BDE8F8834EB3D4F8880088B91C4B7F
:1095A00023B9D8F8000000F038F8F0E74FF48470E1
:1095B000FEF758FB0028F4D00023C0E94033C4F87C
:1095C0008800636840F8239001229A4000EB8301F1
:1095D000D0F800311343C0F80031022EC1F880707A
:1095E00002BFD0F804311343C0F804316368D8F8DF
:1095F00000005A1C0233626044F8235000F00EF859
:109600000020C6E7E8E703205CE703200000000035
:10961000657C0B00ACE10320704770477047000089
:1096200021400B005D400B0085400B0089400B0082
:109630000000000064656661756C7420004D534243
:10964000004C5342003C53504953657474696E6733
:10965000732064656661756C743E003C53504953D9
:10966000657474696E6773202573257520257320D2
:109670004D4F444525753E00436F756C64206E6FF9
:10968000742066696E642041533733343100436F70
:10969000756C646E27742066696E642052544300B2
:1096A000525443206973204E4F542072756E6E6978
:1096B0006E672100415739353233206E6F74206652
:1096C0006F756E643F20436865636B2077697269CC
:1096D0006E67210041573935323320666F756E64ED
:1096E0002100646174612E637376004153544550C8
:1096F0003A004154494D453A004741494E202863BC
:109700006865636B207461626C65293A004C45445E
:1097100020496E74656E736974792C446174652C8C
:1097200054696D652C547970652C4631202842614E
:10973000736963292C463220284261736963292C9E
:10974000463320284261736963292C46342028421D
:1097500061736963292C4635202842617369632946
:109760002C463620284261736963292C463720280D
:109770004261736963292C4638202842617369630A
:10978000292C436C65617220284261736963292C1E
:109790004E495220284261736963292C54797065BF
:1097A0002C46312028526177292C463220285261DC
:1097B00077292C46332028526177292C46342028DB
:1097C000526177292C46352028526177292C46365C
:1097D0002028526177292C46372028526177292C7E
:1097E00046382028526177292C436C656172202805
:1097F000526177292C4E4952202852617729004521
:1098000072726F72206F70656E696E672066696C28
:109810006521004C454420494E54454E5349545906
:109820003A002028002920004572726F722072656C
:109830006164696E6720616C6C206368616E6E653F
:109840006C7321004631203431356E6D203A200092
:109850002020005261772056616C7565203A200007
:109860004632203434356E6D203A200046332034A1
:1098700038306E6D203A20004634203531356E6D1B
:10988000203A20004635203535356E6D203A2000CF
:109890004636203539306E6D203A20004637203666
:1098A00033306E6D203A20004638203638306E6DE9
:1098B000203A2000436C656172202020203A20006D
:1098C0004E49522020202020203A20004241534976
:1098D0004320434F554E5453005241572056414C5C
:1098E000554553000000000000000000C5410B007A
:1098F000B3400B00D1400B0000000000000000004E
:10990000CF400B00DF400B001F410B0019410B0043
:10991000B5400B00F9400B00F3400B00ED400B008D
:109920000000003F0000803F000000400000804039
:109930000000004100008041000000420000804221
:1099400000000043000080430000004400000000CD
:1099500000000000796F0B001F1C1F1E1F1E1F1F21
:109960001E1F1E1F0000000000000000137D0B00E2
:10997000097D0B00FF7C0B00F57C0B00E97C0B00E4
:10998000DD7C0B0091870B0099870B00D17C0B00CD
:10999000C97C0B00BF7C0B00B57C0B00C9870B009A
:1099A00000081018202830386E616E00696E66005D
:1099B0006F7666002E006170700025592D256D2D83
:1099C00025645425483A254D3A2553257A0061737C
:1099D0006374696D65000000000000000000000075
:1099E00029830B0019830B001B830B000000000070
:1099F000000000000F840B0077840B004D840B00E7
:109A0000F17E0B003F840B0011840B0021840B00BE
:109A100071840B0031840B0009840B0000000000EE
:109A2000000000001D850B0089850B0061850B007F
:109A3000F17E0B0031850B004D850B003F850B003F
:109A40005B850B001F850B0023850B0000000000C9
:109A500000000000C1850B000B860B00E3850B00A6
:109A6000C3850B00EB850B00F3850B00FB850B001A
:109A700003860B00000000000000000033870B008D
:109A800029870B001F870B00D5860B0013870B005F
:109A900007870B0091870B0099870B00FB860B0053
:109AA000F3860B00E9860B00DF860B00C9870B00ED
:109AB000000000000000000051870B005B870B00D6
:109AC00065870B006F870B0079870B0085870B007C
:109AD00091870B0099870B00A1870B00AD870B00C6
